{
  "_format": "hh-sol-artifact-1",
  "contractName": "AgriLot",
  "sourceName": "contracts/AgriLot.sol",
  "abi": [
    {
      "anonymous": false,
      "inputs": [
        {
          "indexed": true,
          "internalType": "uint256",
          "name": "lotId",
          "type": "uint256"
        },
        {
          "indexed": true,
          "internalType": "address",
          "name": "farmer",
          "type": "address"
        },
        {
          "indexed": false,
          "internalType": "string",
          "name": "crop",
          "type": "string"
        },
        {
          "indexed": false,
          "internalType": "uint256",
          "name": "quantity",
          "type": "uint256"
        },
        {
          "indexed": false,
          "internalType": "uint256",
          "name": "basePrice",
          "type": "uint256"
        }
      ],
      "name": "LotCreated",
      "type": "event"
    },
    {
      "anonymous": false,
      "inputs": [
        {
          "indexed": true,
          "internalType": "uint256",
          "name": "lotId",
          "type": "uint256"
        },
        {
          "indexed": false,
          "internalType": "uint256",
          "name": "newPrice",
          "type": "uint256"
        }
      ],
      "name": "LotTransferred",
      "type": "event"
    },
    {
      "anonymous": false,
      "inputs": [
        {
          "indexed": true,
          "internalType": "uint256",
          "name": "lotId",
          "type": "uint256"
        },
        {
          "indexed": false,
          "internalType": "bool",
          "name": "passed",
          "type": "bool"
        }
      ],
      "name": "QualityUpdated",
      "type": "event"
    },
    {
      "inputs": [
        {
          "internalType": "string",
          "name": "_crop",
          "type": "string"
        },
        {
          "internalType": "uint256",
          "name": "_quantity",
          "type": "uint256"
        },
        {
          "internalType": "uint256",
          "name": "_basePrice",
          "type": "uint256"
        }
      ],
      "name": "createLot",
      "outputs": [],
      "stateMutability": "nonpayable",
      "type": "function"
    },
    {
      "inputs": [
        {
          "internalType": "uint256",
          "name": "_lotId",
          "type": "uint256"
        }
      ],
      "name": "getLot",
      "outputs": [
        {
          "components": [
            {
              "internalType": "address",
              "name": "farmer",
              "type": "address"
            },
            {
              "internalType": "string",
              "name": "crop",
              "type": "string"
            },
            {
              "internalType": "uint256",
              "name": "quantity",
              "type": "uint256"
            },
            {
              "internalType": "uint256",
              "name": "basePrice",
              "type": "uint256"
            },
            {
              "internalType": "uint256",
              "name": "currentPrice",
              "type": "uint256"
            },
            {
              "internalType": "bool",
              "name": "qualityChecked",
              "type": "bool"
            },
            {
              "internalType": "bool",
              "name": "qualityPassed",
              "type": "bool"
            }
          ],
          "internalType": "struct AgriLot.Lot",
          "name": "",
          "type": "tuple"
        }
      ],
      "stateMutability": "view",
      "type": "function"
    },
    {
      "inputs": [
        {
          "internalType": "uint256",
          "name": "",
          "type": "uint256"
        }
      ],
      "name": "lots",
      "outputs": [
        {
          "internalType": "address",
          "name": "farmer",
          "type": "address"
        },
        {
          "internalType": "string",
          "name": "crop",
          "type": "string"
        },
        {
          "internalType": "uint256",
          "name": "quantity",
          "type": "uint256"
        },
        {
          "internalType": "uint256",
          "name": "basePrice",
          "type": "uint256"
        },
        {
          "internalType": "uint256",
          "name": "currentPrice",
          "type": "uint256"
        },
        {
          "internalType": "bool",
          "name": "qualityChecked",
          "type": "bool"
        },
        {
          "internalType": "bool",
          "name": "qualityPassed",
          "type": "bool"
        }
      ],
      "stateMutability": "view",
      "type": "function"
    },
    {
      "inputs": [],
      "name": "nextLotId",
      "outputs": [
        {
          "internalType": "uint256",
          "name": "",
          "type": "uint256"
        }
      ],
      "stateMutability": "view",
      "type": "function"
    },
    {
      "inputs": [
        {
          "internalType": "uint256",
          "name": "_lotId",
          "type": "uint256"
        },
        {
          "internalType": "uint256",
          "name": "_newPrice",
          "type": "uint256"
        }
      ],
      "name": "transferLot",
      "outputs": [],
      "stateMutability": "nonpayable",
      "type": "function"
    },
    {
      "inputs": [
        {
          "internalType": "uint256",
          "name": "_lotId",
          "type": "uint256"
        },
        {
          "internalType": "bool",
          "name": "_passed",
          "type": "bool"
        }
      ],
      "name": "updateQuality",
      "outputs": [],
      "stateMutability": "nonpayable",
      "type": "function"
    }
  ],
  "bytecode": "0x608060405234801561001057600080fd5b50611127806100206000396000f3fe608060405234801561001057600080fd5b50600436106100625760003560e01c8063ab995d1214610067578063cf4c107f14610097578063d666f29e146100b3578063e19e9c06146100d1578063ecde3b05146100ed578063f1648e8414610109575b600080fd5b610081600480360381019061007c9190610799565b61013f565b60405161008e919061095d565b60405180910390f35b6100b160048036038101906100ac91906109ab565b6102eb565b005b6100bb6103bb565b6040516100c891906109fa565b60405180910390f35b6100eb60048036038101906100e69190610a15565b6103c1565b005b61010760048036038101906101029190610b8a565b610461565b005b610123600480360381019061011e9190610799565b6105f4565b6040516101369796959493929190610c61565b60405180910390f35b6101476106f8565b600154821061018b576040517f08c379a000000000000000000000000000000000000000000000000000000000815260040161018290610d23565b60405180910390fd5b6000808381526020019081526020016000206040518060e00160405290816000820160009054906101000a900473ffffffffffffffffffffffffffffffffffffffff1673ffffffffffffffffffffffffffffffffffffffff1673ffffffffffffffffffffffffffffffffffffffff16815260200160018201805461020e90610d72565b80601f016020809104026020016040519081016040528092919081815260200182805461023a90610d72565b80156102875780601f1061025c57610100808354040283529160200191610287565b820191906000526020600020905b81548152906001019060200180831161026a57829003601f168201915b505050505081526020016002820154815260200160038201548152602001600482015481526020016005820160009054906101000a900460ff161515151581526020016005820160019054906101000a900460ff1615151515815250509050919050565b600154821061032f576040517f08c379a000000000000000000000000000000000000000000000000000000000815260040161032690610d23565b60405180910390fd5b6000806000848152602001908152602001600020905060018160050160006101000a81548160ff021916908315150217905550818160050160016101000a81548160ff021916908315150217905550827f251795ad2f13f5ed4fc6c759440d8860d90876ed12f51500ea5ce7f75281249f836040516103ae9190610da3565b60405180910390a2505050565b60015481565b6001548210610405576040517f08c379a00000000000000000000000000000000000000000000000000000000081526004016103fc90610d23565b60405180910390fd5b60008060008481526020019081526020016000209050818160040181905550827fc887129eaf964969e7613de829ef17d4882712f90fa278b2b08aaa3df7a45c118360405161045491906109fa565b60405180910390a2505050565b6040518060e001604052803373ffffffffffffffffffffffffffffffffffffffff16815260200184815260200183815260200182815260200182815260200160001515815260200160001515815250600080600154815260200190815260200160002060008201518160000160006101000a81548173ffffffffffffffffffffffffffffffffffffffff021916908373ffffffffffffffffffffffffffffffffffffffff16021790555060208201518160010190816105209190610f6a565b5060408201518160020155606082015181600301556080820151816004015560a08201518160050160006101000a81548160ff02191690831515021790555060c08201518160050160016101000a81548160ff0219169083151502179055509050503373ffffffffffffffffffffffffffffffffffffffff166001547fc4e2f680e97b9a4ed807882bc0cb94a7800faf543dde5ada6579cf03ae39fd928585856040516105cf9392919061103c565b60405180910390a3600160008154809291906105ea906110a9565b9190505550505050565b60006020528060005260406000206000915090508060000160009054906101000a900473ffffffffffffffffffffffffffffffffffffffff169080600101805461063d90610d72565b80601f016020809104026020016040519081016040528092919081815260200182805461066990610d72565b80156106b65780601f1061068b576101008083540402835291602001916106b6565b820191906000526020600020905b81548152906001019060200180831161069957829003601f168201915b5050505050908060020154908060030154908060040154908060050160009054906101000a900460ff16908060050160019054906101000a900460ff16905087565b6040518060e00160405280600073ffffffffffffffffffffffffffffffffffffffff168152602001606081526020016000815260200160008152602001600081526020016000151581526020016000151581525090565b6000604051905090565b600080fd5b600080fd5b6000819050919050565b61077681610763565b811461078157600080fd5b50565b6000813590506107938161076d565b92915050565b6000602082840312156107af576107ae610759565b5b60006107bd84828501610784565b91505092915050565b600073ffffffffffffffffffffffffffffffffffffffff82169050919050565b60006107f1826107c6565b9050919050565b610801816107e6565b82525050565b600081519050919050565b600082825260208201905092915050565b60005b83811015610841578082015181840152602081019050610826565b60008484015250505050565b6000601f19601f8301169050919050565b600061086982610807565b6108738185610812565b9350610883818560208601610823565b61088c8161084d565b840191505092915050565b6108a081610763565b82525050565b60008115159050919050565b6108bb816108a6565b82525050565b600060e0830160008301516108d960008601826107f8565b50602083015184820360208601526108f1828261085e565b91505060408301516109066040860182610897565b5060608301516109196060860182610897565b50608083015161092c6080860182610897565b5060a083015161093f60a08601826108b2565b5060c083015161095260c08601826108b2565b508091505092915050565b6000602082019050818103600083015261097781846108c1565b905092915050565b610988816108a6565b811461099357600080fd5b50565b6000813590506109a58161097f565b92915050565b600080604083850312156109c2576109c1610759565b5b60006109d085828601610784565b92505060206109e185828601610996565b9150509250929050565b6109f481610763565b82525050565b6000602082019050610a0f60008301846109eb565b92915050565b60008060408385031215610a2c57610a2b610759565b5b6000610a3a85828601610784565b9250506020610a4b85828601610784565b9150509250929050565b600080fd5b600080fd5b7f4e487b7100000000000000000000000000000000000000000000000000000000600052604160045260246000fd5b610a978261084d565b810181811067ffffffffffffffff82111715610ab657610ab5610a5f565b5b80604052505050565b6000610ac961074f565b9050610ad58282610a8e565b919050565b600067ffffffffffffffff821115610af557610af4610a5f565b5b610afe8261084d565b9050602081019050919050565b82818337600083830152505050565b6000610b2d610b2884610ada565b610abf565b905082815260208101848484011115610b4957610b48610a5a565b5b610b54848285610b0b565b509392505050565b600082601f830112610b7157610b70610a55565b5b8135610b81848260208601610b1a565b91505092915050565b600080600060608486031215610ba357610ba2610759565b5b600084013567ffffffffffffffff811115610bc157610bc061075e565b5b610bcd86828701610b5c565b9350506020610bde86828701610784565b9250506040610bef86828701610784565b9150509250925092565b610c02816107e6565b82525050565b600082825260208201905092915050565b6000610c2482610807565b610c2e8185610c08565b9350610c3e818560208601610823565b610c478161084d565b840191505092915050565b610c5b816108a6565b82525050565b600060e082019050610c76600083018a610bf9565b8181036020830152610c888189610c19565b9050610c9760408301886109eb565b610ca460608301876109eb565b610cb160808301866109eb565b610cbe60a0830185610c52565b610ccb60c0830184610c52565b98975050505050505050565b7f4c6f7420646f6573206e6f742065786973740000000000000000000000000000600082015250565b6000610d0d601283610c08565b9150610d1882610cd7565b602082019050919050565b60006020820190508181036000830152610d3c81610d00565b9050919050565b7f4e487b7100000000000000000000000000000000000000000000000000000000600052602260045260246000fd5b60006002820490506001821680610d8a57607f821691505b602082108103610d9d57610d9c610d43565b5b50919050565b6000602082019050610db86000830184610c52565b92915050565b60008190508160005260206000209050919050565b60006020601f8301049050919050565b600082821b905092915050565b600060088302610e207fffffffffffffffffffffffffffffffffffffffffffffffffffffffffffffffff82610de3565b610e2a8683610de3565b95508019841693508086168417925050509392505050565b6000819050919050565b6000610e67610e62610e5d84610763565b610e42565b610763565b9050919050565b6000819050919050565b610e8183610e4c565b610e95610e8d82610e6e565b848454610df0565b825550505050565b600090565b610eaa610e9d565b610eb5818484610e78565b505050565b5b81811015610ed957610ece600082610ea2565b600181019050610ebb565b5050565b601f821115610f1e57610eef81610dbe565b610ef884610dd3565b81016020851015610f07578190505b610f1b610f1385610dd3565b830182610eba565b50505b505050565b600082821c905092915050565b6000610f4160001984600802610f23565b1980831691505092915050565b6000610f5a8383610f30565b9150826002028217905092915050565b610f7382610807565b67ffffffffffffffff811115610f8c57610f8b610a5f565b5b610f968254610d72565b610fa1828285610edd565b600060209050601f831160018114610fd45760008415610fc2578287015190505b610fcc8582610f4e565b865550611034565b601f198416610fe286610dbe565b60005b8281101561100a57848901518255600182019150602085019450602081019050610fe5565b868310156110275784890151611023601f891682610f30565b8355505b6001600288020188555050505b505050505050565b600060608201905081810360008301526110568186610c19565b905061106560208301856109eb565b61107260408301846109eb565b949350505050565b7f4e487b7100000000000000000000000000000000000000000000000000000000600052601160045260246000fd5b60006110b482610763565b91507fffffffffffffffffffffffffffffffffffffffffffffffffffffffffffffffff82036110e6576110e561107a565b5b60018201905091905056fea2646970667358221220ff36301c3fbf989d68254cde9b401fa80cdf1eb265596a59a2908d5999d1cef664736f6c63430008130033",
  "linkReferences": {},
  "deployedLinkReferences": {}
}