{"contracts/Supplychain.sol":{"SupplyChain":{"abi":[{"inputs":[],"stateMutability":"nonpayable","type":"constructor"},{"anonymous":false,"inputs":[{"indexed":true,"internalType":"uint256","name":"distributorBatchId","type":"uint256"},{"indexed":true,"internalType":"uint256","name":"originBatchId","type":"uint256"},{"indexed":true,"internalType":"address","name":"distributor","type":"address"},{"indexed":false,"internalType":"uint256","name":"qtyKg","type":"uint256"},{"indexed":false,"internalType":"uint256","name":"pricePerKg","type":"uint256"},{"indexed":false,"internalType":"uint256","name":"when","type":"uint256"}],"name":"BatchPurchased","type":"event"},{"anonymous":false,"inputs":[{"indexed":true,"internalType":"uint256","name":"requestId","type":"uint256"},{"indexed":true,"internalType":"uint256","name":"packId","type":"uint256"},{"indexed":true,"internalType":"address","name":"requester","type":"address"},{"indexed":false,"internalType":"uint256","name":"qtyKg","type":"uint256"},{"indexed":false,"internalType":"bool","name":"wantsRetailer","type":"bool"},{"indexed":false,"internalType":"uint256","name":"amountPaid","type":"uint256"},{"indexed":false,"internalType":"uint256","name":"when","type":"uint256"}],"name":"BuyRequestCreated","type":"event"},{"anonymous":false,"inputs":[{"indexed":true,"internalType":"uint256","name":"requestId","type":"uint256"},{"indexed":true,"internalType":"uint256","name":"packId","type":"uint256"},{"indexed":true,"internalType":"address","name":"requester","type":"address"},{"indexed":false,"internalType":"bool","name":"accepted","type":"bool"},{"indexed":false,"internalType":"uint256","name":"when","type":"uint256"}],"name":"BuyRequestResolved","type":"event"},{"anonymous":false,"inputs":[{"indexed":true,"internalType":"address","name":"previousOwner","type":"address"},{"indexed":true,"internalType":"address","name":"newOwner","type":"address"}],"name":"OwnershipTransferred","type":"event"},{"anonymous":false,"inputs":[{"indexed":true,"internalType":"uint256","name":"packId","type":"uint256"},{"indexed":true,"internalType":"uint256","name":"distributorBatchId","type":"uint256"},{"indexed":true,"internalType":"address","name":"distributor","type":"address"},{"indexed":false,"internalType":"uint256","name":"qtyKg","type":"uint256"},{"indexed":false,"internalType":"uint256","name":"pricePerKg","type":"uint256"},{"indexed":false,"internalType":"uint256","name":"when","type":"uint256"}],"name":"PackCreated","type":"event"},{"anonymous":false,"inputs":[{"indexed":true,"internalType":"uint256","name":"packId","type":"uint256"},{"indexed":false,"internalType":"uint8","name":"visibility","type":"uint8"},{"indexed":false,"internalType":"address","name":"privateAddress","type":"address"},{"indexed":false,"internalType":"uint256","name":"when","type":"uint256"}],"name":"PackListed","type":"event"},{"anonymous":false,"inputs":[{"indexed":true,"internalType":"uint256","name":"batchId","type":"uint256"},{"indexed":true,"internalType":"address","name":"farmer","type":"address"},{"indexed":false,"internalType":"uint8","name":"visibility","type":"uint8"},{"indexed":false,"internalType":"uint256","name":"when","type":"uint256"}],"name":"ProductAdded","type":"event"},{"anonymous":false,"inputs":[{"indexed":true,"internalType":"uint256","name":"batchId","type":"uint256"},{"indexed":true,"internalType":"address","name":"farmer","type":"address"},{"indexed":false,"internalType":"uint256","name":"when","type":"uint256"}],"name":"ProductUpdated","type":"event"},{"anonymous":false,"inputs":[{"indexed":true,"internalType":"uint256","name":"unitId","type":"uint256"},{"indexed":true,"internalType":"uint256","name":"parentPackId","type":"uint256"},{"indexed":true,"internalType":"address","name":"retailer","type":"address"},{"indexed":false,"internalType":"uint256","name":"qtyKg","type":"uint256"},{"indexed":false,"internalType":"uint256","name":"pricePerKg","type":"uint256"},{"indexed":false,"internalType":"uint256","name":"when","type":"uint256"}],"name":"RetailUnitCreated","type":"event"},{"anonymous":false,"inputs":[{"indexed":true,"internalType":"address","name":"user","type":"address"},{"indexed":true,"internalType":"uint8","name":"role","type":"uint8"},{"indexed":false,"internalType":"uint256","name":"when","type":"uint256"}],"name":"RoleApproved","type":"event"},{"anonymous":false,"inputs":[{"indexed":true,"internalType":"address","name":"user","type":"address"},{"indexed":true,"internalType":"uint8","name":"role","type":"uint8"},{"indexed":false,"internalType":"uint256","name":"when","type":"uint256"}],"name":"RoleRequested","type":"event"},{"anonymous":false,"inputs":[{"indexed":true,"internalType":"address","name":"user","type":"address"},{"indexed":true,"internalType":"uint8","name":"previousRole","type":"uint8"},{"indexed":false,"internalType":"uint256","name":"when","type":"uint256"}],"name":"RoleRevoked","type":"event"},{"anonymous":false,"inputs":[{"indexed":true,"internalType":"uint256","name":"unitId","type":"uint256"},{"indexed":false,"internalType":"uint8","name":"visibility","type":"uint8"},{"indexed":false,"internalType":"uint256","name":"when","type":"uint256"}],"name":"UnitListed","type":"event"},{"anonymous":false,"inputs":[{"indexed":true,"internalType":"uint256","name":"purchaseId","type":"uint256"},{"indexed":true,"internalType":"uint256","name":"unitId","type":"uint256"},{"indexed":true,"internalType":"address","name":"buyer","type":"address"},{"indexed":false,"internalType":"address","name":"seller","type":"address"},{"indexed":false,"internalType":"uint256","name":"qtyKg","type":"uint256"},{"indexed":false,"internalType":"uint256","name":"pricePerKg","type":"uint256"},{"indexed":false,"internalType":"uint256","name":"when","type":"uint256"}],"name":"UnitPurchased","type":"event"},{"anonymous":false,"inputs":[{"indexed":true,"internalType":"address","name":"user","type":"address"},{"indexed":false,"internalType":"uint256","name":"amount","type":"uint256"},{"indexed":false,"internalType":"uint256","name":"when","type":"uint256"}],"name":"Withdrawn","type":"event"},{"inputs":[{"internalType":"string","name":"cropName","type":"string"},{"internalType":"string","name":"cropPeriod","type":"string"},{"internalType":"uint256","name":"daysToHarvest","type":"uint256"},{"internalType":"uint256","name":"quantityKg","type":"uint256"},{"internalType":"uint256","name":"pricePerKg","type":"uint256"},{"internalType":"string","name":"location","type":"string"},{"internalType":"uint8","name":"visibility","type":"uint8"},{"internalType":"string","name":"ipfsHash","type":"string"}],"name":"addProduct","outputs":[],"stateMutability":"nonpayable","type":"function"},{"inputs":[{"internalType":"uint256","name":"requestId","type":"uint256"},{"internalType":"bool","name":"accept","type":"bool"}],"name":"approveBuyRequest","outputs":[],"stateMutability":"nonpayable","type":"function"},{"inputs":[{"internalType":"address","name":"user","type":"address"},{"internalType":"uint8","name":"role","type":"uint8"}],"name":"approveRole","outputs":[],"stateMutability":"nonpayable","type":"function"},{"inputs":[{"internalType":"uint256","name":"farmerBatchId","type":"uint256"},{"internalType":"uint256","name":"qtyKg","type":"uint256"}],"name":"buyFarmerBatch","outputs":[],"stateMutability":"payable","type":"function"},{"inputs":[{"internalType":"uint256","name":"","type":"uint256"}],"name":"buyRequests","outputs":[{"internalType":"uint256","name":"requestId","type":"uint256"},{"internalType":"uint256","name":"packId","type":"uint256"},{"internalType":"address","name":"requester","type":"address"},{"internalType":"uint256","name":"qtyKg","type":"uint256"},{"internalType":"bool","name":"wantsRetailer","type":"bool"},{"internalType":"uint256","name":"amountPaid","type":"uint256"},{"internalType":"bool","name":"resolved","type":"bool"},{"internalType":"bool","name":"accepted","type":"bool"},{"internalType":"uint256","name":"createdAt","type":"uint256"}],"stateMutability":"view","type":"function"},{"inputs":[{"internalType":"uint256","name":"unitId","type":"uint256"},{"internalType":"uint256","name":"qtyKg","type":"uint256"}],"name":"buyRetailUnit","outputs":[],"stateMutability":"payable","type":"function"},{"inputs":[{"internalType":"uint256","name":"packId","type":"uint256"},{"internalType":"uint256","name":"qtyKg","type":"uint256"},{"internalType":"bool","name":"wantsRetailer","type":"bool"}],"name":"createBuyRequest","outputs":[],"stateMutability":"payable","type":"function"},{"inputs":[{"internalType":"uint256","name":"","type":"uint256"}],"name":"distributorBatches","outputs":[{"internalType":"uint256","name":"batchId","type":"uint256"},{"internalType":"uint256","name":"originBatchId","type":"uint256"},{"internalType":"address","name":"distributor","type":"address"},{"internalType":"uint256","name":"quantityKg","type":"uint256"},{"internalType":"uint256","name":"purchasePricePerKg","type":"uint256"},{"internalType":"uint256","name":"listedPricePerKg","type":"uint256"},{"internalType":"enum SupplyChain.Visibility","name":"visibility","type":"uint8"},{"internalType":"uint256","name":"createdAt","type":"uint256"},{"internalType":"bool","name":"active","type":"bool"}],"stateMutability":"view","type":"function"},{"inputs":[{"internalType":"uint256","name":"","type":"uint256"}],"name":"farmerProducts","outputs":[{"internalType":"uint256","name":"batchId","type":"uint256"},{"internalType":"address","name":"farmer","type":"address"},{"internalType":"string","name":"cropName","type":"string"},{"internalType":"string","name":"cropPeriod","type":"string"},{"internalType":"uint256","name":"daysToHarvest","type":"uint256"},{"internalType":"uint256","name":"quantityKg","type":"uint256"},{"internalType":"uint256","name":"pricePerKg","type":"uint256"},{"internalType":"string","name":"location","type":"string"},{"internalType":"enum SupplyChain.Visibility","name":"visibility","type":"uint8"},{"internalType":"string","name":"ipfsHash","type":"string"},{"internalType":"uint256","name":"createdAt","type":"uint256"},{"internalType":"bool","name":"active","type":"bool"}],"stateMutability":"view","type":"function"},{"inputs":[],"name":"getAllUsers","outputs":[{"internalType":"address[]","name":"","type":"address[]"},{"components":[{"internalType":"enum SupplyChain.Role","name":"role","type":"uint8"},{"internalType":"bool","name":"requested","type":"bool"},{"internalType":"string","name":"idHash","type":"string"},{"internalType":"string","name":"meta","type":"string"},{"internalType":"uint256","name":"appliedAt","type":"uint256"},{"internalType":"bool","name":"exists","type":"bool"}],"internalType":"struct SupplyChain.UserInfo[]","name":"","type":"tuple[]"}],"stateMutability":"view","type":"function"},{"inputs":[{"internalType":"uint256","name":"farmerBatchId","type":"uint256"}],"name":"getBatchTrace","outputs":[{"components":[{"internalType":"uint256","name":"batchId","type":"uint256"},{"internalType":"address","name":"farmer","type":"address"},{"internalType":"string","name":"cropName","type":"string"},{"internalType":"string","name":"cropPeriod","type":"string"},{"internalType":"uint256","name":"daysToHarvest","type":"uint256"},{"internalType":"uint256","name":"quantityKg","type":"uint256"},{"internalType":"uint256","name":"pricePerKg","type":"uint256"},{"internalType":"string","name":"location","type":"string"},{"internalType":"enum SupplyChain.Visibility","name":"visibility","type":"uint8"},{"internalType":"string","name":"ipfsHash","type":"string"},{"internalType":"uint256","name":"createdAt","type":"uint256"},{"internalType":"bool","name":"active","type":"bool"}],"internalType":"struct SupplyChain.FarmerProduct","name":"farmer","type":"tuple"},{"components":[{"internalType":"uint256","name":"batchId","type":"uint256"},{"internalType":"uint256","name":"originBatchId","type":"uint256"},{"internalType":"address","name":"distributor","type":"address"},{"internalType":"uint256","name":"quantityKg","type":"uint256"},{"internalType":"uint256","name":"purchasePricePerKg","type":"uint256"},{"internalType":"uint256","name":"listedPricePerKg","type":"uint256"},{"internalType":"enum SupplyChain.Visibility","name":"visibility","type":"uint8"},{"internalType":"uint256","name":"createdAt","type":"uint256"},{"internalType":"bool","name":"active","type":"bool"}],"internalType":"struct SupplyChain.DistributorBatch[]","name":"distributorBatchesOut","type":"tuple[]"},{"components":[{"internalType":"uint256","name":"packId","type":"uint256"},{"internalType":"uint256","name":"distributorBatchId","type":"uint256"},{"internalType":"address","name":"distributor","type":"address"},{"internalType":"uint256","name":"quantityKg","type":"uint256"},{"internalType":"uint256","name":"pricePerKg","type":"uint256"},{"internalType":"enum SupplyChain.Visibility","name":"visibility","type":"uint8"},{"internalType":"address","name":"privateBuyer","type":"address"},{"internalType":"bool","name":"available","type":"bool"},{"internalType":"string","name":"ipfsHash","type":"string"},{"internalType":"uint256","name":"createdAt","type":"uint256"}],"internalType":"struct SupplyChain.RetailPack[]","name":"retailPacksOut","type":"tuple[]"}],"stateMutability":"view","type":"function"},{"inputs":[{"internalType":"address","name":"distributor","type":"address"}],"name":"getDistributorInventory","outputs":[{"components":[{"internalType":"uint256","name":"batchId","type":"uint256"},{"internalType":"uint256","name":"originBatchId","type":"uint256"},{"internalType":"address","name":"distributor","type":"address"},{"internalType":"uint256","name":"quantityKg","type":"uint256"},{"internalType":"uint256","name":"purchasePricePerKg","type":"uint256"},{"internalType":"uint256","name":"listedPricePerKg","type":"uint256"},{"internalType":"enum SupplyChain.Visibility","name":"visibility","type":"uint8"},{"internalType":"uint256","name":"createdAt","type":"uint256"},{"internalType":"bool","name":"active","type":"bool"}],"internalType":"struct SupplyChain.DistributorBatch[]","name":"","type":"tuple[]"},{"components":[{"internalType":"uint256","name":"packId","type":"uint256"},{"internalType":"uint256","name":"distributorBatchId","type":"uint256"},{"internalType":"address","name":"distributor","type":"address"},{"internalType":"uint256","name":"quantityKg","type":"uint256"},{"internalType":"uint256","name":"pricePerKg","type":"uint256"},{"internalType":"enum SupplyChain.Visibility","name":"visibility","type":"uint8"},{"internalType":"address","name":"privateBuyer","type":"address"},{"internalType":"bool","name":"available","type":"bool"},{"internalType":"string","name":"ipfsHash","type":"string"},{"internalType":"uint256","name":"createdAt","type":"uint256"}],"internalType":"struct SupplyChain.RetailPack[]","name":"","type":"tuple[]"}],"stateMutability":"view","type":"function"},{"inputs":[],"name":"getMyProducts","outputs":[{"components":[{"internalType":"uint256","name":"batchId","type":"uint256"},{"internalType":"address","name":"farmer","type":"address"},{"internalType":"string","name":"cropName","type":"string"},{"internalType":"string","name":"cropPeriod","type":"string"},{"internalType":"uint256","name":"daysToHarvest","type":"uint256"},{"internalType":"uint256","name":"quantityKg","type":"uint256"},{"internalType":"uint256","name":"pricePerKg","type":"uint256"},{"internalType":"string","name":"location","type":"string"},{"internalType":"enum SupplyChain.Visibility","name":"visibility","type":"uint8"},{"internalType":"string","name":"ipfsHash","type":"string"},{"internalType":"uint256","name":"createdAt","type":"uint256"},{"internalType":"bool","name":"active","type":"bool"}],"internalType":"struct SupplyChain.FarmerProduct[]","name":"","type":"tuple[]"}],"stateMutability":"view","type":"function"},{"inputs":[{"internalType":"uint256","name":"packId","type":"uint256"}],"name":"getPackOrigin","outputs":[{"internalType":"uint256","name":"originFarmerBatchId","type":"uint256"}],"stateMutability":"view","type":"function"},{"inputs":[{"internalType":"address","name":"distributor","type":"address"}],"name":"getPendingRequestsForDistributor","outputs":[{"components":[{"internalType":"uint256","name":"requestId","type":"uint256"},{"internalType":"uint256","name":"packId","type":"uint256"},{"internalType":"address","name":"requester","type":"address"},{"internalType":"uint256","name":"qtyKg","type":"uint256"},{"internalType":"bool","name":"wantsRetailer","type":"bool"},{"internalType":"uint256","name":"amountPaid","type":"uint256"},{"internalType":"bool","name":"resolved","type":"bool"},{"internalType":"bool","name":"accepted","type":"bool"},{"internalType":"uint256","name":"createdAt","type":"uint256"}],"internalType":"struct SupplyChain.BuyRequest[]","name":"","type":"tuple[]"}],"stateMutability":"view","type":"function"},{"inputs":[],"name":"getPendingUsers","outputs":[{"internalType":"address[]","name":"","type":"address[]"},{"components":[{"internalType":"enum SupplyChain.Role","name":"role","type":"uint8"},{"internalType":"bool","name":"requested","type":"bool"},{"internalType":"string","name":"idHash","type":"string"},{"internalType":"string","name":"meta","type":"string"},{"internalType":"uint256","name":"appliedAt","type":"uint256"},{"internalType":"bool","name":"exists","type":"bool"}],"internalType":"struct SupplyChain.UserInfo[]","name":"","type":"tuple[]"}],"stateMutability":"view","type":"function"},{"inputs":[{"internalType":"address","name":"user","type":"address"}],"name":"getPurchaseHistory","outputs":[{"components":[{"internalType":"uint256","name":"purchaseId","type":"uint256"},{"internalType":"uint256","name":"unitId","type":"uint256"},{"internalType":"uint256","name":"quantityKg","type":"uint256"},{"internalType":"uint256","name":"pricePerKg","type":"uint256"},{"internalType":"uint256","name":"qtyKg","type":"uint256"},{"internalType":"address","name":"seller","type":"address"},{"internalType":"address","name":"buyer","type":"address"},{"internalType":"enum SupplyChain.Role","name":"sellerRole","type":"uint8"},{"internalType":"enum SupplyChain.Role","name":"buyerRole","type":"uint8"},{"internalType":"uint256","name":"timestamp","type":"uint256"}],"internalType":"struct SupplyChain.PurchaseRecord[]","name":"","type":"tuple[]"}],"stateMutability":"view","type":"function"},{"inputs":[{"internalType":"address","name":"retailer","type":"address"}],"name":"getRetailerInventory","outputs":[{"components":[{"internalType":"uint256","name":"unitId","type":"uint256"},{"internalType":"uint256","name":"parentPackId","type":"uint256"},{"internalType":"address","name":"retailer","type":"address"},{"internalType":"uint256","name":"quantityKg","type":"uint256"},{"internalType":"uint256","name":"pricePerKg","type":"uint256"},{"internalType":"bool","name":"available","type":"bool"},{"internalType":"string","name":"ipfsHash","type":"string"},{"internalType":"uint256","name":"createdAt","type":"uint256"}],"internalType":"struct SupplyChain.RetailUnit[]","name":"","type":"tuple[]"}],"stateMutability":"view","type":"function"},{"inputs":[{"internalType":"uint256","name":"unitId","type":"uint256"}],"name":"getUnitTrace","outputs":[{"components":[{"internalType":"uint256","name":"batchId","type":"uint256"},{"internalType":"address","name":"farmer","type":"address"},{"internalType":"string","name":"cropName","type":"string"},{"internalType":"string","name":"cropPeriod","type":"string"},{"internalType":"uint256","name":"daysToHarvest","type":"uint256"},{"internalType":"uint256","name":"quantityKg","type":"uint256"},{"internalType":"uint256","name":"pricePerKg","type":"uint256"},{"internalType":"string","name":"location","type":"string"},{"internalType":"enum SupplyChain.Visibility","name":"visibility","type":"uint8"},{"internalType":"string","name":"ipfsHash","type":"string"},{"internalType":"uint256","name":"createdAt","type":"uint256"},{"internalType":"bool","name":"active","type":"bool"}],"internalType":"struct SupplyChain.FarmerProduct","name":"farmer","type":"tuple"},{"components":[{"internalType":"uint256","name":"batchId","type":"uint256"},{"internalType":"uint256","name":"originBatchId","type":"uint256"},{"internalType":"address","name":"distributor","type":"address"},{"internalType":"uint256","name":"quantityKg","type":"uint256"},{"internalType":"uint256","name":"purchasePricePerKg","type":"uint256"},{"internalType":"uint256","name":"listedPricePerKg","type":"uint256"},{"internalType":"enum SupplyChain.Visibility","name":"visibility","type":"uint8"},{"internalType":"uint256","name":"createdAt","type":"uint256"},{"internalType":"bool","name":"active","type":"bool"}],"internalType":"struct SupplyChain.DistributorBatch","name":"distributor","type":"tuple"},{"components":[{"internalType":"uint256","name":"packId","type":"uint256"},{"internalType":"uint256","name":"distributorBatchId","type":"uint256"},{"internalType":"address","name":"distributor","type":"address"},{"internalType":"uint256","name":"quantityKg","type":"uint256"},{"internalType":"uint256","name":"pricePerKg","type":"uint256"},{"internalType":"enum SupplyChain.Visibility","name":"visibility","type":"uint8"},{"internalType":"address","name":"privateBuyer","type":"address"},{"internalType":"bool","name":"available","type":"bool"},{"internalType":"string","name":"ipfsHash","type":"string"},{"internalType":"uint256","name":"createdAt","type":"uint256"}],"internalType":"struct SupplyChain.RetailPack","name":"pack","type":"tuple"},{"components":[{"internalType":"uint256","name":"unitId","type":"uint256"},{"internalType":"uint256","name":"parentPackId","type":"uint256"},{"internalType":"address","name":"retailer","type":"address"},{"internalType":"uint256","name":"quantityKg","type":"uint256"},{"internalType":"uint256","name":"pricePerKg","type":"uint256"},{"internalType":"bool","name":"available","type":"bool"},{"internalType":"string","name":"ipfsHash","type":"string"},{"internalType":"uint256","name":"createdAt","type":"uint256"}],"internalType":"struct SupplyChain.RetailUnit","name":"unit","type":"tuple"}],"stateMutability":"view","type":"function"},{"inputs":[],"name":"getUserCount","outputs":[{"internalType":"uint256","name":"","type":"uint256"}],"stateMutability":"view","type":"function"},{"inputs":[{"internalType":"address","name":"user","type":"address"}],"name":"getUserInfo","outputs":[{"components":[{"internalType":"enum SupplyChain.Role","name":"role","type":"uint8"},{"internalType":"bool","name":"requested","type":"bool"},{"internalType":"string","name":"idHash","type":"string"},{"internalType":"string","name":"meta","type":"string"},{"internalType":"uint256","name":"appliedAt","type":"uint256"},{"internalType":"bool","name":"exists","type":"bool"}],"internalType":"struct SupplyChain.UserInfo","name":"","type":"tuple"}],"stateMutability":"view","type":"function"},{"inputs":[{"internalType":"uint8","name":"role","type":"uint8"}],"name":"getUsersByRole","outputs":[{"internalType":"address[]","name":"","type":"address[]"}],"stateMutability":"view","type":"function"},{"inputs":[{"internalType":"uint256","name":"packId","type":"uint256"},{"internalType":"uint8","name":"visibility","type":"uint8"},{"internalType":"address","name":"optionalPrivateAddress","type":"address"}],"name":"listPack","outputs":[],"stateMutability":"nonpayable","type":"function"},{"inputs":[{"internalType":"uint256","name":"unitId","type":"uint256"},{"internalType":"uint8","name":"","type":"uint8"}],"name":"listUnitForCustomers","outputs":[],"stateMutability":"nonpayable","type":"function"},{"inputs":[],"name":"owner","outputs":[{"internalType":"address","name":"","type":"address"}],"stateMutability":"view","type":"function"},{"inputs":[{"internalType":"address","name":"","type":"address"}],"name":"pendingWithdrawals","outputs":[{"internalType":"uint256","name":"","type":"uint256"}],"stateMutability":"view","type":"function"},{"inputs":[{"internalType":"uint256","name":"","type":"uint256"}],"name":"purchaseRecords","outputs":[{"internalType":"uint256","name":"purchaseId","type":"uint256"},{"internalType":"uint256","name":"unitId","type":"uint256"},{"internalType":"uint256","name":"quantityKg","type":"uint256"},{"internalType":"uint256","name":"pricePerKg","type":"uint256"},{"internalType":"uint256","name":"qtyKg","type":"uint256"},{"internalType":"address","name":"seller","type":"address"},{"internalType":"address","name":"buyer","type":"address"},{"internalType":"enum SupplyChain.Role","name":"sellerRole","type":"uint8"},{"internalType":"enum SupplyChain.Role","name":"buyerRole","type":"uint8"},{"internalType":"uint256","name":"timestamp","type":"uint256"}],"stateMutability":"view","type":"function"},{"inputs":[],"name":"renounceOwnership","outputs":[],"stateMutability":"nonpayable","type":"function"},{"inputs":[{"internalType":"uint8","name":"role","type":"uint8"},{"internalType":"string","name":"idHash","type":"string"},{"internalType":"string","name":"meta","type":"string"}],"name":"requestRole","outputs":[],"stateMutability":"nonpayable","type":"function"},{"inputs":[{"internalType":"uint256","name":"","type":"uint256"}],"name":"retailPacks","outputs":[{"internalType":"uint256","name":"packId","type":"uint256"},{"internalType":"uint256","name":"distributorBatchId","type":"uint256"},{"internalType":"address","name":"distributor","type":"address"},{"internalType":"uint256","name":"quantityKg","type":"uint256"},{"internalType":"uint256","name":"pricePerKg","type":"uint256"},{"internalType":"enum SupplyChain.Visibility","name":"visibility","type":"uint8"},{"internalType":"address","name":"privateBuyer","type":"address"},{"internalType":"bool","name":"available","type":"bool"},{"internalType":"string","name":"ipfsHash","type":"string"},{"internalType":"uint256","name":"createdAt","type":"uint256"}],"stateMutability":"view","type":"function"},{"inputs":[{"internalType":"uint256","name":"","type":"uint256"}],"name":"retailUnits","outputs":[{"internalType":"uint256","name":"unitId","type":"uint256"},{"internalType":"uint256","name":"parentPackId","type":"uint256"},{"internalType":"address","name":"retailer","type":"address"},{"internalType":"uint256","name":"quantityKg","type":"uint256"},{"internalType":"uint256","name":"pricePerKg","type":"uint256"},{"internalType":"bool","name":"available","type":"bool"},{"internalType":"string","name":"ipfsHash","type":"string"},{"internalType":"uint256","name":"createdAt","type":"uint256"}],"stateMutability":"view","type":"function"},{"inputs":[{"internalType":"address","name":"user","type":"address"}],"name":"revokeRole","outputs":[],"stateMutability":"nonpayable","type":"function"},{"inputs":[{"internalType":"uint256","name":"distributorBatchId","type":"uint256"},{"internalType":"uint256[]","name":"splitQuantities","type":"uint256[]"},{"internalType":"uint256[]","name":"pricesPerKg","type":"uint256[]"},{"internalType":"string[]","name":"ipfsHashes","type":"string[]"}],"name":"splitDistributorBatch","outputs":[],"stateMutability":"nonpayable","type":"function"},{"inputs":[{"internalType":"uint256","name":"unitId","type":"uint256"},{"internalType":"uint256[]","name":"unitQuantities","type":"uint256[]"},{"internalType":"uint256[]","name":"unitPricesPerKg","type":"uint256[]"},{"internalType":"string[]","name":"ipfsHashes","type":"string[]"}],"name":"splitRetailUnit","outputs":[],"stateMutability":"nonpayable","type":"function"},{"inputs":[],"name":"totalBuyRequests","outputs":[{"internalType":"uint256","name":"","type":"uint256"}],"stateMutability":"view","type":"function"},{"inputs":[],"name":"totalDistributorBatches","outputs":[{"internalType":"uint256","name":"","type":"uint256"}],"stateMutability":"view","type":"function"},{"inputs":[],"name":"totalFarmerProducts","outputs":[{"internalType":"uint256","name":"","type":"uint256"}],"stateMutability":"view","type":"function"},{"inputs":[],"name":"totalPurchases","outputs":[{"internalType":"uint256","name":"","type":"uint256"}],"stateMutability":"view","type":"function"},{"inputs":[],"name":"totalRetailPacks","outputs":[{"internalType":"uint256","name":"","type":"uint256"}],"stateMutability":"view","type":"function"},{"inputs":[],"name":"totalRetailUnits","outputs":[{"internalType":"uint256","name":"","type":"uint256"}],"stateMutability":"view","type":"function"},{"inputs":[{"internalType":"address","name":"newOwner","type":"address"}],"name":"transferOwnership","outputs":[],"stateMutability":"nonpayable","type":"function"},{"inputs":[{"internalType":"uint256","name":"batchId","type":"uint256"},{"internalType":"uint256","name":"newQuantityKg","type":"uint256"},{"internalType":"uint256","name":"newPricePerKg","type":"uint256"},{"internalType":"uint8","name":"newVisibility","type":"uint8"},{"internalType":"string","name":"newIpfsHash","type":"string"},{"internalType":"bool","name":"setActive","type":"bool"}],"name":"updateProduct","outputs":[],"stateMutability":"nonpayable","type":"function"},{"inputs":[{"internalType":"address","name":"","type":"address"}],"name":"users","outputs":[{"internalType":"enum SupplyChain.Role","name":"role","type":"uint8"},{"internalType":"bool","name":"requested","type":"bool"},{"internalType":"string","name":"idHash","type":"string"},{"internalType":"string","name":"meta","type":"string"},{"internalType":"uint256","name":"appliedAt","type":"uint256"},{"internalType":"bool","name":"exists","type":"bool"}],"stateMutability":"view","type":"function"},{"inputs":[],"name":"withdraw","outputs":[],"stateMutability":"nonpayable","type":"function"},{"stateMutability":"payable","type":"receive"}],"evm":{"bytecode":{"linkReferences":{},"object":"608034620004525760008054336001600160a01b0319808316821784559392916001600160a01b03167f8be0079c531659141344cd1fd0a4f28419497f9722a3daafe3b4186f6b6457e08380a360018080556001600160401b039390929060c0820185811183821017620002385760405260058252602091828101958487526200008862000457565b90858252604083019182526200009d62000457565b9086825260608401918252608084019242845260a0850199898b52338952600288526040892095519060068210156200043e5760ff61ff0088549251151560081b1692169061ffff19161717855588850190519081518381116200042a578154928b84811c941680156200041f575b8a8510146200040b578190601f94858111620003b8575b508a908583116001146200034a578c926200033e575b5050600019600383901b1c1916908b1b1790555b60028501925180519283116200032a5783548a81811c911680156200031f575b898210146200030b57828111620002c3575b50879183116001146200025857600495949392918991836200024c575b5050600019600383901b1c191690891b1790555b51600382015501945115159460ff199560ff8783541691161790556003546801000000000000000081101562000238578481018060035581101562000224579160049184936003604096528285200190339082541617905533835252209182541617905560405161586d90816200048e8239f35b634e487b7160e01b84526032600452602484fd5b634e487b7160e01b84526041600452602484fd5b0151905038806200019c565b949392918991601f19821690848b52898b20918b5b8b828210620002ac57505097836004991062000292575b505050811b019055620001b0565b015160001960f88460031b161c1916905538808062000284565b838b015185558e969094019392830192016200026d565b848a52888a208380860160051c8201928b871062000301575b0160051c01908b905b828110620002f55750506200017f565b8b8155018b90620002e5565b92508192620002dc565b634e487b7160e01b8a52602260045260248afd5b90607f16906200016d565b634e487b7160e01b89526041600452602489fd5b01519050388062000139565b848d528b8d208e94509190601f1984168e8e5b8282106200039757505084116200037d575b505050811b0190556200014d565b015160001960f88460031b161c191690553880806200036f565b91929395968291958786015181550195019301908f95949392918e6200035d565b909150838c528a8c208580850160051c8201928d861062000401575b918f91869594930160051c01915b828110620003f257505062000123565b8e81558594508f9101620003e2565b92508192620003d4565b634e487b7160e01b8b52602260045260248bfd5b93607f16936200010c565b634e487b7160e01b8a52604160045260248afd5b634e487b7160e01b8a52602160045260248afd5b600080fd5b60405190602082016001600160401b038111838210176200047757604052565b634e487b7160e01b600052604160045260246000fdfe60806040526004361015610036575b361561001957600080fd5b3360005260116020526040600020610032348254614c9e565b9055005b60003560e01c806321034444146141b257806325159805146141945780632a1c235114613dce5780633b510b1d14613d2f5780633ccfd60b14613c1b5780634c041cd9146139e157806354ad290e146138c95780635962a941146138ab5780636386c1c7146137fc578063669086801461323557806367d0de371461303e578063715018a614612fe557806371f3c4ef14612ea757806376b0194114612dfa57806380e52e3f14612d53578063870d09c514612c9257806389a64d4a14612a365780638da5cb5b14612a0d578063949fb8ba1461295657806395ce098114612938578063983839221461272657806398a45adb1461268e578063a0c999691461235d578063a40b72e11461233f578063a574e0c8146121be578063a87430ba14612112578063aa46b66f14611e4f578063b0bf3dac14611aca578063b4bc6fae146117cb578063b5cb15f7146117ad578063c22fb9291461174f578063c2afc793146114ca578063d3389b8514610f61578063ddb7a4de14610e30578063e2842d7914610ced578063e594c648146109dc578063ef9d8dca1461089b578063f2fde38b146107d7578063f3f437031461079d578063fa2a5d7514610701578063fb04dd4b146106e3578063fdca4ca31461044b578063fe09b5ec146102425763ff3fa4b90361000e573461023d57600036600319011261023d576020600754604051908152f35b600080fd5b3461023d57600036600319011261023d5760038054600090815b8181106103b9575061027661027083615707565b92615739565b926000805b8381106102955760405180610291888883614aa0565b0390f35b61029e816150ee565b60018060a01b03915490851b1c168060005260029060208281526040600020549260ff9289600895858082891c16918261038c575b50506102e8575b50505050505060010161027b565b9261034d8895938360049461030460019b9c6103809b99614b52565b52600052808352604060002092856040519761031f8961457d565b85549061032e8383168b614b7c565b1c1615159087015261034189840161460d565b6040870152820161460d565b6060850152888101546080850152015416151560a082015261036f828a614b52565b5261037a8189614b52565b50614b16565b919087808080896102da565b1691505060068110156103a3578a9015858e6102d3565b634e487b7160e01b600052602160045260246000fd5b6103c2816150ee565b9060018060a01b039182915490871b1c16600052600260209080825260ff918260406000205460081c169384610418575b50505050610404575b60010161025c565b91610410600191614b16565b9290506103fc565b9091929350610426856150ee565b905490891b1c16600052526040600020541660068110156103a35715858080806103f3565b3461023d57600036600319011261023d5733600052600260206002815260ff8060406000205416926006808510156103a35761048d6001959395809414614b88565b60059160055492600096855b8581111561068657506104c46104ae89614b3b565b986104bc6040519a8b6145ec565b808a52614b3b565b601f190160005b81811061066a575050600093865b868111156105435789898960405191808301818452845180915260408401918060408360051b8701019601926000905b8382106105165786880387f35b90919293948380610532839a603f198b820301865289516147aa565b999701959493919091019101610509565b8060009a989a52600b808a526040600020908154918b8d84151580610655575b61057e575b505050505061057690614b16565b9896986104d9565b9261064a94928892610576979c956040519561059987614598565b86528201546001600160a01b0316908501526105b68b820161460d565b60408501526105c76003820161460d565b6060850152600481015460808501528981015460a08501528781015460c08501526105f46007820161460d565b60e085015261060d836008830154166101008601614e80565b6106196009820161460d565b610120850152600a810154610140850152015416151561016082015261063f828c614b52565b5261037a818b614b52565b95908b808b8d610568565b50828101546001600160a01b03163314610563565b88906106779a989a614e23565b82828b010152019896986104cb565b80600099979952600b885260406000208054151590816106cd575b506106b8575b6106b090614b16565b979597610499565b956106c56106b091614b16565b9690506106a7565b8a01546001600160a01b0316331490508a6106a1565b3461023d57600036600319011261023d576020600954604051908152f35b3461023d57602036600319011261023d57600435600052600c602052610120604060002080549060018101549061078e60018060a01b036002830154166003830154600484015460058501549160ff6006870154169360ff600860078901549801541697604051998a5260208a015260408901526060880152608087015260a086015260c085019061473f565b60e08301521515610100820152f35b3461023d57602036600319011261023d576001600160a01b036107be61446c565b1660005260116020526020604060002054604051908152f35b3461023d57602036600319011261023d576107f061446c565b6107f86157df565b6001600160a01b0390811690811561084757600054826001600160601b0360a01b821617600055167f8be0079c531659141344cd1fd0a4f28419497f9722a3daafe3b4186f6b6457e0600080a3005b60405162461bcd60e51b815260206004820152602660248201527f4f776e61626c653a206e6577206f776e657220697320746865207a65726f206160448201526564647265737360d01b6064820152608490fd5b3461023d5760208060031936011261023d57600435600052600d81526040600020604051906108c982614561565b80548252600181015483830190815261095660018060a01b0393846002850154166040820152600384015460608201526004840154608082015260ff600585015461091982821660a08501614e80565b868160081c1660c084015260a81c16151560e0820152600761093d6006860161460d565b9461010095868401520154610120820152511515614fbe565b51600052600c835260406000209060ff600860405193610975856145b4565b8054855260018101549587860196875260028201541660408601526003810154606086015260048101546080860152600581015460a08601526109c18360068301541660c08701614e80565b600781015460e0860152015416151591015251604051908152f35b3461023d576109ea366144bf565b90919392949533600052600260205260ff6040600020541660068110156103a3576003610a1a9198979814614b88565b600052600e602052604060002095610a3487541515615212565b6002870154610a4d906001600160a01b03163314614dac565b610a58858514614bec565b610a63828514614c38565b60009460005b858110610cc8575060038801548611610c835760005b858110610aaf5788610a95886003830154614d60565b80600383015515610aa257005b600501805460ff19169055005b6008610abb8154614b16565b80915580600052600e602052604060002090815560018a0154600182015560028101336001600160601b0360a01b825416179055610afa82888b614c8e565b356003820155610b0b828486614c8e565b35600482015560058101805460ff19166001179055610b2b828688614cc3565b906001600160401b038211610c6d57610b5482610b4b6006860154614527565b60068601614d1b565b600090601f8311600114610bf95760019493929160009183610bee575b5050600019600383901b1c191690841b1760068201555b4260078201558054838c0154907fcdf39da8f0023d4d1d194a43508204b3a50c233fa8270b04763d6410237bad84610be5600460038601549501549460405191829133974291846040919493926060820195825260208201520152565b0390a401610a7f565b013590508d80610b71565b6006840160005260206000209160005b601f1985168110610c5557509183916001969594938794601f19811610610c3b575b505050811b016006820155610b88565b0135600019600384901b60f8161c191690558d8080610c2b565b90926020600181928686013581550194019101610c09565b634e487b7160e01b600052604160045260246000fd5b60405162461bcd60e51b815260206004820152601c60248201527f537570706c79436861696e3a2073756d206578636565647320717479000000006044820152606490fd5b95610ce3600191610cdc89898c9d9c614c8e565b3590614c9e565b9601979697610a69565b3461023d57600036600319011261023d5760038054610d0b81615739565b9160005b828110610d9a57505060405180828193835260208093019060036000527fc2575a0e9e593c00f959f8c92f12db2869c3395a3b0502d05e2516446f71f85b936000905b828210610d7757505050610d68925003826145ec565b61029160405192839283614aa0565b85546001600160a01b031684526001958601958795509381019390910190610d52565b80610da66001926150ee565b838060a01b03915490851b1c166000526002602081815260046040600020610dfc60405194610dd48661457d565b82549460ff86610de7828099168a614b7c565b60081c1615159087015261034188840161460d565b6060850152868101546080850152015416151560a0820152610e1e8287614b52565b52610e298186614b52565b5001610d0f565b3461023d5760208060031936011261023d5760ff9060ff610e4f614702565b1691610e5e60058411156150a2565b60038054916000805b848110610f0d5750610e7890615707565b9360009160005b858110610e9c57604051602080825281906102919082018a614a63565b610ea5816150ee565b90546001600160a01b0391871b1c81166000908152600285526040902054831660068110156103a3578914610ede575b50600101610e7f565b8194610f0691610eef6001946150ee565b905490891b1c16610f00828b614b52565b52614b16565b9390610ed5565b610f16816150ee565b905490851b1c6001600160a01b03166000908152600287526040902054831660068110156103a3578714610f4d575b600101610e67565b90610f59600191614b16565b919050610f45565b3461023d5761010036600319011261023d576004356001600160401b03811161023d57610f92903690600401614712565b906024356001600160401b03811161023d57610fb2903690600401614712565b919060a4356001600160401b03811161023d57610fd3903690600401614712565b9060c4359460ff8616860361023d5760e4356001600160401b03811161023d57611001903690600401614712565b94909733600052600260205260ff6040600020541660068110156103a357600161102b9114614b88565b6064351561148557608435156114475761104b600160ff8a16111561500a565b611056600554614b16565b968760055587600052600b602052604060002097885560018801336001600160601b0360a01b8254161790556001600160401b038211610c6d5781906110ac826110a360028c0154614527565b60028c01614d1b565b600090601f83116001146113d6576000926113cb575b50508160011b916000199060031b1c19161760028701555b6001600160401b038211610c6d578190611104826110fb60038a0154614527565b60038a01614d1b565b600090601f831160011461135a5760009261134f575b50508160011b916000199060031b1c19161760038501555b6044356004850155606435600585015560843560068501556001600160401b038211610c6d5781906111748261116b6007880154614527565b60078801614d1b565b600090601f83116001146112de576000926112d3575b50508160011b916000199060031b1c19161760078301555b600260ff841610156103a3576111be60ff841660088401614cab565b60098201906001600160401b038111610c6d576111e5816111df8454614527565b84614d1b565b6000601f821160011461126c578192939495600092611261575b50508160011b916000199060031b1c19161790555b42600a820155600b8101600160ff198254161790555460ff604051921682524260208301527f8c7f70de6d89542031e13836c8f9d53f5c6ce55e54dca423cb713ea36a9df07c60403393a3005b0135905085806111ff565b601f198216958360005260206000209160005b8881106112bb575083600195969798106112a1575b505050811b019055611214565b0135600019600384901b60f8161c19169055858080611294565b9092602060018192868601358155019401910161127f565b01359050868061118a565b909250600785016000526020600020906000935b601f1984168510611337576001945083601f1981161061131d575b505050811b0160078301556111a2565b0135600019600384901b60f8161c1916905586808061130d565b818101358355602094850194600190930192016112f2565b01359050888061111a565b909250600387016000526020600020906000935b601f19841685106113b3576001945083601f19811610611399575b505050811b016003850155611132565b0135600019600384901b60f8161c19169055888080611389565b8181013583556020948501946001909301920161136e565b013590508a806110c2565b909250600289016000526020600020906000935b601f198416851061142f576001945083601f19811610611415575b505050811b0160028701556110da565b0135600019600384901b60f8161c191690558a8080611405565b818101358355602094850194600190930192016113ea565b60405162461bcd60e51b81526020600482015260166024820152750537570706c79436861696e3a207072696365203e20360541b6044820152606490fd5b60405162461bcd60e51b815260206004820152601960248201527f537570706c79436861696e3a207175616e74697479203e2030000000000000006044820152606490fd5b3461023d5760208060031936011261023d576114e461446c565b9060095460009260015b828111156116e2575061151961150385614b3b565b9461151160405196876145ec565b808652614b3b565b601f19018360005b8281106116cc5750505060009060015b838111156115d757604080518681528751818801819052888801928201908860005b8281106115605784840385f35b85518051855280830151858401526040808201516001600160a01b0316908601526060808201519086015260808082015115159086015260a0808201519086015260c08082015115159086015260e08082015115159086015261010090810151908501529481019461012090930192600101611553565b80600052600f808652604060002060ff60069181838201541615611608575b5050505061160390614b16565b611531565b60010154600052600d885260018060a01b03916002938385604060002001541684881614611637575b506115f6565b926116c19492600792879995611603986000528c526040600020926040519561165f876145b4565b8454875260018501548e880152840154166040860152600383015460608601526004830154821615156080860152600583015460a0860152820154808216151560c086015260081c16151560e0840152015461010082015261036f828a614b52565b929087808080611631565b6116d4614e8c565b828289010152018490611521565b80600052600f8452604060002060ff6006820154161561170c575b5061170790614b16565b6114ee565b600101546000908152600d855260409020600201546001600160a01b0383811691161461173a575b856116fd565b9361174761170791614b16565b949050611734565b3461023d57604036600319011261023d57602435801515810361023d5733600052600260205260ff604060002054169060068210156103a35761179760026117a79314614b88565b61179f615789565b60043561529d565b60018055005b3461023d57600036600319011261023d576020600354604051908152f35b3461023d57602036600319011261023d576117e4614e23565b506117ed614e8c565b506117f6614f21565b506117ff61525e565b50600435600052600e602052611aa6604060002060405190611820826145d0565b8054825260018101546020830190815260028201546001600160a01b031660408401526003820154606084015260048201546080840152600582015460ff16151560a0840152906007906118766006820161460d565b60c0850152015460e083015261188e82511515615212565b51600052600d602052610291604060002091604051926118ad84614561565b8054845260018101546020850190815260028201546001600160a01b0316604086015260038201546060860152600482015460808601526005820154909160079160ff9061190081831660a08a01614e80565b600881901c6001600160a01b031660c089015260a81c16151560e087015261192a6006820161460d565b610100870152015461012085015251600052600c60205260406000209060405191611954836145b4565b8054835260ff60086001830154926020860193845260018060a01b0360028201541660408701526003810154606087015260048101546080870152600581015460a08701526119ac8360068301541660c08801614e80565b600781015460e0870152015416151561010084015251600052600b602052611abd604060002092604051956119e087614598565b8454875260018501546001600160a01b03166020880152611a036002860161460d565b6040880152611a146003860161460d565b606088015260048501546080880152600585015460a0880152600685015460c0880152611a436007860161460d565b60e0880152611a5d60ff6008870154166101008901614e80565b611a696009860161460d565b61012088015260ff600b600a8701549661014097888b01520154169461016095151586890152611ab1604051998a99610180808c528b01906147aa565b9360208a0190614856565b87830390880152614900565b91848303908501526149fc565b3461023d57606036600319011261023d57611ae3614702565b6001600160401b036024803582811161023d57611b04903690600401614712565b909260443581811161023d57611b2060ff913690600401614712565b91909616956001948588148015611e45575b15611de5573360005260209660028852604060002095865460ff81166006811015611dd057611d8c5761ff00191661010017875587870191868211611d77578190611b8782611b818654614527565b86614d1b565b600090601f8311600114611d1457600092611d09575b5050600019600383901b1c191690881b1790555b60028501938311611cf55750611bd182611bcb8554614527565b85614d1b565b600090601f8311600114611c8b5760049493929160009183611c80575b5050600019600383901b1c191690851b1790555b426003820155019060ff19918183825416179055336000526004835260ff6040600020541615611c5c575b50507fd1459ff4cef342225fa955f3422559f5cf811e33e3aeea80b43db4c776b151d5604051914283523392a3005b611c6533615125565b33600052600483526040600020918254161790558280611c2d565b013590508880611bee565b918591949392601f1982169084600052886000209160005b8a828210611cdf575050968360049810611cc5575b505050811b019055611c02565b0135600019600384901b60f8161c19169055888080611cb8565b838a01358555988901988a969094019301611ca3565b634e487b7160e01b60009081526041600452fd5b013590508b80611b9d565b60008581528c81208c95509290601f198516908e5b828210611d605750508411611d46575b505050811b019055611bb1565b0135600019600384901b60f8161c191690558b8080611d39565b8385013586558e979095019492830192018e611d29565b83634e487b7160e01b60005260416004526000fd5b60405162461bcd60e51b8152600481018b9052601f818601527f537570706c79436861696e3a20616c726561647920686173206120726f6c65006044820152606490fd5b84634e487b7160e01b60005260216004526000fd5b60849060336040519162461bcd60e51b8352602060048401528201527f537570706c79436861696e3a206f6e6c79204661726d6572206f7220446973746044820152721c9a589d5d1bdc8818d85b881c995c5d595cdd606a1b6064820152fd5b5060028814611b32565b611e58366149e6565b336000526020916002835260ff6040600020541660068110156103a3576002611e819114614b88565b611e89615789565b80600052600b83526040600020928354151580612104575b156120a85760ff6008850154169360028510156103a35760018095148015612093575b1561203857611ff07fc0d1700ed1206408d2c687dbf2d84c21d243ddcddd1a5dc39a3b4e1e7787fb2b918515158061202a575b611f0090615167565b6006810193611f1a611f138654896151b3565b34146151c6565b87611f26600654614b16565b928360065583600052600c83526040600020938455878285015560028401336001600160601b0360a01b825416179055886003850155865480600486015560058501556006840160ff1990838282541617905542600786015560088501838282541617905560058201611f9a8b8254614d60565b8091551561201a575b50019060018060a01b03600080808034858854165af1611fc1614d6d565b5015611ff7575b5050505492549460405191829133974291846040919493926060820195825260208201520152565b0390a48055005b6011925416600052526040600020612010348254614c9e565b9055878080611fc8565b600b82019081541690558a611fa3565b506005810154861115611ef7565b60405162461bcd60e51b815260048101839052602d60248201527f537570706c79436861696e3a206e6f7420616c6c6f77656420746f206275792060448201526c0e0e4d2ecc2e8ca40c4c2e8c6d609b1b6064820152608490fd5b50808501546001600160a01b03163314611ec4565b6084906040519062461bcd60e51b82526004820152602f60248201527f537570706c79436861696e3a206661726d6572206261746368206e6f7420666f60448201526e756e64206f7220696e61637469766560881b6064820152fd5b5060ff600b85015416611ea1565b3461023d57602036600319011261023d576001600160a01b0361213361446c565b16600052600260205260ff60406000208054906121526001820161460d565b6121ad6121616002840161460d565b61219f8660046003870154960154169360405197876121838a83819b16614482565b60081c161515602088015260c0604088015260c08701906146b2565b9085820360608701526146b2565b916080840152151560a08301520390f35b606036600319011261023d576024356004356044358015159081810361023d576121e6615789565b82600052600d602052604060002061220081541515614fbe565b60ff600582015460a81c16156122fa57611f13600461223392871515806122ec575b61222b90615167565b0154866151b3565b61228e612241600954614b16565b918260095582600052600f602052604060002092835584600184015560028301336001600160601b0360a01b825416179055856003840155600483019060ff801983541691151516179055565b3460058201556006810161ffff198154169055426007820155549060405193845260208401523460408401524260608401527fffaa3f2ca7a735e36b5adab1f989c6f24d937add66ec9fc7acaf5506ee01529e60803394a460018055005b506003810154881115612222565b60405162461bcd60e51b815260206004820152601f60248201527f537570706c79436861696e3a207061636b206e6f7420617661696c61626c65006044820152606490fd5b3461023d57600036600319011261023d576020600554604051908152f35b3461023d5760208060031936011261023d5761237761446c565b60069060065490600780549160009460009560015b86811115612633575060015b858111156125d857506123ad6123b391614ed1565b96614f6e565b94600060015b828111156124f45750505060009160015b858111156123fc576123ef886102918b8a6040519485946040865260408601906148be565b9184830390850152614989565b80600052600d8952604060002085815491821515806124db575b61242c575b50505061242790614b16565b6123ca565b916124279396916124d2936040519261244484614561565b835260018101548e84015260028101546001600160a01b0390811660408501526003820154606085015260048201546080850152600582015460ff9161248f83831660a08801614e80565b8160081c1660c086015260a81c16151560e08401526124af88820161460d565b61010084015201546101208201526124c7828b614b52565b5261037a818a614b52565b9390858b61241b565b5060028101546001600160a01b03868116911614612416565b80600052600c8a526040600020805490811515806125bf575b612522575b505061251d90614b16565b6123b9565b926125b79161251d939460405191612539836145b4565b825260018101548e83015260028101546001600160a01b031660408301526003810154606083015260048101546080830152600581015460a08301528781015460ff9160089161258e90841660c08601614e80565b8b81015460e085015201541615156101008201526125ac828d614b52565b5261037a818c614b52565b91908b612512565b5060028101546001600160a01b0388811691161461250d565b80600052600d89526040600020805415159081612619575b50612604575b6125ff90614b16565b612398565b966126116125ff91614b16565b9790506125f6565b600201546001600160a01b0386811691161490508a6125f0565b80600052600c89526040600020805415159081612674575b5061265f575b61265a90614b16565b61238c565b9061266c61265a91614b16565b919050612651565b600201546001600160a01b0386811691161490508a61264b565b3461023d57602036600319011261023d57600435600052600f602052610120604060002080549060ff60018201549160018060a01b036002820154166003820154836004840154169060058401549260076006860154950154966040519889526020890152604088015260608701521515608086015260a0850152818116151560c085015260081c16151560e0830152610100820152f35b3461023d5760208060031936011261023d5761274061446c565b60085460009160015b828111156128dd575061277461275e84614b3b565b9361276c60405195866145ec565b808552614b3b565b601f19018460005b8281106128c757505050600060015b838111156127f157604080518781528651818901819052600092600582901b8301810191898b01918b9085015b8287106127c55785850386f35b9091929382806127e1600193603f198a820301865288516149fc565b96019201960195929190926127b8565b80600052600e86526040600020805490811515806128ae575b61281f575b505061281a90614b16565b61278b565b926128a691600761281a949560405192612838846145d0565b835260018101548b84015260028101546001600160a01b031660408401526003810154606084015260048101546080840152600581015460ff16151560a08401526128856006820161460d565b60c0840152015460e082015261289b8289614b52565b5261037a8188614b52565b91908761280f565b5060028101546001600160a01b0386811691161461280a565b6128cf61525e565b82828801015201859061277c565b80600052600e8552604060002080541515908161291e575b50612909575b61290490614b16565b612749565b9261291661290491614b16565b9390506128fb565b600201546001600160a01b038481169116149050866128f5565b3461023d57600036600319011261023d576020600654604051908152f35b3461023d57604036600319011261023d576004356129726146f2565b5033600052600260205260ff6040600020541660068110156103a357600361299a9114614b88565b80600052600e602052600560406000206129b681541515615212565b60028101546129cf906001600160a01b03163314614dac565b01600160ff198254161790557f8b497a05d0ca742340c6ea9777f95403b7c38b7db415e50d58da7b92d04952146040805160018152426020820152a2005b3461023d57600036600319011261023d576000546040516001600160a01b039091168152602090f35b612a3f366149e6565b90612a48615789565b806000526020600e81526040600020908154151580612c84575b15612c405783151580612c32575b612a7990615167565b6004820193612a8c611f138654836151b3565b612a97600a54614b16565b9283600a558360005260108352604060002093845584600185015581600485015585546003850155600281019360018060a01b039182865416600583016001600160601b0360a01b91828254161790556006830190815490339082161782558488541660005260028752604060002054600660ff821610156103a35760ff60a01b9060a01b168060ff60a01b1933166affffffffffffffffffffff60a81b8416171783553360005260028852604060002054600660ff821610156103a35760ff60a81b9060a81b169161ffff60a01b1933169069ffffffffffffffffffff60b01b161717179055426007830155600080808034878b54165af1612b98614d6d565b5015612c10575b60038101612bae858254614d60565b80915515612bff575b505493541694549160405195865285015260408401524260608401527f29783e630fdd45b25ced917bc7e004251d86b554fdf4458f4b6d68de19ce17df60803394a460018055005b600501805460ff1916905587612bb7565b82865416600052601185526040600020612c2b348254614c9e565b9055612b9f565b506003820154841115612a70565b6064906040519062461bcd60e51b82526004820152601f60248201527f537570706c79436861696e3a20756e6974206e6f7420617661696c61626c65006044820152fd5b5060ff600583015416612a62565b3461023d57602036600319011261023d57600435600052600d6020526040600020805490600181015490612d4860018060a01b0391826002820154169460ff6003830154946004840154906005850154916007612cf16006880161460d565b960154976040519a8b9a610140978c5260208c015260408b015260608a01526080890152612d2460a0890184841661473f565b8160081c1660c088015260a81c16151560e0860152806101008601528401906146b2565b906101208301520390f35b3461023d57602036600319011261023d57612d6c61446c565b612d746157df565b6001600160a01b0316600081815260026020526040902060040154612d9b9060ff16615056565b80600052600260205260ff604060002054169060068210156103a357806000526002602052604060002061ffff1981541690557f656386f7fbf5fbd79ebb5d508870678c1d0ba774d3af78f5971f7d32d0da18bd6020604051428152a3005b3461023d57602036600319011261023d5760043560005260106020526101406040600020805490612e9f6001820154916002810154600382015490600483015460018060a01b039283600586015416926007600687015496015497604051998a5260208a015260408901526060880152608087015260a0860152811660c0850152612e8e60e0850160ff8360a01c16614482565b60ff61010085019160a81c16614482565b610120820152f35b3461023d57604036600319011261023d57612ec061446c565b612ec86146f2565b612ed06157df565b6001600160a01b038216908115612fa05760ff90826000526002602052612f008260046040600020015416615056565b1691612f0f60058411156150a2565b60068310156103a35781600052600260205260406000208361ffff19825416178155600342910155600460205260ff6040600020541615612f78575b507f1ebf9c3ff339a80f8d2af7a4f2483755c64ca9ae97178045118ca0051a5b5bbb6020604051428152a3005b612f8190615125565b8060005260046020526040600020600160ff1982541617905582612f4b565b60405162461bcd60e51b815260206004820152601960248201527f537570706c79436861696e3a207a65726f2061646472657373000000000000006044820152606490fd5b3461023d57600036600319011261023d57612ffe6157df565b600080546001600160a01b0319811682556001600160a01b03167f8be0079c531659141344cd1fd0a4f28419497f9722a3daafe3b4186f6b6457e08280a3005b3461023d57606036600319011261023d5760043561305a6146f2565b6044356001600160a01b03818116929083830361023d5733600052600260205260ff6040600020541660068110156103a35760026130989114614b88565b84600052600d6020526040600020916130b383541515614fbe565b3382600285015416036131f05760ff16916130d1600184111561500a565b60028310156103a357600501936130e88386614cab565b845460ff811660028110156103a3576131b7575015613164578354610100600160a81b03191660089390931b610100600160a81b03169290921783557fa954f6fe988fac0764a5205a7f69afb2bb27163cf0d9ded97f3f49358f259e4b92606092905b5460081c166040519182526020820152426040820152a2005b60405162461bcd60e51b815260206004820152602560248201527f537570706c79436861696e3a20707269766174652061646472657373207265716044820152641d5a5c995960da1b6064820152608490fd5b610100600160a81b0319168555507fa954f6fe988fac0764a5205a7f69afb2bb27163cf0d9ded97f3f49358f259e4b936060935061314b565b60405162461bcd60e51b815260206004820152601b60248201527f537570706c79436861696e3a206e6f74207061636b206f776e657200000000006044820152606490fd5b3461023d57602036600319011261023d5761324e614e23565b50600435600052600b602052604060002060ff600b6040519261327084614598565b8054845260018101546001600160a01b031660208501526132936002820161460d565b60408501526132a46003820161460d565b606085015260048101546080850152600581015460a0850152600681015460c08501526132d36007820161460d565b60e08501526132ec836008830154166101008601614e80565b6132f86009820161460d565b610120850152600a81015461014085015201541615156101608201528051156137ab5760065490600060015b83811115613759575061333690614ed1565b91600060015b8281111561368857505050600754600060015b8281111561351f575061336190614f6e565b90600060015b828111156133ab5761338f856102918661339d8a6040519586956060875260608701906147aa565b9085820360208701526148be565b908382036040850152614989565b80600052600d60205260406000206007604051916133c883614561565b805483526001810154602084015260028101546001600160a01b031660408401526003810154606084015260048101546080840152600581015460ff9061341481831660a08701614e80565b600881901c6001600160a01b031660c086015260a81c16151560e084015261343e6006820161460d565b61010084015201546101208201528051613462575b5061345d90614b16565b613367565b6020810151600052600c602052604060002060ff600860405192613485846145b4565b805484526001810154602085015260028101546001600160a01b031660408501526003810154606085015260048101546080850152600581015460a085015260068101546134d890841660c08601614e80565b600781015460e0850152015416151561010082015260206004359101510361345357826135189161350d61345d949588614b52565b5261037a8187614b52565b9190613453565b80600052600d602052604060002060076040519161353c83614561565b805483526001810154602084015260028101546001600160a01b031660408401526003810154606084015260048101546080840152600581015460ff9061358881831660a08701614e80565b600881901c6001600160a01b031660c086015260a81c16151560e08401526135b26006820161460d565b610100840152015461012082015280516135d6575b506135d190614b16565b61334f565b60200151600052600c602052604060002060ff6008604051926135f8846145b4565b805484526001810154602085015260028101546001600160a01b031660408501526003810154606085015260048101546080850152600581015460a0850152600681015461364b90841660c08601614e80565b600781015460e085015201541615156101008201526020015160043514613673575b856135c7565b906136806135d191614b16565b91905061366d565b80600052600c60205260406000208054908115158061374a575b6136b7575b50506136b290614b16565b61333c565b926137429160ff60086136b29596604051936136d2856145b4565b84526001810154602085015260028101546001600160a01b031660408501526003810154606085015260048101546080850152600581015460a0850152600681015461372390841660c08601614e80565b600781015460e0850152015416151561010082015261289b8289614b52565b9190866136a7565b506004356001820154146136a2565b80600052600c602052604060002080541515908161379b575b50613786575b61378190614b16565b613324565b9061379361378191614b16565b919050613778565b6001015460043514905085613772565b60405162461bcd60e51b815260206004820152602360248201527f537570706c79436861696e3a206661726d6572206261746368206e6f7420666f6044820152621d5b9960ea1b6064820152608490fd5b3461023d57602036600319011261023d5761381561446c565b61381d614df1565b5060018060a01b03166000526002602052610291604060002060ff6004604051926138478461457d565b82815461385682821687614b7c565b60081c161515602085015261386d6001820161460d565b604085015261387e6002820161460d565b606085015260038101546080850152015416151560a082015260405191829160208352602083019061474c565b3461023d57600036600319011261023d576020600a54604051908152f35b3461023d57602036600319011261023d57600435600052600b6020526040600020805490600160a01b60019003600182015416906002810161390a9061460d565b6139166003830161460d565b60048301546005840154600685015490916139336007870161460d565b91600887015460ff16936009880161394a9061460d565b95600a89015498600b015460ff16976040519b8c9b610180918d5260208d01528060408d01528b0161397b916146b2565b8a810360608c015261398c916146b2565b9260808a015260a089015260c088015286810360e08801526139ad916146b2565b9061010086016139bc9161473f565b8481036101208601526139ce916146b2565b9161014084015215156101608301520390f35b3461023d5760c036600319011261023d5760043560243590604435916064359260ff841680940361023d576001600160401b0360843581811161023d57613a2c903690600401614712565b909360a43594851515860361023d5786600052602097600b8952604060002095865415613bd657600193613a6c60018060a01b03868a0154163314614dac565b80613bcb575b5080613bc0575b5082811115613ba4575b5082613ad2575b8787613aa588600b89019060ff801983541691151516179055565b7f94175357e14197ed5c707794d9cad6f16ba39999d0adf8b6d74bdeb9127917a7604051924284523393a3005b60098501938311610c6d57613aeb83611b818654614527565b600090601f8411600114613b35579280600b95938193613aa5999896600094613b2a575b50501b916000199060031b1c19161790555b91928680613a8a565b013592508b80613b0f565b601f9392931983169185600052896000209260005b8b828210613b9057505091613aa5989795939185600b98969410613b76575b505050811b019055613b21565b0135600019600384901b60f8161c19169055898080613b69565b848401358655948701949283019201613b4a565b60028110156103a357613bba9060088701614cab565b88613a83565b600687015589613a79565b60058801558a613a72565b60405162461bcd60e51b8152600481018b9052601e60248201527f537570706c79436861696e3a2070726f64756374206e6f7420666f756e6400006044820152606490fd5b3461023d57600036600319011261023d57613c34615789565b33600052602060118152604060002054908115613cec57336000526011815260006040812055600080808085335af1613c6b614d6d565b5015613ca85760405191825242908201527f92ccf450a286a957af52509bc1c9939d1a6a481783e142e41e2499f0bb66ebc660403392a260018055005b6064906040519062461bcd60e51b82526004820152601c60248201527f537570706c79436861696e3a207769746864726177206661696c6564000000006044820152fd5b6064906040519062461bcd60e51b825280600483015260248201527f537570706c79436861696e3a206e6f7468696e6720746f2077697468647261776044820152fd5b3461023d57602036600319011261023d57600435600052600e60205260406000208054600182015490613dc460018060a01b0360028501541693600381015492600482015460ff600584015416906007613d8b6006860161460d565b94015495604051988998610100958a5260208a0152604089015260608801526080870152151560a08601528060c08601528401906146b2565b9060e08301520390f35b3461023d57613ddc366144bf565b9095929594919433600052600260205260ff6040600020541660068110156103a3576002613e0a9114614b88565b83600052600c6020526040600020958654151580614186575b15614124576002870154336001600160a01b03909116036140cb57613e49818714614bec565b613e54838714614c38565b60009560005b8181106140b25750600388015487116140565760005b818110613ea05788613e86896003830154614d60565b80600383015515613e9357005b600801805460ff19169055005b613eab600754614b16565b8060075580600052600d602052604060002090815587600182015560028101336001600160601b0360a01b825416179055613ee7828489614c8e565b356003820155613ef882858d614c8e565b3560048201556005810180546001600160b01b031916600160a81b179055613f21828787614cc3565b906001600160401b038211610c6d57613f4182610b4b6006860154614527565b600090601f8311600114613fe25760019493929160009183613fd7575b5050600019600383901b1c191690841b1760068201555b4260078201558881547fb70b76668a09b3af66768dba9e78ffeff8f6ea1b1ab19d56dc5f0684f8300f3e613fce600460038601549501549460405191829133974291846040919493926060820195825260208201520152565b0390a401613e70565b013590508e80613f5e565b6006840160005260206000209160005b601f198516811061403e57509183916001969594938794601f19811610614024575b505050811b016006820155613f75565b0135600019600384901b60f8161c191690558e8080614014565b90926020600181928686013581550194019101613ff2565b60405162461bcd60e51b815260206004820152602e60248201527f537570706c79436861696e3a2073756d2065786365656473206469737472696260448201526d75746f722062617463682071747960901b6064820152608490fd5b966140c4600191610cdc8a858a614c8e565b9701613e5a565b60405162461bcd60e51b815260206004820152602b60248201527f537570706c79436861696e3a206e6f74206f776e6572206f662064697374726960448201526a0c4eae8dee440c4c2e8c6d60ab1b6064820152608490fd5b60405162461bcd60e51b815260206004820152603460248201527f537570706c79436861696e3a206469737472696275746f72206261746368206e6044820152736f7420666f756e64206f7220696e61637469766560601b6064820152608490fd5b5060ff600888015416613e23565b3461023d57600036600319011261023d576020600854604051908152f35b3461023d5760208060031936011261023d576141cc61446c565b600a546001600160a01b03929160009190841660015b8281111561441157506141f761275e84614b3b565b601f19018460005b8281106143b35750505060009060015b838111156142cd5750505050604051918083018184528251809152816040850193019160005b8281106142425785850386f35b9091929382610140600192875180518252838101518483015260408101516040830152606080820151908301526080808201519083015260a08b81830151169083015260c08b8183015116908301526142a360e082015160e0840190614482565b6142b66101008083015190840190614482565b610120908101519082015201950193929101614235565b806000526010865285604060002060068101548981168a86821480156143a4575b614306575b505050505061430190614b16565b61420f565b926143858361439796946143776007956143019a9c98604051986143298a614561565b87548a526001880154908a0152600287015460408a0152600387015460608a0152600487015460808a01526005870154169060a091828a015260c089015260ff9384911c1660e08801614b7c565b60a81c166101008501614b7c565b015461012082015261289b8289614b52565b929050858880808a6142f3565b508681600586015416146142ee565b6040516143bf81614561565b60008152600083820152600060408201526000606082015260006080820152600060a0820152600060c0820152600060e0820152600061010082015260006101208201528282880101520185906141ff565b80600052601085526040600020828781816006850154161492831561445c575b505050614447575b61444290614b16565b6141e2565b9261445461444291614b16565b939050614439565b6005015416149050828789614431565b600435906001600160a01b038216820361023d57565b9060068210156103a35752565b9181601f8401121561023d578235916001600160401b03831161023d576020808501948460051b01011161023d57565b608060031982011261023d57600435916001600160401b0360243581811161023d57836144ee9160040161448f565b9390939260443583811161023d57826145099160040161448f565b9390939260643591821161023d576145239160040161448f565b9091565b90600182811c92168015614557575b602083101461454157565b634e487b7160e01b600052602260045260246000fd5b91607f1691614536565b61014081019081106001600160401b03821117610c6d57604052565b60c081019081106001600160401b03821117610c6d57604052565b61018081019081106001600160401b03821117610c6d57604052565b61012081019081106001600160401b03821117610c6d57604052565b61010081019081106001600160401b03821117610c6d57604052565b90601f801991011681019081106001600160401b03821117610c6d57604052565b9060405191826000825461462081614527565b908184526020946001916001811690816000146146905750600114614651575b50505061464f925003836145ec565b565b600090815285812095935091905b81831061467857505061464f9350820101388080614640565b8554888401850152948501948794509183019161465f565b9250505061464f94925060ff191682840152151560051b820101388080614640565b919082519283825260005b8481106146de575050826000602080949584010152601f8019910116010190565b6020818301810151848301820152016146bd565b6024359060ff8216820361023d57565b6004359060ff8216820361023d57565b9181601f8401121561023d578235916001600160401b03831161023d576020838186019501011161023d57565b9060028210156103a35752565b90614758818351614482565b60208201511515602082015260a080614795614783604086015160c0604087015260c08601906146b2565b606086015185820360608701526146b2565b93608081015160808501520151151591015290565b9061483b6148146147e46147836101808651865260018060a01b0360208801511660208701526040870151908060408801528601906146b2565b6080850151608085015260a085015160a085015260c085015160c085015260e085015184820360e08601526146b2565b614827610100808601519085019061473f565b6101208085015190848303908501526146b2565b91610140808201519083015261016080910151151591015290565b805182526020810151602083015260018060a01b036040820151166040830152606081015160608301526080810151608083015260a081015160a08301526148a660c082015160c084019061473f565b60e081015160e0830152610100809101511515910152565b90815180825260208080930193019160005b8281106148de575050505090565b9091929382610120826148f46001948951614856565b019501939291016148d0565b9061497b6101408351835260208401516020840152604084015160018060a01b038091166040850152606085015160608501526080850151608085015261494f60a086015160a086019061473f565b60c08501511660c084015260e0840151151560e0840152610100908082860151928501528301906146b2565b916101208091015191015290565b90808251908181526020809101926020808460051b8301019501936000915b8483106149b85750505050505090565b90919293949584806149d6600193601f198682030187528a51614900565b98019301930191949392906149a8565b604090600319011261023d576004359060243590565b9060e080614a5a610100855185526020860151602086015260018060a01b036040870151166040860152606086015160608601526080860151608086015260a0860151151560a086015260c0860151908060c08701528501906146b2565b93015191015290565b90815180825260208080930193019160005b828110614a83575050505090565b83516001600160a01b031685529381019392810192600101614a75565b90614ab390604083526040830190614a63565b90602090818184039101528251908183528083019281808460051b8301019501936000915b848310614ae85750505050505090565b9091929394958480614b06600193601f198682030187528a5161474c565b9801930193019194939290614ad8565b6000198114614b255760010190565b634e487b7160e01b600052601160045260246000fd5b6001600160401b038111610c6d5760051b60200190565b8051821015614b665760209160051b010190565b634e487b7160e01b600052603260045260246000fd5b60068210156103a35752565b15614b8f57565b60405162461bcd60e51b815260206004820152602f60248201527f537570706c79436861696e3a2063616c6c657220646f6573206e6f742068617660448201526e6520726571756972656420726f6c6560881b6064820152608490fd5b15614bf357565b60405162461bcd60e51b815260206004820152601c60248201527f537570706c79436861696e3a206c656e677468206d69736d61746368000000006044820152606490fd5b15614c3f57565b60405162461bcd60e51b815260206004820152602160248201527f537570706c79436861696e3a2069706673206c656e677468206d69736d6174636044820152600d60fb1b6064820152608490fd5b9190811015614b665760051b0190565b91908201809211614b2557565b9060028110156103a35760ff80198354169116179055565b9190811015614b665760051b81013590601e198136030182121561023d5701908135916001600160401b03831161023d57602001823603811361023d579190565b818110614d0f575050565b60008155600101614d04565b9190601f8111614d2a57505050565b61464f926000526020600020906020601f840160051c83019310614d56575b601f0160051c0190614d04565b9091508190614d49565b91908203918211614b2557565b3d15614da7573d906001600160401b038211610c6d5760405191614d9b601f8201601f1916602001846145ec565b82523d6000602084013e565b606090565b15614db357565b60405162461bcd60e51b815260206004820152601660248201527529bab838363ca1b430b4b71d103737ba1037bbb732b960511b6044820152606490fd5b60405190614dfe8261457d565b600060a083828152826020820152606060408201526060808201528260808201520152565b60405190614e3082614598565b81610160600091828152826020820152606060408201526060808201528260808201528260a08201528260c0820152606060e0820152826101008201526060610120820152826101408201520152565b60028210156103a35752565b60405190614e99826145b4565b816101006000918281528260208201528260408201528260608201528260808201528260a08201528260c08201528260e08201520152565b90614edb82614b3b565b614ee860405191826145ec565b8281528092614ef9601f1991614b3b565b019060005b828110614f0a57505050565b602090614f15614e8c565b82828501015201614efe565b60405190614f2e82614561565b816101206000918281528260208201528260408201528260608201528260808201528260a08201528260c08201528260e082015260606101008201520152565b90614f7882614b3b565b614f8560405191826145ec565b8281528092614f96601f1991614b3b565b019060005b828110614fa757505050565b602090614fb2614f21565b82828501015201614f9b565b15614fc557565b60405162461bcd60e51b815260206004820152601b60248201527f537570706c79436861696e3a207061636b206e6f7420666f756e6400000000006044820152606490fd5b1561501157565b60405162461bcd60e51b815260206004820152601f60248201527f537570706c79436861696e3a20696e76616c6964207669736962696c697479006044820152606490fd5b1561505d57565b60405162461bcd60e51b815260206004820152601b60248201527f537570706c79436861696e3a2075736572206e6f7420666f756e6400000000006044820152606490fd5b156150a957565b60405162461bcd60e51b815260206004820152601960248201527f537570706c79436861696e3a20696e76616c696420726f6c65000000000000006044820152606490fd5b600354811015614b665760036000527fc2575a0e9e593c00f959f8c92f12db2869c3395a3b0502d05e2516446f71f85b0190600090565b60035468010000000000000000811015610c6d5780600161514992016003556150ee565b60018060a09493941b038084549260031b9316831b921b1916179055565b1561516e57565b60405162461bcd60e51b815260206004820152601860248201527f537570706c79436861696e3a20696e76616c69642071747900000000000000006044820152606490fd5b81810292918115918404141715614b2557565b156151cd57565b60405162461bcd60e51b815260206004820152601e60248201527f537570706c79436861696e3a20696e636f7272656374207061796d656e7400006044820152606490fd5b1561521957565b60405162461bcd60e51b815260206004820152601b60248201527f537570706c79436861696e3a20756e6974206e6f7420666f756e6400000000006044820152606490fd5b6040519061526b826145d0565b8160e06000918281528260208201528260408201528260608201528260808201528260a0820152606060c08201520152565b60009081526020600f8152604092838320938454156156c457600685019384549360ff85166156815760019687810180548452600d8352848420966152e488541515614fbe565b6002888101546001600160a01b039a9198908b163303615632578b90159261ff00841560081b169061ffff1916171790556155b05760058201848080808454335af161532e614d6d565b5015615592575b506003820191825460038901908154808211615534579061535591614d60565b80915515615520575b615369600854614b16565b9485600855858152600e855286812095865582548b8701558a6004898401958c8754168b8a01906001600160601b0360a01b825416179055549a600389019b8c5501549860048801998a55600588019260ff19938385825416179055600060068a016153d58154614527565b601f8111615502575b50554260078a01558c60ff600487015416806154c2575b938b9a989692938b7fcdf39da8f0023d4d1d194a43508204b3a50c233fa8270b04763d6410237bad849e9d9561548c9c9a98947fe78865c8cdcc5a0bb19ef6d81cd636fea14ba8ef2c8d07f76f7681a2039156fd98615491575b5050505050505492549b8c9454169c8d9582519182524290820152a454945492549151928352602083019190915242604083015281906060820190565b0390a4565b600493818c541683528c528282206003878254161790558a54168152200191825416179055388e818f81869161544f565b5090919250865416815281875260ff898220541660068110156154ee578d9291908d90600314156153f5565b634e487b7160e01b82526021600452602482fd5b8184528a842061551a91601f0160051c810190614d04565b386153de565b60058801805460ff60a81b1916905561535e565b885162461bcd60e51b815260048101889052603160248201527f537570706c79436861696e3a207061636b20646f65736e277420686176652074604482015270686174206d756368207175616e7469747960781b6064820152608490fd5b54338552601184526155a8868620918254614c9e565b905538615335565b9550959096507fe78865c8cdcc5a0bb19ef6d81cd636fea14ba8ef2c8d07f76f7681a2039156fd93860195818754168380808060058601948554905af16155f5614d6d565b5015615611575b505494549554169582519182524290820152a4565b548288541684526011895261562a858520918254614c9e565b9055386155fc565b875162461bcd60e51b815260048101879052602260248201527f537570706c79436861696e3a2063616c6c6572206e6f74207061636b206f776e60448201526132b960f11b6064820152608490fd5b60649083519062461bcd60e51b82526004820152601d60248201527f537570706c79436861696e3a20616c7265616479207265736f6c7665640000006044820152fd5b5162461bcd60e51b815260048101839052601e60248201527f537570706c79436861696e3a2072657175657374206e6f7420666f756e6400006044820152606490fd5b9061571182614b3b565b61571e60405191826145ec565b828152809261572f601f1991614b3b565b0190602036910137565b9061574382614b3b565b61575060405191826145ec565b8281528092615761601f1991614b3b565b019060005b82811061577257505050565b60209061577d614df1565b82828501015201615766565b60026001541461579a576002600155565b60405162461bcd60e51b815260206004820152601f60248201527f5265656e7472616e637947756172643a207265656e7472616e742063616c6c006044820152606490fd5b6000546001600160a01b031633036157f357565b606460405162461bcd60e51b815260206004820152602060248201527f4f776e61626c653a2063616c6c6572206973206e6f7420746865206f776e65726044820152fdfea2646970667358221220354685e0f884383757505d4d4756b3e9cdc18ad5cc93eca8431f15889e9c9fcf64736f6c63430008180033","opcodes":"PUSH1 0x80 CALLVALUE PUSH3 0x452 JUMPI PUSH1 0x0 DUP1 SLOAD CALLER PUSH1 0x1 PUSH1 0x1 PUSH1 0xA0 SHL SUB NOT DUP1 DUP4 AND DUP3 OR DUP5 SSTORE SWAP4 SWAP3 SWAP2 PUSH1 0x1 PUSH1 0x1 PUSH1 0xA0 SHL SUB AND PUSH32 0x8BE0079C531659141344CD1FD0A4F28419497F9722A3DAAFE3B4186F6B6457E0 DUP4 DUP1 LOG3 PUSH1 0x1 DUP1 DUP1 SSTORE PUSH1 0x1 PUSH1 0x1 PUSH1 0x40 SHL SUB SWAP4 SWAP1 SWAP3 SWAP1 PUSH1 0xC0 DUP3 ADD DUP6 DUP2 GT DUP4 DUP3 LT OR PUSH3 0x238 JUMPI PUSH1 0x40 MSTORE PUSH1 0x5 DUP3 MSTORE PUSH1 0x20 SWAP2 DUP3 DUP2 ADD SWAP6 DUP5 DUP8 MSTORE PUSH3 0x88 PUSH3 0x457 JUMP JUMPDEST SWAP1 DUP6 DUP3 MSTORE PUSH1 0x40 DUP4 ADD SWAP2 DUP3 MSTORE PUSH3 0x9D PUSH3 0x457 JUMP JUMPDEST SWAP1 DUP7 DUP3 MSTORE PUSH1 0x60 DUP5 ADD SWAP2 DUP3 MSTORE PUSH1 0x80 DUP5 ADD SWAP3 TIMESTAMP DUP5 MSTORE PUSH1 0xA0 DUP6 ADD SWAP10 DUP10 DUP12 MSTORE CALLER DUP10 MSTORE PUSH1 0x2 DUP9 MSTORE PUSH1 0x40 DUP10 KECCAK256 SWAP6 MLOAD SWAP1 PUSH1 0x6 DUP3 LT ISZERO PUSH3 0x43E JUMPI PUSH1 0xFF PUSH2 0xFF00 DUP9 SLOAD SWAP3 MLOAD ISZERO ISZERO PUSH1 0x8 SHL AND SWAP3 AND SWAP1 PUSH2 0xFFFF NOT AND OR OR DUP6 SSTORE DUP9 DUP6 ADD SWAP1 MLOAD SWAP1 DUP2 MLOAD DUP4 DUP2 GT PUSH3 0x42A JUMPI DUP2 SLOAD SWAP3 DUP12 DUP5 DUP2 SHR SWAP5 AND DUP1 ISZERO PUSH3 0x41F JUMPI JUMPDEST DUP11 DUP6 LT EQ PUSH3 0x40B JUMPI DUP2 SWAP1 PUSH1 0x1F SWAP5 DUP6 DUP2 GT PUSH3 0x3B8 JUMPI JUMPDEST POP DUP11 SWAP1 DUP6 DUP4 GT PUSH1 0x1 EQ PUSH3 0x34A JUMPI DUP13 SWAP3 PUSH3 0x33E JUMPI JUMPDEST POP POP PUSH1 0x0 NOT PUSH1 0x3 DUP4 SWAP1 SHL SHR NOT AND SWAP1 DUP12 SHL OR SWAP1 SSTORE JUMPDEST PUSH1 0x2 DUP6 ADD SWAP3 MLOAD DUP1 MLOAD SWAP3 DUP4 GT PUSH3 0x32A JUMPI DUP4 SLOAD DUP11 DUP2 DUP2 SHR SWAP2 AND DUP1 ISZERO PUSH3 0x31F JUMPI JUMPDEST DUP10 DUP3 LT EQ PUSH3 0x30B JUMPI DUP3 DUP2 GT PUSH3 0x2C3 JUMPI JUMPDEST POP DUP8 SWAP2 DUP4 GT PUSH1 0x1 EQ PUSH3 0x258 JUMPI PUSH1 0x4 SWAP6 SWAP5 SWAP4 SWAP3 SWAP2 DUP10 SWAP2 DUP4 PUSH3 0x24C JUMPI JUMPDEST POP POP PUSH1 0x0 NOT PUSH1 0x3 DUP4 SWAP1 SHL SHR NOT AND SWAP1 DUP10 SHL OR SWAP1 SSTORE JUMPDEST MLOAD PUSH1 0x3 DUP3 ADD SSTORE ADD SWAP5 MLOAD ISZERO ISZERO SWAP5 PUSH1 0xFF NOT SWAP6 PUSH1 0xFF DUP8 DUP4 SLOAD AND SWAP2 AND OR SWAP1 SSTORE PUSH1 0x3 SLOAD PUSH9 0x10000000000000000 DUP2 LT ISZERO PUSH3 0x238 JUMPI DUP5 DUP2 ADD DUP1 PUSH1 0x3 SSTORE DUP2 LT ISZERO PUSH3 0x224 JUMPI SWAP2 PUSH1 0x4 SWAP2 DUP5 SWAP4 PUSH1 0x3 PUSH1 0x40 SWAP7 MSTORE DUP3 DUP6 KECCAK256 ADD SWAP1 CALLER SWAP1 DUP3 SLOAD AND OR SWAP1 SSTORE CALLER DUP4 MSTORE MSTORE KECCAK256 SWAP2 DUP3 SLOAD AND OR SWAP1 SSTORE PUSH1 0x40 MLOAD PUSH2 0x586D SWAP1 DUP2 PUSH3 0x48E DUP3 CODECOPY RETURN JUMPDEST PUSH4 0x4E487B71 PUSH1 0xE0 SHL DUP5 MSTORE PUSH1 0x32 PUSH1 0x4 MSTORE PUSH1 0x24 DUP5 REVERT JUMPDEST PUSH4 0x4E487B71 PUSH1 0xE0 SHL DUP5 MSTORE PUSH1 0x41 PUSH1 0x4 MSTORE PUSH1 0x24 DUP5 REVERT JUMPDEST ADD MLOAD SWAP1 POP CODESIZE DUP1 PUSH3 0x19C JUMP JUMPDEST SWAP5 SWAP4 SWAP3 SWAP2 DUP10 SWAP2 PUSH1 0x1F NOT DUP3 AND SWAP1 DUP5 DUP12 MSTORE DUP10 DUP12 KECCAK256 SWAP2 DUP12 JUMPDEST DUP12 DUP3 DUP3 LT PUSH3 0x2AC JUMPI POP POP SWAP8 DUP4 PUSH1 0x4 SWAP10 LT PUSH3 0x292 JUMPI JUMPDEST POP POP POP DUP2 SHL ADD SWAP1 SSTORE PUSH3 0x1B0 JUMP JUMPDEST ADD MLOAD PUSH1 0x0 NOT PUSH1 0xF8 DUP5 PUSH1 0x3 SHL AND SHR NOT AND SWAP1 SSTORE CODESIZE DUP1 DUP1 PUSH3 0x284 JUMP JUMPDEST DUP4 DUP12 ADD MLOAD DUP6 SSTORE DUP15 SWAP7 SWAP1 SWAP5 ADD SWAP4 SWAP3 DUP4 ADD SWAP3 ADD PUSH3 0x26D JUMP JUMPDEST DUP5 DUP11 MSTORE DUP9 DUP11 KECCAK256 DUP4 DUP1 DUP7 ADD PUSH1 0x5 SHR DUP3 ADD SWAP3 DUP12 DUP8 LT PUSH3 0x301 JUMPI JUMPDEST ADD PUSH1 0x5 SHR ADD SWAP1 DUP12 SWAP1 JUMPDEST DUP3 DUP2 LT PUSH3 0x2F5 JUMPI POP POP PUSH3 0x17F JUMP JUMPDEST DUP12 DUP2 SSTORE ADD DUP12 SWAP1 PUSH3 0x2E5 JUMP JUMPDEST SWAP3 POP DUP2 SWAP3 PUSH3 0x2DC JUMP JUMPDEST PUSH4 0x4E487B71 PUSH1 0xE0 SHL DUP11 MSTORE PUSH1 0x22 PUSH1 0x4 MSTORE PUSH1 0x24 DUP11 REVERT JUMPDEST SWAP1 PUSH1 0x7F AND SWAP1 PUSH3 0x16D JUMP JUMPDEST PUSH4 0x4E487B71 PUSH1 0xE0 SHL DUP10 MSTORE PUSH1 0x41 PUSH1 0x4 MSTORE PUSH1 0x24 DUP10 REVERT JUMPDEST ADD MLOAD SWAP1 POP CODESIZE DUP1 PUSH3 0x139 JUMP JUMPDEST DUP5 DUP14 MSTORE DUP12 DUP14 KECCAK256 DUP15 SWAP5 POP SWAP2 SWAP1 PUSH1 0x1F NOT DUP5 AND DUP15 DUP15 JUMPDEST DUP3 DUP3 LT PUSH3 0x397 JUMPI POP POP DUP5 GT PUSH3 0x37D JUMPI JUMPDEST POP POP POP DUP2 SHL ADD SWAP1 SSTORE PUSH3 0x14D JUMP JUMPDEST ADD MLOAD PUSH1 0x0 NOT PUSH1 0xF8 DUP5 PUSH1 0x3 SHL AND SHR NOT AND SWAP1 SSTORE CODESIZE DUP1 DUP1 PUSH3 0x36F JUMP JUMPDEST SWAP2 SWAP3 SWAP4 SWAP6 SWAP7 DUP3 SWAP2 SWAP6 DUP8 DUP7 ADD MLOAD DUP2 SSTORE ADD SWAP6 ADD SWAP4 ADD SWAP1 DUP16 SWAP6 SWAP5 SWAP4 SWAP3 SWAP2 DUP15 PUSH3 0x35D JUMP JUMPDEST SWAP1 SWAP2 POP DUP4 DUP13 MSTORE DUP11 DUP13 KECCAK256 DUP6 DUP1 DUP6 ADD PUSH1 0x5 SHR DUP3 ADD SWAP3 DUP14 DUP7 LT PUSH3 0x401 JUMPI JUMPDEST SWAP2 DUP16 SWAP2 DUP7 SWAP6 SWAP5 SWAP4 ADD PUSH1 0x5 SHR ADD SWAP2 JUMPDEST DUP3 DUP2 LT PUSH3 0x3F2 JUMPI POP POP PUSH3 0x123 JUMP JUMPDEST DUP15 DUP2 SSTORE DUP6 SWAP5 POP DUP16 SWAP2 ADD PUSH3 0x3E2 JUMP JUMPDEST SWAP3 POP DUP2 SWAP3 PUSH3 0x3D4 JUMP JUMPDEST PUSH4 0x4E487B71 PUSH1 0xE0 SHL DUP12 MSTORE PUSH1 0x22 PUSH1 0x4 MSTORE PUSH1 0x24 DUP12 REVERT JUMPDEST SWAP4 PUSH1 0x7F AND SWAP4 PUSH3 0x10C JUMP JUMPDEST PUSH4 0x4E487B71 PUSH1 0xE0 SHL DUP11 MSTORE PUSH1 0x41 PUSH1 0x4 MSTORE PUSH1 0x24 DUP11 REVERT JUMPDEST PUSH4 0x4E487B71 PUSH1 0xE0 SHL DUP11 MSTORE PUSH1 0x21 PUSH1 0x4 MSTORE PUSH1 0x24 DUP11 REVERT JUMPDEST PUSH1 0x0 DUP1 REVERT JUMPDEST PUSH1 0x40 MLOAD SWAP1 PUSH1 0x20 DUP3 ADD PUSH1 0x1 PUSH1 0x1 PUSH1 0x40 SHL SUB DUP2 GT DUP4 DUP3 LT OR PUSH3 0x477 JUMPI PUSH1 0x40 MSTORE JUMP JUMPDEST PUSH4 0x4E487B71 PUSH1 0xE0 SHL PUSH1 0x0 MSTORE PUSH1 0x41 PUSH1 0x4 MSTORE PUSH1 0x24 PUSH1 0x0 REVERT INVALID PUSH1 0x80 PUSH1 0x40 MSTORE PUSH1 0x4 CALLDATASIZE LT ISZERO PUSH2 0x36 JUMPI JUMPDEST CALLDATASIZE ISZERO PUSH2 0x19 JUMPI PUSH1 0x0 DUP1 REVERT JUMPDEST CALLER PUSH1 0x0 MSTORE PUSH1 0x11 PUSH1 0x20 MSTORE PUSH1 0x40 PUSH1 0x0 KECCAK256 PUSH2 0x32 CALLVALUE DUP3 SLOAD PUSH2 0x4C9E JUMP JUMPDEST SWAP1 SSTORE STOP JUMPDEST PUSH1 0x0 CALLDATALOAD PUSH1 0xE0 SHR DUP1 PUSH4 0x21034444 EQ PUSH2 0x41B2 JUMPI DUP1 PUSH4 0x25159805 EQ PUSH2 0x4194 JUMPI DUP1 PUSH4 0x2A1C2351 EQ PUSH2 0x3DCE JUMPI DUP1 PUSH4 0x3B510B1D EQ PUSH2 0x3D2F JUMPI DUP1 PUSH4 0x3CCFD60B EQ PUSH2 0x3C1B JUMPI DUP1 PUSH4 0x4C041CD9 EQ PUSH2 0x39E1 JUMPI DUP1 PUSH4 0x54AD290E EQ PUSH2 0x38C9 JUMPI DUP1 PUSH4 0x5962A941 EQ PUSH2 0x38AB JUMPI DUP1 PUSH4 0x6386C1C7 EQ PUSH2 0x37FC JUMPI DUP1 PUSH4 0x66908680 EQ PUSH2 0x3235 JUMPI DUP1 PUSH4 0x67D0DE37 EQ PUSH2 0x303E JUMPI DUP1 PUSH4 0x715018A6 EQ PUSH2 0x2FE5 JUMPI DUP1 PUSH4 0x71F3C4EF EQ PUSH2 0x2EA7 JUMPI DUP1 PUSH4 0x76B01941 EQ PUSH2 0x2DFA JUMPI DUP1 PUSH4 0x80E52E3F EQ PUSH2 0x2D53 JUMPI DUP1 PUSH4 0x870D09C5 EQ PUSH2 0x2C92 JUMPI DUP1 PUSH4 0x89A64D4A EQ PUSH2 0x2A36 JUMPI DUP1 PUSH4 0x8DA5CB5B EQ PUSH2 0x2A0D JUMPI DUP1 PUSH4 0x949FB8BA EQ PUSH2 0x2956 JUMPI DUP1 PUSH4 0x95CE0981 EQ PUSH2 0x2938 JUMPI DUP1 PUSH4 0x98383922 EQ PUSH2 0x2726 JUMPI DUP1 PUSH4 0x98A45ADB EQ PUSH2 0x268E JUMPI DUP1 PUSH4 0xA0C99969 EQ PUSH2 0x235D JUMPI DUP1 PUSH4 0xA40B72E1 EQ PUSH2 0x233F JUMPI DUP1 PUSH4 0xA574E0C8 EQ PUSH2 0x21BE JUMPI DUP1 PUSH4 0xA87430BA EQ PUSH2 0x2112 JUMPI DUP1 PUSH4 0xAA46B66F EQ PUSH2 0x1E4F JUMPI DUP1 PUSH4 0xB0BF3DAC EQ PUSH2 0x1ACA JUMPI DUP1 PUSH4 0xB4BC6FAE EQ PUSH2 0x17CB JUMPI DUP1 PUSH4 0xB5CB15F7 EQ PUSH2 0x17AD JUMPI DUP1 PUSH4 0xC22FB929 EQ PUSH2 0x174F JUMPI DUP1 PUSH4 0xC2AFC793 EQ PUSH2 0x14CA JUMPI DUP1 PUSH4 0xD3389B85 EQ PUSH2 0xF61 JUMPI DUP1 PUSH4 0xDDB7A4DE EQ PUSH2 0xE30 JUMPI DUP1 PUSH4 0xE2842D79 EQ PUSH2 0xCED JUMPI DUP1 PUSH4 0xE594C648 EQ PUSH2 0x9DC JUMPI DUP1 PUSH4 0xEF9D8DCA EQ PUSH2 0x89B JUMPI DUP1 PUSH4 0xF2FDE38B EQ PUSH2 0x7D7 JUMPI DUP1 PUSH4 0xF3F43703 EQ PUSH2 0x79D JUMPI DUP1 PUSH4 0xFA2A5D75 EQ PUSH2 0x701 JUMPI DUP1 PUSH4 0xFB04DD4B EQ PUSH2 0x6E3 JUMPI DUP1 PUSH4 0xFDCA4CA3 EQ PUSH2 0x44B JUMPI DUP1 PUSH4 0xFE09B5EC EQ PUSH2 0x242 JUMPI PUSH4 0xFF3FA4B9 SUB PUSH2 0xE JUMPI CALLVALUE PUSH2 0x23D JUMPI PUSH1 0x0 CALLDATASIZE PUSH1 0x3 NOT ADD SLT PUSH2 0x23D JUMPI PUSH1 0x20 PUSH1 0x7 SLOAD PUSH1 0x40 MLOAD SWAP1 DUP2 MSTORE RETURN JUMPDEST PUSH1 0x0 DUP1 REVERT JUMPDEST CALLVALUE PUSH2 0x23D JUMPI PUSH1 0x0 CALLDATASIZE PUSH1 0x3 NOT ADD SLT PUSH2 0x23D JUMPI PUSH1 0x3 DUP1 SLOAD PUSH1 0x0 SWAP1 DUP2 JUMPDEST DUP2 DUP2 LT PUSH2 0x3B9 JUMPI POP PUSH2 0x276 PUSH2 0x270 DUP4 PUSH2 0x5707 JUMP JUMPDEST SWAP3 PUSH2 0x5739 JUMP JUMPDEST SWAP3 PUSH1 0x0 DUP1 JUMPDEST DUP4 DUP2 LT PUSH2 0x295 JUMPI PUSH1 0x40 MLOAD DUP1 PUSH2 0x291 DUP9 DUP9 DUP4 PUSH2 0x4AA0 JUMP JUMPDEST SUB SWAP1 RETURN JUMPDEST PUSH2 0x29E DUP2 PUSH2 0x50EE JUMP JUMPDEST PUSH1 0x1 DUP1 PUSH1 0xA0 SHL SUB SWAP2 SLOAD SWAP1 DUP6 SHL SHR AND DUP1 PUSH1 0x0 MSTORE PUSH1 0x2 SWAP1 PUSH1 0x20 DUP3 DUP2 MSTORE PUSH1 0x40 PUSH1 0x0 KECCAK256 SLOAD SWAP3 PUSH1 0xFF SWAP3 DUP10 PUSH1 0x8 SWAP6 DUP6 DUP1 DUP3 DUP10 SHR AND SWAP2 DUP3 PUSH2 0x38C JUMPI JUMPDEST POP POP PUSH2 0x2E8 JUMPI JUMPDEST POP POP POP POP POP POP PUSH1 0x1 ADD PUSH2 0x27B JUMP JUMPDEST SWAP3 PUSH2 0x34D DUP9 SWAP6 SWAP4 DUP4 PUSH1 0x4 SWAP5 PUSH2 0x304 PUSH1 0x1 SWAP12 SWAP13 PUSH2 0x380 SWAP12 SWAP10 PUSH2 0x4B52 JUMP JUMPDEST MSTORE PUSH1 0x0 MSTORE DUP1 DUP4 MSTORE PUSH1 0x40 PUSH1 0x0 KECCAK256 SWAP3 DUP6 PUSH1 0x40 MLOAD SWAP8 PUSH2 0x31F DUP10 PUSH2 0x457D JUMP JUMPDEST DUP6 SLOAD SWAP1 PUSH2 0x32E DUP4 DUP4 AND DUP12 PUSH2 0x4B7C JUMP JUMPDEST SHR AND ISZERO ISZERO SWAP1 DUP8 ADD MSTORE PUSH2 0x341 DUP10 DUP5 ADD PUSH2 0x460D JUMP JUMPDEST PUSH1 0x40 DUP8 ADD MSTORE DUP3 ADD PUSH2 0x460D JUMP JUMPDEST PUSH1 0x60 DUP6 ADD MSTORE DUP9 DUP2 ADD SLOAD PUSH1 0x80 DUP6 ADD MSTORE ADD SLOAD AND ISZERO ISZERO PUSH1 0xA0 DUP3 ADD MSTORE PUSH2 0x36F DUP3 DUP11 PUSH2 0x4B52 JUMP JUMPDEST MSTORE PUSH2 0x37A DUP2 DUP10 PUSH2 0x4B52 JUMP JUMPDEST POP PUSH2 0x4B16 JUMP JUMPDEST SWAP2 SWAP1 DUP8 DUP1 DUP1 DUP1 DUP10 PUSH2 0x2DA JUMP JUMPDEST AND SWAP2 POP POP PUSH1 0x6 DUP2 LT ISZERO PUSH2 0x3A3 JUMPI DUP11 SWAP1 ISZERO DUP6 DUP15 PUSH2 0x2D3 JUMP JUMPDEST PUSH4 0x4E487B71 PUSH1 0xE0 SHL PUSH1 0x0 MSTORE PUSH1 0x21 PUSH1 0x4 MSTORE PUSH1 0x24 PUSH1 0x0 REVERT JUMPDEST PUSH2 0x3C2 DUP2 PUSH2 0x50EE JUMP JUMPDEST SWAP1 PUSH1 0x1 DUP1 PUSH1 0xA0 SHL SUB SWAP2 DUP3 SWAP2 SLOAD SWAP1 DUP8 SHL SHR AND PUSH1 0x0 MSTORE PUSH1 0x2 PUSH1 0x20 SWAP1 DUP1 DUP3 MSTORE PUSH1 0xFF SWAP2 DUP3 PUSH1 0x40 PUSH1 0x0 KECCAK256 SLOAD PUSH1 0x8 SHR AND SWAP4 DUP5 PUSH2 0x418 JUMPI JUMPDEST POP POP POP POP PUSH2 0x404 JUMPI JUMPDEST PUSH1 0x1 ADD PUSH2 0x25C JUMP JUMPDEST SWAP2 PUSH2 0x410 PUSH1 0x1 SWAP2 PUSH2 0x4B16 JUMP JUMPDEST SWAP3 SWAP1 POP PUSH2 0x3FC JUMP JUMPDEST SWAP1 SWAP2 SWAP3 SWAP4 POP PUSH2 0x426 DUP6 PUSH2 0x50EE JUMP JUMPDEST SWAP1 SLOAD SWAP1 DUP10 SHL SHR AND PUSH1 0x0 MSTORE MSTORE PUSH1 0x40 PUSH1 0x0 KECCAK256 SLOAD AND PUSH1 0x6 DUP2 LT ISZERO PUSH2 0x3A3 JUMPI ISZERO DUP6 DUP1 DUP1 DUP1 PUSH2 0x3F3 JUMP JUMPDEST CALLVALUE PUSH2 0x23D JUMPI PUSH1 0x0 CALLDATASIZE PUSH1 0x3 NOT ADD SLT PUSH2 0x23D JUMPI CALLER PUSH1 0x0 MSTORE PUSH1 0x2 PUSH1 0x20 PUSH1 0x2 DUP2 MSTORE PUSH1 0xFF DUP1 PUSH1 0x40 PUSH1 0x0 KECCAK256 SLOAD AND SWAP3 PUSH1 0x6 DUP1 DUP6 LT ISZERO PUSH2 0x3A3 JUMPI PUSH2 0x48D PUSH1 0x1 SWAP6 SWAP4 SWAP6 DUP1 SWAP5 EQ PUSH2 0x4B88 JUMP JUMPDEST PUSH1 0x5 SWAP2 PUSH1 0x5 SLOAD SWAP3 PUSH1 0x0 SWAP7 DUP6 JUMPDEST DUP6 DUP2 GT ISZERO PUSH2 0x686 JUMPI POP PUSH2 0x4C4 PUSH2 0x4AE DUP10 PUSH2 0x4B3B JUMP JUMPDEST SWAP9 PUSH2 0x4BC PUSH1 0x40 MLOAD SWAP11 DUP12 PUSH2 0x45EC JUMP JUMPDEST DUP1 DUP11 MSTORE PUSH2 0x4B3B JUMP JUMPDEST PUSH1 0x1F NOT ADD PUSH1 0x0 JUMPDEST DUP2 DUP2 LT PUSH2 0x66A JUMPI POP POP PUSH1 0x0 SWAP4 DUP7 JUMPDEST DUP7 DUP2 GT ISZERO PUSH2 0x543 JUMPI DUP10 DUP10 DUP10 PUSH1 0x40 MLOAD SWAP2 DUP1 DUP4 ADD DUP2 DUP5 MSTORE DUP5 MLOAD DUP1 SWAP2 MSTORE PUSH1 0x40 DUP5 ADD SWAP2 DUP1 PUSH1 0x40 DUP4 PUSH1 0x5 SHL DUP8 ADD ADD SWAP7 ADD SWAP3 PUSH1 0x0 SWAP1 JUMPDEST DUP4 DUP3 LT PUSH2 0x516 JUMPI DUP7 DUP9 SUB DUP8 RETURN JUMPDEST SWAP1 SWAP2 SWAP3 SWAP4 SWAP5 DUP4 DUP1 PUSH2 0x532 DUP4 SWAP11 PUSH1 0x3F NOT DUP12 DUP3 SUB ADD DUP7 MSTORE DUP10 MLOAD PUSH2 0x47AA JUMP JUMPDEST SWAP10 SWAP8 ADD SWAP6 SWAP5 SWAP4 SWAP2 SWAP1 SWAP2 ADD SWAP2 ADD PUSH2 0x509 JUMP JUMPDEST DUP1 PUSH1 0x0 SWAP11 SWAP9 SWAP11 MSTORE PUSH1 0xB DUP1 DUP11 MSTORE PUSH1 0x40 PUSH1 0x0 KECCAK256 SWAP1 DUP2 SLOAD SWAP2 DUP12 DUP14 DUP5 ISZERO ISZERO DUP1 PUSH2 0x655 JUMPI JUMPDEST PUSH2 0x57E JUMPI JUMPDEST POP POP POP POP POP PUSH2 0x576 SWAP1 PUSH2 0x4B16 JUMP JUMPDEST SWAP9 SWAP7 SWAP9 PUSH2 0x4D9 JUMP JUMPDEST SWAP3 PUSH2 0x64A SWAP5 SWAP3 DUP9 SWAP3 PUSH2 0x576 SWAP8 SWAP13 SWAP6 PUSH1 0x40 MLOAD SWAP6 PUSH2 0x599 DUP8 PUSH2 0x4598 JUMP JUMPDEST DUP7 MSTORE DUP3 ADD SLOAD PUSH1 0x1 PUSH1 0x1 PUSH1 0xA0 SHL SUB AND SWAP1 DUP6 ADD MSTORE PUSH2 0x5B6 DUP12 DUP3 ADD PUSH2 0x460D JUMP JUMPDEST PUSH1 0x40 DUP6 ADD MSTORE PUSH2 0x5C7 PUSH1 0x3 DUP3 ADD PUSH2 0x460D JUMP JUMPDEST PUSH1 0x60 DUP6 ADD MSTORE PUSH1 0x4 DUP2 ADD SLOAD PUSH1 0x80 DUP6 ADD MSTORE DUP10 DUP2 ADD SLOAD PUSH1 0xA0 DUP6 ADD MSTORE DUP8 DUP2 ADD SLOAD PUSH1 0xC0 DUP6 ADD MSTORE PUSH2 0x5F4 PUSH1 0x7 DUP3 ADD PUSH2 0x460D JUMP JUMPDEST PUSH1 0xE0 DUP6 ADD MSTORE PUSH2 0x60D DUP4 PUSH1 0x8 DUP4 ADD SLOAD AND PUSH2 0x100 DUP7 ADD PUSH2 0x4E80 JUMP JUMPDEST PUSH2 0x619 PUSH1 0x9 DUP3 ADD PUSH2 0x460D JUMP JUMPDEST PUSH2 0x120 DUP6 ADD MSTORE PUSH1 0xA DUP2 ADD SLOAD PUSH2 0x140 DUP6 ADD MSTORE ADD SLOAD AND ISZERO ISZERO PUSH2 0x160 DUP3 ADD MSTORE PUSH2 0x63F DUP3 DUP13 PUSH2 0x4B52 JUMP JUMPDEST MSTORE PUSH2 0x37A DUP2 DUP12 PUSH2 0x4B52 JUMP JUMPDEST SWAP6 SWAP1 DUP12 DUP1 DUP12 DUP14 PUSH2 0x568 JUMP JUMPDEST POP DUP3 DUP2 ADD SLOAD PUSH1 0x1 PUSH1 0x1 PUSH1 0xA0 SHL SUB AND CALLER EQ PUSH2 0x563 JUMP JUMPDEST DUP9 SWAP1 PUSH2 0x677 SWAP11 SWAP9 SWAP11 PUSH2 0x4E23 JUMP JUMPDEST DUP3 DUP3 DUP12 ADD ADD MSTORE ADD SWAP9 SWAP7 SWAP9 PUSH2 0x4CB JUMP JUMPDEST DUP1 PUSH1 0x0 SWAP10 SWAP8 SWAP10 MSTORE PUSH1 0xB DUP9 MSTORE PUSH1 0x40 PUSH1 0x0 KECCAK256 DUP1 SLOAD ISZERO ISZERO SWAP1 DUP2 PUSH2 0x6CD JUMPI JUMPDEST POP PUSH2 0x6B8 JUMPI JUMPDEST PUSH2 0x6B0 SWAP1 PUSH2 0x4B16 JUMP JUMPDEST SWAP8 SWAP6 SWAP8 PUSH2 0x499 JUMP JUMPDEST SWAP6 PUSH2 0x6C5 PUSH2 0x6B0 SWAP2 PUSH2 0x4B16 JUMP JUMPDEST SWAP7 SWAP1 POP PUSH2 0x6A7 JUMP JUMPDEST DUP11 ADD SLOAD PUSH1 0x1 PUSH1 0x1 PUSH1 0xA0 SHL SUB AND CALLER EQ SWAP1 POP DUP11 PUSH2 0x6A1 JUMP JUMPDEST CALLVALUE PUSH2 0x23D JUMPI PUSH1 0x0 CALLDATASIZE PUSH1 0x3 NOT ADD SLT PUSH2 0x23D JUMPI PUSH1 0x20 PUSH1 0x9 SLOAD PUSH1 0x40 MLOAD SWAP1 DUP2 MSTORE RETURN JUMPDEST CALLVALUE PUSH2 0x23D JUMPI PUSH1 0x20 CALLDATASIZE PUSH1 0x3 NOT ADD SLT PUSH2 0x23D JUMPI PUSH1 0x4 CALLDATALOAD PUSH1 0x0 MSTORE PUSH1 0xC PUSH1 0x20 MSTORE PUSH2 0x120 PUSH1 0x40 PUSH1 0x0 KECCAK256 DUP1 SLOAD SWAP1 PUSH1 0x1 DUP2 ADD SLOAD SWAP1 PUSH2 0x78E PUSH1 0x1 DUP1 PUSH1 0xA0 SHL SUB PUSH1 0x2 DUP4 ADD SLOAD AND PUSH1 0x3 DUP4 ADD SLOAD PUSH1 0x4 DUP5 ADD SLOAD PUSH1 0x5 DUP6 ADD SLOAD SWAP2 PUSH1 0xFF PUSH1 0x6 DUP8 ADD SLOAD AND SWAP4 PUSH1 0xFF PUSH1 0x8 PUSH1 0x7 DUP10 ADD SLOAD SWAP9 ADD SLOAD AND SWAP8 PUSH1 0x40 MLOAD SWAP10 DUP11 MSTORE PUSH1 0x20 DUP11 ADD MSTORE PUSH1 0x40 DUP10 ADD MSTORE PUSH1 0x60 DUP9 ADD MSTORE PUSH1 0x80 DUP8 ADD MSTORE PUSH1 0xA0 DUP7 ADD MSTORE PUSH1 0xC0 DUP6 ADD SWAP1 PUSH2 0x473F JUMP JUMPDEST PUSH1 0xE0 DUP4 ADD MSTORE ISZERO ISZERO PUSH2 0x100 DUP3 ADD MSTORE RETURN JUMPDEST CALLVALUE PUSH2 0x23D JUMPI PUSH1 0x20 CALLDATASIZE PUSH1 0x3 NOT ADD SLT PUSH2 0x23D JUMPI PUSH1 0x1 PUSH1 0x1 PUSH1 0xA0 SHL SUB PUSH2 0x7BE PUSH2 0x446C JUMP JUMPDEST AND PUSH1 0x0 MSTORE PUSH1 0x11 PUSH1 0x20 MSTORE PUSH1 0x20 PUSH1 0x40 PUSH1 0x0 KECCAK256 SLOAD PUSH1 0x40 MLOAD SWAP1 DUP2 MSTORE RETURN JUMPDEST CALLVALUE PUSH2 0x23D JUMPI PUSH1 0x20 CALLDATASIZE PUSH1 0x3 NOT ADD SLT PUSH2 0x23D JUMPI PUSH2 0x7F0 PUSH2 0x446C JUMP JUMPDEST PUSH2 0x7F8 PUSH2 0x57DF JUMP JUMPDEST PUSH1 0x1 PUSH1 0x1 PUSH1 0xA0 SHL SUB SWAP1 DUP2 AND SWAP1 DUP2 ISZERO PUSH2 0x847 JUMPI PUSH1 0x0 SLOAD DUP3 PUSH1 0x1 PUSH1 0x1 PUSH1 0x60 SHL SUB PUSH1 0xA0 SHL DUP3 AND OR PUSH1 0x0 SSTORE AND PUSH32 0x8BE0079C531659141344CD1FD0A4F28419497F9722A3DAAFE3B4186F6B6457E0 PUSH1 0x0 DUP1 LOG3 STOP JUMPDEST PUSH1 0x40 MLOAD PUSH3 0x461BCD PUSH1 0xE5 SHL DUP2 MSTORE PUSH1 0x20 PUSH1 0x4 DUP3 ADD MSTORE PUSH1 0x26 PUSH1 0x24 DUP3 ADD MSTORE PUSH32 0x4F776E61626C653A206E6577206F776E657220697320746865207A65726F2061 PUSH1 0x44 DUP3 ADD MSTORE PUSH6 0x646472657373 PUSH1 0xD0 SHL PUSH1 0x64 DUP3 ADD MSTORE PUSH1 0x84 SWAP1 REVERT JUMPDEST CALLVALUE PUSH2 0x23D JUMPI PUSH1 0x20 DUP1 PUSH1 0x3 NOT CALLDATASIZE ADD SLT PUSH2 0x23D JUMPI PUSH1 0x4 CALLDATALOAD PUSH1 0x0 MSTORE PUSH1 0xD DUP2 MSTORE PUSH1 0x40 PUSH1 0x0 KECCAK256 PUSH1 0x40 MLOAD SWAP1 PUSH2 0x8C9 DUP3 PUSH2 0x4561 JUMP JUMPDEST DUP1 SLOAD DUP3 MSTORE PUSH1 0x1 DUP2 ADD SLOAD DUP4 DUP4 ADD SWAP1 DUP2 MSTORE PUSH2 0x956 PUSH1 0x1 DUP1 PUSH1 0xA0 SHL SUB SWAP4 DUP5 PUSH1 0x2 DUP6 ADD SLOAD AND PUSH1 0x40 DUP3 ADD MSTORE PUSH1 0x3 DUP5 ADD SLOAD PUSH1 0x60 DUP3 ADD MSTORE PUSH1 0x4 DUP5 ADD SLOAD PUSH1 0x80 DUP3 ADD MSTORE PUSH1 0xFF PUSH1 0x5 DUP6 ADD SLOAD PUSH2 0x919 DUP3 DUP3 AND PUSH1 0xA0 DUP6 ADD PUSH2 0x4E80 JUMP JUMPDEST DUP7 DUP2 PUSH1 0x8 SHR AND PUSH1 0xC0 DUP5 ADD MSTORE PUSH1 0xA8 SHR AND ISZERO ISZERO PUSH1 0xE0 DUP3 ADD MSTORE PUSH1 0x7 PUSH2 0x93D PUSH1 0x6 DUP7 ADD PUSH2 0x460D JUMP JUMPDEST SWAP5 PUSH2 0x100 SWAP6 DUP7 DUP5 ADD MSTORE ADD SLOAD PUSH2 0x120 DUP3 ADD MSTORE MLOAD ISZERO ISZERO PUSH2 0x4FBE JUMP JUMPDEST MLOAD PUSH1 0x0 MSTORE PUSH1 0xC DUP4 MSTORE PUSH1 0x40 PUSH1 0x0 KECCAK256 SWAP1 PUSH1 0xFF PUSH1 0x8 PUSH1 0x40 MLOAD SWAP4 PUSH2 0x975 DUP6 PUSH2 0x45B4 JUMP JUMPDEST DUP1 SLOAD DUP6 MSTORE PUSH1 0x1 DUP2 ADD SLOAD SWAP6 DUP8 DUP7 ADD SWAP7 DUP8 MSTORE PUSH1 0x2 DUP3 ADD SLOAD AND PUSH1 0x40 DUP7 ADD MSTORE PUSH1 0x3 DUP2 ADD SLOAD PUSH1 0x60 DUP7 ADD MSTORE PUSH1 0x4 DUP2 ADD SLOAD PUSH1 0x80 DUP7 ADD MSTORE PUSH1 0x5 DUP2 ADD SLOAD PUSH1 0xA0 DUP7 ADD MSTORE PUSH2 0x9C1 DUP4 PUSH1 0x6 DUP4 ADD SLOAD AND PUSH1 0xC0 DUP8 ADD PUSH2 0x4E80 JUMP JUMPDEST PUSH1 0x7 DUP2 ADD SLOAD PUSH1 0xE0 DUP7 ADD MSTORE ADD SLOAD AND ISZERO ISZERO SWAP2 ADD MSTORE MLOAD PUSH1 0x40 MLOAD SWAP1 DUP2 MSTORE RETURN JUMPDEST CALLVALUE PUSH2 0x23D JUMPI PUSH2 0x9EA CALLDATASIZE PUSH2 0x44BF JUMP JUMPDEST SWAP1 SWAP2 SWAP4 SWAP3 SWAP5 SWAP6 CALLER PUSH1 0x0 MSTORE PUSH1 0x2 PUSH1 0x20 MSTORE PUSH1 0xFF PUSH1 0x40 PUSH1 0x0 KECCAK256 SLOAD AND PUSH1 0x6 DUP2 LT ISZERO PUSH2 0x3A3 JUMPI PUSH1 0x3 PUSH2 0xA1A SWAP2 SWAP9 SWAP8 SWAP9 EQ PUSH2 0x4B88 JUMP JUMPDEST PUSH1 0x0 MSTORE PUSH1 0xE PUSH1 0x20 MSTORE PUSH1 0x40 PUSH1 0x0 KECCAK256 SWAP6 PUSH2 0xA34 DUP8 SLOAD ISZERO ISZERO PUSH2 0x5212 JUMP JUMPDEST PUSH1 0x2 DUP8 ADD SLOAD PUSH2 0xA4D SWAP1 PUSH1 0x1 PUSH1 0x1 PUSH1 0xA0 SHL SUB AND CALLER EQ PUSH2 0x4DAC JUMP JUMPDEST PUSH2 0xA58 DUP6 DUP6 EQ PUSH2 0x4BEC JUMP JUMPDEST PUSH2 0xA63 DUP3 DUP6 EQ PUSH2 0x4C38 JUMP JUMPDEST PUSH1 0x0 SWAP5 PUSH1 0x0 JUMPDEST DUP6 DUP2 LT PUSH2 0xCC8 JUMPI POP PUSH1 0x3 DUP9 ADD SLOAD DUP7 GT PUSH2 0xC83 JUMPI PUSH1 0x0 JUMPDEST DUP6 DUP2 LT PUSH2 0xAAF JUMPI DUP9 PUSH2 0xA95 DUP9 PUSH1 0x3 DUP4 ADD SLOAD PUSH2 0x4D60 JUMP JUMPDEST DUP1 PUSH1 0x3 DUP4 ADD SSTORE ISZERO PUSH2 0xAA2 JUMPI STOP JUMPDEST PUSH1 0x5 ADD DUP1 SLOAD PUSH1 0xFF NOT AND SWAP1 SSTORE STOP JUMPDEST PUSH1 0x8 PUSH2 0xABB DUP2 SLOAD PUSH2 0x4B16 JUMP JUMPDEST DUP1 SWAP2 SSTORE DUP1 PUSH1 0x0 MSTORE PUSH1 0xE PUSH1 0x20 MSTORE PUSH1 0x40 PUSH1 0x0 KECCAK256 SWAP1 DUP2 SSTORE PUSH1 0x1 DUP11 ADD SLOAD PUSH1 0x1 DUP3 ADD SSTORE PUSH1 0x2 DUP2 ADD CALLER PUSH1 0x1 PUSH1 0x1 PUSH1 0x60 SHL SUB PUSH1 0xA0 SHL DUP3 SLOAD AND OR SWAP1 SSTORE PUSH2 0xAFA DUP3 DUP9 DUP12 PUSH2 0x4C8E JUMP JUMPDEST CALLDATALOAD PUSH1 0x3 DUP3 ADD SSTORE PUSH2 0xB0B DUP3 DUP5 DUP7 PUSH2 0x4C8E JUMP JUMPDEST CALLDATALOAD PUSH1 0x4 DUP3 ADD SSTORE PUSH1 0x5 DUP2 ADD DUP1 SLOAD PUSH1 0xFF NOT AND PUSH1 0x1 OR SWAP1 SSTORE PUSH2 0xB2B DUP3 DUP7 DUP9 PUSH2 0x4CC3 JUMP JUMPDEST SWAP1 PUSH1 0x1 PUSH1 0x1 PUSH1 0x40 SHL SUB DUP3 GT PUSH2 0xC6D JUMPI PUSH2 0xB54 DUP3 PUSH2 0xB4B PUSH1 0x6 DUP7 ADD SLOAD PUSH2 0x4527 JUMP JUMPDEST PUSH1 0x6 DUP7 ADD PUSH2 0x4D1B JUMP JUMPDEST PUSH1 0x0 SWAP1 PUSH1 0x1F DUP4 GT PUSH1 0x1 EQ PUSH2 0xBF9 JUMPI PUSH1 0x1 SWAP5 SWAP4 SWAP3 SWAP2 PUSH1 0x0 SWAP2 DUP4 PUSH2 0xBEE JUMPI JUMPDEST POP POP PUSH1 0x0 NOT PUSH1 0x3 DUP4 SWAP1 SHL SHR NOT AND SWAP1 DUP5 SHL OR PUSH1 0x6 DUP3 ADD SSTORE JUMPDEST TIMESTAMP PUSH1 0x7 DUP3 ADD SSTORE DUP1 SLOAD DUP4 DUP13 ADD SLOAD SWAP1 PUSH32 0xCDF39DA8F0023D4D1D194A43508204B3A50C233FA8270B04763D6410237BAD84 PUSH2 0xBE5 PUSH1 0x4 PUSH1 0x3 DUP7 ADD SLOAD SWAP6 ADD SLOAD SWAP5 PUSH1 0x40 MLOAD SWAP2 DUP3 SWAP2 CALLER SWAP8 TIMESTAMP SWAP2 DUP5 PUSH1 0x40 SWAP2 SWAP5 SWAP4 SWAP3 PUSH1 0x60 DUP3 ADD SWAP6 DUP3 MSTORE PUSH1 0x20 DUP3 ADD MSTORE ADD MSTORE JUMP JUMPDEST SUB SWAP1 LOG4 ADD PUSH2 0xA7F JUMP JUMPDEST ADD CALLDATALOAD SWAP1 POP DUP14 DUP1 PUSH2 0xB71 JUMP JUMPDEST PUSH1 0x6 DUP5 ADD PUSH1 0x0 MSTORE PUSH1 0x20 PUSH1 0x0 KECCAK256 SWAP2 PUSH1 0x0 JUMPDEST PUSH1 0x1F NOT DUP6 AND DUP2 LT PUSH2 0xC55 JUMPI POP SWAP2 DUP4 SWAP2 PUSH1 0x1 SWAP7 SWAP6 SWAP5 SWAP4 DUP8 SWAP5 PUSH1 0x1F NOT DUP2 AND LT PUSH2 0xC3B JUMPI JUMPDEST POP POP POP DUP2 SHL ADD PUSH1 0x6 DUP3 ADD SSTORE PUSH2 0xB88 JUMP JUMPDEST ADD CALLDATALOAD PUSH1 0x0 NOT PUSH1 0x3 DUP5 SWAP1 SHL PUSH1 0xF8 AND SHR NOT AND SWAP1 SSTORE DUP14 DUP1 DUP1 PUSH2 0xC2B JUMP JUMPDEST SWAP1 SWAP3 PUSH1 0x20 PUSH1 0x1 DUP2 SWAP3 DUP7 DUP7 ADD CALLDATALOAD DUP2 SSTORE ADD SWAP5 ADD SWAP2 ADD PUSH2 0xC09 JUMP JUMPDEST PUSH4 0x4E487B71 PUSH1 0xE0 SHL PUSH1 0x0 MSTORE PUSH1 0x41 PUSH1 0x4 MSTORE PUSH1 0x24 PUSH1 0x0 REVERT JUMPDEST PUSH1 0x40 MLOAD PUSH3 0x461BCD PUSH1 0xE5 SHL DUP2 MSTORE PUSH1 0x20 PUSH1 0x4 DUP3 ADD MSTORE PUSH1 0x1C PUSH1 0x24 DUP3 ADD MSTORE PUSH32 0x537570706C79436861696E3A2073756D20657863656564732071747900000000 PUSH1 0x44 DUP3 ADD MSTORE PUSH1 0x64 SWAP1 REVERT JUMPDEST SWAP6 PUSH2 0xCE3 PUSH1 0x1 SWAP2 PUSH2 0xCDC DUP10 DUP10 DUP13 SWAP14 SWAP13 PUSH2 0x4C8E JUMP JUMPDEST CALLDATALOAD SWAP1 PUSH2 0x4C9E JUMP JUMPDEST SWAP7 ADD SWAP8 SWAP7 SWAP8 PUSH2 0xA69 JUMP JUMPDEST CALLVALUE PUSH2 0x23D JUMPI PUSH1 0x0 CALLDATASIZE PUSH1 0x3 NOT ADD SLT PUSH2 0x23D JUMPI PUSH1 0x3 DUP1 SLOAD PUSH2 0xD0B DUP2 PUSH2 0x5739 JUMP JUMPDEST SWAP2 PUSH1 0x0 JUMPDEST DUP3 DUP2 LT PUSH2 0xD9A JUMPI POP POP PUSH1 0x40 MLOAD DUP1 DUP3 DUP2 SWAP4 DUP4 MSTORE PUSH1 0x20 DUP1 SWAP4 ADD SWAP1 PUSH1 0x3 PUSH1 0x0 MSTORE PUSH32 0xC2575A0E9E593C00F959F8C92F12DB2869C3395A3B0502D05E2516446F71F85B SWAP4 PUSH1 0x0 SWAP1 JUMPDEST DUP3 DUP3 LT PUSH2 0xD77 JUMPI POP POP POP PUSH2 0xD68 SWAP3 POP SUB DUP3 PUSH2 0x45EC JUMP JUMPDEST PUSH2 0x291 PUSH1 0x40 MLOAD SWAP3 DUP4 SWAP3 DUP4 PUSH2 0x4AA0 JUMP JUMPDEST DUP6 SLOAD PUSH1 0x1 PUSH1 0x1 PUSH1 0xA0 SHL SUB AND DUP5 MSTORE PUSH1 0x1 SWAP6 DUP7 ADD SWAP6 DUP8 SWAP6 POP SWAP4 DUP2 ADD SWAP4 SWAP1 SWAP2 ADD SWAP1 PUSH2 0xD52 JUMP JUMPDEST DUP1 PUSH2 0xDA6 PUSH1 0x1 SWAP3 PUSH2 0x50EE JUMP JUMPDEST DUP4 DUP1 PUSH1 0xA0 SHL SUB SWAP2 SLOAD SWAP1 DUP6 SHL SHR AND PUSH1 0x0 MSTORE PUSH1 0x2 PUSH1 0x20 DUP2 DUP2 MSTORE PUSH1 0x4 PUSH1 0x40 PUSH1 0x0 KECCAK256 PUSH2 0xDFC PUSH1 0x40 MLOAD SWAP5 PUSH2 0xDD4 DUP7 PUSH2 0x457D JUMP JUMPDEST DUP3 SLOAD SWAP5 PUSH1 0xFF DUP7 PUSH2 0xDE7 DUP3 DUP1 SWAP10 AND DUP11 PUSH2 0x4B7C JUMP JUMPDEST PUSH1 0x8 SHR AND ISZERO ISZERO SWAP1 DUP8 ADD MSTORE PUSH2 0x341 DUP9 DUP5 ADD PUSH2 0x460D JUMP JUMPDEST PUSH1 0x60 DUP6 ADD MSTORE DUP7 DUP2 ADD SLOAD PUSH1 0x80 DUP6 ADD MSTORE ADD SLOAD AND ISZERO ISZERO PUSH1 0xA0 DUP3 ADD MSTORE PUSH2 0xE1E DUP3 DUP8 PUSH2 0x4B52 JUMP JUMPDEST MSTORE PUSH2 0xE29 DUP2 DUP7 PUSH2 0x4B52 JUMP JUMPDEST POP ADD PUSH2 0xD0F JUMP JUMPDEST CALLVALUE PUSH2 0x23D JUMPI PUSH1 0x20 DUP1 PUSH1 0x3 NOT CALLDATASIZE ADD SLT PUSH2 0x23D JUMPI PUSH1 0xFF SWAP1 PUSH1 0xFF PUSH2 0xE4F PUSH2 0x4702 JUMP JUMPDEST AND SWAP2 PUSH2 0xE5E PUSH1 0x5 DUP5 GT ISZERO PUSH2 0x50A2 JUMP JUMPDEST PUSH1 0x3 DUP1 SLOAD SWAP2 PUSH1 0x0 DUP1 JUMPDEST DUP5 DUP2 LT PUSH2 0xF0D JUMPI POP PUSH2 0xE78 SWAP1 PUSH2 0x5707 JUMP JUMPDEST SWAP4 PUSH1 0x0 SWAP2 PUSH1 0x0 JUMPDEST DUP6 DUP2 LT PUSH2 0xE9C JUMPI PUSH1 0x40 MLOAD PUSH1 0x20 DUP1 DUP3 MSTORE DUP2 SWAP1 PUSH2 0x291 SWAP1 DUP3 ADD DUP11 PUSH2 0x4A63 JUMP JUMPDEST PUSH2 0xEA5 DUP2 PUSH2 0x50EE JUMP JUMPDEST SWAP1 SLOAD PUSH1 0x1 PUSH1 0x1 PUSH1 0xA0 SHL SUB SWAP2 DUP8 SHL SHR DUP2 AND PUSH1 0x0 SWAP1 DUP2 MSTORE PUSH1 0x2 DUP6 MSTORE PUSH1 0x40 SWAP1 KECCAK256 SLOAD DUP4 AND PUSH1 0x6 DUP2 LT ISZERO PUSH2 0x3A3 JUMPI DUP10 EQ PUSH2 0xEDE JUMPI JUMPDEST POP PUSH1 0x1 ADD PUSH2 0xE7F JUMP JUMPDEST DUP2 SWAP5 PUSH2 0xF06 SWAP2 PUSH2 0xEEF PUSH1 0x1 SWAP5 PUSH2 0x50EE JUMP JUMPDEST SWAP1 SLOAD SWAP1 DUP10 SHL SHR AND PUSH2 0xF00 DUP3 DUP12 PUSH2 0x4B52 JUMP JUMPDEST MSTORE PUSH2 0x4B16 JUMP JUMPDEST SWAP4 SWAP1 PUSH2 0xED5 JUMP JUMPDEST PUSH2 0xF16 DUP2 PUSH2 0x50EE JUMP JUMPDEST SWAP1 SLOAD SWAP1 DUP6 SHL SHR PUSH1 0x1 PUSH1 0x1 PUSH1 0xA0 SHL SUB AND PUSH1 0x0 SWAP1 DUP2 MSTORE PUSH1 0x2 DUP8 MSTORE PUSH1 0x40 SWAP1 KECCAK256 SLOAD DUP4 AND PUSH1 0x6 DUP2 LT ISZERO PUSH2 0x3A3 JUMPI DUP8 EQ PUSH2 0xF4D JUMPI JUMPDEST PUSH1 0x1 ADD PUSH2 0xE67 JUMP JUMPDEST SWAP1 PUSH2 0xF59 PUSH1 0x1 SWAP2 PUSH2 0x4B16 JUMP JUMPDEST SWAP2 SWAP1 POP PUSH2 0xF45 JUMP JUMPDEST CALLVALUE PUSH2 0x23D JUMPI PUSH2 0x100 CALLDATASIZE PUSH1 0x3 NOT ADD SLT PUSH2 0x23D JUMPI PUSH1 0x4 CALLDATALOAD PUSH1 0x1 PUSH1 0x1 PUSH1 0x40 SHL SUB DUP2 GT PUSH2 0x23D JUMPI PUSH2 0xF92 SWAP1 CALLDATASIZE SWAP1 PUSH1 0x4 ADD PUSH2 0x4712 JUMP JUMPDEST SWAP1 PUSH1 0x24 CALLDATALOAD PUSH1 0x1 PUSH1 0x1 PUSH1 0x40 SHL SUB DUP2 GT PUSH2 0x23D JUMPI PUSH2 0xFB2 SWAP1 CALLDATASIZE SWAP1 PUSH1 0x4 ADD PUSH2 0x4712 JUMP JUMPDEST SWAP2 SWAP1 PUSH1 0xA4 CALLDATALOAD PUSH1 0x1 PUSH1 0x1 PUSH1 0x40 SHL SUB DUP2 GT PUSH2 0x23D JUMPI PUSH2 0xFD3 SWAP1 CALLDATASIZE SWAP1 PUSH1 0x4 ADD PUSH2 0x4712 JUMP JUMPDEST SWAP1 PUSH1 0xC4 CALLDATALOAD SWAP5 PUSH1 0xFF DUP7 AND DUP7 SUB PUSH2 0x23D JUMPI PUSH1 0xE4 CALLDATALOAD PUSH1 0x1 PUSH1 0x1 PUSH1 0x40 SHL SUB DUP2 GT PUSH2 0x23D JUMPI PUSH2 0x1001 SWAP1 CALLDATASIZE SWAP1 PUSH1 0x4 ADD PUSH2 0x4712 JUMP JUMPDEST SWAP5 SWAP1 SWAP8 CALLER PUSH1 0x0 MSTORE PUSH1 0x2 PUSH1 0x20 MSTORE PUSH1 0xFF PUSH1 0x40 PUSH1 0x0 KECCAK256 SLOAD AND PUSH1 0x6 DUP2 LT ISZERO PUSH2 0x3A3 JUMPI PUSH1 0x1 PUSH2 0x102B SWAP2 EQ PUSH2 0x4B88 JUMP JUMPDEST PUSH1 0x64 CALLDATALOAD ISZERO PUSH2 0x1485 JUMPI PUSH1 0x84 CALLDATALOAD ISZERO PUSH2 0x1447 JUMPI PUSH2 0x104B PUSH1 0x1 PUSH1 0xFF DUP11 AND GT ISZERO PUSH2 0x500A JUMP JUMPDEST PUSH2 0x1056 PUSH1 0x5 SLOAD PUSH2 0x4B16 JUMP JUMPDEST SWAP7 DUP8 PUSH1 0x5 SSTORE DUP8 PUSH1 0x0 MSTORE PUSH1 0xB PUSH1 0x20 MSTORE PUSH1 0x40 PUSH1 0x0 KECCAK256 SWAP8 DUP9 SSTORE PUSH1 0x1 DUP9 ADD CALLER PUSH1 0x1 PUSH1 0x1 PUSH1 0x60 SHL SUB PUSH1 0xA0 SHL DUP3 SLOAD AND OR SWAP1 SSTORE PUSH1 0x1 PUSH1 0x1 PUSH1 0x40 SHL SUB DUP3 GT PUSH2 0xC6D JUMPI DUP2 SWAP1 PUSH2 0x10AC DUP3 PUSH2 0x10A3 PUSH1 0x2 DUP13 ADD SLOAD PUSH2 0x4527 JUMP JUMPDEST PUSH1 0x2 DUP13 ADD PUSH2 0x4D1B JUMP JUMPDEST PUSH1 0x0 SWAP1 PUSH1 0x1F DUP4 GT PUSH1 0x1 EQ PUSH2 0x13D6 JUMPI PUSH1 0x0 SWAP3 PUSH2 0x13CB JUMPI JUMPDEST POP POP DUP2 PUSH1 0x1 SHL SWAP2 PUSH1 0x0 NOT SWAP1 PUSH1 0x3 SHL SHR NOT AND OR PUSH1 0x2 DUP8 ADD SSTORE JUMPDEST PUSH1 0x1 PUSH1 0x1 PUSH1 0x40 SHL SUB DUP3 GT PUSH2 0xC6D JUMPI DUP2 SWAP1 PUSH2 0x1104 DUP3 PUSH2 0x10FB PUSH1 0x3 DUP11 ADD SLOAD PUSH2 0x4527 JUMP JUMPDEST PUSH1 0x3 DUP11 ADD PUSH2 0x4D1B JUMP JUMPDEST PUSH1 0x0 SWAP1 PUSH1 0x1F DUP4 GT PUSH1 0x1 EQ PUSH2 0x135A JUMPI PUSH1 0x0 SWAP3 PUSH2 0x134F JUMPI JUMPDEST POP POP DUP2 PUSH1 0x1 SHL SWAP2 PUSH1 0x0 NOT SWAP1 PUSH1 0x3 SHL SHR NOT AND OR PUSH1 0x3 DUP6 ADD SSTORE JUMPDEST PUSH1 0x44 CALLDATALOAD PUSH1 0x4 DUP6 ADD SSTORE PUSH1 0x64 CALLDATALOAD PUSH1 0x5 DUP6 ADD SSTORE PUSH1 0x84 CALLDATALOAD PUSH1 0x6 DUP6 ADD SSTORE PUSH1 0x1 PUSH1 0x1 PUSH1 0x40 SHL SUB DUP3 GT PUSH2 0xC6D JUMPI DUP2 SWAP1 PUSH2 0x1174 DUP3 PUSH2 0x116B PUSH1 0x7 DUP9 ADD SLOAD PUSH2 0x4527 JUMP JUMPDEST PUSH1 0x7 DUP9 ADD PUSH2 0x4D1B JUMP JUMPDEST PUSH1 0x0 SWAP1 PUSH1 0x1F DUP4 GT PUSH1 0x1 EQ PUSH2 0x12DE JUMPI PUSH1 0x0 SWAP3 PUSH2 0x12D3 JUMPI JUMPDEST POP POP DUP2 PUSH1 0x1 SHL SWAP2 PUSH1 0x0 NOT SWAP1 PUSH1 0x3 SHL SHR NOT AND OR PUSH1 0x7 DUP4 ADD SSTORE JUMPDEST PUSH1 0x2 PUSH1 0xFF DUP5 AND LT ISZERO PUSH2 0x3A3 JUMPI PUSH2 0x11BE PUSH1 0xFF DUP5 AND PUSH1 0x8 DUP5 ADD PUSH2 0x4CAB JUMP JUMPDEST PUSH1 0x9 DUP3 ADD SWAP1 PUSH1 0x1 PUSH1 0x1 PUSH1 0x40 SHL SUB DUP2 GT PUSH2 0xC6D JUMPI PUSH2 0x11E5 DUP2 PUSH2 0x11DF DUP5 SLOAD PUSH2 0x4527 JUMP JUMPDEST DUP5 PUSH2 0x4D1B JUMP JUMPDEST PUSH1 0x0 PUSH1 0x1F DUP3 GT PUSH1 0x1 EQ PUSH2 0x126C JUMPI DUP2 SWAP3 SWAP4 SWAP5 SWAP6 PUSH1 0x0 SWAP3 PUSH2 0x1261 JUMPI JUMPDEST POP POP DUP2 PUSH1 0x1 SHL SWAP2 PUSH1 0x0 NOT SWAP1 PUSH1 0x3 SHL SHR NOT AND OR SWAP1 SSTORE JUMPDEST TIMESTAMP PUSH1 0xA DUP3 ADD SSTORE PUSH1 0xB DUP2 ADD PUSH1 0x1 PUSH1 0xFF NOT DUP3 SLOAD AND OR SWAP1 SSTORE SLOAD PUSH1 0xFF PUSH1 0x40 MLOAD SWAP3 AND DUP3 MSTORE TIMESTAMP PUSH1 0x20 DUP4 ADD MSTORE PUSH32 0x8C7F70DE6D89542031E13836C8F9D53F5C6CE55E54DCA423CB713EA36A9DF07C PUSH1 0x40 CALLER SWAP4 LOG3 STOP JUMPDEST ADD CALLDATALOAD SWAP1 POP DUP6 DUP1 PUSH2 0x11FF JUMP JUMPDEST PUSH1 0x1F NOT DUP3 AND SWAP6 DUP4 PUSH1 0x0 MSTORE PUSH1 0x20 PUSH1 0x0 KECCAK256 SWAP2 PUSH1 0x0 JUMPDEST DUP9 DUP2 LT PUSH2 0x12BB JUMPI POP DUP4 PUSH1 0x1 SWAP6 SWAP7 SWAP8 SWAP9 LT PUSH2 0x12A1 JUMPI JUMPDEST POP POP POP DUP2 SHL ADD SWAP1 SSTORE PUSH2 0x1214 JUMP JUMPDEST ADD CALLDATALOAD PUSH1 0x0 NOT PUSH1 0x3 DUP5 SWAP1 SHL PUSH1 0xF8 AND SHR NOT AND SWAP1 SSTORE DUP6 DUP1 DUP1 PUSH2 0x1294 JUMP JUMPDEST SWAP1 SWAP3 PUSH1 0x20 PUSH1 0x1 DUP2 SWAP3 DUP7 DUP7 ADD CALLDATALOAD DUP2 SSTORE ADD SWAP5 ADD SWAP2 ADD PUSH2 0x127F JUMP JUMPDEST ADD CALLDATALOAD SWAP1 POP DUP7 DUP1 PUSH2 0x118A JUMP JUMPDEST SWAP1 SWAP3 POP PUSH1 0x7 DUP6 ADD PUSH1 0x0 MSTORE PUSH1 0x20 PUSH1 0x0 KECCAK256 SWAP1 PUSH1 0x0 SWAP4 JUMPDEST PUSH1 0x1F NOT DUP5 AND DUP6 LT PUSH2 0x1337 JUMPI PUSH1 0x1 SWAP5 POP DUP4 PUSH1 0x1F NOT DUP2 AND LT PUSH2 0x131D JUMPI JUMPDEST POP POP POP DUP2 SHL ADD PUSH1 0x7 DUP4 ADD SSTORE PUSH2 0x11A2 JUMP JUMPDEST ADD CALLDATALOAD PUSH1 0x0 NOT PUSH1 0x3 DUP5 SWAP1 SHL PUSH1 0xF8 AND SHR NOT AND SWAP1 SSTORE DUP7 DUP1 DUP1 PUSH2 0x130D JUMP JUMPDEST DUP2 DUP2 ADD CALLDATALOAD DUP4 SSTORE PUSH1 0x20 SWAP5 DUP6 ADD SWAP5 PUSH1 0x1 SWAP1 SWAP4 ADD SWAP3 ADD PUSH2 0x12F2 JUMP JUMPDEST ADD CALLDATALOAD SWAP1 POP DUP9 DUP1 PUSH2 0x111A JUMP JUMPDEST SWAP1 SWAP3 POP PUSH1 0x3 DUP8 ADD PUSH1 0x0 MSTORE PUSH1 0x20 PUSH1 0x0 KECCAK256 SWAP1 PUSH1 0x0 SWAP4 JUMPDEST PUSH1 0x1F NOT DUP5 AND DUP6 LT PUSH2 0x13B3 JUMPI PUSH1 0x1 SWAP5 POP DUP4 PUSH1 0x1F NOT DUP2 AND LT PUSH2 0x1399 JUMPI JUMPDEST POP POP POP DUP2 SHL ADD PUSH1 0x3 DUP6 ADD SSTORE PUSH2 0x1132 JUMP JUMPDEST ADD CALLDATALOAD PUSH1 0x0 NOT PUSH1 0x3 DUP5 SWAP1 SHL PUSH1 0xF8 AND SHR NOT AND SWAP1 SSTORE DUP9 DUP1 DUP1 PUSH2 0x1389 JUMP JUMPDEST DUP2 DUP2 ADD CALLDATALOAD DUP4 SSTORE PUSH1 0x20 SWAP5 DUP6 ADD SWAP5 PUSH1 0x1 SWAP1 SWAP4 ADD SWAP3 ADD PUSH2 0x136E JUMP JUMPDEST ADD CALLDATALOAD SWAP1 POP DUP11 DUP1 PUSH2 0x10C2 JUMP JUMPDEST SWAP1 SWAP3 POP PUSH1 0x2 DUP10 ADD PUSH1 0x0 MSTORE PUSH1 0x20 PUSH1 0x0 KECCAK256 SWAP1 PUSH1 0x0 SWAP4 JUMPDEST PUSH1 0x1F NOT DUP5 AND DUP6 LT PUSH2 0x142F JUMPI PUSH1 0x1 SWAP5 POP DUP4 PUSH1 0x1F NOT DUP2 AND LT PUSH2 0x1415 JUMPI JUMPDEST POP POP POP DUP2 SHL ADD PUSH1 0x2 DUP8 ADD SSTORE PUSH2 0x10DA JUMP JUMPDEST ADD CALLDATALOAD PUSH1 0x0 NOT PUSH1 0x3 DUP5 SWAP1 SHL PUSH1 0xF8 AND SHR NOT AND SWAP1 SSTORE DUP11 DUP1 DUP1 PUSH2 0x1405 JUMP JUMPDEST DUP2 DUP2 ADD CALLDATALOAD DUP4 SSTORE PUSH1 0x20 SWAP5 DUP6 ADD SWAP5 PUSH1 0x1 SWAP1 SWAP4 ADD SWAP3 ADD PUSH2 0x13EA JUMP JUMPDEST PUSH1 0x40 MLOAD PUSH3 0x461BCD PUSH1 0xE5 SHL DUP2 MSTORE PUSH1 0x20 PUSH1 0x4 DUP3 ADD MSTORE PUSH1 0x16 PUSH1 0x24 DUP3 ADD MSTORE PUSH22 0x537570706C79436861696E3A207072696365203E203 PUSH1 0x54 SHL PUSH1 0x44 DUP3 ADD MSTORE PUSH1 0x64 SWAP1 REVERT JUMPDEST PUSH1 0x40 MLOAD PUSH3 0x461BCD PUSH1 0xE5 SHL DUP2 MSTORE PUSH1 0x20 PUSH1 0x4 DUP3 ADD MSTORE PUSH1 0x19 PUSH1 0x24 DUP3 ADD MSTORE PUSH32 0x537570706C79436861696E3A207175616E74697479203E203000000000000000 PUSH1 0x44 DUP3 ADD MSTORE PUSH1 0x64 SWAP1 REVERT JUMPDEST CALLVALUE PUSH2 0x23D JUMPI PUSH1 0x20 DUP1 PUSH1 0x3 NOT CALLDATASIZE ADD SLT PUSH2 0x23D JUMPI PUSH2 0x14E4 PUSH2 0x446C JUMP JUMPDEST SWAP1 PUSH1 0x9 SLOAD PUSH1 0x0 SWAP3 PUSH1 0x1 JUMPDEST DUP3 DUP2 GT ISZERO PUSH2 0x16E2 JUMPI POP PUSH2 0x1519 PUSH2 0x1503 DUP6 PUSH2 0x4B3B JUMP JUMPDEST SWAP5 PUSH2 0x1511 PUSH1 0x40 MLOAD SWAP7 DUP8 PUSH2 0x45EC JUMP JUMPDEST DUP1 DUP7 MSTORE PUSH2 0x4B3B JUMP JUMPDEST PUSH1 0x1F NOT ADD DUP4 PUSH1 0x0 JUMPDEST DUP3 DUP2 LT PUSH2 0x16CC JUMPI POP POP POP PUSH1 0x0 SWAP1 PUSH1 0x1 JUMPDEST DUP4 DUP2 GT ISZERO PUSH2 0x15D7 JUMPI PUSH1 0x40 DUP1 MLOAD DUP7 DUP2 MSTORE DUP8 MLOAD DUP2 DUP9 ADD DUP2 SWAP1 MSTORE DUP9 DUP9 ADD SWAP3 DUP3 ADD SWAP1 DUP9 PUSH1 0x0 JUMPDEST DUP3 DUP2 LT PUSH2 0x1560 JUMPI DUP5 DUP5 SUB DUP6 RETURN JUMPDEST DUP6 MLOAD DUP1 MLOAD DUP6 MSTORE DUP1 DUP4 ADD MLOAD DUP6 DUP5 ADD MSTORE PUSH1 0x40 DUP1 DUP3 ADD MLOAD PUSH1 0x1 PUSH1 0x1 PUSH1 0xA0 SHL SUB AND SWAP1 DUP7 ADD MSTORE PUSH1 0x60 DUP1 DUP3 ADD MLOAD SWAP1 DUP7 ADD MSTORE PUSH1 0x80 DUP1 DUP3 ADD MLOAD ISZERO ISZERO SWAP1 DUP7 ADD MSTORE PUSH1 0xA0 DUP1 DUP3 ADD MLOAD SWAP1 DUP7 ADD MSTORE PUSH1 0xC0 DUP1 DUP3 ADD MLOAD ISZERO ISZERO SWAP1 DUP7 ADD MSTORE PUSH1 0xE0 DUP1 DUP3 ADD MLOAD ISZERO ISZERO SWAP1 DUP7 ADD MSTORE PUSH2 0x100 SWAP1 DUP2 ADD MLOAD SWAP1 DUP6 ADD MSTORE SWAP5 DUP2 ADD SWAP5 PUSH2 0x120 SWAP1 SWAP4 ADD SWAP3 PUSH1 0x1 ADD PUSH2 0x1553 JUMP JUMPDEST DUP1 PUSH1 0x0 MSTORE PUSH1 0xF DUP1 DUP7 MSTORE PUSH1 0x40 PUSH1 0x0 KECCAK256 PUSH1 0xFF PUSH1 0x6 SWAP2 DUP2 DUP4 DUP3 ADD SLOAD AND ISZERO PUSH2 0x1608 JUMPI JUMPDEST POP POP POP POP PUSH2 0x1603 SWAP1 PUSH2 0x4B16 JUMP JUMPDEST PUSH2 0x1531 JUMP JUMPDEST PUSH1 0x1 ADD SLOAD PUSH1 0x0 MSTORE PUSH1 0xD DUP9 MSTORE PUSH1 0x1 DUP1 PUSH1 0xA0 SHL SUB SWAP2 PUSH1 0x2 SWAP4 DUP4 DUP6 PUSH1 0x40 PUSH1 0x0 KECCAK256 ADD SLOAD AND DUP5 DUP9 AND EQ PUSH2 0x1637 JUMPI JUMPDEST POP PUSH2 0x15F6 JUMP JUMPDEST SWAP3 PUSH2 0x16C1 SWAP5 SWAP3 PUSH1 0x7 SWAP3 DUP8 SWAP10 SWAP6 PUSH2 0x1603 SWAP9 PUSH1 0x0 MSTORE DUP13 MSTORE PUSH1 0x40 PUSH1 0x0 KECCAK256 SWAP3 PUSH1 0x40 MLOAD SWAP6 PUSH2 0x165F DUP8 PUSH2 0x45B4 JUMP JUMPDEST DUP5 SLOAD DUP8 MSTORE PUSH1 0x1 DUP6 ADD SLOAD DUP15 DUP9 ADD MSTORE DUP5 ADD SLOAD AND PUSH1 0x40 DUP7 ADD MSTORE PUSH1 0x3 DUP4 ADD SLOAD PUSH1 0x60 DUP7 ADD MSTORE PUSH1 0x4 DUP4 ADD SLOAD DUP3 AND ISZERO ISZERO PUSH1 0x80 DUP7 ADD MSTORE PUSH1 0x5 DUP4 ADD SLOAD PUSH1 0xA0 DUP7 ADD MSTORE DUP3 ADD SLOAD DUP1 DUP3 AND ISZERO ISZERO PUSH1 0xC0 DUP7 ADD MSTORE PUSH1 0x8 SHR AND ISZERO ISZERO PUSH1 0xE0 DUP5 ADD MSTORE ADD SLOAD PUSH2 0x100 DUP3 ADD MSTORE PUSH2 0x36F DUP3 DUP11 PUSH2 0x4B52 JUMP JUMPDEST SWAP3 SWAP1 DUP8 DUP1 DUP1 DUP1 PUSH2 0x1631 JUMP JUMPDEST PUSH2 0x16D4 PUSH2 0x4E8C JUMP JUMPDEST DUP3 DUP3 DUP10 ADD ADD MSTORE ADD DUP5 SWAP1 PUSH2 0x1521 JUMP JUMPDEST DUP1 PUSH1 0x0 MSTORE PUSH1 0xF DUP5 MSTORE PUSH1 0x40 PUSH1 0x0 KECCAK256 PUSH1 0xFF PUSH1 0x6 DUP3 ADD SLOAD AND ISZERO PUSH2 0x170C JUMPI JUMPDEST POP PUSH2 0x1707 SWAP1 PUSH2 0x4B16 JUMP JUMPDEST PUSH2 0x14EE JUMP JUMPDEST PUSH1 0x1 ADD SLOAD PUSH1 0x0 SWAP1 DUP2 MSTORE PUSH1 0xD DUP6 MSTORE PUSH1 0x40 SWAP1 KECCAK256 PUSH1 0x2 ADD SLOAD PUSH1 0x1 PUSH1 0x1 PUSH1 0xA0 SHL SUB DUP4 DUP2 AND SWAP2 AND EQ PUSH2 0x173A JUMPI JUMPDEST DUP6 PUSH2 0x16FD JUMP JUMPDEST SWAP4 PUSH2 0x1747 PUSH2 0x1707 SWAP2 PUSH2 0x4B16 JUMP JUMPDEST SWAP5 SWAP1 POP PUSH2 0x1734 JUMP JUMPDEST CALLVALUE PUSH2 0x23D JUMPI PUSH1 0x40 CALLDATASIZE PUSH1 0x3 NOT ADD SLT PUSH2 0x23D JUMPI PUSH1 0x24 CALLDATALOAD DUP1 ISZERO ISZERO DUP2 SUB PUSH2 0x23D JUMPI CALLER PUSH1 0x0 MSTORE PUSH1 0x2 PUSH1 0x20 MSTORE PUSH1 0xFF PUSH1 0x40 PUSH1 0x0 KECCAK256 SLOAD AND SWAP1 PUSH1 0x6 DUP3 LT ISZERO PUSH2 0x3A3 JUMPI PUSH2 0x1797 PUSH1 0x2 PUSH2 0x17A7 SWAP4 EQ PUSH2 0x4B88 JUMP JUMPDEST PUSH2 0x179F PUSH2 0x5789 JUMP JUMPDEST PUSH1 0x4 CALLDATALOAD PUSH2 0x529D JUMP JUMPDEST PUSH1 0x1 DUP1 SSTORE STOP JUMPDEST CALLVALUE PUSH2 0x23D JUMPI PUSH1 0x0 CALLDATASIZE PUSH1 0x3 NOT ADD SLT PUSH2 0x23D JUMPI PUSH1 0x20 PUSH1 0x3 SLOAD PUSH1 0x40 MLOAD SWAP1 DUP2 MSTORE RETURN JUMPDEST CALLVALUE PUSH2 0x23D JUMPI PUSH1 0x20 CALLDATASIZE PUSH1 0x3 NOT ADD SLT PUSH2 0x23D JUMPI PUSH2 0x17E4 PUSH2 0x4E23 JUMP JUMPDEST POP PUSH2 0x17ED PUSH2 0x4E8C JUMP JUMPDEST POP PUSH2 0x17F6 PUSH2 0x4F21 JUMP JUMPDEST POP PUSH2 0x17FF PUSH2 0x525E JUMP JUMPDEST POP PUSH1 0x4 CALLDATALOAD PUSH1 0x0 MSTORE PUSH1 0xE PUSH1 0x20 MSTORE PUSH2 0x1AA6 PUSH1 0x40 PUSH1 0x0 KECCAK256 PUSH1 0x40 MLOAD SWAP1 PUSH2 0x1820 DUP3 PUSH2 0x45D0 JUMP JUMPDEST DUP1 SLOAD DUP3 MSTORE PUSH1 0x1 DUP2 ADD SLOAD PUSH1 0x20 DUP4 ADD SWAP1 DUP2 MSTORE PUSH1 0x2 DUP3 ADD SLOAD PUSH1 0x1 PUSH1 0x1 PUSH1 0xA0 SHL SUB AND PUSH1 0x40 DUP5 ADD MSTORE PUSH1 0x3 DUP3 ADD SLOAD PUSH1 0x60 DUP5 ADD MSTORE PUSH1 0x4 DUP3 ADD SLOAD PUSH1 0x80 DUP5 ADD MSTORE PUSH1 0x5 DUP3 ADD SLOAD PUSH1 0xFF AND ISZERO ISZERO PUSH1 0xA0 DUP5 ADD MSTORE SWAP1 PUSH1 0x7 SWAP1 PUSH2 0x1876 PUSH1 0x6 DUP3 ADD PUSH2 0x460D JUMP JUMPDEST PUSH1 0xC0 DUP6 ADD MSTORE ADD SLOAD PUSH1 0xE0 DUP4 ADD MSTORE PUSH2 0x188E DUP3 MLOAD ISZERO ISZERO PUSH2 0x5212 JUMP JUMPDEST MLOAD PUSH1 0x0 MSTORE PUSH1 0xD PUSH1 0x20 MSTORE PUSH2 0x291 PUSH1 0x40 PUSH1 0x0 KECCAK256 SWAP2 PUSH1 0x40 MLOAD SWAP3 PUSH2 0x18AD DUP5 PUSH2 0x4561 JUMP JUMPDEST DUP1 SLOAD DUP5 MSTORE PUSH1 0x1 DUP2 ADD SLOAD PUSH1 0x20 DUP6 ADD SWAP1 DUP2 MSTORE PUSH1 0x2 DUP3 ADD SLOAD PUSH1 0x1 PUSH1 0x1 PUSH1 0xA0 SHL SUB AND PUSH1 0x40 DUP7 ADD MSTORE PUSH1 0x3 DUP3 ADD SLOAD PUSH1 0x60 DUP7 ADD MSTORE PUSH1 0x4 DUP3 ADD SLOAD PUSH1 0x80 DUP7 ADD MSTORE PUSH1 0x5 DUP3 ADD SLOAD SWAP1 SWAP2 PUSH1 0x7 SWAP2 PUSH1 0xFF SWAP1 PUSH2 0x1900 DUP2 DUP4 AND PUSH1 0xA0 DUP11 ADD PUSH2 0x4E80 JUMP JUMPDEST PUSH1 0x8 DUP2 SWAP1 SHR PUSH1 0x1 PUSH1 0x1 PUSH1 0xA0 SHL SUB AND PUSH1 0xC0 DUP10 ADD MSTORE PUSH1 0xA8 SHR AND ISZERO ISZERO PUSH1 0xE0 DUP8 ADD MSTORE PUSH2 0x192A PUSH1 0x6 DUP3 ADD PUSH2 0x460D JUMP JUMPDEST PUSH2 0x100 DUP8 ADD MSTORE ADD SLOAD PUSH2 0x120 DUP6 ADD MSTORE MLOAD PUSH1 0x0 MSTORE PUSH1 0xC PUSH1 0x20 MSTORE PUSH1 0x40 PUSH1 0x0 KECCAK256 SWAP1 PUSH1 0x40 MLOAD SWAP2 PUSH2 0x1954 DUP4 PUSH2 0x45B4 JUMP JUMPDEST DUP1 SLOAD DUP4 MSTORE PUSH1 0xFF PUSH1 0x8 PUSH1 0x1 DUP4 ADD SLOAD SWAP3 PUSH1 0x20 DUP7 ADD SWAP4 DUP5 MSTORE PUSH1 0x1 DUP1 PUSH1 0xA0 SHL SUB PUSH1 0x2 DUP3 ADD SLOAD AND PUSH1 0x40 DUP8 ADD MSTORE PUSH1 0x3 DUP2 ADD SLOAD PUSH1 0x60 DUP8 ADD MSTORE PUSH1 0x4 DUP2 ADD SLOAD PUSH1 0x80 DUP8 ADD MSTORE PUSH1 0x5 DUP2 ADD SLOAD PUSH1 0xA0 DUP8 ADD MSTORE PUSH2 0x19AC DUP4 PUSH1 0x6 DUP4 ADD SLOAD AND PUSH1 0xC0 DUP9 ADD PUSH2 0x4E80 JUMP JUMPDEST PUSH1 0x7 DUP2 ADD SLOAD PUSH1 0xE0 DUP8 ADD MSTORE ADD SLOAD AND ISZERO ISZERO PUSH2 0x100 DUP5 ADD MSTORE MLOAD PUSH1 0x0 MSTORE PUSH1 0xB PUSH1 0x20 MSTORE PUSH2 0x1ABD PUSH1 0x40 PUSH1 0x0 KECCAK256 SWAP3 PUSH1 0x40 MLOAD SWAP6 PUSH2 0x19E0 DUP8 PUSH2 0x4598 JUMP JUMPDEST DUP5 SLOAD DUP8 MSTORE PUSH1 0x1 DUP6 ADD SLOAD PUSH1 0x1 PUSH1 0x1 PUSH1 0xA0 SHL SUB AND PUSH1 0x20 DUP9 ADD MSTORE PUSH2 0x1A03 PUSH1 0x2 DUP7 ADD PUSH2 0x460D JUMP JUMPDEST PUSH1 0x40 DUP9 ADD MSTORE PUSH2 0x1A14 PUSH1 0x3 DUP7 ADD PUSH2 0x460D JUMP JUMPDEST PUSH1 0x60 DUP9 ADD MSTORE PUSH1 0x4 DUP6 ADD SLOAD PUSH1 0x80 DUP9 ADD MSTORE PUSH1 0x5 DUP6 ADD SLOAD PUSH1 0xA0 DUP9 ADD MSTORE PUSH1 0x6 DUP6 ADD SLOAD PUSH1 0xC0 DUP9 ADD MSTORE PUSH2 0x1A43 PUSH1 0x7 DUP7 ADD PUSH2 0x460D JUMP JUMPDEST PUSH1 0xE0 DUP9 ADD MSTORE PUSH2 0x1A5D PUSH1 0xFF PUSH1 0x8 DUP8 ADD SLOAD AND PUSH2 0x100 DUP10 ADD PUSH2 0x4E80 JUMP JUMPDEST PUSH2 0x1A69 PUSH1 0x9 DUP7 ADD PUSH2 0x460D JUMP JUMPDEST PUSH2 0x120 DUP9 ADD MSTORE PUSH1 0xFF PUSH1 0xB PUSH1 0xA DUP8 ADD SLOAD SWAP7 PUSH2 0x140 SWAP8 DUP9 DUP12 ADD MSTORE ADD SLOAD AND SWAP5 PUSH2 0x160 SWAP6 ISZERO ISZERO DUP7 DUP10 ADD MSTORE PUSH2 0x1AB1 PUSH1 0x40 MLOAD SWAP10 DUP11 SWAP10 PUSH2 0x180 DUP1 DUP13 MSTORE DUP12 ADD SWAP1 PUSH2 0x47AA JUMP JUMPDEST SWAP4 PUSH1 0x20 DUP11 ADD SWAP1 PUSH2 0x4856 JUMP JUMPDEST DUP8 DUP4 SUB SWAP1 DUP9 ADD MSTORE PUSH2 0x4900 JUMP JUMPDEST SWAP2 DUP5 DUP4 SUB SWAP1 DUP6 ADD MSTORE PUSH2 0x49FC JUMP JUMPDEST CALLVALUE PUSH2 0x23D JUMPI PUSH1 0x60 CALLDATASIZE PUSH1 0x3 NOT ADD SLT PUSH2 0x23D JUMPI PUSH2 0x1AE3 PUSH2 0x4702 JUMP JUMPDEST PUSH1 0x1 PUSH1 0x1 PUSH1 0x40 SHL SUB PUSH1 0x24 DUP1 CALLDATALOAD DUP3 DUP2 GT PUSH2 0x23D JUMPI PUSH2 0x1B04 SWAP1 CALLDATASIZE SWAP1 PUSH1 0x4 ADD PUSH2 0x4712 JUMP JUMPDEST SWAP1 SWAP3 PUSH1 0x44 CALLDATALOAD DUP2 DUP2 GT PUSH2 0x23D JUMPI PUSH2 0x1B20 PUSH1 0xFF SWAP2 CALLDATASIZE SWAP1 PUSH1 0x4 ADD PUSH2 0x4712 JUMP JUMPDEST SWAP2 SWAP1 SWAP7 AND SWAP6 PUSH1 0x1 SWAP5 DUP6 DUP9 EQ DUP1 ISZERO PUSH2 0x1E45 JUMPI JUMPDEST ISZERO PUSH2 0x1DE5 JUMPI CALLER PUSH1 0x0 MSTORE PUSH1 0x20 SWAP7 PUSH1 0x2 DUP9 MSTORE PUSH1 0x40 PUSH1 0x0 KECCAK256 SWAP6 DUP7 SLOAD PUSH1 0xFF DUP2 AND PUSH1 0x6 DUP2 LT ISZERO PUSH2 0x1DD0 JUMPI PUSH2 0x1D8C JUMPI PUSH2 0xFF00 NOT AND PUSH2 0x100 OR DUP8 SSTORE DUP8 DUP8 ADD SWAP2 DUP7 DUP3 GT PUSH2 0x1D77 JUMPI DUP2 SWAP1 PUSH2 0x1B87 DUP3 PUSH2 0x1B81 DUP7 SLOAD PUSH2 0x4527 JUMP JUMPDEST DUP7 PUSH2 0x4D1B JUMP JUMPDEST PUSH1 0x0 SWAP1 PUSH1 0x1F DUP4 GT PUSH1 0x1 EQ PUSH2 0x1D14 JUMPI PUSH1 0x0 SWAP3 PUSH2 0x1D09 JUMPI JUMPDEST POP POP PUSH1 0x0 NOT PUSH1 0x3 DUP4 SWAP1 SHL SHR NOT AND SWAP1 DUP9 SHL OR SWAP1 SSTORE JUMPDEST PUSH1 0x2 DUP6 ADD SWAP4 DUP4 GT PUSH2 0x1CF5 JUMPI POP PUSH2 0x1BD1 DUP3 PUSH2 0x1BCB DUP6 SLOAD PUSH2 0x4527 JUMP JUMPDEST DUP6 PUSH2 0x4D1B JUMP JUMPDEST PUSH1 0x0 SWAP1 PUSH1 0x1F DUP4 GT PUSH1 0x1 EQ PUSH2 0x1C8B JUMPI PUSH1 0x4 SWAP5 SWAP4 SWAP3 SWAP2 PUSH1 0x0 SWAP2 DUP4 PUSH2 0x1C80 JUMPI JUMPDEST POP POP PUSH1 0x0 NOT PUSH1 0x3 DUP4 SWAP1 SHL SHR NOT AND SWAP1 DUP6 SHL OR SWAP1 SSTORE JUMPDEST TIMESTAMP PUSH1 0x3 DUP3 ADD SSTORE ADD SWAP1 PUSH1 0xFF NOT SWAP2 DUP2 DUP4 DUP3 SLOAD AND OR SWAP1 SSTORE CALLER PUSH1 0x0 MSTORE PUSH1 0x4 DUP4 MSTORE PUSH1 0xFF PUSH1 0x40 PUSH1 0x0 KECCAK256 SLOAD AND ISZERO PUSH2 0x1C5C JUMPI JUMPDEST POP POP PUSH32 0xD1459FF4CEF342225FA955F3422559F5CF811E33E3AEEA80B43DB4C776B151D5 PUSH1 0x40 MLOAD SWAP2 TIMESTAMP DUP4 MSTORE CALLER SWAP3 LOG3 STOP JUMPDEST PUSH2 0x1C65 CALLER PUSH2 0x5125 JUMP JUMPDEST CALLER PUSH1 0x0 MSTORE PUSH1 0x4 DUP4 MSTORE PUSH1 0x40 PUSH1 0x0 KECCAK256 SWAP2 DUP3 SLOAD AND OR SWAP1 SSTORE DUP3 DUP1 PUSH2 0x1C2D JUMP JUMPDEST ADD CALLDATALOAD SWAP1 POP DUP9 DUP1 PUSH2 0x1BEE JUMP JUMPDEST SWAP2 DUP6 SWAP2 SWAP5 SWAP4 SWAP3 PUSH1 0x1F NOT DUP3 AND SWAP1 DUP5 PUSH1 0x0 MSTORE DUP9 PUSH1 0x0 KECCAK256 SWAP2 PUSH1 0x0 JUMPDEST DUP11 DUP3 DUP3 LT PUSH2 0x1CDF JUMPI POP POP SWAP7 DUP4 PUSH1 0x4 SWAP9 LT PUSH2 0x1CC5 JUMPI JUMPDEST POP POP POP DUP2 SHL ADD SWAP1 SSTORE PUSH2 0x1C02 JUMP JUMPDEST ADD CALLDATALOAD PUSH1 0x0 NOT PUSH1 0x3 DUP5 SWAP1 SHL PUSH1 0xF8 AND SHR NOT AND SWAP1 SSTORE DUP9 DUP1 DUP1 PUSH2 0x1CB8 JUMP JUMPDEST DUP4 DUP11 ADD CALLDATALOAD DUP6 SSTORE SWAP9 DUP10 ADD SWAP9 DUP11 SWAP7 SWAP1 SWAP5 ADD SWAP4 ADD PUSH2 0x1CA3 JUMP JUMPDEST PUSH4 0x4E487B71 PUSH1 0xE0 SHL PUSH1 0x0 SWAP1 DUP2 MSTORE PUSH1 0x41 PUSH1 0x4 MSTORE REVERT JUMPDEST ADD CALLDATALOAD SWAP1 POP DUP12 DUP1 PUSH2 0x1B9D JUMP JUMPDEST PUSH1 0x0 DUP6 DUP2 MSTORE DUP13 DUP2 KECCAK256 DUP13 SWAP6 POP SWAP3 SWAP1 PUSH1 0x1F NOT DUP6 AND SWAP1 DUP15 JUMPDEST DUP3 DUP3 LT PUSH2 0x1D60 JUMPI POP POP DUP5 GT PUSH2 0x1D46 JUMPI JUMPDEST POP POP POP DUP2 SHL ADD SWAP1 SSTORE PUSH2 0x1BB1 JUMP JUMPDEST ADD CALLDATALOAD PUSH1 0x0 NOT PUSH1 0x3 DUP5 SWAP1 SHL PUSH1 0xF8 AND SHR NOT AND SWAP1 SSTORE DUP12 DUP1 DUP1 PUSH2 0x1D39 JUMP JUMPDEST DUP4 DUP6 ADD CALLDATALOAD DUP7 SSTORE DUP15 SWAP8 SWAP1 SWAP6 ADD SWAP5 SWAP3 DUP4 ADD SWAP3 ADD DUP15 PUSH2 0x1D29 JUMP JUMPDEST DUP4 PUSH4 0x4E487B71 PUSH1 0xE0 SHL PUSH1 0x0 MSTORE PUSH1 0x41 PUSH1 0x4 MSTORE PUSH1 0x0 REVERT JUMPDEST PUSH1 0x40 MLOAD PUSH3 0x461BCD PUSH1 0xE5 SHL DUP2 MSTORE PUSH1 0x4 DUP2 ADD DUP12 SWAP1 MSTORE PUSH1 0x1F DUP2 DUP7 ADD MSTORE PUSH32 0x537570706C79436861696E3A20616C726561647920686173206120726F6C6500 PUSH1 0x44 DUP3 ADD MSTORE PUSH1 0x64 SWAP1 REVERT JUMPDEST DUP5 PUSH4 0x4E487B71 PUSH1 0xE0 SHL PUSH1 0x0 MSTORE PUSH1 0x21 PUSH1 0x4 MSTORE PUSH1 0x0 REVERT JUMPDEST PUSH1 0x84 SWAP1 PUSH1 0x33 PUSH1 0x40 MLOAD SWAP2 PUSH3 0x461BCD PUSH1 0xE5 SHL DUP4 MSTORE PUSH1 0x20 PUSH1 0x4 DUP5 ADD MSTORE DUP3 ADD MSTORE PUSH32 0x537570706C79436861696E3A206F6E6C79204661726D6572206F722044697374 PUSH1 0x44 DUP3 ADD MSTORE PUSH19 0x1C9A589D5D1BDC8818D85B881C995C5D595CDD PUSH1 0x6A SHL PUSH1 0x64 DUP3 ADD MSTORE REVERT JUMPDEST POP PUSH1 0x2 DUP9 EQ PUSH2 0x1B32 JUMP JUMPDEST PUSH2 0x1E58 CALLDATASIZE PUSH2 0x49E6 JUMP JUMPDEST CALLER PUSH1 0x0 MSTORE PUSH1 0x20 SWAP2 PUSH1 0x2 DUP4 MSTORE PUSH1 0xFF PUSH1 0x40 PUSH1 0x0 KECCAK256 SLOAD AND PUSH1 0x6 DUP2 LT ISZERO PUSH2 0x3A3 JUMPI PUSH1 0x2 PUSH2 0x1E81 SWAP2 EQ PUSH2 0x4B88 JUMP JUMPDEST PUSH2 0x1E89 PUSH2 0x5789 JUMP JUMPDEST DUP1 PUSH1 0x0 MSTORE PUSH1 0xB DUP4 MSTORE PUSH1 0x40 PUSH1 0x0 KECCAK256 SWAP3 DUP4 SLOAD ISZERO ISZERO DUP1 PUSH2 0x2104 JUMPI JUMPDEST ISZERO PUSH2 0x20A8 JUMPI PUSH1 0xFF PUSH1 0x8 DUP6 ADD SLOAD AND SWAP4 PUSH1 0x2 DUP6 LT ISZERO PUSH2 0x3A3 JUMPI PUSH1 0x1 DUP1 SWAP6 EQ DUP1 ISZERO PUSH2 0x2093 JUMPI JUMPDEST ISZERO PUSH2 0x2038 JUMPI PUSH2 0x1FF0 PUSH32 0xC0D1700ED1206408D2C687DBF2D84C21D243DDCDDD1A5DC39A3B4E1E7787FB2B SWAP2 DUP6 ISZERO ISZERO DUP1 PUSH2 0x202A JUMPI JUMPDEST PUSH2 0x1F00 SWAP1 PUSH2 0x5167 JUMP JUMPDEST PUSH1 0x6 DUP2 ADD SWAP4 PUSH2 0x1F1A PUSH2 0x1F13 DUP7 SLOAD DUP10 PUSH2 0x51B3 JUMP JUMPDEST CALLVALUE EQ PUSH2 0x51C6 JUMP JUMPDEST DUP8 PUSH2 0x1F26 PUSH1 0x6 SLOAD PUSH2 0x4B16 JUMP JUMPDEST SWAP3 DUP4 PUSH1 0x6 SSTORE DUP4 PUSH1 0x0 MSTORE PUSH1 0xC DUP4 MSTORE PUSH1 0x40 PUSH1 0x0 KECCAK256 SWAP4 DUP5 SSTORE DUP8 DUP3 DUP6 ADD SSTORE PUSH1 0x2 DUP5 ADD CALLER PUSH1 0x1 PUSH1 0x1 PUSH1 0x60 SHL SUB PUSH1 0xA0 SHL DUP3 SLOAD AND OR SWAP1 SSTORE DUP9 PUSH1 0x3 DUP6 ADD SSTORE DUP7 SLOAD DUP1 PUSH1 0x4 DUP7 ADD SSTORE PUSH1 0x5 DUP6 ADD SSTORE PUSH1 0x6 DUP5 ADD PUSH1 0xFF NOT SWAP1 DUP4 DUP3 DUP3 SLOAD AND OR SWAP1 SSTORE TIMESTAMP PUSH1 0x7 DUP7 ADD SSTORE PUSH1 0x8 DUP6 ADD DUP4 DUP3 DUP3 SLOAD AND OR SWAP1 SSTORE PUSH1 0x5 DUP3 ADD PUSH2 0x1F9A DUP12 DUP3 SLOAD PUSH2 0x4D60 JUMP JUMPDEST DUP1 SWAP2 SSTORE ISZERO PUSH2 0x201A JUMPI JUMPDEST POP ADD SWAP1 PUSH1 0x1 DUP1 PUSH1 0xA0 SHL SUB PUSH1 0x0 DUP1 DUP1 DUP1 CALLVALUE DUP6 DUP9 SLOAD AND GAS CALL PUSH2 0x1FC1 PUSH2 0x4D6D JUMP JUMPDEST POP ISZERO PUSH2 0x1FF7 JUMPI JUMPDEST POP POP POP SLOAD SWAP3 SLOAD SWAP5 PUSH1 0x40 MLOAD SWAP2 DUP3 SWAP2 CALLER SWAP8 TIMESTAMP SWAP2 DUP5 PUSH1 0x40 SWAP2 SWAP5 SWAP4 SWAP3 PUSH1 0x60 DUP3 ADD SWAP6 DUP3 MSTORE PUSH1 0x20 DUP3 ADD MSTORE ADD MSTORE JUMP JUMPDEST SUB SWAP1 LOG4 DUP1 SSTORE STOP JUMPDEST PUSH1 0x11 SWAP3 SLOAD AND PUSH1 0x0 MSTORE MSTORE PUSH1 0x40 PUSH1 0x0 KECCAK256 PUSH2 0x2010 CALLVALUE DUP3 SLOAD PUSH2 0x4C9E JUMP JUMPDEST SWAP1 SSTORE DUP8 DUP1 DUP1 PUSH2 0x1FC8 JUMP JUMPDEST PUSH1 0xB DUP3 ADD SWAP1 DUP2 SLOAD AND SWAP1 SSTORE DUP11 PUSH2 0x1FA3 JUMP JUMPDEST POP PUSH1 0x5 DUP2 ADD SLOAD DUP7 GT ISZERO PUSH2 0x1EF7 JUMP JUMPDEST PUSH1 0x40 MLOAD PUSH3 0x461BCD PUSH1 0xE5 SHL DUP2 MSTORE PUSH1 0x4 DUP2 ADD DUP4 SWAP1 MSTORE PUSH1 0x2D PUSH1 0x24 DUP3 ADD MSTORE PUSH32 0x537570706C79436861696E3A206E6F7420616C6C6F77656420746F2062757920 PUSH1 0x44 DUP3 ADD MSTORE PUSH13 0xE0E4D2ECC2E8CA40C4C2E8C6D PUSH1 0x9B SHL PUSH1 0x64 DUP3 ADD MSTORE PUSH1 0x84 SWAP1 REVERT JUMPDEST POP DUP1 DUP6 ADD SLOAD PUSH1 0x1 PUSH1 0x1 PUSH1 0xA0 SHL SUB AND CALLER EQ PUSH2 0x1EC4 JUMP JUMPDEST PUSH1 0x84 SWAP1 PUSH1 0x40 MLOAD SWAP1 PUSH3 0x461BCD PUSH1 0xE5 SHL DUP3 MSTORE PUSH1 0x4 DUP3 ADD MSTORE PUSH1 0x2F PUSH1 0x24 DUP3 ADD MSTORE PUSH32 0x537570706C79436861696E3A206661726D6572206261746368206E6F7420666F PUSH1 0x44 DUP3 ADD MSTORE PUSH15 0x756E64206F7220696E616374697665 PUSH1 0x88 SHL PUSH1 0x64 DUP3 ADD MSTORE REVERT JUMPDEST POP PUSH1 0xFF PUSH1 0xB DUP6 ADD SLOAD AND PUSH2 0x1EA1 JUMP JUMPDEST CALLVALUE PUSH2 0x23D JUMPI PUSH1 0x20 CALLDATASIZE PUSH1 0x3 NOT ADD SLT PUSH2 0x23D JUMPI PUSH1 0x1 PUSH1 0x1 PUSH1 0xA0 SHL SUB PUSH2 0x2133 PUSH2 0x446C JUMP JUMPDEST AND PUSH1 0x0 MSTORE PUSH1 0x2 PUSH1 0x20 MSTORE PUSH1 0xFF PUSH1 0x40 PUSH1 0x0 KECCAK256 DUP1 SLOAD SWAP1 PUSH2 0x2152 PUSH1 0x1 DUP3 ADD PUSH2 0x460D JUMP JUMPDEST PUSH2 0x21AD PUSH2 0x2161 PUSH1 0x2 DUP5 ADD PUSH2 0x460D JUMP JUMPDEST PUSH2 0x219F DUP7 PUSH1 0x4 PUSH1 0x3 DUP8 ADD SLOAD SWAP7 ADD SLOAD AND SWAP4 PUSH1 0x40 MLOAD SWAP8 DUP8 PUSH2 0x2183 DUP11 DUP4 DUP2 SWAP12 AND PUSH2 0x4482 JUMP JUMPDEST PUSH1 0x8 SHR AND ISZERO ISZERO PUSH1 0x20 DUP9 ADD MSTORE PUSH1 0xC0 PUSH1 0x40 DUP9 ADD MSTORE PUSH1 0xC0 DUP8 ADD SWAP1 PUSH2 0x46B2 JUMP JUMPDEST SWAP1 DUP6 DUP3 SUB PUSH1 0x60 DUP8 ADD MSTORE PUSH2 0x46B2 JUMP JUMPDEST SWAP2 PUSH1 0x80 DUP5 ADD MSTORE ISZERO ISZERO PUSH1 0xA0 DUP4 ADD MSTORE SUB SWAP1 RETURN JUMPDEST PUSH1 0x60 CALLDATASIZE PUSH1 0x3 NOT ADD SLT PUSH2 0x23D JUMPI PUSH1 0x24 CALLDATALOAD PUSH1 0x4 CALLDATALOAD PUSH1 0x44 CALLDATALOAD DUP1 ISZERO ISZERO SWAP1 DUP2 DUP2 SUB PUSH2 0x23D JUMPI PUSH2 0x21E6 PUSH2 0x5789 JUMP JUMPDEST DUP3 PUSH1 0x0 MSTORE PUSH1 0xD PUSH1 0x20 MSTORE PUSH1 0x40 PUSH1 0x0 KECCAK256 PUSH2 0x2200 DUP2 SLOAD ISZERO ISZERO PUSH2 0x4FBE JUMP JUMPDEST PUSH1 0xFF PUSH1 0x5 DUP3 ADD SLOAD PUSH1 0xA8 SHR AND ISZERO PUSH2 0x22FA JUMPI PUSH2 0x1F13 PUSH1 0x4 PUSH2 0x2233 SWAP3 DUP8 ISZERO ISZERO DUP1 PUSH2 0x22EC JUMPI JUMPDEST PUSH2 0x222B SWAP1 PUSH2 0x5167 JUMP JUMPDEST ADD SLOAD DUP7 PUSH2 0x51B3 JUMP JUMPDEST PUSH2 0x228E PUSH2 0x2241 PUSH1 0x9 SLOAD PUSH2 0x4B16 JUMP JUMPDEST SWAP2 DUP3 PUSH1 0x9 SSTORE DUP3 PUSH1 0x0 MSTORE PUSH1 0xF PUSH1 0x20 MSTORE PUSH1 0x40 PUSH1 0x0 KECCAK256 SWAP3 DUP4 SSTORE DUP5 PUSH1 0x1 DUP5 ADD SSTORE PUSH1 0x2 DUP4 ADD CALLER PUSH1 0x1 PUSH1 0x1 PUSH1 0x60 SHL SUB PUSH1 0xA0 SHL DUP3 SLOAD AND OR SWAP1 SSTORE DUP6 PUSH1 0x3 DUP5 ADD SSTORE PUSH1 0x4 DUP4 ADD SWAP1 PUSH1 0xFF DUP1 NOT DUP4 SLOAD AND SWAP2 ISZERO ISZERO AND OR SWAP1 SSTORE JUMP JUMPDEST CALLVALUE PUSH1 0x5 DUP3 ADD SSTORE PUSH1 0x6 DUP2 ADD PUSH2 0xFFFF NOT DUP2 SLOAD AND SWAP1 SSTORE TIMESTAMP PUSH1 0x7 DUP3 ADD SSTORE SLOAD SWAP1 PUSH1 0x40 MLOAD SWAP4 DUP5 MSTORE PUSH1 0x20 DUP5 ADD MSTORE CALLVALUE PUSH1 0x40 DUP5 ADD MSTORE TIMESTAMP PUSH1 0x60 DUP5 ADD MSTORE PUSH32 0xFFAA3F2CA7A735E36B5ADAB1F989C6F24D937ADD66EC9FC7ACAF5506EE01529E PUSH1 0x80 CALLER SWAP5 LOG4 PUSH1 0x1 DUP1 SSTORE STOP JUMPDEST POP PUSH1 0x3 DUP2 ADD SLOAD DUP9 GT ISZERO PUSH2 0x2222 JUMP JUMPDEST PUSH1 0x40 MLOAD PUSH3 0x461BCD PUSH1 0xE5 SHL DUP2 MSTORE PUSH1 0x20 PUSH1 0x4 DUP3 ADD MSTORE PUSH1 0x1F PUSH1 0x24 DUP3 ADD MSTORE PUSH32 0x537570706C79436861696E3A207061636B206E6F7420617661696C61626C6500 PUSH1 0x44 DUP3 ADD MSTORE PUSH1 0x64 SWAP1 REVERT JUMPDEST CALLVALUE PUSH2 0x23D JUMPI PUSH1 0x0 CALLDATASIZE PUSH1 0x3 NOT ADD SLT PUSH2 0x23D JUMPI PUSH1 0x20 PUSH1 0x5 SLOAD PUSH1 0x40 MLOAD SWAP1 DUP2 MSTORE RETURN JUMPDEST CALLVALUE PUSH2 0x23D JUMPI PUSH1 0x20 DUP1 PUSH1 0x3 NOT CALLDATASIZE ADD SLT PUSH2 0x23D JUMPI PUSH2 0x2377 PUSH2 0x446C JUMP JUMPDEST PUSH1 0x6 SWAP1 PUSH1 0x6 SLOAD SWAP1 PUSH1 0x7 DUP1 SLOAD SWAP2 PUSH1 0x0 SWAP5 PUSH1 0x0 SWAP6 PUSH1 0x1 JUMPDEST DUP7 DUP2 GT ISZERO PUSH2 0x2633 JUMPI POP PUSH1 0x1 JUMPDEST DUP6 DUP2 GT ISZERO PUSH2 0x25D8 JUMPI POP PUSH2 0x23AD PUSH2 0x23B3 SWAP2 PUSH2 0x4ED1 JUMP JUMPDEST SWAP7 PUSH2 0x4F6E JUMP JUMPDEST SWAP5 PUSH1 0x0 PUSH1 0x1 JUMPDEST DUP3 DUP2 GT ISZERO PUSH2 0x24F4 JUMPI POP POP POP PUSH1 0x0 SWAP2 PUSH1 0x1 JUMPDEST DUP6 DUP2 GT ISZERO PUSH2 0x23FC JUMPI PUSH2 0x23EF DUP9 PUSH2 0x291 DUP12 DUP11 PUSH1 0x40 MLOAD SWAP5 DUP6 SWAP5 PUSH1 0x40 DUP7 MSTORE PUSH1 0x40 DUP7 ADD SWAP1 PUSH2 0x48BE JUMP JUMPDEST SWAP2 DUP5 DUP4 SUB SWAP1 DUP6 ADD MSTORE PUSH2 0x4989 JUMP JUMPDEST DUP1 PUSH1 0x0 MSTORE PUSH1 0xD DUP10 MSTORE PUSH1 0x40 PUSH1 0x0 KECCAK256 DUP6 DUP2 SLOAD SWAP2 DUP3 ISZERO ISZERO DUP1 PUSH2 0x24DB JUMPI JUMPDEST PUSH2 0x242C JUMPI JUMPDEST POP POP POP PUSH2 0x2427 SWAP1 PUSH2 0x4B16 JUMP JUMPDEST PUSH2 0x23CA JUMP JUMPDEST SWAP2 PUSH2 0x2427 SWAP4 SWAP7 SWAP2 PUSH2 0x24D2 SWAP4 PUSH1 0x40 MLOAD SWAP3 PUSH2 0x2444 DUP5 PUSH2 0x4561 JUMP JUMPDEST DUP4 MSTORE PUSH1 0x1 DUP2 ADD SLOAD DUP15 DUP5 ADD MSTORE PUSH1 0x2 DUP2 ADD SLOAD PUSH1 0x1 PUSH1 0x1 PUSH1 0xA0 SHL SUB SWAP1 DUP2 AND PUSH1 0x40 DUP6 ADD MSTORE PUSH1 0x3 DUP3 ADD SLOAD PUSH1 0x60 DUP6 ADD MSTORE PUSH1 0x4 DUP3 ADD SLOAD PUSH1 0x80 DUP6 ADD MSTORE PUSH1 0x5 DUP3 ADD SLOAD PUSH1 0xFF SWAP2 PUSH2 0x248F DUP4 DUP4 AND PUSH1 0xA0 DUP9 ADD PUSH2 0x4E80 JUMP JUMPDEST DUP2 PUSH1 0x8 SHR AND PUSH1 0xC0 DUP7 ADD MSTORE PUSH1 0xA8 SHR AND ISZERO ISZERO PUSH1 0xE0 DUP5 ADD MSTORE PUSH2 0x24AF DUP9 DUP3 ADD PUSH2 0x460D JUMP JUMPDEST PUSH2 0x100 DUP5 ADD MSTORE ADD SLOAD PUSH2 0x120 DUP3 ADD MSTORE PUSH2 0x24C7 DUP3 DUP12 PUSH2 0x4B52 JUMP JUMPDEST MSTORE PUSH2 0x37A DUP2 DUP11 PUSH2 0x4B52 JUMP JUMPDEST SWAP4 SWAP1 DUP6 DUP12 PUSH2 0x241B JUMP JUMPDEST POP PUSH1 0x2 DUP2 ADD SLOAD PUSH1 0x1 PUSH1 0x1 PUSH1 0xA0 SHL SUB DUP7 DUP2 AND SWAP2 AND EQ PUSH2 0x2416 JUMP JUMPDEST DUP1 PUSH1 0x0 MSTORE PUSH1 0xC DUP11 MSTORE PUSH1 0x40 PUSH1 0x0 KECCAK256 DUP1 SLOAD SWAP1 DUP2 ISZERO ISZERO DUP1 PUSH2 0x25BF JUMPI JUMPDEST PUSH2 0x2522 JUMPI JUMPDEST POP POP PUSH2 0x251D SWAP1 PUSH2 0x4B16 JUMP JUMPDEST PUSH2 0x23B9 JUMP JUMPDEST SWAP3 PUSH2 0x25B7 SWAP2 PUSH2 0x251D SWAP4 SWAP5 PUSH1 0x40 MLOAD SWAP2 PUSH2 0x2539 DUP4 PUSH2 0x45B4 JUMP JUMPDEST DUP3 MSTORE PUSH1 0x1 DUP2 ADD SLOAD DUP15 DUP4 ADD MSTORE PUSH1 0x2 DUP2 ADD SLOAD PUSH1 0x1 PUSH1 0x1 PUSH1 0xA0 SHL SUB AND PUSH1 0x40 DUP4 ADD MSTORE PUSH1 0x3 DUP2 ADD SLOAD PUSH1 0x60 DUP4 ADD MSTORE PUSH1 0x4 DUP2 ADD SLOAD PUSH1 0x80 DUP4 ADD MSTORE PUSH1 0x5 DUP2 ADD SLOAD PUSH1 0xA0 DUP4 ADD MSTORE DUP8 DUP2 ADD SLOAD PUSH1 0xFF SWAP2 PUSH1 0x8 SWAP2 PUSH2 0x258E SWAP1 DUP5 AND PUSH1 0xC0 DUP7 ADD PUSH2 0x4E80 JUMP JUMPDEST DUP12 DUP2 ADD SLOAD PUSH1 0xE0 DUP6 ADD MSTORE ADD SLOAD AND ISZERO ISZERO PUSH2 0x100 DUP3 ADD MSTORE PUSH2 0x25AC DUP3 DUP14 PUSH2 0x4B52 JUMP JUMPDEST MSTORE PUSH2 0x37A DUP2 DUP13 PUSH2 0x4B52 JUMP JUMPDEST SWAP2 SWAP1 DUP12 PUSH2 0x2512 JUMP JUMPDEST POP PUSH1 0x2 DUP2 ADD SLOAD PUSH1 0x1 PUSH1 0x1 PUSH1 0xA0 SHL SUB DUP9 DUP2 AND SWAP2 AND EQ PUSH2 0x250D JUMP JUMPDEST DUP1 PUSH1 0x0 MSTORE PUSH1 0xD DUP10 MSTORE PUSH1 0x40 PUSH1 0x0 KECCAK256 DUP1 SLOAD ISZERO ISZERO SWAP1 DUP2 PUSH2 0x2619 JUMPI JUMPDEST POP PUSH2 0x2604 JUMPI JUMPDEST PUSH2 0x25FF SWAP1 PUSH2 0x4B16 JUMP JUMPDEST PUSH2 0x2398 JUMP JUMPDEST SWAP7 PUSH2 0x2611 PUSH2 0x25FF SWAP2 PUSH2 0x4B16 JUMP JUMPDEST SWAP8 SWAP1 POP PUSH2 0x25F6 JUMP JUMPDEST PUSH1 0x2 ADD SLOAD PUSH1 0x1 PUSH1 0x1 PUSH1 0xA0 SHL SUB DUP7 DUP2 AND SWAP2 AND EQ SWAP1 POP DUP11 PUSH2 0x25F0 JUMP JUMPDEST DUP1 PUSH1 0x0 MSTORE PUSH1 0xC DUP10 MSTORE PUSH1 0x40 PUSH1 0x0 KECCAK256 DUP1 SLOAD ISZERO ISZERO SWAP1 DUP2 PUSH2 0x2674 JUMPI JUMPDEST POP PUSH2 0x265F JUMPI JUMPDEST PUSH2 0x265A SWAP1 PUSH2 0x4B16 JUMP JUMPDEST PUSH2 0x238C JUMP JUMPDEST SWAP1 PUSH2 0x266C PUSH2 0x265A SWAP2 PUSH2 0x4B16 JUMP JUMPDEST SWAP2 SWAP1 POP PUSH2 0x2651 JUMP JUMPDEST PUSH1 0x2 ADD SLOAD PUSH1 0x1 PUSH1 0x1 PUSH1 0xA0 SHL SUB DUP7 DUP2 AND SWAP2 AND EQ SWAP1 POP DUP11 PUSH2 0x264B JUMP JUMPDEST CALLVALUE PUSH2 0x23D JUMPI PUSH1 0x20 CALLDATASIZE PUSH1 0x3 NOT ADD SLT PUSH2 0x23D JUMPI PUSH1 0x4 CALLDATALOAD PUSH1 0x0 MSTORE PUSH1 0xF PUSH1 0x20 MSTORE PUSH2 0x120 PUSH1 0x40 PUSH1 0x0 KECCAK256 DUP1 SLOAD SWAP1 PUSH1 0xFF PUSH1 0x1 DUP3 ADD SLOAD SWAP2 PUSH1 0x1 DUP1 PUSH1 0xA0 SHL SUB PUSH1 0x2 DUP3 ADD SLOAD AND PUSH1 0x3 DUP3 ADD SLOAD DUP4 PUSH1 0x4 DUP5 ADD SLOAD AND SWAP1 PUSH1 0x5 DUP5 ADD SLOAD SWAP3 PUSH1 0x7 PUSH1 0x6 DUP7 ADD SLOAD SWAP6 ADD SLOAD SWAP7 PUSH1 0x40 MLOAD SWAP9 DUP10 MSTORE PUSH1 0x20 DUP10 ADD MSTORE PUSH1 0x40 DUP9 ADD MSTORE PUSH1 0x60 DUP8 ADD MSTORE ISZERO ISZERO PUSH1 0x80 DUP7 ADD MSTORE PUSH1 0xA0 DUP6 ADD MSTORE DUP2 DUP2 AND ISZERO ISZERO PUSH1 0xC0 DUP6 ADD MSTORE PUSH1 0x8 SHR AND ISZERO ISZERO PUSH1 0xE0 DUP4 ADD MSTORE PUSH2 0x100 DUP3 ADD MSTORE RETURN JUMPDEST CALLVALUE PUSH2 0x23D JUMPI PUSH1 0x20 DUP1 PUSH1 0x3 NOT CALLDATASIZE ADD SLT PUSH2 0x23D JUMPI PUSH2 0x2740 PUSH2 0x446C JUMP JUMPDEST PUSH1 0x8 SLOAD PUSH1 0x0 SWAP2 PUSH1 0x1 JUMPDEST DUP3 DUP2 GT ISZERO PUSH2 0x28DD JUMPI POP PUSH2 0x2774 PUSH2 0x275E DUP5 PUSH2 0x4B3B JUMP JUMPDEST SWAP4 PUSH2 0x276C PUSH1 0x40 MLOAD SWAP6 DUP7 PUSH2 0x45EC JUMP JUMPDEST DUP1 DUP6 MSTORE PUSH2 0x4B3B JUMP JUMPDEST PUSH1 0x1F NOT ADD DUP5 PUSH1 0x0 JUMPDEST DUP3 DUP2 LT PUSH2 0x28C7 JUMPI POP POP POP PUSH1 0x0 PUSH1 0x1 JUMPDEST DUP4 DUP2 GT ISZERO PUSH2 0x27F1 JUMPI PUSH1 0x40 DUP1 MLOAD DUP8 DUP2 MSTORE DUP7 MLOAD DUP2 DUP10 ADD DUP2 SWAP1 MSTORE PUSH1 0x0 SWAP3 PUSH1 0x5 DUP3 SWAP1 SHL DUP4 ADD DUP2 ADD SWAP2 DUP10 DUP12 ADD SWAP2 DUP12 SWAP1 DUP6 ADD JUMPDEST DUP3 DUP8 LT PUSH2 0x27C5 JUMPI DUP6 DUP6 SUB DUP7 RETURN JUMPDEST SWAP1 SWAP2 SWAP3 SWAP4 DUP3 DUP1 PUSH2 0x27E1 PUSH1 0x1 SWAP4 PUSH1 0x3F NOT DUP11 DUP3 SUB ADD DUP7 MSTORE DUP9 MLOAD PUSH2 0x49FC JUMP JUMPDEST SWAP7 ADD SWAP3 ADD SWAP7 ADD SWAP6 SWAP3 SWAP2 SWAP1 SWAP3 PUSH2 0x27B8 JUMP JUMPDEST DUP1 PUSH1 0x0 MSTORE PUSH1 0xE DUP7 MSTORE PUSH1 0x40 PUSH1 0x0 KECCAK256 DUP1 SLOAD SWAP1 DUP2 ISZERO ISZERO DUP1 PUSH2 0x28AE JUMPI JUMPDEST PUSH2 0x281F JUMPI JUMPDEST POP POP PUSH2 0x281A SWAP1 PUSH2 0x4B16 JUMP JUMPDEST PUSH2 0x278B JUMP JUMPDEST SWAP3 PUSH2 0x28A6 SWAP2 PUSH1 0x7 PUSH2 0x281A SWAP5 SWAP6 PUSH1 0x40 MLOAD SWAP3 PUSH2 0x2838 DUP5 PUSH2 0x45D0 JUMP JUMPDEST DUP4 MSTORE PUSH1 0x1 DUP2 ADD SLOAD DUP12 DUP5 ADD MSTORE PUSH1 0x2 DUP2 ADD SLOAD PUSH1 0x1 PUSH1 0x1 PUSH1 0xA0 SHL SUB AND PUSH1 0x40 DUP5 ADD MSTORE PUSH1 0x3 DUP2 ADD SLOAD PUSH1 0x60 DUP5 ADD MSTORE PUSH1 0x4 DUP2 ADD SLOAD PUSH1 0x80 DUP5 ADD MSTORE PUSH1 0x5 DUP2 ADD SLOAD PUSH1 0xFF AND ISZERO ISZERO PUSH1 0xA0 DUP5 ADD MSTORE PUSH2 0x2885 PUSH1 0x6 DUP3 ADD PUSH2 0x460D JUMP JUMPDEST PUSH1 0xC0 DUP5 ADD MSTORE ADD SLOAD PUSH1 0xE0 DUP3 ADD MSTORE PUSH2 0x289B DUP3 DUP10 PUSH2 0x4B52 JUMP JUMPDEST MSTORE PUSH2 0x37A DUP2 DUP9 PUSH2 0x4B52 JUMP JUMPDEST SWAP2 SWAP1 DUP8 PUSH2 0x280F JUMP JUMPDEST POP PUSH1 0x2 DUP2 ADD SLOAD PUSH1 0x1 PUSH1 0x1 PUSH1 0xA0 SHL SUB DUP7 DUP2 AND SWAP2 AND EQ PUSH2 0x280A JUMP JUMPDEST PUSH2 0x28CF PUSH2 0x525E JUMP JUMPDEST DUP3 DUP3 DUP9 ADD ADD MSTORE ADD DUP6 SWAP1 PUSH2 0x277C JUMP JUMPDEST DUP1 PUSH1 0x0 MSTORE PUSH1 0xE DUP6 MSTORE PUSH1 0x40 PUSH1 0x0 KECCAK256 DUP1 SLOAD ISZERO ISZERO SWAP1 DUP2 PUSH2 0x291E JUMPI JUMPDEST POP PUSH2 0x2909 JUMPI JUMPDEST PUSH2 0x2904 SWAP1 PUSH2 0x4B16 JUMP JUMPDEST PUSH2 0x2749 JUMP JUMPDEST SWAP3 PUSH2 0x2916 PUSH2 0x2904 SWAP2 PUSH2 0x4B16 JUMP JUMPDEST SWAP4 SWAP1 POP PUSH2 0x28FB JUMP JUMPDEST PUSH1 0x2 ADD SLOAD PUSH1 0x1 PUSH1 0x1 PUSH1 0xA0 SHL SUB DUP5 DUP2 AND SWAP2 AND EQ SWAP1 POP DUP7 PUSH2 0x28F5 JUMP JUMPDEST CALLVALUE PUSH2 0x23D JUMPI PUSH1 0x0 CALLDATASIZE PUSH1 0x3 NOT ADD SLT PUSH2 0x23D JUMPI PUSH1 0x20 PUSH1 0x6 SLOAD PUSH1 0x40 MLOAD SWAP1 DUP2 MSTORE RETURN JUMPDEST CALLVALUE PUSH2 0x23D JUMPI PUSH1 0x40 CALLDATASIZE PUSH1 0x3 NOT ADD SLT PUSH2 0x23D JUMPI PUSH1 0x4 CALLDATALOAD PUSH2 0x2972 PUSH2 0x46F2 JUMP JUMPDEST POP CALLER PUSH1 0x0 MSTORE PUSH1 0x2 PUSH1 0x20 MSTORE PUSH1 0xFF PUSH1 0x40 PUSH1 0x0 KECCAK256 SLOAD AND PUSH1 0x6 DUP2 LT ISZERO PUSH2 0x3A3 JUMPI PUSH1 0x3 PUSH2 0x299A SWAP2 EQ PUSH2 0x4B88 JUMP JUMPDEST DUP1 PUSH1 0x0 MSTORE PUSH1 0xE PUSH1 0x20 MSTORE PUSH1 0x5 PUSH1 0x40 PUSH1 0x0 KECCAK256 PUSH2 0x29B6 DUP2 SLOAD ISZERO ISZERO PUSH2 0x5212 JUMP JUMPDEST PUSH1 0x2 DUP2 ADD SLOAD PUSH2 0x29CF SWAP1 PUSH1 0x1 PUSH1 0x1 PUSH1 0xA0 SHL SUB AND CALLER EQ PUSH2 0x4DAC JUMP JUMPDEST ADD PUSH1 0x1 PUSH1 0xFF NOT DUP3 SLOAD AND OR SWAP1 SSTORE PUSH32 0x8B497A05D0CA742340C6EA9777F95403B7C38B7DB415E50D58DA7B92D0495214 PUSH1 0x40 DUP1 MLOAD PUSH1 0x1 DUP2 MSTORE TIMESTAMP PUSH1 0x20 DUP3 ADD MSTORE LOG2 STOP JUMPDEST CALLVALUE PUSH2 0x23D JUMPI PUSH1 0x0 CALLDATASIZE PUSH1 0x3 NOT ADD SLT PUSH2 0x23D JUMPI PUSH1 0x0 SLOAD PUSH1 0x40 MLOAD PUSH1 0x1 PUSH1 0x1 PUSH1 0xA0 SHL SUB SWAP1 SWAP2 AND DUP2 MSTORE PUSH1 0x20 SWAP1 RETURN JUMPDEST PUSH2 0x2A3F CALLDATASIZE PUSH2 0x49E6 JUMP JUMPDEST SWAP1 PUSH2 0x2A48 PUSH2 0x5789 JUMP JUMPDEST DUP1 PUSH1 0x0 MSTORE PUSH1 0x20 PUSH1 0xE DUP2 MSTORE PUSH1 0x40 PUSH1 0x0 KECCAK256 SWAP1 DUP2 SLOAD ISZERO ISZERO DUP1 PUSH2 0x2C84 JUMPI JUMPDEST ISZERO PUSH2 0x2C40 JUMPI DUP4 ISZERO ISZERO DUP1 PUSH2 0x2C32 JUMPI JUMPDEST PUSH2 0x2A79 SWAP1 PUSH2 0x5167 JUMP JUMPDEST PUSH1 0x4 DUP3 ADD SWAP4 PUSH2 0x2A8C PUSH2 0x1F13 DUP7 SLOAD DUP4 PUSH2 0x51B3 JUMP JUMPDEST PUSH2 0x2A97 PUSH1 0xA SLOAD PUSH2 0x4B16 JUMP JUMPDEST SWAP3 DUP4 PUSH1 0xA SSTORE DUP4 PUSH1 0x0 MSTORE PUSH1 0x10 DUP4 MSTORE PUSH1 0x40 PUSH1 0x0 KECCAK256 SWAP4 DUP5 SSTORE DUP5 PUSH1 0x1 DUP6 ADD SSTORE DUP2 PUSH1 0x4 DUP6 ADD SSTORE DUP6 SLOAD PUSH1 0x3 DUP6 ADD SSTORE PUSH1 0x2 DUP2 ADD SWAP4 PUSH1 0x1 DUP1 PUSH1 0xA0 SHL SUB SWAP2 DUP3 DUP7 SLOAD AND PUSH1 0x5 DUP4 ADD PUSH1 0x1 PUSH1 0x1 PUSH1 0x60 SHL SUB PUSH1 0xA0 SHL SWAP2 DUP3 DUP3 SLOAD AND OR SWAP1 SSTORE PUSH1 0x6 DUP4 ADD SWAP1 DUP2 SLOAD SWAP1 CALLER SWAP1 DUP3 AND OR DUP3 SSTORE DUP5 DUP9 SLOAD AND PUSH1 0x0 MSTORE PUSH1 0x2 DUP8 MSTORE PUSH1 0x40 PUSH1 0x0 KECCAK256 SLOAD PUSH1 0x6 PUSH1 0xFF DUP3 AND LT ISZERO PUSH2 0x3A3 JUMPI PUSH1 0xFF PUSH1 0xA0 SHL SWAP1 PUSH1 0xA0 SHL AND DUP1 PUSH1 0xFF PUSH1 0xA0 SHL NOT CALLER AND PUSH11 0xFFFFFFFFFFFFFFFFFFFFFF PUSH1 0xA8 SHL DUP5 AND OR OR DUP4 SSTORE CALLER PUSH1 0x0 MSTORE PUSH1 0x2 DUP9 MSTORE PUSH1 0x40 PUSH1 0x0 KECCAK256 SLOAD PUSH1 0x6 PUSH1 0xFF DUP3 AND LT ISZERO PUSH2 0x3A3 JUMPI PUSH1 0xFF PUSH1 0xA8 SHL SWAP1 PUSH1 0xA8 SHL AND SWAP2 PUSH2 0xFFFF PUSH1 0xA0 SHL NOT CALLER AND SWAP1 PUSH10 0xFFFFFFFFFFFFFFFFFFFF PUSH1 0xB0 SHL AND OR OR OR SWAP1 SSTORE TIMESTAMP PUSH1 0x7 DUP4 ADD SSTORE PUSH1 0x0 DUP1 DUP1 DUP1 CALLVALUE DUP8 DUP12 SLOAD AND GAS CALL PUSH2 0x2B98 PUSH2 0x4D6D JUMP JUMPDEST POP ISZERO PUSH2 0x2C10 JUMPI JUMPDEST PUSH1 0x3 DUP2 ADD PUSH2 0x2BAE DUP6 DUP3 SLOAD PUSH2 0x4D60 JUMP JUMPDEST DUP1 SWAP2 SSTORE ISZERO PUSH2 0x2BFF JUMPI JUMPDEST POP SLOAD SWAP4 SLOAD AND SWAP5 SLOAD SWAP2 PUSH1 0x40 MLOAD SWAP6 DUP7 MSTORE DUP6 ADD MSTORE PUSH1 0x40 DUP5 ADD MSTORE TIMESTAMP PUSH1 0x60 DUP5 ADD MSTORE PUSH32 0x29783E630FDD45B25CED917BC7E004251D86B554FDF4458F4B6D68DE19CE17DF PUSH1 0x80 CALLER SWAP5 LOG4 PUSH1 0x1 DUP1 SSTORE STOP JUMPDEST PUSH1 0x5 ADD DUP1 SLOAD PUSH1 0xFF NOT AND SWAP1 SSTORE DUP8 PUSH2 0x2BB7 JUMP JUMPDEST DUP3 DUP7 SLOAD AND PUSH1 0x0 MSTORE PUSH1 0x11 DUP6 MSTORE PUSH1 0x40 PUSH1 0x0 KECCAK256 PUSH2 0x2C2B CALLVALUE DUP3 SLOAD PUSH2 0x4C9E JUMP JUMPDEST SWAP1 SSTORE PUSH2 0x2B9F JUMP JUMPDEST POP PUSH1 0x3 DUP3 ADD SLOAD DUP5 GT ISZERO PUSH2 0x2A70 JUMP JUMPDEST PUSH1 0x64 SWAP1 PUSH1 0x40 MLOAD SWAP1 PUSH3 0x461BCD PUSH1 0xE5 SHL DUP3 MSTORE PUSH1 0x4 DUP3 ADD MSTORE PUSH1 0x1F PUSH1 0x24 DUP3 ADD MSTORE PUSH32 0x537570706C79436861696E3A20756E6974206E6F7420617661696C61626C6500 PUSH1 0x44 DUP3 ADD MSTORE REVERT JUMPDEST POP PUSH1 0xFF PUSH1 0x5 DUP4 ADD SLOAD AND PUSH2 0x2A62 JUMP JUMPDEST CALLVALUE PUSH2 0x23D JUMPI PUSH1 0x20 CALLDATASIZE PUSH1 0x3 NOT ADD SLT PUSH2 0x23D JUMPI PUSH1 0x4 CALLDATALOAD PUSH1 0x0 MSTORE PUSH1 0xD PUSH1 0x20 MSTORE PUSH1 0x40 PUSH1 0x0 KECCAK256 DUP1 SLOAD SWAP1 PUSH1 0x1 DUP2 ADD SLOAD SWAP1 PUSH2 0x2D48 PUSH1 0x1 DUP1 PUSH1 0xA0 SHL SUB SWAP2 DUP3 PUSH1 0x2 DUP3 ADD SLOAD AND SWAP5 PUSH1 0xFF PUSH1 0x3 DUP4 ADD SLOAD SWAP5 PUSH1 0x4 DUP5 ADD SLOAD SWAP1 PUSH1 0x5 DUP6 ADD SLOAD SWAP2 PUSH1 0x7 PUSH2 0x2CF1 PUSH1 0x6 DUP9 ADD PUSH2 0x460D JUMP JUMPDEST SWAP7 ADD SLOAD SWAP8 PUSH1 0x40 MLOAD SWAP11 DUP12 SWAP11 PUSH2 0x140 SWAP8 DUP13 MSTORE PUSH1 0x20 DUP13 ADD MSTORE PUSH1 0x40 DUP12 ADD MSTORE PUSH1 0x60 DUP11 ADD MSTORE PUSH1 0x80 DUP10 ADD MSTORE PUSH2 0x2D24 PUSH1 0xA0 DUP10 ADD DUP5 DUP5 AND PUSH2 0x473F JUMP JUMPDEST DUP2 PUSH1 0x8 SHR AND PUSH1 0xC0 DUP9 ADD MSTORE PUSH1 0xA8 SHR AND ISZERO ISZERO PUSH1 0xE0 DUP7 ADD MSTORE DUP1 PUSH2 0x100 DUP7 ADD MSTORE DUP5 ADD SWAP1 PUSH2 0x46B2 JUMP JUMPDEST SWAP1 PUSH2 0x120 DUP4 ADD MSTORE SUB SWAP1 RETURN JUMPDEST CALLVALUE PUSH2 0x23D JUMPI PUSH1 0x20 CALLDATASIZE PUSH1 0x3 NOT ADD SLT PUSH2 0x23D JUMPI PUSH2 0x2D6C PUSH2 0x446C JUMP JUMPDEST PUSH2 0x2D74 PUSH2 0x57DF JUMP JUMPDEST PUSH1 0x1 PUSH1 0x1 PUSH1 0xA0 SHL SUB AND PUSH1 0x0 DUP2 DUP2 MSTORE PUSH1 0x2 PUSH1 0x20 MSTORE PUSH1 0x40 SWAP1 KECCAK256 PUSH1 0x4 ADD SLOAD PUSH2 0x2D9B SWAP1 PUSH1 0xFF AND PUSH2 0x5056 JUMP JUMPDEST DUP1 PUSH1 0x0 MSTORE PUSH1 0x2 PUSH1 0x20 MSTORE PUSH1 0xFF PUSH1 0x40 PUSH1 0x0 KECCAK256 SLOAD AND SWAP1 PUSH1 0x6 DUP3 LT ISZERO PUSH2 0x3A3 JUMPI DUP1 PUSH1 0x0 MSTORE PUSH1 0x2 PUSH1 0x20 MSTORE PUSH1 0x40 PUSH1 0x0 KECCAK256 PUSH2 0xFFFF NOT DUP2 SLOAD AND SWAP1 SSTORE PUSH32 0x656386F7FBF5FBD79EBB5D508870678C1D0BA774D3AF78F5971F7D32D0DA18BD PUSH1 0x20 PUSH1 0x40 MLOAD TIMESTAMP DUP2 MSTORE LOG3 STOP JUMPDEST CALLVALUE PUSH2 0x23D JUMPI PUSH1 0x20 CALLDATASIZE PUSH1 0x3 NOT ADD SLT PUSH2 0x23D JUMPI PUSH1 0x4 CALLDATALOAD PUSH1 0x0 MSTORE PUSH1 0x10 PUSH1 0x20 MSTORE PUSH2 0x140 PUSH1 0x40 PUSH1 0x0 KECCAK256 DUP1 SLOAD SWAP1 PUSH2 0x2E9F PUSH1 0x1 DUP3 ADD SLOAD SWAP2 PUSH1 0x2 DUP2 ADD SLOAD PUSH1 0x3 DUP3 ADD SLOAD SWAP1 PUSH1 0x4 DUP4 ADD SLOAD PUSH1 0x1 DUP1 PUSH1 0xA0 SHL SUB SWAP3 DUP4 PUSH1 0x5 DUP7 ADD SLOAD AND SWAP3 PUSH1 0x7 PUSH1 0x6 DUP8 ADD SLOAD SWAP7 ADD SLOAD SWAP8 PUSH1 0x40 MLOAD SWAP10 DUP11 MSTORE PUSH1 0x20 DUP11 ADD MSTORE PUSH1 0x40 DUP10 ADD MSTORE PUSH1 0x60 DUP9 ADD MSTORE PUSH1 0x80 DUP8 ADD MSTORE PUSH1 0xA0 DUP7 ADD MSTORE DUP2 AND PUSH1 0xC0 DUP6 ADD MSTORE PUSH2 0x2E8E PUSH1 0xE0 DUP6 ADD PUSH1 0xFF DUP4 PUSH1 0xA0 SHR AND PUSH2 0x4482 JUMP JUMPDEST PUSH1 0xFF PUSH2 0x100 DUP6 ADD SWAP2 PUSH1 0xA8 SHR AND PUSH2 0x4482 JUMP JUMPDEST PUSH2 0x120 DUP3 ADD MSTORE RETURN JUMPDEST CALLVALUE PUSH2 0x23D JUMPI PUSH1 0x40 CALLDATASIZE PUSH1 0x3 NOT ADD SLT PUSH2 0x23D JUMPI PUSH2 0x2EC0 PUSH2 0x446C JUMP JUMPDEST PUSH2 0x2EC8 PUSH2 0x46F2 JUMP JUMPDEST PUSH2 0x2ED0 PUSH2 0x57DF JUMP JUMPDEST PUSH1 0x1 PUSH1 0x1 PUSH1 0xA0 SHL SUB DUP3 AND SWAP1 DUP2 ISZERO PUSH2 0x2FA0 JUMPI PUSH1 0xFF SWAP1 DUP3 PUSH1 0x0 MSTORE PUSH1 0x2 PUSH1 0x20 MSTORE PUSH2 0x2F00 DUP3 PUSH1 0x4 PUSH1 0x40 PUSH1 0x0 KECCAK256 ADD SLOAD AND PUSH2 0x5056 JUMP JUMPDEST AND SWAP2 PUSH2 0x2F0F PUSH1 0x5 DUP5 GT ISZERO PUSH2 0x50A2 JUMP JUMPDEST PUSH1 0x6 DUP4 LT ISZERO PUSH2 0x3A3 JUMPI DUP2 PUSH1 0x0 MSTORE PUSH1 0x2 PUSH1 0x20 MSTORE PUSH1 0x40 PUSH1 0x0 KECCAK256 DUP4 PUSH2 0xFFFF NOT DUP3 SLOAD AND OR DUP2 SSTORE PUSH1 0x3 TIMESTAMP SWAP2 ADD SSTORE PUSH1 0x4 PUSH1 0x20 MSTORE PUSH1 0xFF PUSH1 0x40 PUSH1 0x0 KECCAK256 SLOAD AND ISZERO PUSH2 0x2F78 JUMPI JUMPDEST POP PUSH32 0x1EBF9C3FF339A80F8D2AF7A4F2483755C64CA9AE97178045118CA0051A5B5BBB PUSH1 0x20 PUSH1 0x40 MLOAD TIMESTAMP DUP2 MSTORE LOG3 STOP JUMPDEST PUSH2 0x2F81 SWAP1 PUSH2 0x5125 JUMP JUMPDEST DUP1 PUSH1 0x0 MSTORE PUSH1 0x4 PUSH1 0x20 MSTORE PUSH1 0x40 PUSH1 0x0 KECCAK256 PUSH1 0x1 PUSH1 0xFF NOT DUP3 SLOAD AND OR SWAP1 SSTORE DUP3 PUSH2 0x2F4B JUMP JUMPDEST PUSH1 0x40 MLOAD PUSH3 0x461BCD PUSH1 0xE5 SHL DUP2 MSTORE PUSH1 0x20 PUSH1 0x4 DUP3 ADD MSTORE PUSH1 0x19 PUSH1 0x24 DUP3 ADD MSTORE PUSH32 0x537570706C79436861696E3A207A65726F206164647265737300000000000000 PUSH1 0x44 DUP3 ADD MSTORE PUSH1 0x64 SWAP1 REVERT JUMPDEST CALLVALUE PUSH2 0x23D JUMPI PUSH1 0x0 CALLDATASIZE PUSH1 0x3 NOT ADD SLT PUSH2 0x23D JUMPI PUSH2 0x2FFE PUSH2 0x57DF JUMP JUMPDEST PUSH1 0x0 DUP1 SLOAD PUSH1 0x1 PUSH1 0x1 PUSH1 0xA0 SHL SUB NOT DUP2 AND DUP3 SSTORE PUSH1 0x1 PUSH1 0x1 PUSH1 0xA0 SHL SUB AND PUSH32 0x8BE0079C531659141344CD1FD0A4F28419497F9722A3DAAFE3B4186F6B6457E0 DUP3 DUP1 LOG3 STOP JUMPDEST CALLVALUE PUSH2 0x23D JUMPI PUSH1 0x60 CALLDATASIZE PUSH1 0x3 NOT ADD SLT PUSH2 0x23D JUMPI PUSH1 0x4 CALLDATALOAD PUSH2 0x305A PUSH2 0x46F2 JUMP JUMPDEST PUSH1 0x44 CALLDATALOAD PUSH1 0x1 PUSH1 0x1 PUSH1 0xA0 SHL SUB DUP2 DUP2 AND SWAP3 SWAP1 DUP4 DUP4 SUB PUSH2 0x23D JUMPI CALLER PUSH1 0x0 MSTORE PUSH1 0x2 PUSH1 0x20 MSTORE PUSH1 0xFF PUSH1 0x40 PUSH1 0x0 KECCAK256 SLOAD AND PUSH1 0x6 DUP2 LT ISZERO PUSH2 0x3A3 JUMPI PUSH1 0x2 PUSH2 0x3098 SWAP2 EQ PUSH2 0x4B88 JUMP JUMPDEST DUP5 PUSH1 0x0 MSTORE PUSH1 0xD PUSH1 0x20 MSTORE PUSH1 0x40 PUSH1 0x0 KECCAK256 SWAP2 PUSH2 0x30B3 DUP4 SLOAD ISZERO ISZERO PUSH2 0x4FBE JUMP JUMPDEST CALLER DUP3 PUSH1 0x2 DUP6 ADD SLOAD AND SUB PUSH2 0x31F0 JUMPI PUSH1 0xFF AND SWAP2 PUSH2 0x30D1 PUSH1 0x1 DUP5 GT ISZERO PUSH2 0x500A JUMP JUMPDEST PUSH1 0x2 DUP4 LT ISZERO PUSH2 0x3A3 JUMPI PUSH1 0x5 ADD SWAP4 PUSH2 0x30E8 DUP4 DUP7 PUSH2 0x4CAB JUMP JUMPDEST DUP5 SLOAD PUSH1 0xFF DUP2 AND PUSH1 0x2 DUP2 LT ISZERO PUSH2 0x3A3 JUMPI PUSH2 0x31B7 JUMPI POP ISZERO PUSH2 0x3164 JUMPI DUP4 SLOAD PUSH2 0x100 PUSH1 0x1 PUSH1 0xA8 SHL SUB NOT AND PUSH1 0x8 SWAP4 SWAP1 SWAP4 SHL PUSH2 0x100 PUSH1 0x1 PUSH1 0xA8 SHL SUB AND SWAP3 SWAP1 SWAP3 OR DUP4 SSTORE PUSH32 0xA954F6FE988FAC0764A5205A7F69AFB2BB27163CF0D9DED97F3F49358F259E4B SWAP3 PUSH1 0x60 SWAP3 SWAP1 JUMPDEST SLOAD PUSH1 0x8 SHR AND PUSH1 0x40 MLOAD SWAP2 DUP3 MSTORE PUSH1 0x20 DUP3 ADD MSTORE TIMESTAMP PUSH1 0x40 DUP3 ADD MSTORE LOG2 STOP JUMPDEST PUSH1 0x40 MLOAD PUSH3 0x461BCD PUSH1 0xE5 SHL DUP2 MSTORE PUSH1 0x20 PUSH1 0x4 DUP3 ADD MSTORE PUSH1 0x25 PUSH1 0x24 DUP3 ADD MSTORE PUSH32 0x537570706C79436861696E3A2070726976617465206164647265737320726571 PUSH1 0x44 DUP3 ADD MSTORE PUSH5 0x1D5A5C9959 PUSH1 0xDA SHL PUSH1 0x64 DUP3 ADD MSTORE PUSH1 0x84 SWAP1 REVERT JUMPDEST PUSH2 0x100 PUSH1 0x1 PUSH1 0xA8 SHL SUB NOT AND DUP6 SSTORE POP PUSH32 0xA954F6FE988FAC0764A5205A7F69AFB2BB27163CF0D9DED97F3F49358F259E4B SWAP4 PUSH1 0x60 SWAP4 POP PUSH2 0x314B JUMP JUMPDEST PUSH1 0x40 MLOAD PUSH3 0x461BCD PUSH1 0xE5 SHL DUP2 MSTORE PUSH1 0x20 PUSH1 0x4 DUP3 ADD MSTORE PUSH1 0x1B PUSH1 0x24 DUP3 ADD MSTORE PUSH32 0x537570706C79436861696E3A206E6F74207061636B206F776E65720000000000 PUSH1 0x44 DUP3 ADD MSTORE PUSH1 0x64 SWAP1 REVERT JUMPDEST CALLVALUE PUSH2 0x23D JUMPI PUSH1 0x20 CALLDATASIZE PUSH1 0x3 NOT ADD SLT PUSH2 0x23D JUMPI PUSH2 0x324E PUSH2 0x4E23 JUMP JUMPDEST POP PUSH1 0x4 CALLDATALOAD PUSH1 0x0 MSTORE PUSH1 0xB PUSH1 0x20 MSTORE PUSH1 0x40 PUSH1 0x0 KECCAK256 PUSH1 0xFF PUSH1 0xB PUSH1 0x40 MLOAD SWAP3 PUSH2 0x3270 DUP5 PUSH2 0x4598 JUMP JUMPDEST DUP1 SLOAD DUP5 MSTORE PUSH1 0x1 DUP2 ADD SLOAD PUSH1 0x1 PUSH1 0x1 PUSH1 0xA0 SHL SUB AND PUSH1 0x20 DUP6 ADD MSTORE PUSH2 0x3293 PUSH1 0x2 DUP3 ADD PUSH2 0x460D JUMP JUMPDEST PUSH1 0x40 DUP6 ADD MSTORE PUSH2 0x32A4 PUSH1 0x3 DUP3 ADD PUSH2 0x460D JUMP JUMPDEST PUSH1 0x60 DUP6 ADD MSTORE PUSH1 0x4 DUP2 ADD SLOAD PUSH1 0x80 DUP6 ADD MSTORE PUSH1 0x5 DUP2 ADD SLOAD PUSH1 0xA0 DUP6 ADD MSTORE PUSH1 0x6 DUP2 ADD SLOAD PUSH1 0xC0 DUP6 ADD MSTORE PUSH2 0x32D3 PUSH1 0x7 DUP3 ADD PUSH2 0x460D JUMP JUMPDEST PUSH1 0xE0 DUP6 ADD MSTORE PUSH2 0x32EC DUP4 PUSH1 0x8 DUP4 ADD SLOAD AND PUSH2 0x100 DUP7 ADD PUSH2 0x4E80 JUMP JUMPDEST PUSH2 0x32F8 PUSH1 0x9 DUP3 ADD PUSH2 0x460D JUMP JUMPDEST PUSH2 0x120 DUP6 ADD MSTORE PUSH1 0xA DUP2 ADD SLOAD PUSH2 0x140 DUP6 ADD MSTORE ADD SLOAD AND ISZERO ISZERO PUSH2 0x160 DUP3 ADD MSTORE DUP1 MLOAD ISZERO PUSH2 0x37AB JUMPI PUSH1 0x6 SLOAD SWAP1 PUSH1 0x0 PUSH1 0x1 JUMPDEST DUP4 DUP2 GT ISZERO PUSH2 0x3759 JUMPI POP PUSH2 0x3336 SWAP1 PUSH2 0x4ED1 JUMP JUMPDEST SWAP2 PUSH1 0x0 PUSH1 0x1 JUMPDEST DUP3 DUP2 GT ISZERO PUSH2 0x3688 JUMPI POP POP POP PUSH1 0x7 SLOAD PUSH1 0x0 PUSH1 0x1 JUMPDEST DUP3 DUP2 GT ISZERO PUSH2 0x351F JUMPI POP PUSH2 0x3361 SWAP1 PUSH2 0x4F6E JUMP JUMPDEST SWAP1 PUSH1 0x0 PUSH1 0x1 JUMPDEST DUP3 DUP2 GT ISZERO PUSH2 0x33AB JUMPI PUSH2 0x338F DUP6 PUSH2 0x291 DUP7 PUSH2 0x339D DUP11 PUSH1 0x40 MLOAD SWAP6 DUP7 SWAP6 PUSH1 0x60 DUP8 MSTORE PUSH1 0x60 DUP8 ADD SWAP1 PUSH2 0x47AA JUMP JUMPDEST SWAP1 DUP6 DUP3 SUB PUSH1 0x20 DUP8 ADD MSTORE PUSH2 0x48BE JUMP JUMPDEST SWAP1 DUP4 DUP3 SUB PUSH1 0x40 DUP6 ADD MSTORE PUSH2 0x4989 JUMP JUMPDEST DUP1 PUSH1 0x0 MSTORE PUSH1 0xD PUSH1 0x20 MSTORE PUSH1 0x40 PUSH1 0x0 KECCAK256 PUSH1 0x7 PUSH1 0x40 MLOAD SWAP2 PUSH2 0x33C8 DUP4 PUSH2 0x4561 JUMP JUMPDEST DUP1 SLOAD DUP4 MSTORE PUSH1 0x1 DUP2 ADD SLOAD PUSH1 0x20 DUP5 ADD MSTORE PUSH1 0x2 DUP2 ADD SLOAD PUSH1 0x1 PUSH1 0x1 PUSH1 0xA0 SHL SUB AND PUSH1 0x40 DUP5 ADD MSTORE PUSH1 0x3 DUP2 ADD SLOAD PUSH1 0x60 DUP5 ADD MSTORE PUSH1 0x4 DUP2 ADD SLOAD PUSH1 0x80 DUP5 ADD MSTORE PUSH1 0x5 DUP2 ADD SLOAD PUSH1 0xFF SWAP1 PUSH2 0x3414 DUP2 DUP4 AND PUSH1 0xA0 DUP8 ADD PUSH2 0x4E80 JUMP JUMPDEST PUSH1 0x8 DUP2 SWAP1 SHR PUSH1 0x1 PUSH1 0x1 PUSH1 0xA0 SHL SUB AND PUSH1 0xC0 DUP7 ADD MSTORE PUSH1 0xA8 SHR AND ISZERO ISZERO PUSH1 0xE0 DUP5 ADD MSTORE PUSH2 0x343E PUSH1 0x6 DUP3 ADD PUSH2 0x460D JUMP JUMPDEST PUSH2 0x100 DUP5 ADD MSTORE ADD SLOAD PUSH2 0x120 DUP3 ADD MSTORE DUP1 MLOAD PUSH2 0x3462 JUMPI JUMPDEST POP PUSH2 0x345D SWAP1 PUSH2 0x4B16 JUMP JUMPDEST PUSH2 0x3367 JUMP JUMPDEST PUSH1 0x20 DUP2 ADD MLOAD PUSH1 0x0 MSTORE PUSH1 0xC PUSH1 0x20 MSTORE PUSH1 0x40 PUSH1 0x0 KECCAK256 PUSH1 0xFF PUSH1 0x8 PUSH1 0x40 MLOAD SWAP3 PUSH2 0x3485 DUP5 PUSH2 0x45B4 JUMP JUMPDEST DUP1 SLOAD DUP5 MSTORE PUSH1 0x1 DUP2 ADD SLOAD PUSH1 0x20 DUP6 ADD MSTORE PUSH1 0x2 DUP2 ADD SLOAD PUSH1 0x1 PUSH1 0x1 PUSH1 0xA0 SHL SUB AND PUSH1 0x40 DUP6 ADD MSTORE PUSH1 0x3 DUP2 ADD SLOAD PUSH1 0x60 DUP6 ADD MSTORE PUSH1 0x4 DUP2 ADD SLOAD PUSH1 0x80 DUP6 ADD MSTORE PUSH1 0x5 DUP2 ADD SLOAD PUSH1 0xA0 DUP6 ADD MSTORE PUSH1 0x6 DUP2 ADD SLOAD PUSH2 0x34D8 SWAP1 DUP5 AND PUSH1 0xC0 DUP7 ADD PUSH2 0x4E80 JUMP JUMPDEST PUSH1 0x7 DUP2 ADD SLOAD PUSH1 0xE0 DUP6 ADD MSTORE ADD SLOAD AND ISZERO ISZERO PUSH2 0x100 DUP3 ADD MSTORE PUSH1 0x20 PUSH1 0x4 CALLDATALOAD SWAP2 ADD MLOAD SUB PUSH2 0x3453 JUMPI DUP3 PUSH2 0x3518 SWAP2 PUSH2 0x350D PUSH2 0x345D SWAP5 SWAP6 DUP9 PUSH2 0x4B52 JUMP JUMPDEST MSTORE PUSH2 0x37A DUP2 DUP8 PUSH2 0x4B52 JUMP JUMPDEST SWAP2 SWAP1 PUSH2 0x3453 JUMP JUMPDEST DUP1 PUSH1 0x0 MSTORE PUSH1 0xD PUSH1 0x20 MSTORE PUSH1 0x40 PUSH1 0x0 KECCAK256 PUSH1 0x7 PUSH1 0x40 MLOAD SWAP2 PUSH2 0x353C DUP4 PUSH2 0x4561 JUMP JUMPDEST DUP1 SLOAD DUP4 MSTORE PUSH1 0x1 DUP2 ADD SLOAD PUSH1 0x20 DUP5 ADD MSTORE PUSH1 0x2 DUP2 ADD SLOAD PUSH1 0x1 PUSH1 0x1 PUSH1 0xA0 SHL SUB AND PUSH1 0x40 DUP5 ADD MSTORE PUSH1 0x3 DUP2 ADD SLOAD PUSH1 0x60 DUP5 ADD MSTORE PUSH1 0x4 DUP2 ADD SLOAD PUSH1 0x80 DUP5 ADD MSTORE PUSH1 0x5 DUP2 ADD SLOAD PUSH1 0xFF SWAP1 PUSH2 0x3588 DUP2 DUP4 AND PUSH1 0xA0 DUP8 ADD PUSH2 0x4E80 JUMP JUMPDEST PUSH1 0x8 DUP2 SWAP1 SHR PUSH1 0x1 PUSH1 0x1 PUSH1 0xA0 SHL SUB AND PUSH1 0xC0 DUP7 ADD MSTORE PUSH1 0xA8 SHR AND ISZERO ISZERO PUSH1 0xE0 DUP5 ADD MSTORE PUSH2 0x35B2 PUSH1 0x6 DUP3 ADD PUSH2 0x460D JUMP JUMPDEST PUSH2 0x100 DUP5 ADD MSTORE ADD SLOAD PUSH2 0x120 DUP3 ADD MSTORE DUP1 MLOAD PUSH2 0x35D6 JUMPI JUMPDEST POP PUSH2 0x35D1 SWAP1 PUSH2 0x4B16 JUMP JUMPDEST PUSH2 0x334F JUMP JUMPDEST PUSH1 0x20 ADD MLOAD PUSH1 0x0 MSTORE PUSH1 0xC PUSH1 0x20 MSTORE PUSH1 0x40 PUSH1 0x0 KECCAK256 PUSH1 0xFF PUSH1 0x8 PUSH1 0x40 MLOAD SWAP3 PUSH2 0x35F8 DUP5 PUSH2 0x45B4 JUMP JUMPDEST DUP1 SLOAD DUP5 MSTORE PUSH1 0x1 DUP2 ADD SLOAD PUSH1 0x20 DUP6 ADD MSTORE PUSH1 0x2 DUP2 ADD SLOAD PUSH1 0x1 PUSH1 0x1 PUSH1 0xA0 SHL SUB AND PUSH1 0x40 DUP6 ADD MSTORE PUSH1 0x3 DUP2 ADD SLOAD PUSH1 0x60 DUP6 ADD MSTORE PUSH1 0x4 DUP2 ADD SLOAD PUSH1 0x80 DUP6 ADD MSTORE PUSH1 0x5 DUP2 ADD SLOAD PUSH1 0xA0 DUP6 ADD MSTORE PUSH1 0x6 DUP2 ADD SLOAD PUSH2 0x364B SWAP1 DUP5 AND PUSH1 0xC0 DUP7 ADD PUSH2 0x4E80 JUMP JUMPDEST PUSH1 0x7 DUP2 ADD SLOAD PUSH1 0xE0 DUP6 ADD MSTORE ADD SLOAD AND ISZERO ISZERO PUSH2 0x100 DUP3 ADD MSTORE PUSH1 0x20 ADD MLOAD PUSH1 0x4 CALLDATALOAD EQ PUSH2 0x3673 JUMPI JUMPDEST DUP6 PUSH2 0x35C7 JUMP JUMPDEST SWAP1 PUSH2 0x3680 PUSH2 0x35D1 SWAP2 PUSH2 0x4B16 JUMP JUMPDEST SWAP2 SWAP1 POP PUSH2 0x366D JUMP JUMPDEST DUP1 PUSH1 0x0 MSTORE PUSH1 0xC PUSH1 0x20 MSTORE PUSH1 0x40 PUSH1 0x0 KECCAK256 DUP1 SLOAD SWAP1 DUP2 ISZERO ISZERO DUP1 PUSH2 0x374A JUMPI JUMPDEST PUSH2 0x36B7 JUMPI JUMPDEST POP POP PUSH2 0x36B2 SWAP1 PUSH2 0x4B16 JUMP JUMPDEST PUSH2 0x333C JUMP JUMPDEST SWAP3 PUSH2 0x3742 SWAP2 PUSH1 0xFF PUSH1 0x8 PUSH2 0x36B2 SWAP6 SWAP7 PUSH1 0x40 MLOAD SWAP4 PUSH2 0x36D2 DUP6 PUSH2 0x45B4 JUMP JUMPDEST DUP5 MSTORE PUSH1 0x1 DUP2 ADD SLOAD PUSH1 0x20 DUP6 ADD MSTORE PUSH1 0x2 DUP2 ADD SLOAD PUSH1 0x1 PUSH1 0x1 PUSH1 0xA0 SHL SUB AND PUSH1 0x40 DUP6 ADD MSTORE PUSH1 0x3 DUP2 ADD SLOAD PUSH1 0x60 DUP6 ADD MSTORE PUSH1 0x4 DUP2 ADD SLOAD PUSH1 0x80 DUP6 ADD MSTORE PUSH1 0x5 DUP2 ADD SLOAD PUSH1 0xA0 DUP6 ADD MSTORE PUSH1 0x6 DUP2 ADD SLOAD PUSH2 0x3723 SWAP1 DUP5 AND PUSH1 0xC0 DUP7 ADD PUSH2 0x4E80 JUMP JUMPDEST PUSH1 0x7 DUP2 ADD SLOAD PUSH1 0xE0 DUP6 ADD MSTORE ADD SLOAD AND ISZERO ISZERO PUSH2 0x100 DUP3 ADD MSTORE PUSH2 0x289B DUP3 DUP10 PUSH2 0x4B52 JUMP JUMPDEST SWAP2 SWAP1 DUP7 PUSH2 0x36A7 JUMP JUMPDEST POP PUSH1 0x4 CALLDATALOAD PUSH1 0x1 DUP3 ADD SLOAD EQ PUSH2 0x36A2 JUMP JUMPDEST DUP1 PUSH1 0x0 MSTORE PUSH1 0xC PUSH1 0x20 MSTORE PUSH1 0x40 PUSH1 0x0 KECCAK256 DUP1 SLOAD ISZERO ISZERO SWAP1 DUP2 PUSH2 0x379B JUMPI JUMPDEST POP PUSH2 0x3786 JUMPI JUMPDEST PUSH2 0x3781 SWAP1 PUSH2 0x4B16 JUMP JUMPDEST PUSH2 0x3324 JUMP JUMPDEST SWAP1 PUSH2 0x3793 PUSH2 0x3781 SWAP2 PUSH2 0x4B16 JUMP JUMPDEST SWAP2 SWAP1 POP PUSH2 0x3778 JUMP JUMPDEST PUSH1 0x1 ADD SLOAD PUSH1 0x4 CALLDATALOAD EQ SWAP1 POP DUP6 PUSH2 0x3772 JUMP JUMPDEST PUSH1 0x40 MLOAD PUSH3 0x461BCD PUSH1 0xE5 SHL DUP2 MSTORE PUSH1 0x20 PUSH1 0x4 DUP3 ADD MSTORE PUSH1 0x23 PUSH1 0x24 DUP3 ADD MSTORE PUSH32 0x537570706C79436861696E3A206661726D6572206261746368206E6F7420666F PUSH1 0x44 DUP3 ADD MSTORE PUSH3 0x1D5B99 PUSH1 0xEA SHL PUSH1 0x64 DUP3 ADD MSTORE PUSH1 0x84 SWAP1 REVERT JUMPDEST CALLVALUE PUSH2 0x23D JUMPI PUSH1 0x20 CALLDATASIZE PUSH1 0x3 NOT ADD SLT PUSH2 0x23D JUMPI PUSH2 0x3815 PUSH2 0x446C JUMP JUMPDEST PUSH2 0x381D PUSH2 0x4DF1 JUMP JUMPDEST POP PUSH1 0x1 DUP1 PUSH1 0xA0 SHL SUB AND PUSH1 0x0 MSTORE PUSH1 0x2 PUSH1 0x20 MSTORE PUSH2 0x291 PUSH1 0x40 PUSH1 0x0 KECCAK256 PUSH1 0xFF PUSH1 0x4 PUSH1 0x40 MLOAD SWAP3 PUSH2 0x3847 DUP5 PUSH2 0x457D JUMP JUMPDEST DUP3 DUP2 SLOAD PUSH2 0x3856 DUP3 DUP3 AND DUP8 PUSH2 0x4B7C JUMP JUMPDEST PUSH1 0x8 SHR AND ISZERO ISZERO PUSH1 0x20 DUP6 ADD MSTORE PUSH2 0x386D PUSH1 0x1 DUP3 ADD PUSH2 0x460D JUMP JUMPDEST PUSH1 0x40 DUP6 ADD MSTORE PUSH2 0x387E PUSH1 0x2 DUP3 ADD PUSH2 0x460D JUMP JUMPDEST PUSH1 0x60 DUP6 ADD MSTORE PUSH1 0x3 DUP2 ADD SLOAD PUSH1 0x80 DUP6 ADD MSTORE ADD SLOAD AND ISZERO ISZERO PUSH1 0xA0 DUP3 ADD MSTORE PUSH1 0x40 MLOAD SWAP2 DUP3 SWAP2 PUSH1 0x20 DUP4 MSTORE PUSH1 0x20 DUP4 ADD SWAP1 PUSH2 0x474C JUMP JUMPDEST CALLVALUE PUSH2 0x23D JUMPI PUSH1 0x0 CALLDATASIZE PUSH1 0x3 NOT ADD SLT PUSH2 0x23D JUMPI PUSH1 0x20 PUSH1 0xA SLOAD PUSH1 0x40 MLOAD SWAP1 DUP2 MSTORE RETURN JUMPDEST CALLVALUE PUSH2 0x23D JUMPI PUSH1 0x20 CALLDATASIZE PUSH1 0x3 NOT ADD SLT PUSH2 0x23D JUMPI PUSH1 0x4 CALLDATALOAD PUSH1 0x0 MSTORE PUSH1 0xB PUSH1 0x20 MSTORE PUSH1 0x40 PUSH1 0x0 KECCAK256 DUP1 SLOAD SWAP1 PUSH1 0x1 PUSH1 0xA0 SHL PUSH1 0x1 SWAP1 SUB PUSH1 0x1 DUP3 ADD SLOAD AND SWAP1 PUSH1 0x2 DUP2 ADD PUSH2 0x390A SWAP1 PUSH2 0x460D JUMP JUMPDEST PUSH2 0x3916 PUSH1 0x3 DUP4 ADD PUSH2 0x460D JUMP JUMPDEST PUSH1 0x4 DUP4 ADD SLOAD PUSH1 0x5 DUP5 ADD SLOAD PUSH1 0x6 DUP6 ADD SLOAD SWAP1 SWAP2 PUSH2 0x3933 PUSH1 0x7 DUP8 ADD PUSH2 0x460D JUMP JUMPDEST SWAP2 PUSH1 0x8 DUP8 ADD SLOAD PUSH1 0xFF AND SWAP4 PUSH1 0x9 DUP9 ADD PUSH2 0x394A SWAP1 PUSH2 0x460D JUMP JUMPDEST SWAP6 PUSH1 0xA DUP10 ADD SLOAD SWAP9 PUSH1 0xB ADD SLOAD PUSH1 0xFF AND SWAP8 PUSH1 0x40 MLOAD SWAP12 DUP13 SWAP12 PUSH2 0x180 SWAP2 DUP14 MSTORE PUSH1 0x20 DUP14 ADD MSTORE DUP1 PUSH1 0x40 DUP14 ADD MSTORE DUP12 ADD PUSH2 0x397B SWAP2 PUSH2 0x46B2 JUMP JUMPDEST DUP11 DUP2 SUB PUSH1 0x60 DUP13 ADD MSTORE PUSH2 0x398C SWAP2 PUSH2 0x46B2 JUMP JUMPDEST SWAP3 PUSH1 0x80 DUP11 ADD MSTORE PUSH1 0xA0 DUP10 ADD MSTORE PUSH1 0xC0 DUP9 ADD MSTORE DUP7 DUP2 SUB PUSH1 0xE0 DUP9 ADD MSTORE PUSH2 0x39AD SWAP2 PUSH2 0x46B2 JUMP JUMPDEST SWAP1 PUSH2 0x100 DUP7 ADD PUSH2 0x39BC SWAP2 PUSH2 0x473F JUMP JUMPDEST DUP5 DUP2 SUB PUSH2 0x120 DUP7 ADD MSTORE PUSH2 0x39CE SWAP2 PUSH2 0x46B2 JUMP JUMPDEST SWAP2 PUSH2 0x140 DUP5 ADD MSTORE ISZERO ISZERO PUSH2 0x160 DUP4 ADD MSTORE SUB SWAP1 RETURN JUMPDEST CALLVALUE PUSH2 0x23D JUMPI PUSH1 0xC0 CALLDATASIZE PUSH1 0x3 NOT ADD SLT PUSH2 0x23D JUMPI PUSH1 0x4 CALLDATALOAD PUSH1 0x24 CALLDATALOAD SWAP1 PUSH1 0x44 CALLDATALOAD SWAP2 PUSH1 0x64 CALLDATALOAD SWAP3 PUSH1 0xFF DUP5 AND DUP1 SWAP5 SUB PUSH2 0x23D JUMPI PUSH1 0x1 PUSH1 0x1 PUSH1 0x40 SHL SUB PUSH1 0x84 CALLDATALOAD DUP2 DUP2 GT PUSH2 0x23D JUMPI PUSH2 0x3A2C SWAP1 CALLDATASIZE SWAP1 PUSH1 0x4 ADD PUSH2 0x4712 JUMP JUMPDEST SWAP1 SWAP4 PUSH1 0xA4 CALLDATALOAD SWAP5 DUP6 ISZERO ISZERO DUP7 SUB PUSH2 0x23D JUMPI DUP7 PUSH1 0x0 MSTORE PUSH1 0x20 SWAP8 PUSH1 0xB DUP10 MSTORE PUSH1 0x40 PUSH1 0x0 KECCAK256 SWAP6 DUP7 SLOAD ISZERO PUSH2 0x3BD6 JUMPI PUSH1 0x1 SWAP4 PUSH2 0x3A6C PUSH1 0x1 DUP1 PUSH1 0xA0 SHL SUB DUP7 DUP11 ADD SLOAD AND CALLER EQ PUSH2 0x4DAC JUMP JUMPDEST DUP1 PUSH2 0x3BCB JUMPI JUMPDEST POP DUP1 PUSH2 0x3BC0 JUMPI JUMPDEST POP DUP3 DUP2 GT ISZERO PUSH2 0x3BA4 JUMPI JUMPDEST POP DUP3 PUSH2 0x3AD2 JUMPI JUMPDEST DUP8 DUP8 PUSH2 0x3AA5 DUP9 PUSH1 0xB DUP10 ADD SWAP1 PUSH1 0xFF DUP1 NOT DUP4 SLOAD AND SWAP2 ISZERO ISZERO AND OR SWAP1 SSTORE JUMP JUMPDEST PUSH32 0x94175357E14197ED5C707794D9CAD6F16BA39999D0ADF8B6D74BDEB9127917A7 PUSH1 0x40 MLOAD SWAP3 TIMESTAMP DUP5 MSTORE CALLER SWAP4 LOG3 STOP JUMPDEST PUSH1 0x9 DUP6 ADD SWAP4 DUP4 GT PUSH2 0xC6D JUMPI PUSH2 0x3AEB DUP4 PUSH2 0x1B81 DUP7 SLOAD PUSH2 0x4527 JUMP JUMPDEST PUSH1 0x0 SWAP1 PUSH1 0x1F DUP5 GT PUSH1 0x1 EQ PUSH2 0x3B35 JUMPI SWAP3 DUP1 PUSH1 0xB SWAP6 SWAP4 DUP2 SWAP4 PUSH2 0x3AA5 SWAP10 SWAP9 SWAP7 PUSH1 0x0 SWAP5 PUSH2 0x3B2A JUMPI JUMPDEST POP POP SHL SWAP2 PUSH1 0x0 NOT SWAP1 PUSH1 0x3 SHL SHR NOT AND OR SWAP1 SSTORE JUMPDEST SWAP2 SWAP3 DUP7 DUP1 PUSH2 0x3A8A JUMP JUMPDEST ADD CALLDATALOAD SWAP3 POP DUP12 DUP1 PUSH2 0x3B0F JUMP JUMPDEST PUSH1 0x1F SWAP4 SWAP3 SWAP4 NOT DUP4 AND SWAP2 DUP6 PUSH1 0x0 MSTORE DUP10 PUSH1 0x0 KECCAK256 SWAP3 PUSH1 0x0 JUMPDEST DUP12 DUP3 DUP3 LT PUSH2 0x3B90 JUMPI POP POP SWAP2 PUSH2 0x3AA5 SWAP9 SWAP8 SWAP6 SWAP4 SWAP2 DUP6 PUSH1 0xB SWAP9 SWAP7 SWAP5 LT PUSH2 0x3B76 JUMPI JUMPDEST POP POP POP DUP2 SHL ADD SWAP1 SSTORE PUSH2 0x3B21 JUMP JUMPDEST ADD CALLDATALOAD PUSH1 0x0 NOT PUSH1 0x3 DUP5 SWAP1 SHL PUSH1 0xF8 AND SHR NOT AND SWAP1 SSTORE DUP10 DUP1 DUP1 PUSH2 0x3B69 JUMP JUMPDEST DUP5 DUP5 ADD CALLDATALOAD DUP7 SSTORE SWAP5 DUP8 ADD SWAP5 SWAP3 DUP4 ADD SWAP3 ADD PUSH2 0x3B4A JUMP JUMPDEST PUSH1 0x2 DUP2 LT ISZERO PUSH2 0x3A3 JUMPI PUSH2 0x3BBA SWAP1 PUSH1 0x8 DUP8 ADD PUSH2 0x4CAB JUMP JUMPDEST DUP9 PUSH2 0x3A83 JUMP JUMPDEST PUSH1 0x6 DUP8 ADD SSTORE DUP10 PUSH2 0x3A79 JUMP JUMPDEST PUSH1 0x5 DUP9 ADD SSTORE DUP11 PUSH2 0x3A72 JUMP JUMPDEST PUSH1 0x40 MLOAD PUSH3 0x461BCD PUSH1 0xE5 SHL DUP2 MSTORE PUSH1 0x4 DUP2 ADD DUP12 SWAP1 MSTORE PUSH1 0x1E PUSH1 0x24 DUP3 ADD MSTORE PUSH32 0x537570706C79436861696E3A2070726F64756374206E6F7420666F756E640000 PUSH1 0x44 DUP3 ADD MSTORE PUSH1 0x64 SWAP1 REVERT JUMPDEST CALLVALUE PUSH2 0x23D JUMPI PUSH1 0x0 CALLDATASIZE PUSH1 0x3 NOT ADD SLT PUSH2 0x23D JUMPI PUSH2 0x3C34 PUSH2 0x5789 JUMP JUMPDEST CALLER PUSH1 0x0 MSTORE PUSH1 0x20 PUSH1 0x11 DUP2 MSTORE PUSH1 0x40 PUSH1 0x0 KECCAK256 SLOAD SWAP1 DUP2 ISZERO PUSH2 0x3CEC JUMPI CALLER PUSH1 0x0 MSTORE PUSH1 0x11 DUP2 MSTORE PUSH1 0x0 PUSH1 0x40 DUP2 KECCAK256 SSTORE PUSH1 0x0 DUP1 DUP1 DUP1 DUP6 CALLER GAS CALL PUSH2 0x3C6B PUSH2 0x4D6D JUMP JUMPDEST POP ISZERO PUSH2 0x3CA8 JUMPI PUSH1 0x40 MLOAD SWAP2 DUP3 MSTORE TIMESTAMP SWAP1 DUP3 ADD MSTORE PUSH32 0x92CCF450A286A957AF52509BC1C9939D1A6A481783E142E41E2499F0BB66EBC6 PUSH1 0x40 CALLER SWAP3 LOG2 PUSH1 0x1 DUP1 SSTORE STOP JUMPDEST PUSH1 0x64 SWAP1 PUSH1 0x40 MLOAD SWAP1 PUSH3 0x461BCD PUSH1 0xE5 SHL DUP3 MSTORE PUSH1 0x4 DUP3 ADD MSTORE PUSH1 0x1C PUSH1 0x24 DUP3 ADD MSTORE PUSH32 0x537570706C79436861696E3A207769746864726177206661696C656400000000 PUSH1 0x44 DUP3 ADD MSTORE REVERT JUMPDEST PUSH1 0x64 SWAP1 PUSH1 0x40 MLOAD SWAP1 PUSH3 0x461BCD PUSH1 0xE5 SHL DUP3 MSTORE DUP1 PUSH1 0x4 DUP4 ADD MSTORE PUSH1 0x24 DUP3 ADD MSTORE PUSH32 0x537570706C79436861696E3A206E6F7468696E6720746F207769746864726177 PUSH1 0x44 DUP3 ADD MSTORE REVERT JUMPDEST CALLVALUE PUSH2 0x23D JUMPI PUSH1 0x20 CALLDATASIZE PUSH1 0x3 NOT ADD SLT PUSH2 0x23D JUMPI PUSH1 0x4 CALLDATALOAD PUSH1 0x0 MSTORE PUSH1 0xE PUSH1 0x20 MSTORE PUSH1 0x40 PUSH1 0x0 KECCAK256 DUP1 SLOAD PUSH1 0x1 DUP3 ADD SLOAD SWAP1 PUSH2 0x3DC4 PUSH1 0x1 DUP1 PUSH1 0xA0 SHL SUB PUSH1 0x2 DUP6 ADD SLOAD AND SWAP4 PUSH1 0x3 DUP2 ADD SLOAD SWAP3 PUSH1 0x4 DUP3 ADD SLOAD PUSH1 0xFF PUSH1 0x5 DUP5 ADD SLOAD AND SWAP1 PUSH1 0x7 PUSH2 0x3D8B PUSH1 0x6 DUP7 ADD PUSH2 0x460D JUMP JUMPDEST SWAP5 ADD SLOAD SWAP6 PUSH1 0x40 MLOAD SWAP9 DUP10 SWAP9 PUSH2 0x100 SWAP6 DUP11 MSTORE PUSH1 0x20 DUP11 ADD MSTORE PUSH1 0x40 DUP10 ADD MSTORE PUSH1 0x60 DUP9 ADD MSTORE PUSH1 0x80 DUP8 ADD MSTORE ISZERO ISZERO PUSH1 0xA0 DUP7 ADD MSTORE DUP1 PUSH1 0xC0 DUP7 ADD MSTORE DUP5 ADD SWAP1 PUSH2 0x46B2 JUMP JUMPDEST SWAP1 PUSH1 0xE0 DUP4 ADD MSTORE SUB SWAP1 RETURN JUMPDEST CALLVALUE PUSH2 0x23D JUMPI PUSH2 0x3DDC CALLDATASIZE PUSH2 0x44BF JUMP JUMPDEST SWAP1 SWAP6 SWAP3 SWAP6 SWAP5 SWAP2 SWAP5 CALLER PUSH1 0x0 MSTORE PUSH1 0x2 PUSH1 0x20 MSTORE PUSH1 0xFF PUSH1 0x40 PUSH1 0x0 KECCAK256 SLOAD AND PUSH1 0x6 DUP2 LT ISZERO PUSH2 0x3A3 JUMPI PUSH1 0x2 PUSH2 0x3E0A SWAP2 EQ PUSH2 0x4B88 JUMP JUMPDEST DUP4 PUSH1 0x0 MSTORE PUSH1 0xC PUSH1 0x20 MSTORE PUSH1 0x40 PUSH1 0x0 KECCAK256 SWAP6 DUP7 SLOAD ISZERO ISZERO DUP1 PUSH2 0x4186 JUMPI JUMPDEST ISZERO PUSH2 0x4124 JUMPI PUSH1 0x2 DUP8 ADD SLOAD CALLER PUSH1 0x1 PUSH1 0x1 PUSH1 0xA0 SHL SUB SWAP1 SWAP2 AND SUB PUSH2 0x40CB JUMPI PUSH2 0x3E49 DUP2 DUP8 EQ PUSH2 0x4BEC JUMP JUMPDEST PUSH2 0x3E54 DUP4 DUP8 EQ PUSH2 0x4C38 JUMP JUMPDEST PUSH1 0x0 SWAP6 PUSH1 0x0 JUMPDEST DUP2 DUP2 LT PUSH2 0x40B2 JUMPI POP PUSH1 0x3 DUP9 ADD SLOAD DUP8 GT PUSH2 0x4056 JUMPI PUSH1 0x0 JUMPDEST DUP2 DUP2 LT PUSH2 0x3EA0 JUMPI DUP9 PUSH2 0x3E86 DUP10 PUSH1 0x3 DUP4 ADD SLOAD PUSH2 0x4D60 JUMP JUMPDEST DUP1 PUSH1 0x3 DUP4 ADD SSTORE ISZERO PUSH2 0x3E93 JUMPI STOP JUMPDEST PUSH1 0x8 ADD DUP1 SLOAD PUSH1 0xFF NOT AND SWAP1 SSTORE STOP JUMPDEST PUSH2 0x3EAB PUSH1 0x7 SLOAD PUSH2 0x4B16 JUMP JUMPDEST DUP1 PUSH1 0x7 SSTORE DUP1 PUSH1 0x0 MSTORE PUSH1 0xD PUSH1 0x20 MSTORE PUSH1 0x40 PUSH1 0x0 KECCAK256 SWAP1 DUP2 SSTORE DUP8 PUSH1 0x1 DUP3 ADD SSTORE PUSH1 0x2 DUP2 ADD CALLER PUSH1 0x1 PUSH1 0x1 PUSH1 0x60 SHL SUB PUSH1 0xA0 SHL DUP3 SLOAD AND OR SWAP1 SSTORE PUSH2 0x3EE7 DUP3 DUP5 DUP10 PUSH2 0x4C8E JUMP JUMPDEST CALLDATALOAD PUSH1 0x3 DUP3 ADD SSTORE PUSH2 0x3EF8 DUP3 DUP6 DUP14 PUSH2 0x4C8E JUMP JUMPDEST CALLDATALOAD PUSH1 0x4 DUP3 ADD SSTORE PUSH1 0x5 DUP2 ADD DUP1 SLOAD PUSH1 0x1 PUSH1 0x1 PUSH1 0xB0 SHL SUB NOT AND PUSH1 0x1 PUSH1 0xA8 SHL OR SWAP1 SSTORE PUSH2 0x3F21 DUP3 DUP8 DUP8 PUSH2 0x4CC3 JUMP JUMPDEST SWAP1 PUSH1 0x1 PUSH1 0x1 PUSH1 0x40 SHL SUB DUP3 GT PUSH2 0xC6D JUMPI PUSH2 0x3F41 DUP3 PUSH2 0xB4B PUSH1 0x6 DUP7 ADD SLOAD PUSH2 0x4527 JUMP JUMPDEST PUSH1 0x0 SWAP1 PUSH1 0x1F DUP4 GT PUSH1 0x1 EQ PUSH2 0x3FE2 JUMPI PUSH1 0x1 SWAP5 SWAP4 SWAP3 SWAP2 PUSH1 0x0 SWAP2 DUP4 PUSH2 0x3FD7 JUMPI JUMPDEST POP POP PUSH1 0x0 NOT PUSH1 0x3 DUP4 SWAP1 SHL SHR NOT AND SWAP1 DUP5 SHL OR PUSH1 0x6 DUP3 ADD SSTORE JUMPDEST TIMESTAMP PUSH1 0x7 DUP3 ADD SSTORE DUP9 DUP2 SLOAD PUSH32 0xB70B76668A09B3AF66768DBA9E78FFEFF8F6EA1B1AB19D56DC5F0684F8300F3E PUSH2 0x3FCE PUSH1 0x4 PUSH1 0x3 DUP7 ADD SLOAD SWAP6 ADD SLOAD SWAP5 PUSH1 0x40 MLOAD SWAP2 DUP3 SWAP2 CALLER SWAP8 TIMESTAMP SWAP2 DUP5 PUSH1 0x40 SWAP2 SWAP5 SWAP4 SWAP3 PUSH1 0x60 DUP3 ADD SWAP6 DUP3 MSTORE PUSH1 0x20 DUP3 ADD MSTORE ADD MSTORE JUMP JUMPDEST SUB SWAP1 LOG4 ADD PUSH2 0x3E70 JUMP JUMPDEST ADD CALLDATALOAD SWAP1 POP DUP15 DUP1 PUSH2 0x3F5E JUMP JUMPDEST PUSH1 0x6 DUP5 ADD PUSH1 0x0 MSTORE PUSH1 0x20 PUSH1 0x0 KECCAK256 SWAP2 PUSH1 0x0 JUMPDEST PUSH1 0x1F NOT DUP6 AND DUP2 LT PUSH2 0x403E JUMPI POP SWAP2 DUP4 SWAP2 PUSH1 0x1 SWAP7 SWAP6 SWAP5 SWAP4 DUP8 SWAP5 PUSH1 0x1F NOT DUP2 AND LT PUSH2 0x4024 JUMPI JUMPDEST POP POP POP DUP2 SHL ADD PUSH1 0x6 DUP3 ADD SSTORE PUSH2 0x3F75 JUMP JUMPDEST ADD CALLDATALOAD PUSH1 0x0 NOT PUSH1 0x3 DUP5 SWAP1 SHL PUSH1 0xF8 AND SHR NOT AND SWAP1 SSTORE DUP15 DUP1 DUP1 PUSH2 0x4014 JUMP JUMPDEST SWAP1 SWAP3 PUSH1 0x20 PUSH1 0x1 DUP2 SWAP3 DUP7 DUP7 ADD CALLDATALOAD DUP2 SSTORE ADD SWAP5 ADD SWAP2 ADD PUSH2 0x3FF2 JUMP JUMPDEST PUSH1 0x40 MLOAD PUSH3 0x461BCD PUSH1 0xE5 SHL DUP2 MSTORE PUSH1 0x20 PUSH1 0x4 DUP3 ADD MSTORE PUSH1 0x2E PUSH1 0x24 DUP3 ADD MSTORE PUSH32 0x537570706C79436861696E3A2073756D20657863656564732064697374726962 PUSH1 0x44 DUP3 ADD MSTORE PUSH14 0x75746F7220626174636820717479 PUSH1 0x90 SHL PUSH1 0x64 DUP3 ADD MSTORE PUSH1 0x84 SWAP1 REVERT JUMPDEST SWAP7 PUSH2 0x40C4 PUSH1 0x1 SWAP2 PUSH2 0xCDC DUP11 DUP6 DUP11 PUSH2 0x4C8E JUMP JUMPDEST SWAP8 ADD PUSH2 0x3E5A JUMP JUMPDEST PUSH1 0x40 MLOAD PUSH3 0x461BCD PUSH1 0xE5 SHL DUP2 MSTORE PUSH1 0x20 PUSH1 0x4 DUP3 ADD MSTORE PUSH1 0x2B PUSH1 0x24 DUP3 ADD MSTORE PUSH32 0x537570706C79436861696E3A206E6F74206F776E6572206F6620646973747269 PUSH1 0x44 DUP3 ADD MSTORE PUSH11 0xC4EAE8DEE440C4C2E8C6D PUSH1 0xAB SHL PUSH1 0x64 DUP3 ADD MSTORE PUSH1 0x84 SWAP1 REVERT JUMPDEST PUSH1 0x40 MLOAD PUSH3 0x461BCD PUSH1 0xE5 SHL DUP2 MSTORE PUSH1 0x20 PUSH1 0x4 DUP3 ADD MSTORE PUSH1 0x34 PUSH1 0x24 DUP3 ADD MSTORE PUSH32 0x537570706C79436861696E3A206469737472696275746F72206261746368206E PUSH1 0x44 DUP3 ADD MSTORE PUSH20 0x6F7420666F756E64206F7220696E616374697665 PUSH1 0x60 SHL PUSH1 0x64 DUP3 ADD MSTORE PUSH1 0x84 SWAP1 REVERT JUMPDEST POP PUSH1 0xFF PUSH1 0x8 DUP9 ADD SLOAD AND PUSH2 0x3E23 JUMP JUMPDEST CALLVALUE PUSH2 0x23D JUMPI PUSH1 0x0 CALLDATASIZE PUSH1 0x3 NOT ADD SLT PUSH2 0x23D JUMPI PUSH1 0x20 PUSH1 0x8 SLOAD PUSH1 0x40 MLOAD SWAP1 DUP2 MSTORE RETURN JUMPDEST CALLVALUE PUSH2 0x23D JUMPI PUSH1 0x20 DUP1 PUSH1 0x3 NOT CALLDATASIZE ADD SLT PUSH2 0x23D JUMPI PUSH2 0x41CC PUSH2 0x446C JUMP JUMPDEST PUSH1 0xA SLOAD PUSH1 0x1 PUSH1 0x1 PUSH1 0xA0 SHL SUB SWAP3 SWAP2 PUSH1 0x0 SWAP2 SWAP1 DUP5 AND PUSH1 0x1 JUMPDEST DUP3 DUP2 GT ISZERO PUSH2 0x4411 JUMPI POP PUSH2 0x41F7 PUSH2 0x275E DUP5 PUSH2 0x4B3B JUMP JUMPDEST PUSH1 0x1F NOT ADD DUP5 PUSH1 0x0 JUMPDEST DUP3 DUP2 LT PUSH2 0x43B3 JUMPI POP POP POP PUSH1 0x0 SWAP1 PUSH1 0x1 JUMPDEST DUP4 DUP2 GT ISZERO PUSH2 0x42CD JUMPI POP POP POP POP PUSH1 0x40 MLOAD SWAP2 DUP1 DUP4 ADD DUP2 DUP5 MSTORE DUP3 MLOAD DUP1 SWAP2 MSTORE DUP2 PUSH1 0x40 DUP6 ADD SWAP4 ADD SWAP2 PUSH1 0x0 JUMPDEST DUP3 DUP2 LT PUSH2 0x4242 JUMPI DUP6 DUP6 SUB DUP7 RETURN JUMPDEST SWAP1 SWAP2 SWAP3 SWAP4 DUP3 PUSH2 0x140 PUSH1 0x1 SWAP3 DUP8 MLOAD DUP1 MLOAD DUP3 MSTORE DUP4 DUP2 ADD MLOAD DUP5 DUP4 ADD MSTORE PUSH1 0x40 DUP2 ADD MLOAD PUSH1 0x40 DUP4 ADD MSTORE PUSH1 0x60 DUP1 DUP3 ADD MLOAD SWAP1 DUP4 ADD MSTORE PUSH1 0x80 DUP1 DUP3 ADD MLOAD SWAP1 DUP4 ADD MSTORE PUSH1 0xA0 DUP12 DUP2 DUP4 ADD MLOAD AND SWAP1 DUP4 ADD MSTORE PUSH1 0xC0 DUP12 DUP2 DUP4 ADD MLOAD AND SWAP1 DUP4 ADD MSTORE PUSH2 0x42A3 PUSH1 0xE0 DUP3 ADD MLOAD PUSH1 0xE0 DUP5 ADD SWAP1 PUSH2 0x4482 JUMP JUMPDEST PUSH2 0x42B6 PUSH2 0x100 DUP1 DUP4 ADD MLOAD SWAP1 DUP5 ADD SWAP1 PUSH2 0x4482 JUMP JUMPDEST PUSH2 0x120 SWAP1 DUP2 ADD MLOAD SWAP1 DUP3 ADD MSTORE ADD SWAP6 ADD SWAP4 SWAP3 SWAP2 ADD PUSH2 0x4235 JUMP JUMPDEST DUP1 PUSH1 0x0 MSTORE PUSH1 0x10 DUP7 MSTORE DUP6 PUSH1 0x40 PUSH1 0x0 KECCAK256 PUSH1 0x6 DUP2 ADD SLOAD DUP10 DUP2 AND DUP11 DUP7 DUP3 EQ DUP1 ISZERO PUSH2 0x43A4 JUMPI JUMPDEST PUSH2 0x4306 JUMPI JUMPDEST POP POP POP POP POP PUSH2 0x4301 SWAP1 PUSH2 0x4B16 JUMP JUMPDEST PUSH2 0x420F JUMP JUMPDEST SWAP3 PUSH2 0x4385 DUP4 PUSH2 0x4397 SWAP7 SWAP5 PUSH2 0x4377 PUSH1 0x7 SWAP6 PUSH2 0x4301 SWAP11 SWAP13 SWAP9 PUSH1 0x40 MLOAD SWAP9 PUSH2 0x4329 DUP11 PUSH2 0x4561 JUMP JUMPDEST DUP8 SLOAD DUP11 MSTORE PUSH1 0x1 DUP9 ADD SLOAD SWAP1 DUP11 ADD MSTORE PUSH1 0x2 DUP8 ADD SLOAD PUSH1 0x40 DUP11 ADD MSTORE PUSH1 0x3 DUP8 ADD SLOAD PUSH1 0x60 DUP11 ADD MSTORE PUSH1 0x4 DUP8 ADD SLOAD PUSH1 0x80 DUP11 ADD MSTORE PUSH1 0x5 DUP8 ADD SLOAD AND SWAP1 PUSH1 0xA0 SWAP2 DUP3 DUP11 ADD MSTORE PUSH1 0xC0 DUP10 ADD MSTORE PUSH1 0xFF SWAP4 DUP5 SWAP2 SHR AND PUSH1 0xE0 DUP9 ADD PUSH2 0x4B7C JUMP JUMPDEST PUSH1 0xA8 SHR AND PUSH2 0x100 DUP6 ADD PUSH2 0x4B7C JUMP JUMPDEST ADD SLOAD PUSH2 0x120 DUP3 ADD MSTORE PUSH2 0x289B DUP3 DUP10 PUSH2 0x4B52 JUMP JUMPDEST SWAP3 SWAP1 POP DUP6 DUP9 DUP1 DUP1 DUP11 PUSH2 0x42F3 JUMP JUMPDEST POP DUP7 DUP2 PUSH1 0x5 DUP7 ADD SLOAD AND EQ PUSH2 0x42EE JUMP JUMPDEST PUSH1 0x40 MLOAD PUSH2 0x43BF DUP2 PUSH2 0x4561 JUMP JUMPDEST PUSH1 0x0 DUP2 MSTORE PUSH1 0x0 DUP4 DUP3 ADD MSTORE PUSH1 0x0 PUSH1 0x40 DUP3 ADD MSTORE PUSH1 0x0 PUSH1 0x60 DUP3 ADD MSTORE PUSH1 0x0 PUSH1 0x80 DUP3 ADD MSTORE PUSH1 0x0 PUSH1 0xA0 DUP3 ADD MSTORE PUSH1 0x0 PUSH1 0xC0 DUP3 ADD MSTORE PUSH1 0x0 PUSH1 0xE0 DUP3 ADD MSTORE PUSH1 0x0 PUSH2 0x100 DUP3 ADD MSTORE PUSH1 0x0 PUSH2 0x120 DUP3 ADD MSTORE DUP3 DUP3 DUP9 ADD ADD MSTORE ADD DUP6 SWAP1 PUSH2 0x41FF JUMP JUMPDEST DUP1 PUSH1 0x0 MSTORE PUSH1 0x10 DUP6 MSTORE PUSH1 0x40 PUSH1 0x0 KECCAK256 DUP3 DUP8 DUP2 DUP2 PUSH1 0x6 DUP6 ADD SLOAD AND EQ SWAP3 DUP4 ISZERO PUSH2 0x445C JUMPI JUMPDEST POP POP POP PUSH2 0x4447 JUMPI JUMPDEST PUSH2 0x4442 SWAP1 PUSH2 0x4B16 JUMP JUMPDEST PUSH2 0x41E2 JUMP JUMPDEST SWAP3 PUSH2 0x4454 PUSH2 0x4442 SWAP2 PUSH2 0x4B16 JUMP JUMPDEST SWAP4 SWAP1 POP PUSH2 0x4439 JUMP JUMPDEST PUSH1 0x5 ADD SLOAD AND EQ SWAP1 POP DUP3 DUP8 DUP10 PUSH2 0x4431 JUMP JUMPDEST PUSH1 0x4 CALLDATALOAD SWAP1 PUSH1 0x1 PUSH1 0x1 PUSH1 0xA0 SHL SUB DUP3 AND DUP3 SUB PUSH2 0x23D JUMPI JUMP JUMPDEST SWAP1 PUSH1 0x6 DUP3 LT ISZERO PUSH2 0x3A3 JUMPI MSTORE JUMP JUMPDEST SWAP2 DUP2 PUSH1 0x1F DUP5 ADD SLT ISZERO PUSH2 0x23D JUMPI DUP3 CALLDATALOAD SWAP2 PUSH1 0x1 PUSH1 0x1 PUSH1 0x40 SHL SUB DUP4 GT PUSH2 0x23D JUMPI PUSH1 0x20 DUP1 DUP6 ADD SWAP5 DUP5 PUSH1 0x5 SHL ADD ADD GT PUSH2 0x23D JUMPI JUMP JUMPDEST PUSH1 0x80 PUSH1 0x3 NOT DUP3 ADD SLT PUSH2 0x23D JUMPI PUSH1 0x4 CALLDATALOAD SWAP2 PUSH1 0x1 PUSH1 0x1 PUSH1 0x40 SHL SUB PUSH1 0x24 CALLDATALOAD DUP2 DUP2 GT PUSH2 0x23D JUMPI DUP4 PUSH2 0x44EE SWAP2 PUSH1 0x4 ADD PUSH2 0x448F JUMP JUMPDEST SWAP4 SWAP1 SWAP4 SWAP3 PUSH1 0x44 CALLDATALOAD DUP4 DUP2 GT PUSH2 0x23D JUMPI DUP3 PUSH2 0x4509 SWAP2 PUSH1 0x4 ADD PUSH2 0x448F JUMP JUMPDEST SWAP4 SWAP1 SWAP4 SWAP3 PUSH1 0x64 CALLDATALOAD SWAP2 DUP3 GT PUSH2 0x23D JUMPI PUSH2 0x4523 SWAP2 PUSH1 0x4 ADD PUSH2 0x448F JUMP JUMPDEST SWAP1 SWAP2 JUMP JUMPDEST SWAP1 PUSH1 0x1 DUP3 DUP2 SHR SWAP3 AND DUP1 ISZERO PUSH2 0x4557 JUMPI JUMPDEST PUSH1 0x20 DUP4 LT EQ PUSH2 0x4541 JUMPI JUMP JUMPDEST PUSH4 0x4E487B71 PUSH1 0xE0 SHL PUSH1 0x0 MSTORE PUSH1 0x22 PUSH1 0x4 MSTORE PUSH1 0x24 PUSH1 0x0 REVERT JUMPDEST SWAP2 PUSH1 0x7F AND SWAP2 PUSH2 0x4536 JUMP JUMPDEST PUSH2 0x140 DUP2 ADD SWAP1 DUP2 LT PUSH1 0x1 PUSH1 0x1 PUSH1 0x40 SHL SUB DUP3 GT OR PUSH2 0xC6D JUMPI PUSH1 0x40 MSTORE JUMP JUMPDEST PUSH1 0xC0 DUP2 ADD SWAP1 DUP2 LT PUSH1 0x1 PUSH1 0x1 PUSH1 0x40 SHL SUB DUP3 GT OR PUSH2 0xC6D JUMPI PUSH1 0x40 MSTORE JUMP JUMPDEST PUSH2 0x180 DUP2 ADD SWAP1 DUP2 LT PUSH1 0x1 PUSH1 0x1 PUSH1 0x40 SHL SUB DUP3 GT OR PUSH2 0xC6D JUMPI PUSH1 0x40 MSTORE JUMP JUMPDEST PUSH2 0x120 DUP2 ADD SWAP1 DUP2 LT PUSH1 0x1 PUSH1 0x1 PUSH1 0x40 SHL SUB DUP3 GT OR PUSH2 0xC6D JUMPI PUSH1 0x40 MSTORE JUMP JUMPDEST PUSH2 0x100 DUP2 ADD SWAP1 DUP2 LT PUSH1 0x1 PUSH1 0x1 PUSH1 0x40 SHL SUB DUP3 GT OR PUSH2 0xC6D JUMPI PUSH1 0x40 MSTORE JUMP JUMPDEST SWAP1 PUSH1 0x1F DUP1 NOT SWAP2 ADD AND DUP2 ADD SWAP1 DUP2 LT PUSH1 0x1 PUSH1 0x1 PUSH1 0x40 SHL SUB DUP3 GT OR PUSH2 0xC6D JUMPI PUSH1 0x40 MSTORE JUMP JUMPDEST SWAP1 PUSH1 0x40 MLOAD SWAP2 DUP3 PUSH1 0x0 DUP3 SLOAD PUSH2 0x4620 DUP2 PUSH2 0x4527 JUMP JUMPDEST SWAP1 DUP2 DUP5 MSTORE PUSH1 0x20 SWAP5 PUSH1 0x1 SWAP2 PUSH1 0x1 DUP2 AND SWAP1 DUP2 PUSH1 0x0 EQ PUSH2 0x4690 JUMPI POP PUSH1 0x1 EQ PUSH2 0x4651 JUMPI JUMPDEST POP POP POP PUSH2 0x464F SWAP3 POP SUB DUP4 PUSH2 0x45EC JUMP JUMPDEST JUMP JUMPDEST PUSH1 0x0 SWAP1 DUP2 MSTORE DUP6 DUP2 KECCAK256 SWAP6 SWAP4 POP SWAP2 SWAP1 JUMPDEST DUP2 DUP4 LT PUSH2 0x4678 JUMPI POP POP PUSH2 0x464F SWAP4 POP DUP3 ADD ADD CODESIZE DUP1 DUP1 PUSH2 0x4640 JUMP JUMPDEST DUP6 SLOAD DUP9 DUP5 ADD DUP6 ADD MSTORE SWAP5 DUP6 ADD SWAP5 DUP8 SWAP5 POP SWAP2 DUP4 ADD SWAP2 PUSH2 0x465F JUMP JUMPDEST SWAP3 POP POP POP PUSH2 0x464F SWAP5 SWAP3 POP PUSH1 0xFF NOT AND DUP3 DUP5 ADD MSTORE ISZERO ISZERO PUSH1 0x5 SHL DUP3 ADD ADD CODESIZE DUP1 DUP1 PUSH2 0x4640 JUMP JUMPDEST SWAP2 SWAP1 DUP3 MLOAD SWAP3 DUP4 DUP3 MSTORE PUSH1 0x0 JUMPDEST DUP5 DUP2 LT PUSH2 0x46DE JUMPI POP POP DUP3 PUSH1 0x0 PUSH1 0x20 DUP1 SWAP5 SWAP6 DUP5 ADD ADD MSTORE PUSH1 0x1F DUP1 NOT SWAP2 ADD AND ADD ADD SWAP1 JUMP JUMPDEST PUSH1 0x20 DUP2 DUP4 ADD DUP2 ADD MLOAD DUP5 DUP4 ADD DUP3 ADD MSTORE ADD PUSH2 0x46BD JUMP JUMPDEST PUSH1 0x24 CALLDATALOAD SWAP1 PUSH1 0xFF DUP3 AND DUP3 SUB PUSH2 0x23D JUMPI JUMP JUMPDEST PUSH1 0x4 CALLDATALOAD SWAP1 PUSH1 0xFF DUP3 AND DUP3 SUB PUSH2 0x23D JUMPI JUMP JUMPDEST SWAP2 DUP2 PUSH1 0x1F DUP5 ADD SLT ISZERO PUSH2 0x23D JUMPI DUP3 CALLDATALOAD SWAP2 PUSH1 0x1 PUSH1 0x1 PUSH1 0x40 SHL SUB DUP4 GT PUSH2 0x23D JUMPI PUSH1 0x20 DUP4 DUP2 DUP7 ADD SWAP6 ADD ADD GT PUSH2 0x23D JUMPI JUMP JUMPDEST SWAP1 PUSH1 0x2 DUP3 LT ISZERO PUSH2 0x3A3 JUMPI MSTORE JUMP JUMPDEST SWAP1 PUSH2 0x4758 DUP2 DUP4 MLOAD PUSH2 0x4482 JUMP JUMPDEST PUSH1 0x20 DUP3 ADD MLOAD ISZERO ISZERO PUSH1 0x20 DUP3 ADD MSTORE PUSH1 0xA0 DUP1 PUSH2 0x4795 PUSH2 0x4783 PUSH1 0x40 DUP7 ADD MLOAD PUSH1 0xC0 PUSH1 0x40 DUP8 ADD MSTORE PUSH1 0xC0 DUP7 ADD SWAP1 PUSH2 0x46B2 JUMP JUMPDEST PUSH1 0x60 DUP7 ADD MLOAD DUP6 DUP3 SUB PUSH1 0x60 DUP8 ADD MSTORE PUSH2 0x46B2 JUMP JUMPDEST SWAP4 PUSH1 0x80 DUP2 ADD MLOAD PUSH1 0x80 DUP6 ADD MSTORE ADD MLOAD ISZERO ISZERO SWAP2 ADD MSTORE SWAP1 JUMP JUMPDEST SWAP1 PUSH2 0x483B PUSH2 0x4814 PUSH2 0x47E4 PUSH2 0x4783 PUSH2 0x180 DUP7 MLOAD DUP7 MSTORE PUSH1 0x1 DUP1 PUSH1 0xA0 SHL SUB PUSH1 0x20 DUP9 ADD MLOAD AND PUSH1 0x20 DUP8 ADD MSTORE PUSH1 0x40 DUP8 ADD MLOAD SWAP1 DUP1 PUSH1 0x40 DUP9 ADD MSTORE DUP7 ADD SWAP1 PUSH2 0x46B2 JUMP JUMPDEST PUSH1 0x80 DUP6 ADD MLOAD PUSH1 0x80 DUP6 ADD MSTORE PUSH1 0xA0 DUP6 ADD MLOAD PUSH1 0xA0 DUP6 ADD MSTORE PUSH1 0xC0 DUP6 ADD MLOAD PUSH1 0xC0 DUP6 ADD MSTORE PUSH1 0xE0 DUP6 ADD MLOAD DUP5 DUP3 SUB PUSH1 0xE0 DUP7 ADD MSTORE PUSH2 0x46B2 JUMP JUMPDEST PUSH2 0x4827 PUSH2 0x100 DUP1 DUP7 ADD MLOAD SWAP1 DUP6 ADD SWAP1 PUSH2 0x473F JUMP JUMPDEST PUSH2 0x120 DUP1 DUP6 ADD MLOAD SWAP1 DUP5 DUP4 SUB SWAP1 DUP6 ADD MSTORE PUSH2 0x46B2 JUMP JUMPDEST SWAP2 PUSH2 0x140 DUP1 DUP3 ADD MLOAD SWAP1 DUP4 ADD MSTORE PUSH2 0x160 DUP1 SWAP2 ADD MLOAD ISZERO ISZERO SWAP2 ADD MSTORE SWAP1 JUMP JUMPDEST DUP1 MLOAD DUP3 MSTORE PUSH1 0x20 DUP2 ADD MLOAD PUSH1 0x20 DUP4 ADD MSTORE PUSH1 0x1 DUP1 PUSH1 0xA0 SHL SUB PUSH1 0x40 DUP3 ADD MLOAD AND PUSH1 0x40 DUP4 ADD MSTORE PUSH1 0x60 DUP2 ADD MLOAD PUSH1 0x60 DUP4 ADD MSTORE PUSH1 0x80 DUP2 ADD MLOAD PUSH1 0x80 DUP4 ADD MSTORE PUSH1 0xA0 DUP2 ADD MLOAD PUSH1 0xA0 DUP4 ADD MSTORE PUSH2 0x48A6 PUSH1 0xC0 DUP3 ADD MLOAD PUSH1 0xC0 DUP5 ADD SWAP1 PUSH2 0x473F JUMP JUMPDEST PUSH1 0xE0 DUP2 ADD MLOAD PUSH1 0xE0 DUP4 ADD MSTORE PUSH2 0x100 DUP1 SWAP2 ADD MLOAD ISZERO ISZERO SWAP2 ADD MSTORE JUMP JUMPDEST SWAP1 DUP2 MLOAD DUP1 DUP3 MSTORE PUSH1 0x20 DUP1 DUP1 SWAP4 ADD SWAP4 ADD SWAP2 PUSH1 0x0 JUMPDEST DUP3 DUP2 LT PUSH2 0x48DE JUMPI POP POP POP POP SWAP1 JUMP JUMPDEST SWAP1 SWAP2 SWAP3 SWAP4 DUP3 PUSH2 0x120 DUP3 PUSH2 0x48F4 PUSH1 0x1 SWAP5 DUP10 MLOAD PUSH2 0x4856 JUMP JUMPDEST ADD SWAP6 ADD SWAP4 SWAP3 SWAP2 ADD PUSH2 0x48D0 JUMP JUMPDEST SWAP1 PUSH2 0x497B PUSH2 0x140 DUP4 MLOAD DUP4 MSTORE PUSH1 0x20 DUP5 ADD MLOAD PUSH1 0x20 DUP5 ADD MSTORE PUSH1 0x40 DUP5 ADD MLOAD PUSH1 0x1 DUP1 PUSH1 0xA0 SHL SUB DUP1 SWAP2 AND PUSH1 0x40 DUP6 ADD MSTORE PUSH1 0x60 DUP6 ADD MLOAD PUSH1 0x60 DUP6 ADD MSTORE PUSH1 0x80 DUP6 ADD MLOAD PUSH1 0x80 DUP6 ADD MSTORE PUSH2 0x494F PUSH1 0xA0 DUP7 ADD MLOAD PUSH1 0xA0 DUP7 ADD SWAP1 PUSH2 0x473F JUMP JUMPDEST PUSH1 0xC0 DUP6 ADD MLOAD AND PUSH1 0xC0 DUP5 ADD MSTORE PUSH1 0xE0 DUP5 ADD MLOAD ISZERO ISZERO PUSH1 0xE0 DUP5 ADD MSTORE PUSH2 0x100 SWAP1 DUP1 DUP3 DUP7 ADD MLOAD SWAP3 DUP6 ADD MSTORE DUP4 ADD SWAP1 PUSH2 0x46B2 JUMP JUMPDEST SWAP2 PUSH2 0x120 DUP1 SWAP2 ADD MLOAD SWAP2 ADD MSTORE SWAP1 JUMP JUMPDEST SWAP1 DUP1 DUP3 MLOAD SWAP1 DUP2 DUP2 MSTORE PUSH1 0x20 DUP1 SWAP2 ADD SWAP3 PUSH1 0x20 DUP1 DUP5 PUSH1 0x5 SHL DUP4 ADD ADD SWAP6 ADD SWAP4 PUSH1 0x0 SWAP2 JUMPDEST DUP5 DUP4 LT PUSH2 0x49B8 JUMPI POP POP POP POP POP POP SWAP1 JUMP JUMPDEST SWAP1 SWAP2 SWAP3 SWAP4 SWAP5 SWAP6 DUP5 DUP1 PUSH2 0x49D6 PUSH1 0x1 SWAP4 PUSH1 0x1F NOT DUP7 DUP3 SUB ADD DUP8 MSTORE DUP11 MLOAD PUSH2 0x4900 JUMP JUMPDEST SWAP9 ADD SWAP4 ADD SWAP4 ADD SWAP2 SWAP5 SWAP4 SWAP3 SWAP1 PUSH2 0x49A8 JUMP JUMPDEST PUSH1 0x40 SWAP1 PUSH1 0x3 NOT ADD SLT PUSH2 0x23D JUMPI PUSH1 0x4 CALLDATALOAD SWAP1 PUSH1 0x24 CALLDATALOAD SWAP1 JUMP JUMPDEST SWAP1 PUSH1 0xE0 DUP1 PUSH2 0x4A5A PUSH2 0x100 DUP6 MLOAD DUP6 MSTORE PUSH1 0x20 DUP7 ADD MLOAD PUSH1 0x20 DUP7 ADD MSTORE PUSH1 0x1 DUP1 PUSH1 0xA0 SHL SUB PUSH1 0x40 DUP8 ADD MLOAD AND PUSH1 0x40 DUP7 ADD MSTORE PUSH1 0x60 DUP7 ADD MLOAD PUSH1 0x60 DUP7 ADD MSTORE PUSH1 0x80 DUP7 ADD MLOAD PUSH1 0x80 DUP7 ADD MSTORE PUSH1 0xA0 DUP7 ADD MLOAD ISZERO ISZERO PUSH1 0xA0 DUP7 ADD MSTORE PUSH1 0xC0 DUP7 ADD MLOAD SWAP1 DUP1 PUSH1 0xC0 DUP8 ADD MSTORE DUP6 ADD SWAP1 PUSH2 0x46B2 JUMP JUMPDEST SWAP4 ADD MLOAD SWAP2 ADD MSTORE SWAP1 JUMP JUMPDEST SWAP1 DUP2 MLOAD DUP1 DUP3 MSTORE PUSH1 0x20 DUP1 DUP1 SWAP4 ADD SWAP4 ADD SWAP2 PUSH1 0x0 JUMPDEST DUP3 DUP2 LT PUSH2 0x4A83 JUMPI POP POP POP POP SWAP1 JUMP JUMPDEST DUP4 MLOAD PUSH1 0x1 PUSH1 0x1 PUSH1 0xA0 SHL SUB AND DUP6 MSTORE SWAP4 DUP2 ADD SWAP4 SWAP3 DUP2 ADD SWAP3 PUSH1 0x1 ADD PUSH2 0x4A75 JUMP JUMPDEST SWAP1 PUSH2 0x4AB3 SWAP1 PUSH1 0x40 DUP4 MSTORE PUSH1 0x40 DUP4 ADD SWAP1 PUSH2 0x4A63 JUMP JUMPDEST SWAP1 PUSH1 0x20 SWAP1 DUP2 DUP2 DUP5 SUB SWAP2 ADD MSTORE DUP3 MLOAD SWAP1 DUP2 DUP4 MSTORE DUP1 DUP4 ADD SWAP3 DUP2 DUP1 DUP5 PUSH1 0x5 SHL DUP4 ADD ADD SWAP6 ADD SWAP4 PUSH1 0x0 SWAP2 JUMPDEST DUP5 DUP4 LT PUSH2 0x4AE8 JUMPI POP POP POP POP POP POP SWAP1 JUMP JUMPDEST SWAP1 SWAP2 SWAP3 SWAP4 SWAP5 SWAP6 DUP5 DUP1 PUSH2 0x4B06 PUSH1 0x1 SWAP4 PUSH1 0x1F NOT DUP7 DUP3 SUB ADD DUP8 MSTORE DUP11 MLOAD PUSH2 0x474C JUMP JUMPDEST SWAP9 ADD SWAP4 ADD SWAP4 ADD SWAP2 SWAP5 SWAP4 SWAP3 SWAP1 PUSH2 0x4AD8 JUMP JUMPDEST PUSH1 0x0 NOT DUP2 EQ PUSH2 0x4B25 JUMPI PUSH1 0x1 ADD SWAP1 JUMP JUMPDEST PUSH4 0x4E487B71 PUSH1 0xE0 SHL PUSH1 0x0 MSTORE PUSH1 0x11 PUSH1 0x4 MSTORE PUSH1 0x24 PUSH1 0x0 REVERT JUMPDEST PUSH1 0x1 PUSH1 0x1 PUSH1 0x40 SHL SUB DUP2 GT PUSH2 0xC6D JUMPI PUSH1 0x5 SHL PUSH1 0x20 ADD SWAP1 JUMP JUMPDEST DUP1 MLOAD DUP3 LT ISZERO PUSH2 0x4B66 JUMPI PUSH1 0x20 SWAP2 PUSH1 0x5 SHL ADD ADD SWAP1 JUMP JUMPDEST PUSH4 0x4E487B71 PUSH1 0xE0 SHL PUSH1 0x0 MSTORE PUSH1 0x32 PUSH1 0x4 MSTORE PUSH1 0x24 PUSH1 0x0 REVERT JUMPDEST PUSH1 0x6 DUP3 LT ISZERO PUSH2 0x3A3 JUMPI MSTORE JUMP JUMPDEST ISZERO PUSH2 0x4B8F JUMPI JUMP JUMPDEST PUSH1 0x40 MLOAD PUSH3 0x461BCD PUSH1 0xE5 SHL DUP2 MSTORE PUSH1 0x20 PUSH1 0x4 DUP3 ADD MSTORE PUSH1 0x2F PUSH1 0x24 DUP3 ADD MSTORE PUSH32 0x537570706C79436861696E3A2063616C6C657220646F6573206E6F7420686176 PUSH1 0x44 DUP3 ADD MSTORE PUSH15 0x6520726571756972656420726F6C65 PUSH1 0x88 SHL PUSH1 0x64 DUP3 ADD MSTORE PUSH1 0x84 SWAP1 REVERT JUMPDEST ISZERO PUSH2 0x4BF3 JUMPI JUMP JUMPDEST PUSH1 0x40 MLOAD PUSH3 0x461BCD PUSH1 0xE5 SHL DUP2 MSTORE PUSH1 0x20 PUSH1 0x4 DUP3 ADD MSTORE PUSH1 0x1C PUSH1 0x24 DUP3 ADD MSTORE PUSH32 0x537570706C79436861696E3A206C656E677468206D69736D6174636800000000 PUSH1 0x44 DUP3 ADD MSTORE PUSH1 0x64 SWAP1 REVERT JUMPDEST ISZERO PUSH2 0x4C3F JUMPI JUMP JUMPDEST PUSH1 0x40 MLOAD PUSH3 0x461BCD PUSH1 0xE5 SHL DUP2 MSTORE PUSH1 0x20 PUSH1 0x4 DUP3 ADD MSTORE PUSH1 0x21 PUSH1 0x24 DUP3 ADD MSTORE PUSH32 0x537570706C79436861696E3A2069706673206C656E677468206D69736D617463 PUSH1 0x44 DUP3 ADD MSTORE PUSH1 0xD PUSH1 0xFB SHL PUSH1 0x64 DUP3 ADD MSTORE PUSH1 0x84 SWAP1 REVERT JUMPDEST SWAP2 SWAP1 DUP2 LT ISZERO PUSH2 0x4B66 JUMPI PUSH1 0x5 SHL ADD SWAP1 JUMP JUMPDEST SWAP2 SWAP1 DUP3 ADD DUP1 SWAP3 GT PUSH2 0x4B25 JUMPI JUMP JUMPDEST SWAP1 PUSH1 0x2 DUP2 LT ISZERO PUSH2 0x3A3 JUMPI PUSH1 0xFF DUP1 NOT DUP4 SLOAD AND SWAP2 AND OR SWAP1 SSTORE JUMP JUMPDEST SWAP2 SWAP1 DUP2 LT ISZERO PUSH2 0x4B66 JUMPI PUSH1 0x5 SHL DUP2 ADD CALLDATALOAD SWAP1 PUSH1 0x1E NOT DUP2 CALLDATASIZE SUB ADD DUP3 SLT ISZERO PUSH2 0x23D JUMPI ADD SWAP1 DUP2 CALLDATALOAD SWAP2 PUSH1 0x1 PUSH1 0x1 PUSH1 0x40 SHL SUB DUP4 GT PUSH2 0x23D JUMPI PUSH1 0x20 ADD DUP3 CALLDATASIZE SUB DUP2 SGT PUSH2 0x23D JUMPI SWAP2 SWAP1 JUMP JUMPDEST DUP2 DUP2 LT PUSH2 0x4D0F JUMPI POP POP JUMP JUMPDEST PUSH1 0x0 DUP2 SSTORE PUSH1 0x1 ADD PUSH2 0x4D04 JUMP JUMPDEST SWAP2 SWAP1 PUSH1 0x1F DUP2 GT PUSH2 0x4D2A JUMPI POP POP POP JUMP JUMPDEST PUSH2 0x464F SWAP3 PUSH1 0x0 MSTORE PUSH1 0x20 PUSH1 0x0 KECCAK256 SWAP1 PUSH1 0x20 PUSH1 0x1F DUP5 ADD PUSH1 0x5 SHR DUP4 ADD SWAP4 LT PUSH2 0x4D56 JUMPI JUMPDEST PUSH1 0x1F ADD PUSH1 0x5 SHR ADD SWAP1 PUSH2 0x4D04 JUMP JUMPDEST SWAP1 SWAP2 POP DUP2 SWAP1 PUSH2 0x4D49 JUMP JUMPDEST SWAP2 SWAP1 DUP3 SUB SWAP2 DUP3 GT PUSH2 0x4B25 JUMPI JUMP JUMPDEST RETURNDATASIZE ISZERO PUSH2 0x4DA7 JUMPI RETURNDATASIZE SWAP1 PUSH1 0x1 PUSH1 0x1 PUSH1 0x40 SHL SUB DUP3 GT PUSH2 0xC6D JUMPI PUSH1 0x40 MLOAD SWAP2 PUSH2 0x4D9B PUSH1 0x1F DUP3 ADD PUSH1 0x1F NOT AND PUSH1 0x20 ADD DUP5 PUSH2 0x45EC JUMP JUMPDEST DUP3 MSTORE RETURNDATASIZE PUSH1 0x0 PUSH1 0x20 DUP5 ADD RETURNDATACOPY JUMP JUMPDEST PUSH1 0x60 SWAP1 JUMP JUMPDEST ISZERO PUSH2 0x4DB3 JUMPI JUMP JUMPDEST PUSH1 0x40 MLOAD PUSH3 0x461BCD PUSH1 0xE5 SHL DUP2 MSTORE PUSH1 0x20 PUSH1 0x4 DUP3 ADD MSTORE PUSH1 0x16 PUSH1 0x24 DUP3 ADD MSTORE PUSH22 0x29BAB838363CA1B430B4B71D103737BA1037BBB732B9 PUSH1 0x51 SHL PUSH1 0x44 DUP3 ADD MSTORE PUSH1 0x64 SWAP1 REVERT JUMPDEST PUSH1 0x40 MLOAD SWAP1 PUSH2 0x4DFE DUP3 PUSH2 0x457D JUMP JUMPDEST PUSH1 0x0 PUSH1 0xA0 DUP4 DUP3 DUP2 MSTORE DUP3 PUSH1 0x20 DUP3 ADD MSTORE PUSH1 0x60 PUSH1 0x40 DUP3 ADD MSTORE PUSH1 0x60 DUP1 DUP3 ADD MSTORE DUP3 PUSH1 0x80 DUP3 ADD MSTORE ADD MSTORE JUMP JUMPDEST PUSH1 0x40 MLOAD SWAP1 PUSH2 0x4E30 DUP3 PUSH2 0x4598 JUMP JUMPDEST DUP2 PUSH2 0x160 PUSH1 0x0 SWAP2 DUP3 DUP2 MSTORE DUP3 PUSH1 0x20 DUP3 ADD MSTORE PUSH1 0x60 PUSH1 0x40 DUP3 ADD MSTORE PUSH1 0x60 DUP1 DUP3 ADD MSTORE DUP3 PUSH1 0x80 DUP3 ADD MSTORE DUP3 PUSH1 0xA0 DUP3 ADD MSTORE DUP3 PUSH1 0xC0 DUP3 ADD MSTORE PUSH1 0x60 PUSH1 0xE0 DUP3 ADD MSTORE DUP3 PUSH2 0x100 DUP3 ADD MSTORE PUSH1 0x60 PUSH2 0x120 DUP3 ADD MSTORE DUP3 PUSH2 0x140 DUP3 ADD MSTORE ADD MSTORE JUMP JUMPDEST PUSH1 0x2 DUP3 LT ISZERO PUSH2 0x3A3 JUMPI MSTORE JUMP JUMPDEST PUSH1 0x40 MLOAD SWAP1 PUSH2 0x4E99 DUP3 PUSH2 0x45B4 JUMP JUMPDEST DUP2 PUSH2 0x100 PUSH1 0x0 SWAP2 DUP3 DUP2 MSTORE DUP3 PUSH1 0x20 DUP3 ADD MSTORE DUP3 PUSH1 0x40 DUP3 ADD MSTORE DUP3 PUSH1 0x60 DUP3 ADD MSTORE DUP3 PUSH1 0x80 DUP3 ADD MSTORE DUP3 PUSH1 0xA0 DUP3 ADD MSTORE DUP3 PUSH1 0xC0 DUP3 ADD MSTORE DUP3 PUSH1 0xE0 DUP3 ADD MSTORE ADD MSTORE JUMP JUMPDEST SWAP1 PUSH2 0x4EDB DUP3 PUSH2 0x4B3B JUMP JUMPDEST PUSH2 0x4EE8 PUSH1 0x40 MLOAD SWAP2 DUP3 PUSH2 0x45EC JUMP JUMPDEST DUP3 DUP2 MSTORE DUP1 SWAP3 PUSH2 0x4EF9 PUSH1 0x1F NOT SWAP2 PUSH2 0x4B3B JUMP JUMPDEST ADD SWAP1 PUSH1 0x0 JUMPDEST DUP3 DUP2 LT PUSH2 0x4F0A JUMPI POP POP POP JUMP JUMPDEST PUSH1 0x20 SWAP1 PUSH2 0x4F15 PUSH2 0x4E8C JUMP JUMPDEST DUP3 DUP3 DUP6 ADD ADD MSTORE ADD PUSH2 0x4EFE JUMP JUMPDEST PUSH1 0x40 MLOAD SWAP1 PUSH2 0x4F2E DUP3 PUSH2 0x4561 JUMP JUMPDEST DUP2 PUSH2 0x120 PUSH1 0x0 SWAP2 DUP3 DUP2 MSTORE DUP3 PUSH1 0x20 DUP3 ADD MSTORE DUP3 PUSH1 0x40 DUP3 ADD MSTORE DUP3 PUSH1 0x60 DUP3 ADD MSTORE DUP3 PUSH1 0x80 DUP3 ADD MSTORE DUP3 PUSH1 0xA0 DUP3 ADD MSTORE DUP3 PUSH1 0xC0 DUP3 ADD MSTORE DUP3 PUSH1 0xE0 DUP3 ADD MSTORE PUSH1 0x60 PUSH2 0x100 DUP3 ADD MSTORE ADD MSTORE JUMP JUMPDEST SWAP1 PUSH2 0x4F78 DUP3 PUSH2 0x4B3B JUMP JUMPDEST PUSH2 0x4F85 PUSH1 0x40 MLOAD SWAP2 DUP3 PUSH2 0x45EC JUMP JUMPDEST DUP3 DUP2 MSTORE DUP1 SWAP3 PUSH2 0x4F96 PUSH1 0x1F NOT SWAP2 PUSH2 0x4B3B JUMP JUMPDEST ADD SWAP1 PUSH1 0x0 JUMPDEST DUP3 DUP2 LT PUSH2 0x4FA7 JUMPI POP POP POP JUMP JUMPDEST PUSH1 0x20 SWAP1 PUSH2 0x4FB2 PUSH2 0x4F21 JUMP JUMPDEST DUP3 DUP3 DUP6 ADD ADD MSTORE ADD PUSH2 0x4F9B JUMP JUMPDEST ISZERO PUSH2 0x4FC5 JUMPI JUMP JUMPDEST PUSH1 0x40 MLOAD PUSH3 0x461BCD PUSH1 0xE5 SHL DUP2 MSTORE PUSH1 0x20 PUSH1 0x4 DUP3 ADD MSTORE PUSH1 0x1B PUSH1 0x24 DUP3 ADD MSTORE PUSH32 0x537570706C79436861696E3A207061636B206E6F7420666F756E640000000000 PUSH1 0x44 DUP3 ADD MSTORE PUSH1 0x64 SWAP1 REVERT JUMPDEST ISZERO PUSH2 0x5011 JUMPI JUMP JUMPDEST PUSH1 0x40 MLOAD PUSH3 0x461BCD PUSH1 0xE5 SHL DUP2 MSTORE PUSH1 0x20 PUSH1 0x4 DUP3 ADD MSTORE PUSH1 0x1F PUSH1 0x24 DUP3 ADD MSTORE PUSH32 0x537570706C79436861696E3A20696E76616C6964207669736962696C69747900 PUSH1 0x44 DUP3 ADD MSTORE PUSH1 0x64 SWAP1 REVERT JUMPDEST ISZERO PUSH2 0x505D JUMPI JUMP JUMPDEST PUSH1 0x40 MLOAD PUSH3 0x461BCD PUSH1 0xE5 SHL DUP2 MSTORE PUSH1 0x20 PUSH1 0x4 DUP3 ADD MSTORE PUSH1 0x1B PUSH1 0x24 DUP3 ADD MSTORE PUSH32 0x537570706C79436861696E3A2075736572206E6F7420666F756E640000000000 PUSH1 0x44 DUP3 ADD MSTORE PUSH1 0x64 SWAP1 REVERT JUMPDEST ISZERO PUSH2 0x50A9 JUMPI JUMP JUMPDEST PUSH1 0x40 MLOAD PUSH3 0x461BCD PUSH1 0xE5 SHL DUP2 MSTORE PUSH1 0x20 PUSH1 0x4 DUP3 ADD MSTORE PUSH1 0x19 PUSH1 0x24 DUP3 ADD MSTORE PUSH32 0x537570706C79436861696E3A20696E76616C696420726F6C6500000000000000 PUSH1 0x44 DUP3 ADD MSTORE PUSH1 0x64 SWAP1 REVERT JUMPDEST PUSH1 0x3 SLOAD DUP2 LT ISZERO PUSH2 0x4B66 JUMPI PUSH1 0x3 PUSH1 0x0 MSTORE PUSH32 0xC2575A0E9E593C00F959F8C92F12DB2869C3395A3B0502D05E2516446F71F85B ADD SWAP1 PUSH1 0x0 SWAP1 JUMP JUMPDEST PUSH1 0x3 SLOAD PUSH9 0x10000000000000000 DUP2 LT ISZERO PUSH2 0xC6D JUMPI DUP1 PUSH1 0x1 PUSH2 0x5149 SWAP3 ADD PUSH1 0x3 SSTORE PUSH2 0x50EE JUMP JUMPDEST PUSH1 0x1 DUP1 PUSH1 0xA0 SWAP5 SWAP4 SWAP5 SHL SUB DUP1 DUP5 SLOAD SWAP3 PUSH1 0x3 SHL SWAP4 AND DUP4 SHL SWAP3 SHL NOT AND OR SWAP1 SSTORE JUMP JUMPDEST ISZERO PUSH2 0x516E JUMPI JUMP JUMPDEST PUSH1 0x40 MLOAD PUSH3 0x461BCD PUSH1 0xE5 SHL DUP2 MSTORE PUSH1 0x20 PUSH1 0x4 DUP3 ADD MSTORE PUSH1 0x18 PUSH1 0x24 DUP3 ADD MSTORE PUSH32 0x537570706C79436861696E3A20696E76616C6964207174790000000000000000 PUSH1 0x44 DUP3 ADD MSTORE PUSH1 0x64 SWAP1 REVERT JUMPDEST DUP2 DUP2 MUL SWAP3 SWAP2 DUP2 ISZERO SWAP2 DUP5 DIV EQ OR ISZERO PUSH2 0x4B25 JUMPI JUMP JUMPDEST ISZERO PUSH2 0x51CD JUMPI JUMP JUMPDEST PUSH1 0x40 MLOAD PUSH3 0x461BCD PUSH1 0xE5 SHL DUP2 MSTORE PUSH1 0x20 PUSH1 0x4 DUP3 ADD MSTORE PUSH1 0x1E PUSH1 0x24 DUP3 ADD MSTORE PUSH32 0x537570706C79436861696E3A20696E636F7272656374207061796D656E740000 PUSH1 0x44 DUP3 ADD MSTORE PUSH1 0x64 SWAP1 REVERT JUMPDEST ISZERO PUSH2 0x5219 JUMPI JUMP JUMPDEST PUSH1 0x40 MLOAD PUSH3 0x461BCD PUSH1 0xE5 SHL DUP2 MSTORE PUSH1 0x20 PUSH1 0x4 DUP3 ADD MSTORE PUSH1 0x1B PUSH1 0x24 DUP3 ADD MSTORE PUSH32 0x537570706C79436861696E3A20756E6974206E6F7420666F756E640000000000 PUSH1 0x44 DUP3 ADD MSTORE PUSH1 0x64 SWAP1 REVERT JUMPDEST PUSH1 0x40 MLOAD SWAP1 PUSH2 0x526B DUP3 PUSH2 0x45D0 JUMP JUMPDEST DUP2 PUSH1 0xE0 PUSH1 0x0 SWAP2 DUP3 DUP2 MSTORE DUP3 PUSH1 0x20 DUP3 ADD MSTORE DUP3 PUSH1 0x40 DUP3 ADD MSTORE DUP3 PUSH1 0x60 DUP3 ADD MSTORE DUP3 PUSH1 0x80 DUP3 ADD MSTORE DUP3 PUSH1 0xA0 DUP3 ADD MSTORE PUSH1 0x60 PUSH1 0xC0 DUP3 ADD MSTORE ADD MSTORE JUMP JUMPDEST PUSH1 0x0 SWAP1 DUP2 MSTORE PUSH1 0x20 PUSH1 0xF DUP2 MSTORE PUSH1 0x40 SWAP3 DUP4 DUP4 KECCAK256 SWAP4 DUP5 SLOAD ISZERO PUSH2 0x56C4 JUMPI PUSH1 0x6 DUP6 ADD SWAP4 DUP5 SLOAD SWAP4 PUSH1 0xFF DUP6 AND PUSH2 0x5681 JUMPI PUSH1 0x1 SWAP7 DUP8 DUP2 ADD DUP1 SLOAD DUP5 MSTORE PUSH1 0xD DUP4 MSTORE DUP5 DUP5 KECCAK256 SWAP7 PUSH2 0x52E4 DUP9 SLOAD ISZERO ISZERO PUSH2 0x4FBE JUMP JUMPDEST PUSH1 0x2 DUP9 DUP2 ADD SLOAD PUSH1 0x1 PUSH1 0x1 PUSH1 0xA0 SHL SUB SWAP11 SWAP2 SWAP9 SWAP1 DUP12 AND CALLER SUB PUSH2 0x5632 JUMPI DUP12 SWAP1 ISZERO SWAP3 PUSH2 0xFF00 DUP5 ISZERO PUSH1 0x8 SHL AND SWAP1 PUSH2 0xFFFF NOT AND OR OR SWAP1 SSTORE PUSH2 0x55B0 JUMPI PUSH1 0x5 DUP3 ADD DUP5 DUP1 DUP1 DUP1 DUP5 SLOAD CALLER GAS CALL PUSH2 0x532E PUSH2 0x4D6D JUMP JUMPDEST POP ISZERO PUSH2 0x5592 JUMPI JUMPDEST POP PUSH1 0x3 DUP3 ADD SWAP2 DUP3 SLOAD PUSH1 0x3 DUP10 ADD SWAP1 DUP2 SLOAD DUP1 DUP3 GT PUSH2 0x5534 JUMPI SWAP1 PUSH2 0x5355 SWAP2 PUSH2 0x4D60 JUMP JUMPDEST DUP1 SWAP2 SSTORE ISZERO PUSH2 0x5520 JUMPI JUMPDEST PUSH2 0x5369 PUSH1 0x8 SLOAD PUSH2 0x4B16 JUMP JUMPDEST SWAP5 DUP6 PUSH1 0x8 SSTORE DUP6 DUP2 MSTORE PUSH1 0xE DUP6 MSTORE DUP7 DUP2 KECCAK256 SWAP6 DUP7 SSTORE DUP3 SLOAD DUP12 DUP8 ADD SSTORE DUP11 PUSH1 0x4 DUP10 DUP5 ADD SWAP6 DUP13 DUP8 SLOAD AND DUP12 DUP11 ADD SWAP1 PUSH1 0x1 PUSH1 0x1 PUSH1 0x60 SHL SUB PUSH1 0xA0 SHL DUP3 SLOAD AND OR SWAP1 SSTORE SLOAD SWAP11 PUSH1 0x3 DUP10 ADD SWAP12 DUP13 SSTORE ADD SLOAD SWAP9 PUSH1 0x4 DUP9 ADD SWAP10 DUP11 SSTORE PUSH1 0x5 DUP9 ADD SWAP3 PUSH1 0xFF NOT SWAP4 DUP4 DUP6 DUP3 SLOAD AND OR SWAP1 SSTORE PUSH1 0x0 PUSH1 0x6 DUP11 ADD PUSH2 0x53D5 DUP2 SLOAD PUSH2 0x4527 JUMP JUMPDEST PUSH1 0x1F DUP2 GT PUSH2 0x5502 JUMPI JUMPDEST POP SSTORE TIMESTAMP PUSH1 0x7 DUP11 ADD SSTORE DUP13 PUSH1 0xFF PUSH1 0x4 DUP8 ADD SLOAD AND DUP1 PUSH2 0x54C2 JUMPI JUMPDEST SWAP4 DUP12 SWAP11 SWAP9 SWAP7 SWAP3 SWAP4 DUP12 PUSH32 0xCDF39DA8F0023D4D1D194A43508204B3A50C233FA8270B04763D6410237BAD84 SWAP15 SWAP14 SWAP6 PUSH2 0x548C SWAP13 SWAP11 SWAP9 SWAP5 PUSH32 0xE78865C8CDCC5A0BB19EF6D81CD636FEA14BA8EF2C8D07F76F7681A2039156FD SWAP9 PUSH2 0x5491 JUMPI JUMPDEST POP POP POP POP POP POP SLOAD SWAP3 SLOAD SWAP12 DUP13 SWAP5 SLOAD AND SWAP13 DUP14 SWAP6 DUP3 MLOAD SWAP2 DUP3 MSTORE TIMESTAMP SWAP1 DUP3 ADD MSTORE LOG4 SLOAD SWAP5 SLOAD SWAP3 SLOAD SWAP2 MLOAD SWAP3 DUP4 MSTORE PUSH1 0x20 DUP4 ADD SWAP2 SWAP1 SWAP2 MSTORE TIMESTAMP PUSH1 0x40 DUP4 ADD MSTORE DUP2 SWAP1 PUSH1 0x60 DUP3 ADD SWAP1 JUMP JUMPDEST SUB SWAP1 LOG4 JUMP JUMPDEST PUSH1 0x4 SWAP4 DUP2 DUP13 SLOAD AND DUP4 MSTORE DUP13 MSTORE DUP3 DUP3 KECCAK256 PUSH1 0x3 DUP8 DUP3 SLOAD AND OR SWAP1 SSTORE DUP11 SLOAD AND DUP2 MSTORE KECCAK256 ADD SWAP2 DUP3 SLOAD AND OR SWAP1 SSTORE CODESIZE DUP15 DUP2 DUP16 DUP2 DUP7 SWAP2 PUSH2 0x544F JUMP JUMPDEST POP SWAP1 SWAP2 SWAP3 POP DUP7 SLOAD AND DUP2 MSTORE DUP2 DUP8 MSTORE PUSH1 0xFF DUP10 DUP3 KECCAK256 SLOAD AND PUSH1 0x6 DUP2 LT ISZERO PUSH2 0x54EE JUMPI DUP14 SWAP3 SWAP2 SWAP1 DUP14 SWAP1 PUSH1 0x3 EQ ISZERO PUSH2 0x53F5 JUMP JUMPDEST PUSH4 0x4E487B71 PUSH1 0xE0 SHL DUP3 MSTORE PUSH1 0x21 PUSH1 0x4 MSTORE PUSH1 0x24 DUP3 REVERT JUMPDEST DUP2 DUP5 MSTORE DUP11 DUP5 KECCAK256 PUSH2 0x551A SWAP2 PUSH1 0x1F ADD PUSH1 0x5 SHR DUP2 ADD SWAP1 PUSH2 0x4D04 JUMP JUMPDEST CODESIZE PUSH2 0x53DE JUMP JUMPDEST PUSH1 0x5 DUP9 ADD DUP1 SLOAD PUSH1 0xFF PUSH1 0xA8 SHL NOT AND SWAP1 SSTORE PUSH2 0x535E JUMP JUMPDEST DUP9 MLOAD PUSH3 0x461BCD PUSH1 0xE5 SHL DUP2 MSTORE PUSH1 0x4 DUP2 ADD DUP9 SWAP1 MSTORE PUSH1 0x31 PUSH1 0x24 DUP3 ADD MSTORE PUSH32 0x537570706C79436861696E3A207061636B20646F65736E277420686176652074 PUSH1 0x44 DUP3 ADD MSTORE PUSH17 0x686174206D756368207175616E74697479 PUSH1 0x78 SHL PUSH1 0x64 DUP3 ADD MSTORE PUSH1 0x84 SWAP1 REVERT JUMPDEST SLOAD CALLER DUP6 MSTORE PUSH1 0x11 DUP5 MSTORE PUSH2 0x55A8 DUP7 DUP7 KECCAK256 SWAP2 DUP3 SLOAD PUSH2 0x4C9E JUMP JUMPDEST SWAP1 SSTORE CODESIZE PUSH2 0x5335 JUMP JUMPDEST SWAP6 POP SWAP6 SWAP1 SWAP7 POP PUSH32 0xE78865C8CDCC5A0BB19EF6D81CD636FEA14BA8EF2C8D07F76F7681A2039156FD SWAP4 DUP7 ADD SWAP6 DUP2 DUP8 SLOAD AND DUP4 DUP1 DUP1 DUP1 PUSH1 0x5 DUP7 ADD SWAP5 DUP6 SLOAD SWAP1 GAS CALL PUSH2 0x55F5 PUSH2 0x4D6D JUMP JUMPDEST POP ISZERO PUSH2 0x5611 JUMPI JUMPDEST POP SLOAD SWAP5 SLOAD SWAP6 SLOAD AND SWAP6 DUP3 MLOAD SWAP2 DUP3 MSTORE TIMESTAMP SWAP1 DUP3 ADD MSTORE LOG4 JUMP JUMPDEST SLOAD DUP3 DUP9 SLOAD AND DUP5 MSTORE PUSH1 0x11 DUP10 MSTORE PUSH2 0x562A DUP6 DUP6 KECCAK256 SWAP2 DUP3 SLOAD PUSH2 0x4C9E JUMP JUMPDEST SWAP1 SSTORE CODESIZE PUSH2 0x55FC JUMP JUMPDEST DUP8 MLOAD PUSH3 0x461BCD PUSH1 0xE5 SHL DUP2 MSTORE PUSH1 0x4 DUP2 ADD DUP8 SWAP1 MSTORE PUSH1 0x22 PUSH1 0x24 DUP3 ADD MSTORE PUSH32 0x537570706C79436861696E3A2063616C6C6572206E6F74207061636B206F776E PUSH1 0x44 DUP3 ADD MSTORE PUSH2 0x32B9 PUSH1 0xF1 SHL PUSH1 0x64 DUP3 ADD MSTORE PUSH1 0x84 SWAP1 REVERT JUMPDEST PUSH1 0x64 SWAP1 DUP4 MLOAD SWAP1 PUSH3 0x461BCD PUSH1 0xE5 SHL DUP3 MSTORE PUSH1 0x4 DUP3 ADD MSTORE PUSH1 0x1D PUSH1 0x24 DUP3 ADD MSTORE PUSH32 0x537570706C79436861696E3A20616C7265616479207265736F6C766564000000 PUSH1 0x44 DUP3 ADD MSTORE REVERT JUMPDEST MLOAD PUSH3 0x461BCD PUSH1 0xE5 SHL DUP2 MSTORE PUSH1 0x4 DUP2 ADD DUP4 SWAP1 MSTORE PUSH1 0x1E PUSH1 0x24 DUP3 ADD MSTORE PUSH32 0x537570706C79436861696E3A2072657175657374206E6F7420666F756E640000 PUSH1 0x44 DUP3 ADD MSTORE PUSH1 0x64 SWAP1 REVERT JUMPDEST SWAP1 PUSH2 0x5711 DUP3 PUSH2 0x4B3B JUMP JUMPDEST PUSH2 0x571E PUSH1 0x40 MLOAD SWAP2 DUP3 PUSH2 0x45EC JUMP JUMPDEST DUP3 DUP2 MSTORE DUP1 SWAP3 PUSH2 0x572F PUSH1 0x1F NOT SWAP2 PUSH2 0x4B3B JUMP JUMPDEST ADD SWAP1 PUSH1 0x20 CALLDATASIZE SWAP2 ADD CALLDATACOPY JUMP JUMPDEST SWAP1 PUSH2 0x5743 DUP3 PUSH2 0x4B3B JUMP JUMPDEST PUSH2 0x5750 PUSH1 0x40 MLOAD SWAP2 DUP3 PUSH2 0x45EC JUMP JUMPDEST DUP3 DUP2 MSTORE DUP1 SWAP3 PUSH2 0x5761 PUSH1 0x1F NOT SWAP2 PUSH2 0x4B3B JUMP JUMPDEST ADD SWAP1 PUSH1 0x0 JUMPDEST DUP3 DUP2 LT PUSH2 0x5772 JUMPI POP POP POP JUMP JUMPDEST PUSH1 0x20 SWAP1 PUSH2 0x577D PUSH2 0x4DF1 JUMP JUMPDEST DUP3 DUP3 DUP6 ADD ADD MSTORE ADD PUSH2 0x5766 JUMP JUMPDEST PUSH1 0x2 PUSH1 0x1 SLOAD EQ PUSH2 0x579A JUMPI PUSH1 0x2 PUSH1 0x1 SSTORE JUMP JUMPDEST PUSH1 0x40 MLOAD PUSH3 0x461BCD PUSH1 0xE5 SHL DUP2 MSTORE PUSH1 0x20 PUSH1 0x4 DUP3 ADD MSTORE PUSH1 0x1F PUSH1 0x24 DUP3 ADD MSTORE PUSH32 0x5265656E7472616E637947756172643A207265656E7472616E742063616C6C00 PUSH1 0x44 DUP3 ADD MSTORE PUSH1 0x64 SWAP1 REVERT JUMPDEST PUSH1 0x0 SLOAD PUSH1 0x1 PUSH1 0x1 PUSH1 0xA0 SHL SUB AND CALLER SUB PUSH2 0x57F3 JUMPI JUMP JUMPDEST PUSH1 0x64 PUSH1 0x40 MLOAD PUSH3 0x461BCD PUSH1 0xE5 SHL DUP2 MSTORE PUSH1 0x20 PUSH1 0x4 DUP3 ADD MSTORE PUSH1 0x20 PUSH1 0x24 DUP3 ADD MSTORE PUSH32 0x4F776E61626C653A2063616C6C6572206973206E6F7420746865206F776E6572 PUSH1 0x44 DUP3 ADD MSTORE REVERT INVALID LOG2 PUSH5 0x6970667358 0x22 SLT KECCAK256 CALLDATALOAD CHAINID DUP6 0xE0 0xF8 DUP5 CODESIZE CALLDATACOPY JUMPI POP TSTORE 0x4D SELFBALANCE JUMP 0xB3 0xE9 0xCD 0xC1 DUP11 0xD5 0xCC SWAP4 0xEC 0xA8 NUMBER 0x1F ISZERO DUP9 SWAP15 SWAP13 SWAP16 0xCF PUSH5 0x736F6C6343 STOP ADDMOD XOR STOP CALLER "},"methodIdentifiers":{"addProduct(string,string,uint256,uint256,uint256,string,uint8,string)":"d3389b85","approveBuyRequest(uint256,bool)":"c22fb929","approveRole(address,uint8)":"71f3c4ef","buyFarmerBatch(uint256,uint256)":"aa46b66f","buyRequests(uint256)":"98a45adb","buyRetailUnit(uint256,uint256)":"89a64d4a","createBuyRequest(uint256,uint256,bool)":"a574e0c8","distributorBatches(uint256)":"fa2a5d75","farmerProducts(uint256)":"54ad290e","getAllUsers()":"e2842d79","getBatchTrace(uint256)":"66908680","getDistributorInventory(address)":"a0c99969","getMyProducts()":"fdca4ca3","getPackOrigin(uint256)":"ef9d8dca","getPendingRequestsForDistributor(address)":"c2afc793","getPendingUsers()":"fe09b5ec","getPurchaseHistory(address)":"21034444","getRetailerInventory(address)":"98383922","getUnitTrace(uint256)":"b4bc6fae","getUserCount()":"b5cb15f7","getUserInfo(address)":"6386c1c7","getUsersByRole(uint8)":"ddb7a4de","listPack(uint256,uint8,address)":"67d0de37","listUnitForCustomers(uint256,uint8)":"949fb8ba","owner()":"8da5cb5b","pendingWithdrawals(address)":"f3f43703","purchaseRecords(uint256)":"76b01941","renounceOwnership()":"715018a6","requestRole(uint8,string,string)":"b0bf3dac","retailPacks(uint256)":"870d09c5","retailUnits(uint256)":"3b510b1d","revokeRole(address)":"80e52e3f","splitDistributorBatch(uint256,uint256[],uint256[],string[])":"2a1c2351","splitRetailUnit(uint256,uint256[],uint256[],string[])":"e594c648","totalBuyRequests()":"fb04dd4b","totalDistributorBatches()":"95ce0981","totalFarmerProducts()":"a40b72e1","totalPurchases()":"5962a941","totalRetailPacks()":"ff3fa4b9","totalRetailUnits()":"25159805","transferOwnership(address)":"f2fde38b","updateProduct(uint256,uint256,uint256,uint8,string,bool)":"4c041cd9","users(address)":"a87430ba","withdraw()":"3ccfd60b"}}}}}