{
  "_format": "hh-sol-artifact-1",
  "contractName": "SupplyChainRoles",
  "sourceName": "contracts/SupplyChain.sol",
  "abi": [
    {
      "inputs": [],
      "stateMutability": "nonpayable",
      "type": "constructor"
    },
    {
      "anonymous": false,
      "inputs": [
        {
          "indexed": true,
          "internalType": "uint256",
          "name": "distributionId",
          "type": "uint256"
        },
        {
          "indexed": true,
          "internalType": "address",
          "name": "distributor",
          "type": "address"
        }
      ],
      "name": "DistributionAdded",
      "type": "event"
    },
    {
      "anonymous": false,
      "inputs": [
        {
          "indexed": true,
          "internalType": "uint256",
          "name": "productId",
          "type": "uint256"
        },
        {
          "indexed": true,
          "internalType": "address",
          "name": "farmer",
          "type": "address"
        }
      ],
      "name": "ProductAdded",
      "type": "event"
    },
    {
      "anonymous": false,
      "inputs": [
        {
          "indexed": true,
          "internalType": "address",
          "name": "user",
          "type": "address"
        },
        {
          "indexed": false,
          "internalType": "enum SupplyChainRoles.Role",
          "name": "role",
          "type": "uint8"
        }
      ],
      "name": "RoleApproved",
      "type": "event"
    },
    {
      "anonymous": false,
      "inputs": [
        {
          "indexed": true,
          "internalType": "address",
          "name": "user",
          "type": "address"
        },
        {
          "indexed": false,
          "internalType": "enum SupplyChainRoles.Role",
          "name": "role",
          "type": "uint8"
        },
        {
          "indexed": false,
          "internalType": "string",
          "name": "id",
          "type": "string"
        },
        {
          "indexed": false,
          "internalType": "string",
          "name": "ip",
          "type": "string"
        }
      ],
      "name": "RoleRequested",
      "type": "event"
    },
    {
      "inputs": [
        {
          "internalType": "string",
          "name": "fromPlace",
          "type": "string"
        },
        {
          "internalType": "string",
          "name": "toPlace",
          "type": "string"
        },
        {
          "internalType": "uint256",
          "name": "price",
          "type": "uint256"
        }
      ],
      "name": "addDistribution",
      "outputs": [],
      "stateMutability": "nonpayable",
      "type": "function"
    },
    {
      "inputs": [
        {
          "internalType": "string",
          "name": "name",
          "type": "string"
        },
        {
          "internalType": "string",
          "name": "cropMonth",
          "type": "string"
        },
        {
          "internalType": "uint256",
          "name": "daysToFinish",
          "type": "uint256"
        },
        {
          "internalType": "uint256",
          "name": "price",
          "type": "uint256"
        }
      ],
      "name": "addProduct",
      "outputs": [],
      "stateMutability": "nonpayable",
      "type": "function"
    },
    {
      "inputs": [],
      "name": "admin",
      "outputs": [
        {
          "internalType": "address",
          "name": "",
          "type": "address"
        }
      ],
      "stateMutability": "view",
      "type": "function"
    },
    {
      "inputs": [
        {
          "internalType": "address",
          "name": "userAddr",
          "type": "address"
        },
        {
          "internalType": "enum SupplyChainRoles.Role",
          "name": "intendedRole",
          "type": "uint8"
        }
      ],
      "name": "approveRole",
      "outputs": [],
      "stateMutability": "nonpayable",
      "type": "function"
    },
    {
      "inputs": [],
      "name": "distributionCount",
      "outputs": [
        {
          "internalType": "uint256",
          "name": "",
          "type": "uint256"
        }
      ],
      "stateMutability": "view",
      "type": "function"
    },
    {
      "inputs": [
        {
          "internalType": "uint256",
          "name": "",
          "type": "uint256"
        }
      ],
      "name": "distributions",
      "outputs": [
        {
          "internalType": "uint256",
          "name": "id",
          "type": "uint256"
        },
        {
          "internalType": "string",
          "name": "fromPlace",
          "type": "string"
        },
        {
          "internalType": "string",
          "name": "toPlace",
          "type": "string"
        },
        {
          "internalType": "uint256",
          "name": "price",
          "type": "uint256"
        },
        {
          "internalType": "address",
          "name": "distributorAddr",
          "type": "address"
        },
        {
          "internalType": "uint256",
          "name": "addedAt",
          "type": "uint256"
        }
      ],
      "stateMutability": "view",
      "type": "function"
    },
    {
      "inputs": [],
      "name": "distributorCount",
      "outputs": [
        {
          "internalType": "uint256",
          "name": "",
          "type": "uint256"
        }
      ],
      "stateMutability": "view",
      "type": "function"
    },
    {
      "inputs": [],
      "name": "farmerCount",
      "outputs": [
        {
          "internalType": "uint256",
          "name": "",
          "type": "uint256"
        }
      ],
      "stateMutability": "view",
      "type": "function"
    },
    {
      "inputs": [
        {
          "internalType": "uint256",
          "name": "distId",
          "type": "uint256"
        }
      ],
      "name": "getDistribution",
      "outputs": [
        {
          "components": [
            {
              "internalType": "uint256",
              "name": "id",
              "type": "uint256"
            },
            {
              "internalType": "string",
              "name": "fromPlace",
              "type": "string"
            },
            {
              "internalType": "string",
              "name": "toPlace",
              "type": "string"
            },
            {
              "internalType": "uint256",
              "name": "price",
              "type": "uint256"
            },
            {
              "internalType": "address",
              "name": "distributorAddr",
              "type": "address"
            },
            {
              "internalType": "uint256",
              "name": "addedAt",
              "type": "uint256"
            }
          ],
          "internalType": "struct SupplyChainRoles.Distribution",
          "name": "",
          "type": "tuple"
        }
      ],
      "stateMutability": "view",
      "type": "function"
    },
    {
      "inputs": [],
      "name": "getPendingDistributors",
      "outputs": [
        {
          "internalType": "address[]",
          "name": "",
          "type": "address[]"
        }
      ],
      "stateMutability": "view",
      "type": "function"
    },
    {
      "inputs": [],
      "name": "getPendingFarmers",
      "outputs": [
        {
          "internalType": "address[]",
          "name": "",
          "type": "address[]"
        }
      ],
      "stateMutability": "view",
      "type": "function"
    },
    {
      "inputs": [
        {
          "internalType": "uint256",
          "name": "productId",
          "type": "uint256"
        }
      ],
      "name": "getProduct",
      "outputs": [
        {
          "components": [
            {
              "internalType": "uint256",
              "name": "id",
              "type": "uint256"
            },
            {
              "internalType": "string",
              "name": "name",
              "type": "string"
            },
            {
              "internalType": "string",
              "name": "cropMonth",
              "type": "string"
            },
            {
              "internalType": "uint256",
              "name": "daysToFinish",
              "type": "uint256"
            },
            {
              "internalType": "uint256",
              "name": "price",
              "type": "uint256"
            },
            {
              "internalType": "address",
              "name": "farmerAddr",
              "type": "address"
            },
            {
              "internalType": "uint256",
              "name": "addedAt",
              "type": "uint256"
            }
          ],
          "internalType": "struct SupplyChainRoles.Product",
          "name": "",
          "type": "tuple"
        }
      ],
      "stateMutability": "view",
      "type": "function"
    },
    {
      "inputs": [
        {
          "internalType": "address",
          "name": "userAddr",
          "type": "address"
        }
      ],
      "name": "getUserInfo",
      "outputs": [
        {
          "components": [
            {
              "internalType": "enum SupplyChainRoles.Role",
              "name": "role",
              "type": "uint8"
            },
            {
              "internalType": "bool",
              "name": "requested",
              "type": "bool"
            },
            {
              "internalType": "string",
              "name": "id",
              "type": "string"
            },
            {
              "internalType": "string",
              "name": "ip",
              "type": "string"
            },
            {
              "internalType": "uint256",
              "name": "appliedAt",
              "type": "uint256"
            },
            {
              "internalType": "bool",
              "name": "exists",
              "type": "bool"
            }
          ],
          "internalType": "struct SupplyChainRoles.UserInfo",
          "name": "",
          "type": "tuple"
        }
      ],
      "stateMutability": "view",
      "type": "function"
    },
    {
      "inputs": [
        {
          "internalType": "uint256",
          "name": "",
          "type": "uint256"
        }
      ],
      "name": "pendingDistributors",
      "outputs": [
        {
          "internalType": "address",
          "name": "",
          "type": "address"
        }
      ],
      "stateMutability": "view",
      "type": "function"
    },
    {
      "inputs": [
        {
          "internalType": "uint256",
          "name": "",
          "type": "uint256"
        }
      ],
      "name": "pendingFarmers",
      "outputs": [
        {
          "internalType": "address",
          "name": "",
          "type": "address"
        }
      ],
      "stateMutability": "view",
      "type": "function"
    },
    {
      "inputs": [],
      "name": "productCount",
      "outputs": [
        {
          "internalType": "uint256",
          "name": "",
          "type": "uint256"
        }
      ],
      "stateMutability": "view",
      "type": "function"
    },
    {
      "inputs": [
        {
          "internalType": "uint256",
          "name": "",
          "type": "uint256"
        }
      ],
      "name": "products",
      "outputs": [
        {
          "internalType": "uint256",
          "name": "id",
          "type": "uint256"
        },
        {
          "internalType": "string",
          "name": "name",
          "type": "string"
        },
        {
          "internalType": "string",
          "name": "cropMonth",
          "type": "string"
        },
        {
          "internalType": "uint256",
          "name": "daysToFinish",
          "type": "uint256"
        },
        {
          "internalType": "uint256",
          "name": "price",
          "type": "uint256"
        },
        {
          "internalType": "address",
          "name": "farmerAddr",
          "type": "address"
        },
        {
          "internalType": "uint256",
          "name": "addedAt",
          "type": "uint256"
        }
      ],
      "stateMutability": "view",
      "type": "function"
    },
    {
      "inputs": [
        {
          "internalType": "enum SupplyChainRoles.Role",
          "name": "role",
          "type": "uint8"
        },
        {
          "internalType": "string",
          "name": "id",
          "type": "string"
        },
        {
          "internalType": "string",
          "name": "ip",
          "type": "string"
        }
      ],
      "name": "requestRole",
      "outputs": [],
      "stateMutability": "nonpayable",
      "type": "function"
    },
    {
      "inputs": [
        {
          "internalType": "address",
          "name": "",
          "type": "address"
        }
      ],
      "name": "users",
      "outputs": [
        {
          "internalType": "enum SupplyChainRoles.Role",
          "name": "role",
          "type": "uint8"
        },
        {
          "internalType": "bool",
          "name": "requested",
          "type": "bool"
        },
        {
          "internalType": "string",
          "name": "id",
          "type": "string"
        },
        {
          "internalType": "string",
          "name": "ip",
          "type": "string"
        },
        {
          "internalType": "uint256",
          "name": "appliedAt",
          "type": "uint256"
        },
        {
          "internalType": "bool",
          "name": "exists",
          "type": "bool"
        }
      ],
      "stateMutability": "view",
      "type": "function"
    }
  ],
  "bytecode": "0x60806040523480156200001157600080fd5b50336000806101000a81548173ffffffffffffffffffffffffffffffffffffffff021916908373ffffffffffffffffffffffffffffffffffffffff1602179055506040518060c00160405280600380811115620000735762000072620001ce565b5b815260200160001515815260200160405180602001604052806000815250815260200160405180602001604052806000815250815260200142815260200160011515815250600160008060009054906101000a900473ffffffffffffffffffffffffffffffffffffffff1673ffffffffffffffffffffffffffffffffffffffff1673ffffffffffffffffffffffffffffffffffffffff16815260200190815260200160002060008201518160000160006101000a81548160ff02191690836003811115620001465762000145620001ce565b5b021790555060208201518160000160016101000a81548160ff021916908315150217905550604082015181600101908162000182919062000477565b5060608201518160020190816200019a919062000477565b506080820151816003015560a08201518160040160006101000a81548160ff0219169083151502179055509050506200055e565b7f4e487b7100000000000000000000000000000000000000000000000000000000600052602160045260246000fd5b600081519050919050565b7f4e487b7100000000000000000000000000000000000000000000000000000000600052604160045260246000fd5b7f4e487b7100000000000000000000000000000000000000000000000000000000600052602260045260246000fd5b600060028204905060018216806200027f57607f821691505b60208210810362000295576200029462000237565b5b50919050565b60008190508160005260206000209050919050565b60006020601f8301049050919050565b600082821b905092915050565b600060088302620002ff7fffffffffffffffffffffffffffffffffffffffffffffffffffffffffffffffff82620002c0565b6200030b8683620002c0565b95508019841693508086168417925050509392505050565b6000819050919050565b6000819050919050565b600062000358620003526200034c8462000323565b6200032d565b62000323565b9050919050565b6000819050919050565b620003748362000337565b6200038c62000383826200035f565b848454620002cd565b825550505050565b600090565b620003a362000394565b620003b081848462000369565b505050565b5b81811015620003d857620003cc60008262000399565b600181019050620003b6565b5050565b601f8211156200042757620003f1816200029b565b620003fc84620002b0565b810160208510156200040c578190505b620004246200041b85620002b0565b830182620003b5565b50505b505050565b600082821c905092915050565b60006200044c600019846008026200042c565b1980831691505092915050565b600062000467838362000439565b9150826002028217905092915050565b6200048282620001fd565b67ffffffffffffffff8111156200049e576200049d62000208565b5b620004aa825462000266565b620004b7828285620003dc565b600060209050601f831160018114620004ef5760008415620004da578287015190505b620004e6858262000459565b86555062000556565b601f198416620004ff866200029b565b60005b82811015620005295784890151825560018201915060208501945060208101905062000502565b8683101562000549578489015162000545601f89168262000439565b8355505b6001600288020188555050505b505050505050565b613147806200056e6000396000f3fe608060405234801561001057600080fd5b50600436106101215760003560e01c8063a87430ba116100ad578063c65c3d9511610071578063c65c3d9514610364578063d22b541614610382578063e0f6ef87146103a0578063f0e6067a146103be578063f851a440146103da57610121565b8063a87430ba146102a7578063b0bf3dac146102dc578063b2e231bb146102f8578063b9db15b414610316578063bd45b3971461034657610121565b80633b345a87116100f45780633b345a87146101c05780634487d3df146101f05780636386c1c71461022557806371f3c4ef146102555780637acc0b201461027157610121565b806301cecd14146101265780630b0a26ba14610142578063380bb1d4146101725780633ac140e8146101a2575b600080fd5b610140600480360381019061013b9190612028565b6103f8565b005b61015c600480360381019061015791906120cf565b61069c565b604051610169919061213d565b60405180910390f35b61018c600480360381019061018791906120cf565b6106db565b604051610199919061213d565b60405180910390f35b6101aa61071a565b6040516101b79190612167565b60405180910390f35b6101da60048036038101906101d591906120cf565b610720565b6040516101e791906122c0565b60405180910390f35b61020a600480360381019061020591906120cf565b6108e5565b60405161021c9695949392919061232c565b60405180910390f35b61023f600480360381019061023a91906123c7565b610a51565b60405161024c9190612516565b60405180910390f35b61026f600480360381019061026a919061255d565b610c49565b005b61028b600480360381019061028691906120cf565b610f8b565b60405161029e979695949392919061259d565b60405180910390f35b6102c160048036038101906102bc91906123c7565b6110fd565b6040516102d396959493929190612638565b60405180910390f35b6102f660048036038101906102f191906126a7565b611270565b005b610300611757565b60405161030d91906127eb565b60405180910390f35b610330600480360381019061032b91906120cf565b6117e5565b60405161033d91906128b0565b60405180910390f35b61034e6119b4565b60405161035b9190612167565b60405180910390f35b61036c6119ba565b6040516103799190612167565b60405180910390f35b61038a6119c0565b60405161039791906127eb565b60405180910390f35b6103a8611a4e565b6040516103b59190612167565b60405180910390f35b6103d860048036038101906103d391906128d2565b611a54565b005b6103e2611ce7565b6040516103ef919061213d565b60405180910390f35b600180600381111561040d5761040c6123f4565b5b600160003373ffffffffffffffffffffffffffffffffffffffff1673ffffffffffffffffffffffffffffffffffffffff16815260200190815260200160002060000160009054906101000a900460ff16600381111561046f5761046e6123f4565b5b146104af576040517f08c379a00000000000000000000000000000000000000000000000000000000081526004016104a6906129b3565b60405180910390fd5b600660008154809291906104c290612a02565b91905055506040518060e00160405280600654815260200188888080601f016020809104026020016040519081016040528093929190818152602001838380828437600081840152601f19601f82011690508083019250505050505050815260200186868080601f016020809104026020016040519081016040528093929190818152602001838380828437600081840152601f19601f8201169050808301925050505050505081526020018481526020018381526020013373ffffffffffffffffffffffffffffffffffffffff168152602001428152506008600060065481526020019081526020016000206000820151816000015560208201518160010190816105ce9190612c85565b5060408201518160020190816105e49190612c85565b50606082015181600301556080820151816004015560a08201518160050160006101000a81548173ffffffffffffffffffffffffffffffffffffffff021916908373ffffffffffffffffffffffffffffffffffffffff16021790555060c082015181600601559050503373ffffffffffffffffffffffffffffffffffffffff166006547f61394ce83505fd053362beef6b6476dc5cdd4e4dd515dd026ee6ed7f4d473cd060405160405180910390a350505050505050565b600281815481106106ac57600080fd5b906000526020600020016000915054906101000a900473ffffffffffffffffffffffffffffffffffffffff1681565b600381815481106106eb57600080fd5b906000526020600020016000915054906101000a900473ffffffffffffffffffffffffffffffffffffffff1681565b60055481565b610728611e98565b600960008381526020019081526020016000206040518060c00160405290816000820154815260200160018201805461076090612aa8565b80601f016020809104026020016040519081016040528092919081815260200182805461078c90612aa8565b80156107d95780601f106107ae576101008083540402835291602001916107d9565b820191906000526020600020905b8154815290600101906020018083116107bc57829003601f168201915b505050505081526020016002820180546107f290612aa8565b80601f016020809104026020016040519081016040528092919081815260200182805461081e90612aa8565b801561086b5780601f106108405761010080835404028352916020019161086b565b820191906000526020600020905b81548152906001019060200180831161084e57829003601f168201915b50505050508152602001600382015481526020016004820160009054906101000a900473ffffffffffffffffffffffffffffffffffffffff1673ffffffffffffffffffffffffffffffffffffffff1673ffffffffffffffffffffffffffffffffffffffff1681526020016005820154815250509050919050565b600960205280600052604060002060009150905080600001549080600101805461090e90612aa8565b80601f016020809104026020016040519081016040528092919081815260200182805461093a90612aa8565b80156109875780601f1061095c57610100808354040283529160200191610987565b820191906000526020600020905b81548152906001019060200180831161096a57829003601f168201915b50505050509080600201805461099c90612aa8565b80601f01602080910402602001604051908101604052809291908181526020018280546109c890612aa8565b8015610a155780601f106109ea57610100808354040283529160200191610a15565b820191906000526020600020905b8154815290600101906020018083116109f857829003601f168201915b5050505050908060030154908060040160009054906101000a900473ffffffffffffffffffffffffffffffffffffffff16908060050154905086565b610a59611ee4565b600160008373ffffffffffffffffffffffffffffffffffffffff1673ffffffffffffffffffffffffffffffffffffffff1681526020019081526020016000206040518060c00160405290816000820160009054906101000a900460ff166003811115610ac857610ac76123f4565b5b6003811115610ada57610ad96123f4565b5b81526020016000820160019054906101000a900460ff16151515158152602001600182018054610b0990612aa8565b80601f0160208091040260200160405190810160405280929190818152602001828054610b3590612aa8565b8015610b825780601f10610b5757610100808354040283529160200191610b82565b820191906000526020600020905b815481529060010190602001808311610b6557829003601f168201915b50505050508152602001600282018054610b9b90612aa8565b80601f0160208091040260200160405190810160405280929190818152602001828054610bc790612aa8565b8015610c145780601f10610be957610100808354040283529160200191610c14565b820191906000526020600020905b815481529060010190602001808311610bf757829003601f168201915b50505050508152602001600382015481526020016004820160009054906101000a900460ff1615151515815250509050919050565b60008054906101000a900473ffffffffffffffffffffffffffffffffffffffff1673ffffffffffffffffffffffffffffffffffffffff163373ffffffffffffffffffffffffffffffffffffffff1614610cd7576040517f08c379a0000000000000000000000000000000000000000000000000000000008152600401610cce90612da3565b60405180910390fd5b600160008373ffffffffffffffffffffffffffffffffffffffff1673ffffffffffffffffffffffffffffffffffffffff16815260200190815260200160002060000160019054906101000a900460ff16610d66576040517f08c379a0000000000000000000000000000000000000000000000000000000008152600401610d5d90612e0f565b60405180910390fd5b60016003811115610d7a57610d796123f4565b5b816003811115610d8d57610d8c6123f4565b5b1480610dbd575060026003811115610da857610da76123f4565b5b816003811115610dbb57610dba6123f4565b5b145b610dfc576040517f08c379a0000000000000000000000000000000000000000000000000000000008152600401610df390612e7b565b60405180910390fd5b80600160008473ffffffffffffffffffffffffffffffffffffffff1673ffffffffffffffffffffffffffffffffffffffff16815260200190815260200160002060000160006101000a81548160ff02191690836003811115610e6157610e606123f4565b5b02179055506000600160008473ffffffffffffffffffffffffffffffffffffffff1673ffffffffffffffffffffffffffffffffffffffff16815260200190815260200160002060000160016101000a81548160ff02191690831515021790555060016003811115610ed557610ed46123f4565b5b816003811115610ee857610ee76123f4565b5b03610f155760046000815480929190610f0090612a02565b9190505550610f10600283611d0b565b610f39565b60056000815480929190610f2890612a02565b9190505550610f38600383611d0b565b5b8173ffffffffffffffffffffffffffffffffffffffff167f042f52f18ca9258767cef802b6283a39f6c1053fbd02bee367edc363da679f8682604051610f7f9190612e9b565b60405180910390a25050565b6008602052806000526040600020600091509050806000015490806001018054610fb490612aa8565b80601f0160208091040260200160405190810160405280929190818152602001828054610fe090612aa8565b801561102d5780601f106110025761010080835404028352916020019161102d565b820191906000526020600020905b81548152906001019060200180831161101057829003601f168201915b50505050509080600201805461104290612aa8565b80601f016020809104026020016040519081016040528092919081815260200182805461106e90612aa8565b80156110bb5780601f10611090576101008083540402835291602001916110bb565b820191906000526020600020905b81548152906001019060200180831161109e57829003601f168201915b5050505050908060030154908060040154908060050160009054906101000a900473ffffffffffffffffffffffffffffffffffffffff16908060060154905087565b60016020528060005260406000206000915090508060000160009054906101000a900460ff16908060000160019054906101000a900460ff169080600101805461114690612aa8565b80601f016020809104026020016040519081016040528092919081815260200182805461117290612aa8565b80156111bf5780601f10611194576101008083540402835291602001916111bf565b820191906000526020600020905b8154815290600101906020018083116111a257829003601f168201915b5050505050908060020180546111d490612aa8565b80601f016020809104026020016040519081016040528092919081815260200182805461120090612aa8565b801561124d5780601f106112225761010080835404028352916020019161124d565b820191906000526020600020905b81548152906001019060200180831161123057829003601f168201915b5050505050908060030154908060040160009054906101000a900460ff16905086565b60016003811115611284576112836123f4565b5b856003811115611297576112966123f4565b5b14806112c75750600260038111156112b2576112b16123f4565b5b8560038111156112c5576112c46123f4565b5b145b611306576040517f08c379a00000000000000000000000000000000000000000000000000000000081526004016112fd90612f02565b60405180910390fd5b6000600381111561131a576113196123f4565b5b600160003373ffffffffffffffffffffffffffffffffffffffff1673ffffffffffffffffffffffffffffffffffffffff16815260200190815260200160002060000160009054906101000a900460ff16600381111561137c5761137b6123f4565b5b146113bc576040517f08c379a00000000000000000000000000000000000000000000000000000000081526004016113b390612f6e565b60405180910390fd5b600160003373ffffffffffffffffffffffffffffffffffffffff1673ffffffffffffffffffffffffffffffffffffffff16815260200190815260200160002060000160019054906101000a900460ff161561144c576040517f08c379a000000000000000000000000000000000000000000000000000000000815260040161144390612fda565b60405180910390fd5b6040518060c001604052806000600381111561146b5761146a6123f4565b5b815260200160011515815260200185858080601f016020809104026020016040519081016040528093929190818152602001838380828437600081840152601f19601f82011690508083019250505050505050815260200183838080601f016020809104026020016040519081016040528093929190818152602001838380828437600081840152601f19601f82011690508083019250505050505050815260200142815260200160011515815250600160003373ffffffffffffffffffffffffffffffffffffffff1673ffffffffffffffffffffffffffffffffffffffff16815260200190815260200160002060008201518160000160006101000a81548160ff02191690836003811115611584576115836123f4565b5b021790555060208201518160000160016101000a81548160ff02191690831515021790555060408201518160010190816115be9190612c85565b5060608201518160020190816115d49190612c85565b506080820151816003015560a08201518160040160006101000a81548160ff02191690831515021790555090505060016003811115611616576116156123f4565b5b856003811115611629576116286123f4565b5b03611696576002339080600181540180825580915050600190039060005260206000200160009091909190916101000a81548173ffffffffffffffffffffffffffffffffffffffff021916908373ffffffffffffffffffffffffffffffffffffffff1602179055506116fa565b6003339080600181540180825580915050600190039060005260206000200160009091909190916101000a81548173ffffffffffffffffffffffffffffffffffffffff021916908373ffffffffffffffffffffffffffffffffffffffff1602179055505b3373ffffffffffffffffffffffffffffffffffffffff167f4fbdf686719d8628aae4441e3ebfb6dc8f04faeb22793d8ad95855249316db458686868686604051611748959493929190613036565b60405180910390a25050505050565b606060038054806020026020016040519081016040528092919081815260200182805480156117db57602002820191906000526020600020905b8160009054906101000a900473ffffffffffffffffffffffffffffffffffffffff1673ffffffffffffffffffffffffffffffffffffffff1681526020019060010190808311611791575b5050505050905090565b6117ed611f30565b600860008381526020019081526020016000206040518060e00160405290816000820154815260200160018201805461182590612aa8565b80601f016020809104026020016040519081016040528092919081815260200182805461185190612aa8565b801561189e5780601f106118735761010080835404028352916020019161189e565b820191906000526020600020905b81548152906001019060200180831161188157829003601f168201915b505050505081526020016002820180546118b790612aa8565b80601f01602080910402602001604051908101604052809291908181526020018280546118e390612aa8565b80156119305780601f1061190557610100808354040283529160200191611930565b820191906000526020600020905b81548152906001019060200180831161191357829003601f168201915b5050505050815260200160038201548152602001600482015481526020016005820160009054906101000a900473ffffffffffffffffffffffffffffffffffffffff1673ffffffffffffffffffffffffffffffffffffffff1673ffffffffffffffffffffffffffffffffffffffff1681526020016006820154815250509050919050565b60045481565b60075481565b60606002805480602002602001604051908101604052809291908181526020018280548015611a4457602002820191906000526020600020905b8160009054906101000a900473ffffffffffffffffffffffffffffffffffffffff1673ffffffffffffffffffffffffffffffffffffffff16815260200190600101908083116119fa575b5050505050905090565b60065481565b6002806003811115611a6957611a686123f4565b5b600160003373ffffffffffffffffffffffffffffffffffffffff1673ffffffffffffffffffffffffffffffffffffffff16815260200190815260200160002060000160009054906101000a900460ff166003811115611acb57611aca6123f4565b5b14611b0b576040517f08c379a0000000000000000000000000000000000000000000000000000000008152600401611b02906129b3565b60405180910390fd5b60076000815480929190611b1e90612a02565b91905055506040518060c00160405280600754815260200187878080601f016020809104026020016040519081016040528093929190818152602001838380828437600081840152601f19601f82011690508083019250505050505050815260200185858080601f016020809104026020016040519081016040528093929190818152602001838380828437600081840152601f19601f8201169050808301925050505050505081526020018381526020013373ffffffffffffffffffffffffffffffffffffffff16815260200142815250600960006007548152602001908152602001600020600082015181600001556020820151816001019081611c249190612c85565b506040820151816002019081611c3a9190612c85565b506060820151816003015560808201518160040160006101000a81548173ffffffffffffffffffffffffffffffffffffffff021916908373ffffffffffffffffffffffffffffffffffffffff16021790555060a082015181600501559050503373ffffffffffffffffffffffffffffffffffffffff166007547f591f9063c8be6c78f832a704f56089ff41d9d1efc05704b37915fc1b25b0625360405160405180910390a3505050505050565b60008054906101000a900473ffffffffffffffffffffffffffffffffffffffff1681565b60005b8280549050811015611e92578173ffffffffffffffffffffffffffffffffffffffff16838281548110611d4457611d4361307f565b5b9060005260206000200160009054906101000a900473ffffffffffffffffffffffffffffffffffffffff1673ffffffffffffffffffffffffffffffffffffffff1603611e7f578260018480549050611d9c91906130ae565b81548110611dad57611dac61307f565b5b9060005260206000200160009054906101000a900473ffffffffffffffffffffffffffffffffffffffff16838281548110611deb57611dea61307f565b5b9060005260206000200160006101000a81548173ffffffffffffffffffffffffffffffffffffffff021916908373ffffffffffffffffffffffffffffffffffffffff16021790555082805480611e4457611e436130e2565b5b6001900381819060005260206000200160006101000a81549073ffffffffffffffffffffffffffffffffffffffff0219169055905550611e94565b8080611e8a90612a02565b915050611d0e565b505b5050565b6040518060c0016040528060008152602001606081526020016060815260200160008152602001600073ffffffffffffffffffffffffffffffffffffffff168152602001600081525090565b6040518060c0016040528060006003811115611f0357611f026123f4565b5b81526020016000151581526020016060815260200160608152602001600081526020016000151581525090565b6040518060e001604052806000815260200160608152602001606081526020016000815260200160008152602001600073ffffffffffffffffffffffffffffffffffffffff168152602001600081525090565b600080fd5b600080fd5b600080fd5b600080fd5b600080fd5b60008083601f840112611fb257611fb1611f8d565b5b8235905067ffffffffffffffff811115611fcf57611fce611f92565b5b602083019150836001820283011115611feb57611fea611f97565b5b9250929050565b6000819050919050565b61200581611ff2565b811461201057600080fd5b50565b60008135905061202281611ffc565b92915050565b6000806000806000806080878903121561204557612044611f83565b5b600087013567ffffffffffffffff81111561206357612062611f88565b5b61206f89828a01611f9c565b9650965050602087013567ffffffffffffffff81111561209257612091611f88565b5b61209e89828a01611f9c565b945094505060406120b189828a01612013565b92505060606120c289828a01612013565b9150509295509295509295565b6000602082840312156120e5576120e4611f83565b5b60006120f384828501612013565b91505092915050565b600073ffffffffffffffffffffffffffffffffffffffff82169050919050565b6000612127826120fc565b9050919050565b6121378161211c565b82525050565b6000602082019050612152600083018461212e565b92915050565b61216181611ff2565b82525050565b600060208201905061217c6000830184612158565b92915050565b61218b81611ff2565b82525050565b600081519050919050565b600082825260208201905092915050565b60005b838110156121cb5780820151818401526020810190506121b0565b60008484015250505050565b6000601f19601f8301169050919050565b60006121f382612191565b6121fd818561219c565b935061220d8185602086016121ad565b612216816121d7565b840191505092915050565b61222a8161211c565b82525050565b600060c0830160008301516122486000860182612182565b506020830151848203602086015261226082826121e8565b9150506040830151848203604086015261227a82826121e8565b915050606083015161228f6060860182612182565b5060808301516122a26080860182612221565b5060a08301516122b560a0860182612182565b508091505092915050565b600060208201905081810360008301526122da8184612230565b905092915050565b600082825260208201905092915050565b60006122fe82612191565b61230881856122e2565b93506123188185602086016121ad565b612321816121d7565b840191505092915050565b600060c0820190506123416000830189612158565b818103602083015261235381886122f3565b9050818103604083015261236781876122f3565b90506123766060830186612158565b612383608083018561212e565b61239060a0830184612158565b979650505050505050565b6123a48161211c565b81146123af57600080fd5b50565b6000813590506123c18161239b565b92915050565b6000602082840312156123dd576123dc611f83565b5b60006123eb848285016123b2565b91505092915050565b7f4e487b7100000000000000000000000000000000000000000000000000000000600052602160045260246000fd5b60048110612434576124336123f4565b5b50565b600081905061244582612423565b919050565b600061245582612437565b9050919050565b6124658161244a565b82525050565b60008115159050919050565b6124808161246b565b82525050565b600060c08301600083015161249e600086018261245c565b5060208301516124b16020860182612477565b50604083015184820360408601526124c982826121e8565b915050606083015184820360608601526124e382826121e8565b91505060808301516124f86080860182612182565b5060a083015161250b60a0860182612477565b508091505092915050565b600060208201905081810360008301526125308184612486565b905092915050565b6004811061254557600080fd5b50565b60008135905061255781612538565b92915050565b6000806040838503121561257457612573611f83565b5b6000612582858286016123b2565b925050602061259385828601612548565b9150509250929050565b600060e0820190506125b2600083018a612158565b81810360208301526125c481896122f3565b905081810360408301526125d881886122f3565b90506125e76060830187612158565b6125f46080830186612158565b61260160a083018561212e565b61260e60c0830184612158565b98975050505050505050565b6126238161244a565b82525050565b6126328161246b565b82525050565b600060c08201905061264d600083018961261a565b61265a6020830188612629565b818103604083015261266c81876122f3565b9050818103606083015261268081866122f3565b905061268f6080830185612158565b61269c60a0830184612629565b979650505050505050565b6000806000806000606086880312156126c3576126c2611f83565b5b60006126d188828901612548565b955050602086013567ffffffffffffffff8111156126f2576126f1611f88565b5b6126fe88828901611f9c565b9450945050604086013567ffffffffffffffff81111561272157612720611f88565b5b61272d88828901611f9c565b92509250509295509295909350565b600081519050919050565b600082825260208201905092915050565b6000819050602082019050919050565b60006127748383612221565b60208301905092915050565b6000602082019050919050565b60006127988261273c565b6127a28185612747565b93506127ad83612758565b8060005b838110156127de5781516127c58882612768565b97506127d083612780565b9250506001810190506127b1565b5085935050505092915050565b60006020820190508181036000830152612805818461278d565b905092915050565b600060e0830160008301516128256000860182612182565b506020830151848203602086015261283d82826121e8565b9150506040830151848203604086015261285782826121e8565b915050606083015161286c6060860182612182565b50608083015161287f6080860182612182565b5060a083015161289260a0860182612221565b5060c08301516128a560c0860182612182565b508091505092915050565b600060208201905081810360008301526128ca818461280d565b905092915050565b6000806000806000606086880312156128ee576128ed611f83565b5b600086013567ffffffffffffffff81111561290c5761290b611f88565b5b61291888828901611f9c565b9550955050602086013567ffffffffffffffff81111561293b5761293a611f88565b5b61294788828901611f9c565b9350935050604061295a88828901612013565b9150509295509295909350565b7f4e6f7420617574686f72697a656420726f6c6500000000000000000000000000600082015250565b600061299d6013836122e2565b91506129a882612967565b602082019050919050565b600060208201905081810360008301526129cc81612990565b9050919050565b7f4e487b7100000000000000000000000000000000000000000000000000000000600052601160045260246000fd5b6000612a0d82611ff2565b91507fffffffffffffffffffffffffffffffffffffffffffffffffffffffffffffffff8203612a3f57612a3e6129d3565b5b600182019050919050565b7f4e487b7100000000000000000000000000000000000000000000000000000000600052604160045260246000fd5b7f4e487b7100000000000000000000000000000000000000000000000000000000600052602260045260246000fd5b60006002820490506001821680612ac057607f821691505b602082108103612ad357612ad2612a79565b5b50919050565b60008190508160005260206000209050919050565b60006020601f8301049050919050565b600082821b905092915050565b600060088302612b3b7fffffffffffffffffffffffffffffffffffffffffffffffffffffffffffffffff82612afe565b612b458683612afe565b95508019841693508086168417925050509392505050565b6000819050919050565b6000612b82612b7d612b7884611ff2565b612b5d565b611ff2565b9050919050565b6000819050919050565b612b9c83612b67565b612bb0612ba882612b89565b848454612b0b565b825550505050565b600090565b612bc5612bb8565b612bd0818484612b93565b505050565b5b81811015612bf457612be9600082612bbd565b600181019050612bd6565b5050565b601f821115612c3957612c0a81612ad9565b612c1384612aee565b81016020851015612c22578190505b612c36612c2e85612aee565b830182612bd5565b50505b505050565b600082821c905092915050565b6000612c5c60001984600802612c3e565b1980831691505092915050565b6000612c758383612c4b565b9150826002028217905092915050565b612c8e82612191565b67ffffffffffffffff811115612ca757612ca6612a4a565b5b612cb18254612aa8565b612cbc828285612bf8565b600060209050601f831160018114612cef5760008415612cdd578287015190505b612ce78582612c69565b865550612d4f565b601f198416612cfd86612ad9565b60005b82811015612d2557848901518255600182019150602085019450602081019050612d00565b86831015612d425784890151612d3e601f891682612c4b565b8355505b6001600288020188555050505b505050505050565b7f4f6e6c792061646d696e00000000000000000000000000000000000000000000600082015250565b6000612d8d600a836122e2565b9150612d9882612d57565b602082019050919050565b60006020820190508181036000830152612dbc81612d80565b9050919050565b7f4e6f2070656e64696e6720726571756573742066726f6d207573657200000000600082015250565b6000612df9601c836122e2565b9150612e0482612dc3565b602082019050919050565b60006020820190508181036000830152612e2881612dec565b9050919050565b7f496e76616c696420726f6c650000000000000000000000000000000000000000600082015250565b6000612e65600c836122e2565b9150612e7082612e2f565b602082019050919050565b60006020820190508181036000830152612e9481612e58565b9050919050565b6000602082019050612eb0600083018461261a565b92915050565b7f496e76616c6964207265717565737461626c6520726f6c650000000000000000600082015250565b6000612eec6018836122e2565b9150612ef782612eb6565b602082019050919050565b60006020820190508181036000830152612f1b81612edf565b9050919050565b7f416c726561647920686173206120726f6c650000000000000000000000000000600082015250565b6000612f586012836122e2565b9150612f6382612f22565b602082019050919050565b60006020820190508181036000830152612f8781612f4b565b9050919050565b7f416c726561647920726571756573746564000000000000000000000000000000600082015250565b6000612fc46011836122e2565b9150612fcf82612f8e565b602082019050919050565b60006020820190508181036000830152612ff381612fb7565b9050919050565b82818337600083830152505050565b600061301583856122e2565b9350613022838584612ffa565b61302b836121d7565b840190509392505050565b600060608201905061304b600083018861261a565b818103602083015261305e818688613009565b90508181036040830152613073818486613009565b90509695505050505050565b7f4e487b7100000000000000000000000000000000000000000000000000000000600052603260045260246000fd5b60006130b982611ff2565b91506130c483611ff2565b92508282039050818111156130dc576130db6129d3565b5b92915050565b7f4e487b7100000000000000000000000000000000000000000000000000000000600052603160045260246000fdfea2646970667358221220b7ab321eb512664a51c7f307da259d3e7305f5f1cba92ca4f4ba6c643a4326b864736f6c63430008130033",
  "linkReferences": {},
  "deployedLinkReferences": {}
}