{
  "_format": "hh-sol-artifact-1",
  "contractName": "SupplyChain",
  "sourceName": "contracts/Supplychain.sol",
  "abi": [
    {
      "inputs": [],
      "stateMutability": "nonpayable",
      "type": "constructor"
    },
    {
      "anonymous": false,
      "inputs": [
        {
          "indexed": true,
          "internalType": "uint256",
          "name": "distributorBatchId",
          "type": "uint256"
        },
        {
          "indexed": true,
          "internalType": "uint256",
          "name": "originBatchId",
          "type": "uint256"
        },
        {
          "indexed": true,
          "internalType": "address",
          "name": "distributor",
          "type": "address"
        },
        {
          "indexed": false,
          "internalType": "uint256",
          "name": "qtyKg",
          "type": "uint256"
        },
        {
          "indexed": false,
          "internalType": "uint256",
          "name": "pricePerKg",
          "type": "uint256"
        },
        {
          "indexed": false,
          "internalType": "uint256",
          "name": "when",
          "type": "uint256"
        }
      ],
      "name": "BatchPurchased",
      "type": "event"
    },
    {
      "anonymous": false,
      "inputs": [
        {
          "indexed": true,
          "internalType": "uint256",
          "name": "requestId",
          "type": "uint256"
        },
        {
          "indexed": true,
          "internalType": "uint256",
          "name": "packId",
          "type": "uint256"
        },
        {
          "indexed": true,
          "internalType": "address",
          "name": "requester",
          "type": "address"
        },
        {
          "indexed": false,
          "internalType": "uint256",
          "name": "qtyKg",
          "type": "uint256"
        },
        {
          "indexed": false,
          "internalType": "bool",
          "name": "wantsRetailer",
          "type": "bool"
        },
        {
          "indexed": false,
          "internalType": "uint256",
          "name": "amountPaid",
          "type": "uint256"
        },
        {
          "indexed": false,
          "internalType": "uint256",
          "name": "when",
          "type": "uint256"
        }
      ],
      "name": "BuyRequestCreated",
      "type": "event"
    },
    {
      "anonymous": false,
      "inputs": [
        {
          "indexed": true,
          "internalType": "uint256",
          "name": "requestId",
          "type": "uint256"
        },
        {
          "indexed": true,
          "internalType": "uint256",
          "name": "packId",
          "type": "uint256"
        },
        {
          "indexed": true,
          "internalType": "address",
          "name": "requester",
          "type": "address"
        },
        {
          "indexed": false,
          "internalType": "bool",
          "name": "accepted",
          "type": "bool"
        },
        {
          "indexed": false,
          "internalType": "uint256",
          "name": "when",
          "type": "uint256"
        }
      ],
      "name": "BuyRequestResolved",
      "type": "event"
    },
    {
      "anonymous": false,
      "inputs": [
        {
          "indexed": true,
          "internalType": "address",
          "name": "previousOwner",
          "type": "address"
        },
        {
          "indexed": true,
          "internalType": "address",
          "name": "newOwner",
          "type": "address"
        }
      ],
      "name": "OwnershipTransferred",
      "type": "event"
    },
    {
      "anonymous": false,
      "inputs": [
        {
          "indexed": true,
          "internalType": "uint256",
          "name": "packId",
          "type": "uint256"
        },
        {
          "indexed": true,
          "internalType": "uint256",
          "name": "distributorBatchId",
          "type": "uint256"
        },
        {
          "indexed": true,
          "internalType": "address",
          "name": "distributor",
          "type": "address"
        },
        {
          "indexed": false,
          "internalType": "uint256",
          "name": "qtyKg",
          "type": "uint256"
        },
        {
          "indexed": false,
          "internalType": "uint256",
          "name": "pricePerKg",
          "type": "uint256"
        },
        {
          "indexed": false,
          "internalType": "uint256",
          "name": "when",
          "type": "uint256"
        }
      ],
      "name": "PackCreated",
      "type": "event"
    },
    {
      "anonymous": false,
      "inputs": [
        {
          "indexed": true,
          "internalType": "uint256",
          "name": "packId",
          "type": "uint256"
        },
        {
          "indexed": false,
          "internalType": "uint8",
          "name": "visibility",
          "type": "uint8"
        },
        {
          "indexed": false,
          "internalType": "address",
          "name": "privateAddress",
          "type": "address"
        },
        {
          "indexed": false,
          "internalType": "uint256",
          "name": "when",
          "type": "uint256"
        }
      ],
      "name": "PackListed",
      "type": "event"
    },
    {
      "anonymous": false,
      "inputs": [
        {
          "indexed": true,
          "internalType": "uint256",
          "name": "batchId",
          "type": "uint256"
        },
        {
          "indexed": true,
          "internalType": "address",
          "name": "farmer",
          "type": "address"
        },
        {
          "indexed": false,
          "internalType": "uint8",
          "name": "visibility",
          "type": "uint8"
        },
        {
          "indexed": false,
          "internalType": "uint256",
          "name": "when",
          "type": "uint256"
        }
      ],
      "name": "ProductAdded",
      "type": "event"
    },
    {
      "anonymous": false,
      "inputs": [
        {
          "indexed": true,
          "internalType": "uint256",
          "name": "batchId",
          "type": "uint256"
        },
        {
          "indexed": true,
          "internalType": "address",
          "name": "farmer",
          "type": "address"
        },
        {
          "indexed": false,
          "internalType": "uint256",
          "name": "when",
          "type": "uint256"
        }
      ],
      "name": "ProductUpdated",
      "type": "event"
    },
    {
      "anonymous": false,
      "inputs": [
        {
          "indexed": true,
          "internalType": "uint256",
          "name": "unitId",
          "type": "uint256"
        },
        {
          "indexed": true,
          "internalType": "uint256",
          "name": "parentPackId",
          "type": "uint256"
        },
        {
          "indexed": true,
          "internalType": "address",
          "name": "retailer",
          "type": "address"
        },
        {
          "indexed": false,
          "internalType": "uint256",
          "name": "qtyKg",
          "type": "uint256"
        },
        {
          "indexed": false,
          "internalType": "uint256",
          "name": "pricePerKg",
          "type": "uint256"
        },
        {
          "indexed": false,
          "internalType": "uint256",
          "name": "when",
          "type": "uint256"
        }
      ],
      "name": "RetailUnitCreated",
      "type": "event"
    },
    {
      "anonymous": false,
      "inputs": [
        {
          "indexed": true,
          "internalType": "address",
          "name": "user",
          "type": "address"
        },
        {
          "indexed": true,
          "internalType": "uint8",
          "name": "role",
          "type": "uint8"
        },
        {
          "indexed": false,
          "internalType": "uint256",
          "name": "when",
          "type": "uint256"
        }
      ],
      "name": "RoleApproved",
      "type": "event"
    },
    {
      "anonymous": false,
      "inputs": [
        {
          "indexed": true,
          "internalType": "address",
          "name": "user",
          "type": "address"
        },
        {
          "indexed": true,
          "internalType": "uint8",
          "name": "role",
          "type": "uint8"
        },
        {
          "indexed": false,
          "internalType": "uint256",
          "name": "when",
          "type": "uint256"
        }
      ],
      "name": "RoleRequested",
      "type": "event"
    },
    {
      "anonymous": false,
      "inputs": [
        {
          "indexed": true,
          "internalType": "address",
          "name": "user",
          "type": "address"
        },
        {
          "indexed": true,
          "internalType": "uint8",
          "name": "previousRole",
          "type": "uint8"
        },
        {
          "indexed": false,
          "internalType": "uint256",
          "name": "when",
          "type": "uint256"
        }
      ],
      "name": "RoleRevoked",
      "type": "event"
    },
    {
      "anonymous": false,
      "inputs": [
        {
          "indexed": true,
          "internalType": "uint256",
          "name": "unitId",
          "type": "uint256"
        },
        {
          "indexed": false,
          "internalType": "uint8",
          "name": "visibility",
          "type": "uint8"
        },
        {
          "indexed": false,
          "internalType": "uint256",
          "name": "when",
          "type": "uint256"
        }
      ],
      "name": "UnitListed",
      "type": "event"
    },
    {
      "anonymous": false,
      "inputs": [
        {
          "indexed": true,
          "internalType": "uint256",
          "name": "purchaseId",
          "type": "uint256"
        },
        {
          "indexed": true,
          "internalType": "uint256",
          "name": "unitId",
          "type": "uint256"
        },
        {
          "indexed": true,
          "internalType": "address",
          "name": "buyer",
          "type": "address"
        },
        {
          "indexed": false,
          "internalType": "address",
          "name": "seller",
          "type": "address"
        },
        {
          "indexed": false,
          "internalType": "uint256",
          "name": "qtyKg",
          "type": "uint256"
        },
        {
          "indexed": false,
          "internalType": "uint256",
          "name": "pricePerKg",
          "type": "uint256"
        },
        {
          "indexed": false,
          "internalType": "uint256",
          "name": "when",
          "type": "uint256"
        }
      ],
      "name": "UnitPurchased",
      "type": "event"
    },
    {
      "anonymous": false,
      "inputs": [
        {
          "indexed": true,
          "internalType": "address",
          "name": "user",
          "type": "address"
        },
        {
          "indexed": false,
          "internalType": "uint256",
          "name": "amount",
          "type": "uint256"
        },
        {
          "indexed": false,
          "internalType": "uint256",
          "name": "when",
          "type": "uint256"
        }
      ],
      "name": "Withdrawn",
      "type": "event"
    },
    {
      "inputs": [
        {
          "internalType": "string",
          "name": "cropName",
          "type": "string"
        },
        {
          "internalType": "string",
          "name": "cropPeriod",
          "type": "string"
        },
        {
          "internalType": "uint256",
          "name": "daysToHarvest",
          "type": "uint256"
        },
        {
          "internalType": "uint256",
          "name": "quantityKg",
          "type": "uint256"
        },
        {
          "internalType": "uint256",
          "name": "pricePerKg",
          "type": "uint256"
        },
        {
          "internalType": "string",
          "name": "location",
          "type": "string"
        },
        {
          "internalType": "uint8",
          "name": "visibility",
          "type": "uint8"
        },
        {
          "internalType": "string",
          "name": "ipfsHash",
          "type": "string"
        }
      ],
      "name": "addProduct",
      "outputs": [],
      "stateMutability": "nonpayable",
      "type": "function"
    },
    {
      "inputs": [
        {
          "internalType": "uint256",
          "name": "requestId",
          "type": "uint256"
        },
        {
          "internalType": "bool",
          "name": "accept",
          "type": "bool"
        }
      ],
      "name": "approveBuyRequest",
      "outputs": [],
      "stateMutability": "nonpayable",
      "type": "function"
    },
    {
      "inputs": [
        {
          "internalType": "address",
          "name": "user",
          "type": "address"
        },
        {
          "internalType": "uint8",
          "name": "role",
          "type": "uint8"
        }
      ],
      "name": "approveRole",
      "outputs": [],
      "stateMutability": "nonpayable",
      "type": "function"
    },
    {
      "inputs": [
        {
          "internalType": "uint256",
          "name": "farmerBatchId",
          "type": "uint256"
        },
        {
          "internalType": "uint256",
          "name": "qtyKg",
          "type": "uint256"
        }
      ],
      "name": "buyFarmerBatch",
      "outputs": [],
      "stateMutability": "payable",
      "type": "function"
    },
    {
      "inputs": [
        {
          "internalType": "uint256",
          "name": "",
          "type": "uint256"
        }
      ],
      "name": "buyRequests",
      "outputs": [
        {
          "internalType": "uint256",
          "name": "requestId",
          "type": "uint256"
        },
        {
          "internalType": "uint256",
          "name": "packId",
          "type": "uint256"
        },
        {
          "internalType": "address",
          "name": "requester",
          "type": "address"
        },
        {
          "internalType": "uint256",
          "name": "qtyKg",
          "type": "uint256"
        },
        {
          "internalType": "bool",
          "name": "wantsRetailer",
          "type": "bool"
        },
        {
          "internalType": "uint256",
          "name": "amountPaid",
          "type": "uint256"
        },
        {
          "internalType": "bool",
          "name": "resolved",
          "type": "bool"
        },
        {
          "internalType": "bool",
          "name": "accepted",
          "type": "bool"
        },
        {
          "internalType": "uint256",
          "name": "createdAt",
          "type": "uint256"
        }
      ],
      "stateMutability": "view",
      "type": "function"
    },
    {
      "inputs": [
        {
          "internalType": "uint256",
          "name": "unitId",
          "type": "uint256"
        },
        {
          "internalType": "uint256",
          "name": "qtyKg",
          "type": "uint256"
        }
      ],
      "name": "buyRetailUnit",
      "outputs": [],
      "stateMutability": "payable",
      "type": "function"
    },
    {
      "inputs": [
        {
          "internalType": "uint256",
          "name": "packId",
          "type": "uint256"
        },
        {
          "internalType": "uint256",
          "name": "qtyKg",
          "type": "uint256"
        },
        {
          "internalType": "bool",
          "name": "wantsRetailer",
          "type": "bool"
        }
      ],
      "name": "createBuyRequest",
      "outputs": [],
      "stateMutability": "payable",
      "type": "function"
    },
    {
      "inputs": [
        {
          "internalType": "uint256",
          "name": "",
          "type": "uint256"
        }
      ],
      "name": "distributorBatches",
      "outputs": [
        {
          "internalType": "uint256",
          "name": "batchId",
          "type": "uint256"
        },
        {
          "internalType": "uint256",
          "name": "originBatchId",
          "type": "uint256"
        },
        {
          "internalType": "address",
          "name": "distributor",
          "type": "address"
        },
        {
          "internalType": "uint256",
          "name": "quantityKg",
          "type": "uint256"
        },
        {
          "internalType": "uint256",
          "name": "purchasePricePerKg",
          "type": "uint256"
        },
        {
          "internalType": "uint256",
          "name": "listedPricePerKg",
          "type": "uint256"
        },
        {
          "internalType": "enum SupplyChain.Visibility",
          "name": "visibility",
          "type": "uint8"
        },
        {
          "internalType": "uint256",
          "name": "createdAt",
          "type": "uint256"
        },
        {
          "internalType": "bool",
          "name": "active",
          "type": "bool"
        }
      ],
      "stateMutability": "view",
      "type": "function"
    },
    {
      "inputs": [
        {
          "internalType": "uint256",
          "name": "",
          "type": "uint256"
        }
      ],
      "name": "farmerProducts",
      "outputs": [
        {
          "internalType": "uint256",
          "name": "batchId",
          "type": "uint256"
        },
        {
          "internalType": "address",
          "name": "farmer",
          "type": "address"
        },
        {
          "internalType": "string",
          "name": "cropName",
          "type": "string"
        },
        {
          "internalType": "string",
          "name": "cropPeriod",
          "type": "string"
        },
        {
          "internalType": "uint256",
          "name": "daysToHarvest",
          "type": "uint256"
        },
        {
          "internalType": "uint256",
          "name": "quantityKg",
          "type": "uint256"
        },
        {
          "internalType": "uint256",
          "name": "pricePerKg",
          "type": "uint256"
        },
        {
          "internalType": "string",
          "name": "location",
          "type": "string"
        },
        {
          "internalType": "enum SupplyChain.Visibility",
          "name": "visibility",
          "type": "uint8"
        },
        {
          "internalType": "string",
          "name": "ipfsHash",
          "type": "string"
        },
        {
          "internalType": "uint256",
          "name": "createdAt",
          "type": "uint256"
        },
        {
          "internalType": "bool",
          "name": "active",
          "type": "bool"
        }
      ],
      "stateMutability": "view",
      "type": "function"
    },
    {
      "inputs": [],
      "name": "getAllUsers",
      "outputs": [
        {
          "internalType": "address[]",
          "name": "",
          "type": "address[]"
        },
        {
          "components": [
            {
              "internalType": "enum SupplyChain.Role",
              "name": "role",
              "type": "uint8"
            },
            {
              "internalType": "bool",
              "name": "requested",
              "type": "bool"
            },
            {
              "internalType": "string",
              "name": "idHash",
              "type": "string"
            },
            {
              "internalType": "string",
              "name": "meta",
              "type": "string"
            },
            {
              "internalType": "uint256",
              "name": "appliedAt",
              "type": "uint256"
            },
            {
              "internalType": "bool",
              "name": "exists",
              "type": "bool"
            }
          ],
          "internalType": "struct SupplyChain.UserInfo[]",
          "name": "",
          "type": "tuple[]"
        }
      ],
      "stateMutability": "view",
      "type": "function"
    },
    {
      "inputs": [
        {
          "internalType": "uint256",
          "name": "farmerBatchId",
          "type": "uint256"
        }
      ],
      "name": "getBatchTrace",
      "outputs": [
        {
          "components": [
            {
              "internalType": "uint256",
              "name": "batchId",
              "type": "uint256"
            },
            {
              "internalType": "address",
              "name": "farmer",
              "type": "address"
            },
            {
              "internalType": "string",
              "name": "cropName",
              "type": "string"
            },
            {
              "internalType": "string",
              "name": "cropPeriod",
              "type": "string"
            },
            {
              "internalType": "uint256",
              "name": "daysToHarvest",
              "type": "uint256"
            },
            {
              "internalType": "uint256",
              "name": "quantityKg",
              "type": "uint256"
            },
            {
              "internalType": "uint256",
              "name": "pricePerKg",
              "type": "uint256"
            },
            {
              "internalType": "string",
              "name": "location",
              "type": "string"
            },
            {
              "internalType": "enum SupplyChain.Visibility",
              "name": "visibility",
              "type": "uint8"
            },
            {
              "internalType": "string",
              "name": "ipfsHash",
              "type": "string"
            },
            {
              "internalType": "uint256",
              "name": "createdAt",
              "type": "uint256"
            },
            {
              "internalType": "bool",
              "name": "active",
              "type": "bool"
            }
          ],
          "internalType": "struct SupplyChain.FarmerProduct",
          "name": "farmer",
          "type": "tuple"
        },
        {
          "components": [
            {
              "internalType": "uint256",
              "name": "batchId",
              "type": "uint256"
            },
            {
              "internalType": "uint256",
              "name": "originBatchId",
              "type": "uint256"
            },
            {
              "internalType": "address",
              "name": "distributor",
              "type": "address"
            },
            {
              "internalType": "uint256",
              "name": "quantityKg",
              "type": "uint256"
            },
            {
              "internalType": "uint256",
              "name": "purchasePricePerKg",
              "type": "uint256"
            },
            {
              "internalType": "uint256",
              "name": "listedPricePerKg",
              "type": "uint256"
            },
            {
              "internalType": "enum SupplyChain.Visibility",
              "name": "visibility",
              "type": "uint8"
            },
            {
              "internalType": "uint256",
              "name": "createdAt",
              "type": "uint256"
            },
            {
              "internalType": "bool",
              "name": "active",
              "type": "bool"
            }
          ],
          "internalType": "struct SupplyChain.DistributorBatch[]",
          "name": "distributorBatchesOut",
          "type": "tuple[]"
        },
        {
          "components": [
            {
              "internalType": "uint256",
              "name": "packId",
              "type": "uint256"
            },
            {
              "internalType": "uint256",
              "name": "distributorBatchId",
              "type": "uint256"
            },
            {
              "internalType": "address",
              "name": "distributor",
              "type": "address"
            },
            {
              "internalType": "uint256",
              "name": "quantityKg",
              "type": "uint256"
            },
            {
              "internalType": "uint256",
              "name": "pricePerKg",
              "type": "uint256"
            },
            {
              "internalType": "enum SupplyChain.Visibility",
              "name": "visibility",
              "type": "uint8"
            },
            {
              "internalType": "address",
              "name": "privateBuyer",
              "type": "address"
            },
            {
              "internalType": "bool",
              "name": "available",
              "type": "bool"
            },
            {
              "internalType": "string",
              "name": "ipfsHash",
              "type": "string"
            },
            {
              "internalType": "uint256",
              "name": "createdAt",
              "type": "uint256"
            }
          ],
          "internalType": "struct SupplyChain.RetailPack[]",
          "name": "retailPacksOut",
          "type": "tuple[]"
        }
      ],
      "stateMutability": "view",
      "type": "function"
    },
    {
      "inputs": [
        {
          "internalType": "address",
          "name": "distributor",
          "type": "address"
        }
      ],
      "name": "getDistributorInventory",
      "outputs": [
        {
          "components": [
            {
              "internalType": "uint256",
              "name": "batchId",
              "type": "uint256"
            },
            {
              "internalType": "uint256",
              "name": "originBatchId",
              "type": "uint256"
            },
            {
              "internalType": "address",
              "name": "distributor",
              "type": "address"
            },
            {
              "internalType": "uint256",
              "name": "quantityKg",
              "type": "uint256"
            },
            {
              "internalType": "uint256",
              "name": "purchasePricePerKg",
              "type": "uint256"
            },
            {
              "internalType": "uint256",
              "name": "listedPricePerKg",
              "type": "uint256"
            },
            {
              "internalType": "enum SupplyChain.Visibility",
              "name": "visibility",
              "type": "uint8"
            },
            {
              "internalType": "uint256",
              "name": "createdAt",
              "type": "uint256"
            },
            {
              "internalType": "bool",
              "name": "active",
              "type": "bool"
            }
          ],
          "internalType": "struct SupplyChain.DistributorBatch[]",
          "name": "",
          "type": "tuple[]"
        },
        {
          "components": [
            {
              "internalType": "uint256",
              "name": "packId",
              "type": "uint256"
            },
            {
              "internalType": "uint256",
              "name": "distributorBatchId",
              "type": "uint256"
            },
            {
              "internalType": "address",
              "name": "distributor",
              "type": "address"
            },
            {
              "internalType": "uint256",
              "name": "quantityKg",
              "type": "uint256"
            },
            {
              "internalType": "uint256",
              "name": "pricePerKg",
              "type": "uint256"
            },
            {
              "internalType": "enum SupplyChain.Visibility",
              "name": "visibility",
              "type": "uint8"
            },
            {
              "internalType": "address",
              "name": "privateBuyer",
              "type": "address"
            },
            {
              "internalType": "bool",
              "name": "available",
              "type": "bool"
            },
            {
              "internalType": "string",
              "name": "ipfsHash",
              "type": "string"
            },
            {
              "internalType": "uint256",
              "name": "createdAt",
              "type": "uint256"
            }
          ],
          "internalType": "struct SupplyChain.RetailPack[]",
          "name": "",
          "type": "tuple[]"
        }
      ],
      "stateMutability": "view",
      "type": "function"
    },
    {
      "inputs": [],
      "name": "getMyProducts",
      "outputs": [
        {
          "components": [
            {
              "internalType": "uint256",
              "name": "batchId",
              "type": "uint256"
            },
            {
              "internalType": "address",
              "name": "farmer",
              "type": "address"
            },
            {
              "internalType": "string",
              "name": "cropName",
              "type": "string"
            },
            {
              "internalType": "string",
              "name": "cropPeriod",
              "type": "string"
            },
            {
              "internalType": "uint256",
              "name": "daysToHarvest",
              "type": "uint256"
            },
            {
              "internalType": "uint256",
              "name": "quantityKg",
              "type": "uint256"
            },
            {
              "internalType": "uint256",
              "name": "pricePerKg",
              "type": "uint256"
            },
            {
              "internalType": "string",
              "name": "location",
              "type": "string"
            },
            {
              "internalType": "enum SupplyChain.Visibility",
              "name": "visibility",
              "type": "uint8"
            },
            {
              "internalType": "string",
              "name": "ipfsHash",
              "type": "string"
            },
            {
              "internalType": "uint256",
              "name": "createdAt",
              "type": "uint256"
            },
            {
              "internalType": "bool",
              "name": "active",
              "type": "bool"
            }
          ],
          "internalType": "struct SupplyChain.FarmerProduct[]",
          "name": "",
          "type": "tuple[]"
        }
      ],
      "stateMutability": "view",
      "type": "function"
    },
    {
      "inputs": [
        {
          "internalType": "uint256",
          "name": "packId",
          "type": "uint256"
        }
      ],
      "name": "getPackOrigin",
      "outputs": [
        {
          "internalType": "uint256",
          "name": "originFarmerBatchId",
          "type": "uint256"
        }
      ],
      "stateMutability": "view",
      "type": "function"
    },
    {
      "inputs": [
        {
          "internalType": "address",
          "name": "distributor",
          "type": "address"
        }
      ],
      "name": "getPendingRequestsForDistributor",
      "outputs": [
        {
          "components": [
            {
              "internalType": "uint256",
              "name": "requestId",
              "type": "uint256"
            },
            {
              "internalType": "uint256",
              "name": "packId",
              "type": "uint256"
            },
            {
              "internalType": "address",
              "name": "requester",
              "type": "address"
            },
            {
              "internalType": "uint256",
              "name": "qtyKg",
              "type": "uint256"
            },
            {
              "internalType": "bool",
              "name": "wantsRetailer",
              "type": "bool"
            },
            {
              "internalType": "uint256",
              "name": "amountPaid",
              "type": "uint256"
            },
            {
              "internalType": "bool",
              "name": "resolved",
              "type": "bool"
            },
            {
              "internalType": "bool",
              "name": "accepted",
              "type": "bool"
            },
            {
              "internalType": "uint256",
              "name": "createdAt",
              "type": "uint256"
            }
          ],
          "internalType": "struct SupplyChain.BuyRequest[]",
          "name": "",
          "type": "tuple[]"
        }
      ],
      "stateMutability": "view",
      "type": "function"
    },
    {
      "inputs": [],
      "name": "getPendingUsers",
      "outputs": [
        {
          "internalType": "address[]",
          "name": "",
          "type": "address[]"
        },
        {
          "components": [
            {
              "internalType": "enum SupplyChain.Role",
              "name": "role",
              "type": "uint8"
            },
            {
              "internalType": "bool",
              "name": "requested",
              "type": "bool"
            },
            {
              "internalType": "string",
              "name": "idHash",
              "type": "string"
            },
            {
              "internalType": "string",
              "name": "meta",
              "type": "string"
            },
            {
              "internalType": "uint256",
              "name": "appliedAt",
              "type": "uint256"
            },
            {
              "internalType": "bool",
              "name": "exists",
              "type": "bool"
            }
          ],
          "internalType": "struct SupplyChain.UserInfo[]",
          "name": "",
          "type": "tuple[]"
        }
      ],
      "stateMutability": "view",
      "type": "function"
    },
    {
      "inputs": [
        {
          "internalType": "address",
          "name": "user",
          "type": "address"
        }
      ],
      "name": "getPurchaseHistory",
      "outputs": [
        {
          "components": [
            {
              "internalType": "uint256",
              "name": "purchaseId",
              "type": "uint256"
            },
            {
              "internalType": "uint256",
              "name": "unitId",
              "type": "uint256"
            },
            {
              "internalType": "uint256",
              "name": "quantityKg",
              "type": "uint256"
            },
            {
              "internalType": "uint256",
              "name": "pricePerKg",
              "type": "uint256"
            },
            {
              "internalType": "uint256",
              "name": "qtyKg",
              "type": "uint256"
            },
            {
              "internalType": "address",
              "name": "seller",
              "type": "address"
            },
            {
              "internalType": "address",
              "name": "buyer",
              "type": "address"
            },
            {
              "internalType": "enum SupplyChain.Role",
              "name": "sellerRole",
              "type": "uint8"
            },
            {
              "internalType": "enum SupplyChain.Role",
              "name": "buyerRole",
              "type": "uint8"
            },
            {
              "internalType": "uint256",
              "name": "timestamp",
              "type": "uint256"
            }
          ],
          "internalType": "struct SupplyChain.PurchaseRecord[]",
          "name": "",
          "type": "tuple[]"
        }
      ],
      "stateMutability": "view",
      "type": "function"
    },
    {
      "inputs": [
        {
          "internalType": "address",
          "name": "retailer",
          "type": "address"
        }
      ],
      "name": "getRetailerInventory",
      "outputs": [
        {
          "components": [
            {
              "internalType": "uint256",
              "name": "unitId",
              "type": "uint256"
            },
            {
              "internalType": "uint256",
              "name": "parentPackId",
              "type": "uint256"
            },
            {
              "internalType": "address",
              "name": "retailer",
              "type": "address"
            },
            {
              "internalType": "uint256",
              "name": "quantityKg",
              "type": "uint256"
            },
            {
              "internalType": "uint256",
              "name": "pricePerKg",
              "type": "uint256"
            },
            {
              "internalType": "bool",
              "name": "available",
              "type": "bool"
            },
            {
              "internalType": "bool",
              "name": "listedForCustomers",
              "type": "bool"
            },
            {
              "internalType": "string",
              "name": "ipfsHash",
              "type": "string"
            },
            {
              "internalType": "uint256",
              "name": "createdAt",
              "type": "uint256"
            }
          ],
          "internalType": "struct SupplyChain.RetailUnit[]",
          "name": "",
          "type": "tuple[]"
        }
      ],
      "stateMutability": "view",
      "type": "function"
    },
    {
      "inputs": [
        {
          "internalType": "uint256",
          "name": "unitId",
          "type": "uint256"
        }
      ],
      "name": "getUnitTrace",
      "outputs": [
        {
          "components": [
            {
              "internalType": "uint256",
              "name": "batchId",
              "type": "uint256"
            },
            {
              "internalType": "address",
              "name": "farmer",
              "type": "address"
            },
            {
              "internalType": "string",
              "name": "cropName",
              "type": "string"
            },
            {
              "internalType": "string",
              "name": "cropPeriod",
              "type": "string"
            },
            {
              "internalType": "uint256",
              "name": "daysToHarvest",
              "type": "uint256"
            },
            {
              "internalType": "uint256",
              "name": "quantityKg",
              "type": "uint256"
            },
            {
              "internalType": "uint256",
              "name": "pricePerKg",
              "type": "uint256"
            },
            {
              "internalType": "string",
              "name": "location",
              "type": "string"
            },
            {
              "internalType": "enum SupplyChain.Visibility",
              "name": "visibility",
              "type": "uint8"
            },
            {
              "internalType": "string",
              "name": "ipfsHash",
              "type": "string"
            },
            {
              "internalType": "uint256",
              "name": "createdAt",
              "type": "uint256"
            },
            {
              "internalType": "bool",
              "name": "active",
              "type": "bool"
            }
          ],
          "internalType": "struct SupplyChain.FarmerProduct",
          "name": "farmer",
          "type": "tuple"
        },
        {
          "components": [
            {
              "internalType": "uint256",
              "name": "batchId",
              "type": "uint256"
            },
            {
              "internalType": "uint256",
              "name": "originBatchId",
              "type": "uint256"
            },
            {
              "internalType": "address",
              "name": "distributor",
              "type": "address"
            },
            {
              "internalType": "uint256",
              "name": "quantityKg",
              "type": "uint256"
            },
            {
              "internalType": "uint256",
              "name": "purchasePricePerKg",
              "type": "uint256"
            },
            {
              "internalType": "uint256",
              "name": "listedPricePerKg",
              "type": "uint256"
            },
            {
              "internalType": "enum SupplyChain.Visibility",
              "name": "visibility",
              "type": "uint8"
            },
            {
              "internalType": "uint256",
              "name": "createdAt",
              "type": "uint256"
            },
            {
              "internalType": "bool",
              "name": "active",
              "type": "bool"
            }
          ],
          "internalType": "struct SupplyChain.DistributorBatch",
          "name": "distributor",
          "type": "tuple"
        },
        {
          "components": [
            {
              "internalType": "uint256",
              "name": "packId",
              "type": "uint256"
            },
            {
              "internalType": "uint256",
              "name": "distributorBatchId",
              "type": "uint256"
            },
            {
              "internalType": "address",
              "name": "distributor",
              "type": "address"
            },
            {
              "internalType": "uint256",
              "name": "quantityKg",
              "type": "uint256"
            },
            {
              "internalType": "uint256",
              "name": "pricePerKg",
              "type": "uint256"
            },
            {
              "internalType": "enum SupplyChain.Visibility",
              "name": "visibility",
              "type": "uint8"
            },
            {
              "internalType": "address",
              "name": "privateBuyer",
              "type": "address"
            },
            {
              "internalType": "bool",
              "name": "available",
              "type": "bool"
            },
            {
              "internalType": "string",
              "name": "ipfsHash",
              "type": "string"
            },
            {
              "internalType": "uint256",
              "name": "createdAt",
              "type": "uint256"
            }
          ],
          "internalType": "struct SupplyChain.RetailPack",
          "name": "pack",
          "type": "tuple"
        },
        {
          "components": [
            {
              "internalType": "uint256",
              "name": "unitId",
              "type": "uint256"
            },
            {
              "internalType": "uint256",
              "name": "parentPackId",
              "type": "uint256"
            },
            {
              "internalType": "address",
              "name": "retailer",
              "type": "address"
            },
            {
              "internalType": "uint256",
              "name": "quantityKg",
              "type": "uint256"
            },
            {
              "internalType": "uint256",
              "name": "pricePerKg",
              "type": "uint256"
            },
            {
              "internalType": "bool",
              "name": "available",
              "type": "bool"
            },
            {
              "internalType": "bool",
              "name": "listedForCustomers",
              "type": "bool"
            },
            {
              "internalType": "string",
              "name": "ipfsHash",
              "type": "string"
            },
            {
              "internalType": "uint256",
              "name": "createdAt",
              "type": "uint256"
            }
          ],
          "internalType": "struct SupplyChain.RetailUnit",
          "name": "unit",
          "type": "tuple"
        }
      ],
      "stateMutability": "view",
      "type": "function"
    },
    {
      "inputs": [],
      "name": "getUserCount",
      "outputs": [
        {
          "internalType": "uint256",
          "name": "",
          "type": "uint256"
        }
      ],
      "stateMutability": "view",
      "type": "function"
    },
    {
      "inputs": [
        {
          "internalType": "address",
          "name": "user",
          "type": "address"
        }
      ],
      "name": "getUserInfo",
      "outputs": [
        {
          "components": [
            {
              "internalType": "enum SupplyChain.Role",
              "name": "role",
              "type": "uint8"
            },
            {
              "internalType": "bool",
              "name": "requested",
              "type": "bool"
            },
            {
              "internalType": "string",
              "name": "idHash",
              "type": "string"
            },
            {
              "internalType": "string",
              "name": "meta",
              "type": "string"
            },
            {
              "internalType": "uint256",
              "name": "appliedAt",
              "type": "uint256"
            },
            {
              "internalType": "bool",
              "name": "exists",
              "type": "bool"
            }
          ],
          "internalType": "struct SupplyChain.UserInfo",
          "name": "",
          "type": "tuple"
        }
      ],
      "stateMutability": "view",
      "type": "function"
    },
    {
      "inputs": [
        {
          "internalType": "uint8",
          "name": "role",
          "type": "uint8"
        }
      ],
      "name": "getUsersByRole",
      "outputs": [
        {
          "internalType": "address[]",
          "name": "",
          "type": "address[]"
        }
      ],
      "stateMutability": "view",
      "type": "function"
    },
    {
      "inputs": [
        {
          "internalType": "uint256",
          "name": "packId",
          "type": "uint256"
        },
        {
          "internalType": "uint8",
          "name": "visibility",
          "type": "uint8"
        },
        {
          "internalType": "address",
          "name": "optionalPrivateAddress",
          "type": "address"
        }
      ],
      "name": "listPack",
      "outputs": [],
      "stateMutability": "nonpayable",
      "type": "function"
    },
    {
      "inputs": [
        {
          "internalType": "uint256",
          "name": "unitId",
          "type": "uint256"
        },
        {
          "internalType": "uint8",
          "name": "",
          "type": "uint8"
        }
      ],
      "name": "listUnitForCustomers",
      "outputs": [],
      "stateMutability": "nonpayable",
      "type": "function"
    },
    {
      "inputs": [],
      "name": "owner",
      "outputs": [
        {
          "internalType": "address",
          "name": "",
          "type": "address"
        }
      ],
      "stateMutability": "view",
      "type": "function"
    },
    {
      "inputs": [
        {
          "internalType": "address",
          "name": "",
          "type": "address"
        }
      ],
      "name": "pendingWithdrawals",
      "outputs": [
        {
          "internalType": "uint256",
          "name": "",
          "type": "uint256"
        }
      ],
      "stateMutability": "view",
      "type": "function"
    },
    {
      "inputs": [
        {
          "internalType": "uint256",
          "name": "",
          "type": "uint256"
        }
      ],
      "name": "purchaseRecords",
      "outputs": [
        {
          "internalType": "uint256",
          "name": "purchaseId",
          "type": "uint256"
        },
        {
          "internalType": "uint256",
          "name": "unitId",
          "type": "uint256"
        },
        {
          "internalType": "uint256",
          "name": "quantityKg",
          "type": "uint256"
        },
        {
          "internalType": "uint256",
          "name": "pricePerKg",
          "type": "uint256"
        },
        {
          "internalType": "uint256",
          "name": "qtyKg",
          "type": "uint256"
        },
        {
          "internalType": "address",
          "name": "seller",
          "type": "address"
        },
        {
          "internalType": "address",
          "name": "buyer",
          "type": "address"
        },
        {
          "internalType": "enum SupplyChain.Role",
          "name": "sellerRole",
          "type": "uint8"
        },
        {
          "internalType": "enum SupplyChain.Role",
          "name": "buyerRole",
          "type": "uint8"
        },
        {
          "internalType": "uint256",
          "name": "timestamp",
          "type": "uint256"
        }
      ],
      "stateMutability": "view",
      "type": "function"
    },
    {
      "inputs": [],
      "name": "renounceOwnership",
      "outputs": [],
      "stateMutability": "nonpayable",
      "type": "function"
    },
    {
      "inputs": [
        {
          "internalType": "uint8",
          "name": "role",
          "type": "uint8"
        },
        {
          "internalType": "string",
          "name": "idHash",
          "type": "string"
        },
        {
          "internalType": "string",
          "name": "meta",
          "type": "string"
        }
      ],
      "name": "requestRole",
      "outputs": [],
      "stateMutability": "nonpayable",
      "type": "function"
    },
    {
      "inputs": [
        {
          "internalType": "uint256",
          "name": "",
          "type": "uint256"
        }
      ],
      "name": "retailPacks",
      "outputs": [
        {
          "internalType": "uint256",
          "name": "packId",
          "type": "uint256"
        },
        {
          "internalType": "uint256",
          "name": "distributorBatchId",
          "type": "uint256"
        },
        {
          "internalType": "address",
          "name": "distributor",
          "type": "address"
        },
        {
          "internalType": "uint256",
          "name": "quantityKg",
          "type": "uint256"
        },
        {
          "internalType": "uint256",
          "name": "pricePerKg",
          "type": "uint256"
        },
        {
          "internalType": "enum SupplyChain.Visibility",
          "name": "visibility",
          "type": "uint8"
        },
        {
          "internalType": "address",
          "name": "privateBuyer",
          "type": "address"
        },
        {
          "internalType": "bool",
          "name": "available",
          "type": "bool"
        },
        {
          "internalType": "string",
          "name": "ipfsHash",
          "type": "string"
        },
        {
          "internalType": "uint256",
          "name": "createdAt",
          "type": "uint256"
        }
      ],
      "stateMutability": "view",
      "type": "function"
    },
    {
      "inputs": [
        {
          "internalType": "uint256",
          "name": "",
          "type": "uint256"
        }
      ],
      "name": "retailUnits",
      "outputs": [
        {
          "internalType": "uint256",
          "name": "unitId",
          "type": "uint256"
        },
        {
          "internalType": "uint256",
          "name": "parentPackId",
          "type": "uint256"
        },
        {
          "internalType": "address",
          "name": "retailer",
          "type": "address"
        },
        {
          "internalType": "uint256",
          "name": "quantityKg",
          "type": "uint256"
        },
        {
          "internalType": "uint256",
          "name": "pricePerKg",
          "type": "uint256"
        },
        {
          "internalType": "bool",
          "name": "available",
          "type": "bool"
        },
        {
          "internalType": "bool",
          "name": "listedForCustomers",
          "type": "bool"
        },
        {
          "internalType": "string",
          "name": "ipfsHash",
          "type": "string"
        },
        {
          "internalType": "uint256",
          "name": "createdAt",
          "type": "uint256"
        }
      ],
      "stateMutability": "view",
      "type": "function"
    },
    {
      "inputs": [
        {
          "internalType": "address",
          "name": "user",
          "type": "address"
        }
      ],
      "name": "revokeRole",
      "outputs": [],
      "stateMutability": "nonpayable",
      "type": "function"
    },
    {
      "inputs": [
        {
          "internalType": "uint256",
          "name": "distributorBatchId",
          "type": "uint256"
        },
        {
          "internalType": "uint256[]",
          "name": "splitQuantities",
          "type": "uint256[]"
        },
        {
          "internalType": "uint256[]",
          "name": "pricesPerKg",
          "type": "uint256[]"
        },
        {
          "internalType": "string[]",
          "name": "ipfsHashes",
          "type": "string[]"
        }
      ],
      "name": "splitDistributorBatch",
      "outputs": [],
      "stateMutability": "nonpayable",
      "type": "function"
    },
    {
      "inputs": [
        {
          "internalType": "uint256",
          "name": "unitId",
          "type": "uint256"
        },
        {
          "internalType": "uint256[]",
          "name": "unitQuantities",
          "type": "uint256[]"
        },
        {
          "internalType": "uint256[]",
          "name": "unitPricesPerKg",
          "type": "uint256[]"
        },
        {
          "internalType": "string[]",
          "name": "ipfsHashes",
          "type": "string[]"
        }
      ],
      "name": "splitRetailUnit",
      "outputs": [],
      "stateMutability": "nonpayable",
      "type": "function"
    },
    {
      "inputs": [],
      "name": "totalBuyRequests",
      "outputs": [
        {
          "internalType": "uint256",
          "name": "",
          "type": "uint256"
        }
      ],
      "stateMutability": "view",
      "type": "function"
    },
    {
      "inputs": [],
      "name": "totalDistributorBatches",
      "outputs": [
        {
          "internalType": "uint256",
          "name": "",
          "type": "uint256"
        }
      ],
      "stateMutability": "view",
      "type": "function"
    },
    {
      "inputs": [],
      "name": "totalFarmerProducts",
      "outputs": [
        {
          "internalType": "uint256",
          "name": "",
          "type": "uint256"
        }
      ],
      "stateMutability": "view",
      "type": "function"
    },
    {
      "inputs": [],
      "name": "totalPurchases",
      "outputs": [
        {
          "internalType": "uint256",
          "name": "",
          "type": "uint256"
        }
      ],
      "stateMutability": "view",
      "type": "function"
    },
    {
      "inputs": [],
      "name": "totalRetailPacks",
      "outputs": [
        {
          "internalType": "uint256",
          "name": "",
          "type": "uint256"
        }
      ],
      "stateMutability": "view",
      "type": "function"
    },
    {
      "inputs": [],
      "name": "totalRetailUnits",
      "outputs": [
        {
          "internalType": "uint256",
          "name": "",
          "type": "uint256"
        }
      ],
      "stateMutability": "view",
      "type": "function"
    },
    {
      "inputs": [
        {
          "internalType": "address",
          "name": "newOwner",
          "type": "address"
        }
      ],
      "name": "transferOwnership",
      "outputs": [],
      "stateMutability": "nonpayable",
      "type": "function"
    },
    {
      "inputs": [
        {
          "internalType": "uint256",
          "name": "batchId",
          "type": "uint256"
        },
        {
          "internalType": "uint256",
          "name": "newQuantityKg",
          "type": "uint256"
        },
        {
          "internalType": "uint256",
          "name": "newPricePerKg",
          "type": "uint256"
        },
        {
          "internalType": "uint8",
          "name": "newVisibility",
          "type": "uint8"
        },
        {
          "internalType": "string",
          "name": "newIpfsHash",
          "type": "string"
        },
        {
          "internalType": "bool",
          "name": "setActive",
          "type": "bool"
        }
      ],
      "name": "updateProduct",
      "outputs": [],
      "stateMutability": "nonpayable",
      "type": "function"
    },
    {
      "inputs": [
        {
          "internalType": "address",
          "name": "",
          "type": "address"
        }
      ],
      "name": "users",
      "outputs": [
        {
          "internalType": "enum SupplyChain.Role",
          "name": "role",
          "type": "uint8"
        },
        {
          "internalType": "bool",
          "name": "requested",
          "type": "bool"
        },
        {
          "internalType": "string",
          "name": "idHash",
          "type": "string"
        },
        {
          "internalType": "string",
          "name": "meta",
          "type": "string"
        },
        {
          "internalType": "uint256",
          "name": "appliedAt",
          "type": "uint256"
        },
        {
          "internalType": "bool",
          "name": "exists",
          "type": "bool"
        }
      ],
      "stateMutability": "view",
      "type": "function"
    },
    {
      "inputs": [],
      "name": "withdraw",
      "outputs": [],
      "stateMutability": "nonpayable",
      "type": "function"
    },
    {
      "stateMutability": "payable",
      "type": "receive"
    }
  ],
  "bytecode": "0x608034620004525760008054336001600160a01b0319808316821784559392916001600160a01b03167f8be0079c531659141344cd1fd0a4f28419497f9722a3daafe3b4186f6b6457e08380a360018080556001600160401b039390929060c0820185811183821017620002385760405260058252602091828101958487526200008862000457565b90858252604083019182526200009d62000457565b9086825260608401918252608084019242845260a0850199898b52338952600288526040892095519060068210156200043e5760ff61ff0088549251151560081b1692169061ffff19161717855588850190519081518381116200042a578154928b84811c941680156200041f575b8a8510146200040b578190601f94858111620003b8575b508a908583116001146200034a578c926200033e575b5050600019600383901b1c1916908b1b1790555b60028501925180519283116200032a5783548a81811c911680156200031f575b898210146200030b57828111620002c3575b50879183116001146200025857600495949392918991836200024c575b5050600019600383901b1c191690891b1790555b51600382015501945115159460ff199560ff878354169116179055600354680100000000000000008110156200023857848101806003558110156200022457916004918493600360409652828520019033908254161790553383525220918254161790556040516158ab90816200048e8239f35b634e487b7160e01b84526032600452602484fd5b634e487b7160e01b84526041600452602484fd5b0151905038806200019c565b949392918991601f19821690848b52898b20918b5b8b828210620002ac57505097836004991062000292575b505050811b019055620001b0565b015160001960f88460031b161c1916905538808062000284565b838b015185558e969094019392830192016200026d565b848a52888a208380860160051c8201928b871062000301575b0160051c01908b905b828110620002f55750506200017f565b8b8155018b90620002e5565b92508192620002dc565b634e487b7160e01b8a52602260045260248afd5b90607f16906200016d565b634e487b7160e01b89526041600452602489fd5b01519050388062000139565b848d528b8d208e94509190601f1984168e8e5b8282106200039757505084116200037d575b505050811b0190556200014d565b015160001960f88460031b161c191690553880806200036f565b91929395968291958786015181550195019301908f95949392918e6200035d565b909150838c528a8c208580850160051c8201928d861062000401575b918f91869594930160051c01915b828110620003f257505062000123565b8e81558594508f9101620003e2565b92508192620003d4565b634e487b7160e01b8b52602260045260248bfd5b93607f16936200010c565b634e487b7160e01b8a52604160045260248afd5b634e487b7160e01b8a52602160045260248afd5b600080fd5b60405190602082016001600160401b038111838210176200047757604052565b634e487b7160e01b600052604160045260246000fdfe60806040526004361015610036575b361561001957600080fd5b3360005260116020526040600020610032348254614cd6565b9055005b60003560e01c806321034444146141e257806325159805146141c45780632a1c235114613dfe5780633b510b1d14613d515780633ccfd60b14613c3d5780634c041cd914613a0357806354ad290e146138eb5780635962a941146138cd5780636386c1c71461381e578063669086801461324c57806367d0de3714613055578063715018a614612ffc57806371f3c4ef14612ebe57806376b0194114612e1157806380e52e3f14612d6a578063870d09c514612ca957806389a64d4a14612a355780638da5cb5b14612a0c578063949fb8ba1461295357806395ce098114612935578063983839221461273357806398a45adb1461269b578063a0c999691461236a578063a40b72e11461234c578063a574e0c8146121cb578063a87430ba1461211f578063aa46b66f14611e5c578063b0bf3dac14611ad7578063b4bc6fae146117cc578063b5cb15f7146117ae578063c22fb92914611750578063c2afc793146114cb578063d3389b8514610f62578063ddb7a4de14610e31578063e2842d7914610cee578063e594c648146109dc578063ef9d8dca1461089b578063f2fde38b146107d7578063f3f437031461079d578063fa2a5d7514610701578063fb04dd4b146106e3578063fdca4ca31461044b578063fe09b5ec146102425763ff3fa4b90361000e573461023d57600036600319011261023d576020600754604051908152f35b600080fd5b3461023d57600036600319011261023d5760038054600090815b8181106103b9575061027661027083615745565b92615777565b926000805b8381106102955760405180610291888883614ad8565b0390f35b61029e81615126565b60018060a01b03915490851b1c168060005260029060208281526040600020549260ff9289600895858082891c16918261038c575b50506102e8575b50505050505060010161027b565b9261034d8895938360049461030460019b9c6103809b99614b8a565b52600052808352604060002092856040519761031f896145c3565b85549061032e8383168b614bb4565b1c16151590870152610341898401614637565b60408701528201614637565b6060850152888101546080850152015416151560a082015261036f828a614b8a565b5261037a8189614b8a565b50614b4e565b919087808080896102da565b1691505060068110156103a3578a9015858e6102d3565b634e487b7160e01b600052602160045260246000fd5b6103c281615126565b9060018060a01b039182915490871b1c16600052600260209080825260ff918260406000205460081c169384610418575b50505050610404575b60010161025c565b91610410600191614b4e565b9290506103fc565b909192935061042685615126565b905490891b1c16600052526040600020541660068110156103a35715858080806103f3565b3461023d57600036600319011261023d5733600052600260206002815260ff8060406000205416926006808510156103a35761048d6001959395809414614bc0565b60059160055492600096855b8581111561068657506104c46104ae89614b73565b986104bc6040519a8b614616565b808a52614b73565b601f190160005b81811061066a575050600093865b868111156105435789898960405191808301818452845180915260408401918060408360051b8701019601926000905b8382106105165786880387f35b90919293948380610532839a603f198b820301865289516147d4565b999701959493919091019101610509565b8060009a989a52600b808a526040600020908154918b8d84151580610655575b61057e575b505050505061057690614b4e565b9896986104d9565b9261064a94928892610576979c9560405195610599876145de565b86528201546001600160a01b0316908501526105b68b8201614637565b60408501526105c760038201614637565b6060850152600481015460808501528981015460a08501528781015460c08501526105f460078201614637565b60e085015261060d836008830154166101008601614eb8565b61061960098201614637565b610120850152600a810154610140850152015416151561016082015261063f828c614b8a565b5261037a818b614b8a565b95908b808b8d610568565b50828101546001600160a01b03163314610563565b88906106779a989a614e5b565b82828b010152019896986104cb565b80600099979952600b885260406000208054151590816106cd575b506106b8575b6106b090614b4e565b979597610499565b956106c56106b091614b4e565b9690506106a7565b8a01546001600160a01b0316331490508a6106a1565b3461023d57600036600319011261023d576020600954604051908152f35b3461023d57602036600319011261023d57600435600052600c602052610120604060002080549060018101549061078e60018060a01b036002830154166003830154600484015460058501549160ff6006870154169360ff600860078901549801541697604051998a5260208a015260408901526060880152608087015260a086015260c0850190614769565b60e08301521515610100820152f35b3461023d57602036600319011261023d576001600160a01b036107be6144b2565b1660005260116020526020604060002054604051908152f35b3461023d57602036600319011261023d576107f06144b2565b6107f861581d565b6001600160a01b0390811690811561084757600054826001600160601b0360a01b821617600055167f8be0079c531659141344cd1fd0a4f28419497f9722a3daafe3b4186f6b6457e0600080a3005b60405162461bcd60e51b815260206004820152602660248201527f4f776e61626c653a206e6577206f776e657220697320746865207a65726f206160448201526564647265737360d01b6064820152608490fd5b3461023d5760208060031936011261023d57600435600052600d81526040600020604051906108c9826145a7565b80548252600181015483830190815261095660018060a01b0393846002850154166040820152600384015460608201526004840154608082015260ff600585015461091982821660a08501614eb8565b868160081c1660c084015260a81c16151560e0820152600761093d60068601614637565b9461010095868401520154610120820152511515614ff6565b51600052600c835260406000209060ff600860405193610975856145fa565b8054855260018101549587860196875260028201541660408601526003810154606086015260048101546080860152600581015460a08601526109c18360068301541660c08701614eb8565b600781015460e0860152015416151591015251604051908152f35b3461023d576109ea36614505565b90919392949533600052600260205260ff6040600020541660068110156103a3576003610a1a9198979814614bc0565b600052600e602052604060002095610a348754151561524a565b6002870154610a4d906001600160a01b03163314614de4565b610a58858514614c24565b610a63828514614c70565b60009460005b858110610cc9575060038801548611610c845760005b858110610aaf5788610a95886003830154614d98565b80600383015515610aa257005b600501805460ff19169055005b6008610abb8154614b4e565b80915580600052600e602052604060002090815560018a0154600182015560028101336001600160601b0360a01b825416179055610afa82888b614cc6565b356003820155610b0b828486614cc6565b35600482015560058101805461ffff19166001179055610b2c828688614cfb565b906001600160401b038211610c6e57610b5582610b4c600686015461456d565b60068601614d53565b600090601f8311600114610bfa5760019493929160009183610bef575b5050600019600383901b1c191690841b1760068201555b4260078201558054838c0154907fcdf39da8f0023d4d1d194a43508204b3a50c233fa8270b04763d6410237bad84610be6600460038601549501549460405191829133974291846040919493926060820195825260208201520152565b0390a401610a7f565b013590508d80610b72565b6006840160005260206000209160005b601f1985168110610c5657509183916001969594938794601f19811610610c3c575b505050811b016006820155610b89565b0135600019600384901b60f8161c191690558d8080610c2c565b90926020600181928686013581550194019101610c0a565b634e487b7160e01b600052604160045260246000fd5b60405162461bcd60e51b815260206004820152601c60248201527f537570706c79436861696e3a2073756d206578636565647320717479000000006044820152606490fd5b95610ce4600191610cdd89898c9d9c614cc6565b3590614cd6565b9601979697610a69565b3461023d57600036600319011261023d5760038054610d0c81615777565b9160005b828110610d9b57505060405180828193835260208093019060036000527fc2575a0e9e593c00f959f8c92f12db2869c3395a3b0502d05e2516446f71f85b936000905b828210610d7857505050610d6992500382614616565b61029160405192839283614ad8565b85546001600160a01b031684526001958601958795509381019390910190610d53565b80610da7600192615126565b838060a01b03915490851b1c166000526002602081815260046040600020610dfd60405194610dd5866145c3565b82549460ff86610de8828099168a614bb4565b60081c16151590870152610341888401614637565b6060850152868101546080850152015416151560a0820152610e1f8287614b8a565b52610e2a8186614b8a565b5001610d10565b3461023d5760208060031936011261023d5760ff9060ff610e5061472c565b1691610e5f60058411156150da565b60038054916000805b848110610f0e5750610e7990615745565b9360009160005b858110610e9d57604051602080825281906102919082018a614a9b565b610ea681615126565b90546001600160a01b0391871b1c81166000908152600285526040902054831660068110156103a3578914610edf575b50600101610e80565b8194610f0791610ef0600194615126565b905490891b1c16610f01828b614b8a565b52614b4e565b9390610ed6565b610f1781615126565b905490851b1c6001600160a01b03166000908152600287526040902054831660068110156103a3578714610f4e575b600101610e68565b90610f5a600191614b4e565b919050610f46565b3461023d5761010036600319011261023d576004356001600160401b03811161023d57610f9390369060040161473c565b906024356001600160401b03811161023d57610fb390369060040161473c565b919060a4356001600160401b03811161023d57610fd490369060040161473c565b9060c4359460ff8616860361023d5760e4356001600160401b03811161023d5761100290369060040161473c565b94909733600052600260205260ff6040600020541660068110156103a357600161102c9114614bc0565b6064351561148657608435156114485761104c600160ff8a161115615042565b611057600554614b4e565b968760055587600052600b602052604060002097885560018801336001600160601b0360a01b8254161790556001600160401b038211610c6e5781906110ad826110a460028c015461456d565b60028c01614d53565b600090601f83116001146113d7576000926113cc575b50508160011b916000199060031b1c19161760028701555b6001600160401b038211610c6e578190611105826110fc60038a015461456d565b60038a01614d53565b600090601f831160011461135b57600092611350575b50508160011b916000199060031b1c19161760038501555b6044356004850155606435600585015560843560068501556001600160401b038211610c6e5781906111758261116c600788015461456d565b60078801614d53565b600090601f83116001146112df576000926112d4575b50508160011b916000199060031b1c19161760078301555b600260ff841610156103a3576111bf60ff841660088401614ce3565b60098201906001600160401b038111610c6e576111e6816111e0845461456d565b84614d53565b6000601f821160011461126d578192939495600092611262575b50508160011b916000199060031b1c19161790555b42600a820155600b8101600160ff198254161790555460ff604051921682524260208301527f8c7f70de6d89542031e13836c8f9d53f5c6ce55e54dca423cb713ea36a9df07c60403393a3005b013590508580611200565b601f198216958360005260206000209160005b8881106112bc575083600195969798106112a2575b505050811b019055611215565b0135600019600384901b60f8161c19169055858080611295565b90926020600181928686013581550194019101611280565b01359050868061118b565b909250600785016000526020600020906000935b601f1984168510611338576001945083601f1981161061131e575b505050811b0160078301556111a3565b0135600019600384901b60f8161c1916905586808061130e565b818101358355602094850194600190930192016112f3565b01359050888061111b565b909250600387016000526020600020906000935b601f19841685106113b4576001945083601f1981161061139a575b505050811b016003850155611133565b0135600019600384901b60f8161c1916905588808061138a565b8181013583556020948501946001909301920161136f565b013590508a806110c3565b909250600289016000526020600020906000935b601f1984168510611430576001945083601f19811610611416575b505050811b0160028701556110db565b0135600019600384901b60f8161c191690558a8080611406565b818101358355602094850194600190930192016113eb565b60405162461bcd60e51b81526020600482015260166024820152750537570706c79436861696e3a207072696365203e20360541b6044820152606490fd5b60405162461bcd60e51b815260206004820152601960248201527f537570706c79436861696e3a207175616e74697479203e2030000000000000006044820152606490fd5b3461023d5760208060031936011261023d576114e56144b2565b9060095460009260015b828111156116e3575061151a61150485614b73565b946115126040519687614616565b808652614b73565b601f19018360005b8281106116cd5750505060009060015b838111156115d857604080518681528751818801819052888801928201908860005b8281106115615784840385f35b85518051855280830151858401526040808201516001600160a01b0316908601526060808201519086015260808082015115159086015260a0808201519086015260c08082015115159086015260e08082015115159086015261010090810151908501529481019461012090930192600101611554565b80600052600f808652604060002060ff60069181838201541615611609575b5050505061160490614b4e565b611532565b60010154600052600d885260018060a01b03916002938385604060002001541684881614611638575b506115f7565b926116c29492600792879995611604986000528c5260406000209260405195611660876145fa565b8454875260018501548e880152840154166040860152600383015460608601526004830154821615156080860152600583015460a0860152820154808216151560c086015260081c16151560e0840152015461010082015261036f828a614b8a565b929087808080611632565b6116d5614ec4565b828289010152018490611522565b80600052600f8452604060002060ff6006820154161561170d575b5061170890614b4e565b6114ef565b600101546000908152600d855260409020600201546001600160a01b0383811691161461173b575b856116fe565b9361174861170891614b4e565b949050611735565b3461023d57604036600319011261023d57602435801515810361023d5733600052600260205260ff604060002054169060068210156103a35761179860026117a89314614bc0565b6117a06157c7565b6004356152dc565b60018055005b3461023d57600036600319011261023d576020600354604051908152f35b3461023d57602036600319011261023d576117e5614e5b565b506117ee614ec4565b506117f7614f59565b50611800615296565b50600435600052600e602052611ab3604060002060405190611821826145fa565b8054825260076001820154916020840192835260018060a01b036002820154166040850152600381015460608501526004810154608085015260ff6005820154818116151560a087015260081c16151560c085015261188260068201614637565b60e0850152015461010083015261189b8251151561524a565b51600052600d602052610291604060002091604051926118ba846145a7565b8054845260018101546020850190815260028201546001600160a01b0316604086015260038201546060860152600482015460808601526005820154909160079160ff9061190d81831660a08a01614eb8565b600881901c6001600160a01b031660c089015260a81c16151560e087015261193760068201614637565b610100870152015461012085015251600052600c60205260406000209060405191611961836145fa565b8054835260ff60086001830154926020860193845260018060a01b0360028201541660408701526003810154606087015260048101546080870152600581015460a08701526119b98360068301541660c08801614eb8565b600781015460e0870152015416151561010084015251600052600b602052611aca604060002092604051956119ed876145de565b8454875260018501546001600160a01b03166020880152611a1060028601614637565b6040880152611a2160038601614637565b606088015260048501546080880152600585015460a0880152600685015460c0880152611a5060078601614637565b60e0880152611a6a60ff6008870154166101008901614eb8565b611a7660098601614637565b61012088015260ff600b600a8701549661014097888b01520154169461016095151586890152611abe604051998a99610180808c528b01906147d4565b9360208a0190614880565b8783039088015261492a565b9184830390850152614a26565b3461023d57606036600319011261023d57611af061472c565b6001600160401b036024803582811161023d57611b1190369060040161473c565b909260443581811161023d57611b2d60ff91369060040161473c565b91909616956001948588148015611e52575b15611df2573360005260209660028852604060002095865460ff81166006811015611ddd57611d995761ff00191661010017875587870191868211611d84578190611b9482611b8e865461456d565b86614d53565b600090601f8311600114611d2157600092611d16575b5050600019600383901b1c191690881b1790555b60028501938311611d025750611bde82611bd8855461456d565b85614d53565b600090601f8311600114611c985760049493929160009183611c8d575b5050600019600383901b1c191690851b1790555b426003820155019060ff19918183825416179055336000526004835260ff6040600020541615611c69575b50507fd1459ff4cef342225fa955f3422559f5cf811e33e3aeea80b43db4c776b151d5604051914283523392a3005b611c723361515d565b33600052600483526040600020918254161790558280611c3a565b013590508880611bfb565b918591949392601f1982169084600052886000209160005b8a828210611cec575050968360049810611cd2575b505050811b019055611c0f565b0135600019600384901b60f8161c19169055888080611cc5565b838a01358555988901988a969094019301611cb0565b634e487b7160e01b60009081526041600452fd5b013590508b80611baa565b60008581528c81208c95509290601f198516908e5b828210611d6d5750508411611d53575b505050811b019055611bbe565b0135600019600384901b60f8161c191690558b8080611d46565b8385013586558e979095019492830192018e611d36565b83634e487b7160e01b60005260416004526000fd5b60405162461bcd60e51b8152600481018b9052601f818601527f537570706c79436861696e3a20616c726561647920686173206120726f6c65006044820152606490fd5b84634e487b7160e01b60005260216004526000fd5b60849060336040519162461bcd60e51b8352602060048401528201527f537570706c79436861696e3a206f6e6c79204661726d6572206f7220446973746044820152721c9a589d5d1bdc8818d85b881c995c5d595cdd606a1b6064820152fd5b5060028814611b3f565b611e6536614a10565b336000526020916002835260ff6040600020541660068110156103a3576002611e8e9114614bc0565b611e966157c7565b80600052600b83526040600020928354151580612111575b156120b55760ff6008850154169360028510156103a357600180951480156120a0575b1561204557611ffd7fc0d1700ed1206408d2c687dbf2d84c21d243ddcddd1a5dc39a3b4e1e7787fb2b9185151580612037575b611f0d9061519f565b6006810193611f27611f208654896151eb565b34146151fe565b87611f33600654614b4e565b928360065583600052600c83526040600020938455878285015560028401336001600160601b0360a01b825416179055886003850155865480600486015560058501556006840160ff1990838282541617905542600786015560088501838282541617905560058201611fa78b8254614d98565b80915515612027575b50019060018060a01b03600080808034858854165af1611fce614da5565b5015612004575b5050505492549460405191829133974291846040919493926060820195825260208201520152565b0390a48055005b601192541660005252604060002061201d348254614cd6565b9055878080611fd5565b600b82019081541690558a611fb0565b506005810154861115611f04565b60405162461bcd60e51b815260048101839052602d60248201527f537570706c79436861696e3a206e6f7420616c6c6f77656420746f206275792060448201526c0e0e4d2ecc2e8ca40c4c2e8c6d609b1b6064820152608490fd5b50808501546001600160a01b03163314611ed1565b6084906040519062461bcd60e51b82526004820152602f60248201527f537570706c79436861696e3a206661726d6572206261746368206e6f7420666f60448201526e756e64206f7220696e61637469766560881b6064820152fd5b5060ff600b85015416611eae565b3461023d57602036600319011261023d576001600160a01b036121406144b2565b16600052600260205260ff604060002080549061215f60018201614637565b6121ba61216e60028401614637565b6121ac8660046003870154960154169360405197876121908a83819b166144c8565b60081c161515602088015260c0604088015260c08701906146dc565b9085820360608701526146dc565b916080840152151560a08301520390f35b606036600319011261023d576024356004356044358015159081810361023d576121f36157c7565b82600052600d602052604060002061220d81541515614ff6565b60ff600582015460a81c161561230757611f20600461224092871515806122f9575b6122389061519f565b0154866151eb565b61229b61224e600954614b4e565b918260095582600052600f602052604060002092835584600184015560028301336001600160601b0360a01b825416179055856003840155600483019060ff801983541691151516179055565b3460058201556006810161ffff198154169055426007820155549060405193845260208401523460408401524260608401527fffaa3f2ca7a735e36b5adab1f989c6f24d937add66ec9fc7acaf5506ee01529e60803394a460018055005b50600381015488111561222f565b60405162461bcd60e51b815260206004820152601f60248201527f537570706c79436861696e3a207061636b206e6f7420617661696c61626c65006044820152606490fd5b3461023d57600036600319011261023d576020600554604051908152f35b3461023d5760208060031936011261023d576123846144b2565b60069060065490600780549160009460009560015b86811115612640575060015b858111156125e557506123ba6123c091614f09565b96614fa6565b94600060015b828111156125015750505060009160015b85811115612409576123fc886102918b8a6040519485946040865260408601906148e8565b91848303908501526149b3565b80600052600d8952604060002085815491821515806124e8575b612439575b50505061243490614b4e565b6123d7565b916124349396916124df9360405192612451846145a7565b835260018101548e84015260028101546001600160a01b0390811660408501526003820154606085015260048201546080850152600582015460ff9161249c83831660a08801614eb8565b8160081c1660c086015260a81c16151560e08401526124bc888201614637565b61010084015201546101208201526124d4828b614b8a565b5261037a818a614b8a565b9390858b612428565b5060028101546001600160a01b03868116911614612423565b80600052600c8a526040600020805490811515806125cc575b61252f575b505061252a90614b4e565b6123c6565b926125c49161252a939460405191612546836145fa565b825260018101548e83015260028101546001600160a01b031660408301526003810154606083015260048101546080830152600581015460a08301528781015460ff9160089161259b90841660c08601614eb8565b8b81015460e085015201541615156101008201526125b9828d614b8a565b5261037a818c614b8a565b91908b61251f565b5060028101546001600160a01b0388811691161461251a565b80600052600d89526040600020805415159081612626575b50612611575b61260c90614b4e565b6123a5565b9661261e61260c91614b4e565b979050612603565b600201546001600160a01b0386811691161490508a6125fd565b80600052600c89526040600020805415159081612681575b5061266c575b61266790614b4e565b612399565b9061267961266791614b4e565b91905061265e565b600201546001600160a01b0386811691161490508a612658565b3461023d57602036600319011261023d57600435600052600f602052610120604060002080549060ff60018201549160018060a01b036002820154166003820154836004840154169060058401549260076006860154950154966040519889526020890152604088015260608701521515608086015260a0850152818116151560c085015260081c16151560e0830152610100820152f35b3461023d5760208060031936011261023d5761274d6144b2565b600880549060009260015b838111156128da575061276d61150485614b73565b601f19018560005b8281106128c45750505060009160015b848111156127eb57604080518881528751818a01819052600092600582901b83018101918a8c01918c9085015b8287106127bf5785850386f35b9091929382806127db600193603f198a82030186528851614a26565b96019201960195929190926127b2565b80600052600e87526040600020805490811515806128ab575b612819575b505061281490614b4e565b612785565b946128a3916007612814949760405192612832846145fa565b835260018101548c84015260028101546001600160a01b031660408401526003810154606084015260048101546080840152600581015460ff808216151560a086015290881c16151560c084015261288c60068201614637565b60e0840152015461010082015261036f828a614b8a565b939088612809565b5060028101546001600160a01b03868116911614612804565b6128cc615296565b828289010152018690612775565b80600052600e8652604060002080541515908161291b575b50612906575b61290190614b4e565b612758565b9361291361290191614b4e565b9490506128f8565b600201546001600160a01b038481169116149050876128f2565b3461023d57600036600319011261023d576020600654604051908152f35b3461023d57604036600319011261023d5760043561296f61471c565b5033600052600260205260ff6040600020541660068110156103a35760036129979114614bc0565b80600052600e602052600560406000206129b38154151561524a565b60028101546129cc906001600160a01b03163314614de4565b0161010161ffff198254161790557f8b497a05d0ca742340c6ea9777f95403b7c38b7db415e50d58da7b92d04952146040805160018152426020820152a2005b3461023d57600036600319011261023d576000546040516001600160a01b039091168152602090f35b612a3e36614a10565b90612a476157c7565b806000526020600e81526040600020908154151580612c9b575b80612c8a575b15612c465783151580612c38575b612a7e9061519f565b6004820193612a91611f208654836151eb565b612a9c600a54614b4e565b9283600a558360005260108352604060002093845584600185015581600485015585546003850155600281019360018060a01b039182865416600583016001600160601b0360a01b91828254161790556006830190815490339082161782558488541660005260028752604060002054600660ff821610156103a35760ff60a01b9060a01b168060ff60a01b1933166affffffffffffffffffffff60a81b8416171783553360005260028852604060002054600660ff821610156103a35760ff60a81b9060a81b169161ffff60a01b1933169069ffffffffffffffffffff60b01b161717179055426007830155600080808034878b54165af1612b9d614da5565b5015612c16575b60038101612bb3858254614d98565b80915515612c04575b505493541694549160405195865285015260408401524260608401527f29783e630fdd45b25ced917bc7e004251d86b554fdf4458f4b6d68de19ce17df60803394a460018055005b600501805461ffff1916905587612bbc565b82865416600052601185526040600020612c31348254614cd6565b9055612ba4565b506003820154841115612a75565b6064906040519062461bcd60e51b82526004820152601f60248201527f537570706c79436861696e3a20756e6974206e6f7420617661696c61626c65006044820152fd5b5060ff600583015460081c16612a67565b5060ff600583015416612a61565b3461023d57602036600319011261023d57600435600052600d6020526040600020805490600181015490612d5f60018060a01b0391826002820154169460ff6003830154946004840154906005850154916007612d0860068801614637565b960154976040519a8b9a610140978c5260208c015260408b015260608a01526080890152612d3b60a08901848416614769565b8160081c1660c088015260a81c16151560e0860152806101008601528401906146dc565b906101208301520390f35b3461023d57602036600319011261023d57612d836144b2565b612d8b61581d565b6001600160a01b0316600081815260026020526040902060040154612db29060ff1661508e565b80600052600260205260ff604060002054169060068210156103a357806000526002602052604060002061ffff1981541690557f656386f7fbf5fbd79ebb5d508870678c1d0ba774d3af78f5971f7d32d0da18bd6020604051428152a3005b3461023d57602036600319011261023d5760043560005260106020526101406040600020805490612eb66001820154916002810154600382015490600483015460018060a01b039283600586015416926007600687015496015497604051998a5260208a015260408901526060880152608087015260a0860152811660c0850152612ea560e0850160ff8360a01c166144c8565b60ff61010085019160a81c166144c8565b610120820152f35b3461023d57604036600319011261023d57612ed76144b2565b612edf61471c565b612ee761581d565b6001600160a01b038216908115612fb75760ff90826000526002602052612f17826004604060002001541661508e565b1691612f2660058411156150da565b60068310156103a35781600052600260205260406000208361ffff19825416178155600342910155600460205260ff6040600020541615612f8f575b507f1ebf9c3ff339a80f8d2af7a4f2483755c64ca9ae97178045118ca0051a5b5bbb6020604051428152a3005b612f989061515d565b8060005260046020526040600020600160ff1982541617905582612f62565b60405162461bcd60e51b815260206004820152601960248201527f537570706c79436861696e3a207a65726f2061646472657373000000000000006044820152606490fd5b3461023d57600036600319011261023d5761301561581d565b600080546001600160a01b0319811682556001600160a01b03167f8be0079c531659141344cd1fd0a4f28419497f9722a3daafe3b4186f6b6457e08280a3005b3461023d57606036600319011261023d5760043561307161471c565b6044356001600160a01b03818116929083830361023d5733600052600260205260ff6040600020541660068110156103a35760026130af9114614bc0565b84600052600d6020526040600020916130ca83541515614ff6565b3382600285015416036132075760ff16916130e86001841115615042565b60028310156103a357600501936130ff8386614ce3565b845460ff811660028110156103a3576131ce57501561317b578354610100600160a81b03191660089390931b610100600160a81b03169290921783557fa954f6fe988fac0764a5205a7f69afb2bb27163cf0d9ded97f3f49358f259e4b92606092905b5460081c166040519182526020820152426040820152a2005b60405162461bcd60e51b815260206004820152602560248201527f537570706c79436861696e3a20707269766174652061646472657373207265716044820152641d5a5c995960da1b6064820152608490fd5b610100600160a81b0319168555507fa954f6fe988fac0764a5205a7f69afb2bb27163cf0d9ded97f3f49358f259e4b9360609350613162565b60405162461bcd60e51b815260206004820152601b60248201527f537570706c79436861696e3a206e6f74207061636b206f776e657200000000006044820152606490fd5b3461023d57602036600319011261023d57613265614e5b565b50600435600052600b602052604060002060ff600b60405192613287846145de565b8054845260018101546001600160a01b031660208501526132aa60028201614637565b60408501526132bb60038201614637565b606085015260048101546080850152600581015460a0850152600681015460c08501526132ea60078201614637565b60e0850152613303836008830154166101008601614eb8565b61330f60098201614637565b610120850152600a81015461014085015201541615156101608201528051156137cd5760065490600060015b8381111561377b575061334d90614f09565b91600060015b8281111561369f57505050600754600060015b82811115613536575061337890614fa6565b90600060015b828111156133c2576133a685610291866133b48a6040519586956060875260608701906147d4565b9085820360208701526148e8565b9083820360408501526149b3565b80600052600d60205260406000206007604051916133df836145a7565b805483526001810154602084015260028101546001600160a01b031660408401526003810154606084015260048101546080840152600581015460ff9061342b81831660a08701614eb8565b600881901c6001600160a01b031660c086015260a81c16151560e084015261345560068201614637565b61010084015201546101208201528051613479575b5061347490614b4e565b61337e565b6020810151600052600c602052604060002060ff60086040519261349c846145fa565b805484526001810154602085015260028101546001600160a01b031660408501526003810154606085015260048101546080850152600581015460a085015260068101546134ef90841660c08601614eb8565b600781015460e0850152015416151561010082015260206004359101510361346a578261352f91613524613474949588614b8a565b5261037a8187614b8a565b919061346a565b80600052600d6020526040600020600760405191613553836145a7565b805483526001810154602084015260028101546001600160a01b031660408401526003810154606084015260048101546080840152600581015460ff9061359f81831660a08701614eb8565b600881901c6001600160a01b031660c086015260a81c16151560e08401526135c960068201614637565b610100840152015461012082015280516135ed575b506135e890614b4e565b613366565b60200151600052600c602052604060002060ff60086040519261360f846145fa565b805484526001810154602085015260028101546001600160a01b031660408501526003810154606085015260048101546080850152600581015460a0850152600681015461366290841660c08601614eb8565b600781015460e08501520154161515610100820152602001516004351461368a575b856135de565b906136976135e891614b4e565b919050613684565b80600052600c60205260406000208054908115158061376c575b6136ce575b50506136c990614b4e565b613353565b926137649160ff60086136c99596604051936136e9856145fa565b84526001810154602085015260028101546001600160a01b031660408501526003810154606085015260048101546080850152600581015460a0850152600681015461373a90841660c08601614eb8565b600781015460e085015201541615156101008201526137598289614b8a565b5261037a8188614b8a565b9190866136be565b506004356001820154146136b9565b80600052600c60205260406000208054151590816137bd575b506137a8575b6137a390614b4e565b61333b565b906137b56137a391614b4e565b91905061379a565b6001015460043514905085613794565b60405162461bcd60e51b815260206004820152602360248201527f537570706c79436861696e3a206661726d6572206261746368206e6f7420666f6044820152621d5b9960ea1b6064820152608490fd5b3461023d57602036600319011261023d576138376144b2565b61383f614e29565b5060018060a01b03166000526002602052610291604060002060ff600460405192613869846145c3565b82815461387882821687614bb4565b60081c161515602085015261388f60018201614637565b60408501526138a060028201614637565b606085015260038101546080850152015416151560a0820152604051918291602083526020830190614776565b3461023d57600036600319011261023d576020600a54604051908152f35b3461023d57602036600319011261023d57600435600052600b6020526040600020805490600160a01b60019003600182015416906002810161392c90614637565b61393860038301614637565b600483015460058401546006850154909161395560078701614637565b91600887015460ff16936009880161396c90614637565b95600a89015498600b015460ff16976040519b8c9b610180918d5260208d01528060408d01528b0161399d916146dc565b8a810360608c01526139ae916146dc565b9260808a015260a089015260c088015286810360e08801526139cf916146dc565b9061010086016139de91614769565b8481036101208601526139f0916146dc565b9161014084015215156101608301520390f35b3461023d5760c036600319011261023d5760043560243590604435916064359260ff841680940361023d576001600160401b0360843581811161023d57613a4e90369060040161473c565b909360a43594851515860361023d5786600052602097600b8952604060002095865415613bf857600193613a8e60018060a01b03868a0154163314614de4565b80613bed575b5080613be2575b5082811115613bc6575b5082613af4575b8787613ac788600b89019060ff801983541691151516179055565b7f94175357e14197ed5c707794d9cad6f16ba39999d0adf8b6d74bdeb9127917a7604051924284523393a3005b60098501938311610c6e57613b0d83611b8e865461456d565b600090601f8411600114613b57579280600b95938193613ac7999896600094613b4c575b50501b916000199060031b1c19161790555b91928680613aac565b013592508b80613b31565b601f9392931983169185600052896000209260005b8b828210613bb257505091613ac7989795939185600b98969410613b98575b505050811b019055613b43565b0135600019600384901b60f8161c19169055898080613b8b565b848401358655948701949283019201613b6c565b60028110156103a357613bdc9060088701614ce3565b88613aa5565b600687015589613a9b565b60058801558a613a94565b60405162461bcd60e51b8152600481018b9052601e60248201527f537570706c79436861696e3a2070726f64756374206e6f7420666f756e6400006044820152606490fd5b3461023d57600036600319011261023d57613c566157c7565b33600052602060118152604060002054908115613d0e57336000526011815260006040812055600080808085335af1613c8d614da5565b5015613cca5760405191825242908201527f92ccf450a286a957af52509bc1c9939d1a6a481783e142e41e2499f0bb66ebc660403392a260018055005b6064906040519062461bcd60e51b82526004820152601c60248201527f537570706c79436861696e3a207769746864726177206661696c6564000000006044820152fd5b6064906040519062461bcd60e51b825280600483015260248201527f537570706c79436861696e3a206e6f7468696e6720746f2077697468647261776044820152fd5b3461023d57602036600319011261023d57600435600052600e60205260406000208054600182015490613df360018060a01b036002850154169360038101549260ff60048301546005840154906007613dac60068701614637565b95015496604051998a99610120968b5260208b015260408a015260608901526080880152818116151560a088015260081c16151560c08601528060e08601528401906146dc565b906101008301520390f35b3461023d57613e0c36614505565b9095929594919433600052600260205260ff6040600020541660068110156103a3576002613e3a9114614bc0565b83600052600c60205260406000209586541515806141b6575b15614154576002870154336001600160a01b03909116036140fb57613e79818714614c24565b613e84838714614c70565b60009560005b8181106140e25750600388015487116140865760005b818110613ed05788613eb6896003830154614d98565b80600383015515613ec357005b600801805460ff19169055005b613edb600754614b4e565b8060075580600052600d602052604060002090815587600182015560028101336001600160601b0360a01b825416179055613f17828489614cc6565b356003820155613f2882858d614cc6565b3560048201556005810180546001600160b01b031916600160a81b179055613f51828787614cfb565b906001600160401b038211610c6e57613f7182610b4c600686015461456d565b600090601f83116001146140125760019493929160009183614007575b5050600019600383901b1c191690841b1760068201555b4260078201558881547fb70b76668a09b3af66768dba9e78ffeff8f6ea1b1ab19d56dc5f0684f8300f3e613ffe600460038601549501549460405191829133974291846040919493926060820195825260208201520152565b0390a401613ea0565b013590508e80613f8e565b6006840160005260206000209160005b601f198516811061406e57509183916001969594938794601f19811610614054575b505050811b016006820155613fa5565b0135600019600384901b60f8161c191690558e8080614044565b90926020600181928686013581550194019101614022565b60405162461bcd60e51b815260206004820152602e60248201527f537570706c79436861696e3a2073756d2065786365656473206469737472696260448201526d75746f722062617463682071747960901b6064820152608490fd5b966140f4600191610cdd8a858a614cc6565b9701613e8a565b60405162461bcd60e51b815260206004820152602b60248201527f537570706c79436861696e3a206e6f74206f776e6572206f662064697374726960448201526a0c4eae8dee440c4c2e8c6d60ab1b6064820152608490fd5b60405162461bcd60e51b815260206004820152603460248201527f537570706c79436861696e3a206469737472696275746f72206261746368206e6044820152736f7420666f756e64206f7220696e61637469766560601b6064820152608490fd5b5060ff600888015416613e53565b3461023d57600036600319011261023d576020600854604051908152f35b3461023d5760208060031936011261023d576141fc6144b2565b600a546001600160a01b03929160009190841660015b82811115614457575061423d61422784614b73565b936142356040519586614616565b808552614b73565b601f19018460005b8281106143f95750505060009060015b838111156143135750505050604051918083018184528251809152816040850193019160005b8281106142885785850386f35b9091929382610140600192875180518252838101518483015260408101516040830152606080820151908301526080808201519083015260a08b81830151169083015260c08b8183015116908301526142e960e082015160e08401906144c8565b6142fc61010080830151908401906144c8565b61012090810151908201520195019392910161427b565b806000526010865285604060002060068101548981168a86821480156143ea575b61434c575b505050505061434790614b4e565b614255565b926143cb836143dd96946143bd6007956143479a9c986040519861436f8a6145a7565b87548a526001880154908a0152600287015460408a0152600387015460608a0152600487015460808a01526005870154169060a091828a015260c089015260ff9384911c1660e08801614bb4565b60a81c166101008501614bb4565b01546101208201526137598289614b8a565b929050858880808a614339565b50868160058601541614614334565b604051614405816145a7565b60008152600083820152600060408201526000606082015260006080820152600060a0820152600060c0820152600060e082015260006101008201526000610120820152828288010152018590614245565b8060005260108552604060002082878181600685015416149283156144a2575b50505061448d575b61448890614b4e565b614212565b9261449a61448891614b4e565b93905061447f565b6005015416149050828789614477565b600435906001600160a01b038216820361023d57565b9060068210156103a35752565b9181601f8401121561023d578235916001600160401b03831161023d576020808501948460051b01011161023d57565b608060031982011261023d57600435916001600160401b0360243581811161023d5783614534916004016144d5565b9390939260443583811161023d578261454f916004016144d5565b9390939260643591821161023d57614569916004016144d5565b9091565b90600182811c9216801561459d575b602083101461458757565b634e487b7160e01b600052602260045260246000fd5b91607f169161457c565b61014081019081106001600160401b03821117610c6e57604052565b60c081019081106001600160401b03821117610c6e57604052565b61018081019081106001600160401b03821117610c6e57604052565b61012081019081106001600160401b03821117610c6e57604052565b90601f801991011681019081106001600160401b03821117610c6e57604052565b9060405191826000825461464a8161456d565b908184526020946001916001811690816000146146ba575060011461467b575b50505061467992500383614616565b565b600090815285812095935091905b8183106146a2575050614679935082010138808061466a565b85548884018501529485019487945091830191614689565b9250505061467994925060ff191682840152151560051b82010138808061466a565b919082519283825260005b848110614708575050826000602080949584010152601f8019910116010190565b6020818301810151848301820152016146e7565b6024359060ff8216820361023d57565b6004359060ff8216820361023d57565b9181601f8401121561023d578235916001600160401b03831161023d576020838186019501011161023d57565b9060028210156103a35752565b906147828183516144c8565b60208201511515602082015260a0806147bf6147ad604086015160c0604087015260c08601906146dc565b606086015185820360608701526146dc565b93608081015160808501520151151591015290565b9061486561483e61480e6147ad6101808651865260018060a01b0360208801511660208701526040870151908060408801528601906146dc565b6080850151608085015260a085015160a085015260c085015160c085015260e085015184820360e08601526146dc565b6148516101008086015190850190614769565b6101208085015190848303908501526146dc565b91610140808201519083015261016080910151151591015290565b805182526020810151602083015260018060a01b036040820151166040830152606081015160608301526080810151608083015260a081015160a08301526148d060c082015160c0840190614769565b60e081015160e0830152610100809101511515910152565b90815180825260208080930193019160005b828110614908575050505090565b90919293826101208261491e6001948951614880565b019501939291016148fa565b906149a56101408351835260208401516020840152604084015160018060a01b038091166040850152606085015160608501526080850151608085015261497960a086015160a0860190614769565b60c08501511660c084015260e0840151151560e0840152610100908082860151928501528301906146dc565b916101208091015191015290565b90808251908181526020809101926020808460051b8301019501936000915b8483106149e25750505050505090565b9091929394958480614a00600193601f198682030187528a5161492a565b98019301930191949392906149d2565b604090600319011261023d576004359060243590565b90614a8d610120835183526020840151602084015260018060a01b036040850151166040840152606084015160608401526080840151608084015260a0840151151560a084015260c0840151151560c084015260e0840151908060e08501528301906146dc565b916101008091015191015290565b90815180825260208080930193019160005b828110614abb575050505090565b83516001600160a01b031685529381019392810192600101614aad565b90614aeb90604083526040830190614a9b565b90602090818184039101528251908183528083019281808460051b8301019501936000915b848310614b205750505050505090565b9091929394958480614b3e600193601f198682030187528a51614776565b9801930193019194939290614b10565b6000198114614b5d5760010190565b634e487b7160e01b600052601160045260246000fd5b6001600160401b038111610c6e5760051b60200190565b8051821015614b9e5760209160051b010190565b634e487b7160e01b600052603260045260246000fd5b60068210156103a35752565b15614bc757565b60405162461bcd60e51b815260206004820152602f60248201527f537570706c79436861696e3a2063616c6c657220646f6573206e6f742068617660448201526e6520726571756972656420726f6c6560881b6064820152608490fd5b15614c2b57565b60405162461bcd60e51b815260206004820152601c60248201527f537570706c79436861696e3a206c656e677468206d69736d61746368000000006044820152606490fd5b15614c7757565b60405162461bcd60e51b815260206004820152602160248201527f537570706c79436861696e3a2069706673206c656e677468206d69736d6174636044820152600d60fb1b6064820152608490fd5b9190811015614b9e5760051b0190565b91908201809211614b5d57565b9060028110156103a35760ff80198354169116179055565b9190811015614b9e5760051b81013590601e198136030182121561023d5701908135916001600160401b03831161023d57602001823603811361023d579190565b818110614d47575050565b60008155600101614d3c565b9190601f8111614d6257505050565b614679926000526020600020906020601f840160051c83019310614d8e575b601f0160051c0190614d3c565b9091508190614d81565b91908203918211614b5d57565b3d15614ddf573d906001600160401b038211610c6e5760405191614dd3601f8201601f191660200184614616565b82523d6000602084013e565b606090565b15614deb57565b60405162461bcd60e51b815260206004820152601660248201527529bab838363ca1b430b4b71d103737ba1037bbb732b960511b6044820152606490fd5b60405190614e36826145c3565b600060a083828152826020820152606060408201526060808201528260808201520152565b60405190614e68826145de565b81610160600091828152826020820152606060408201526060808201528260808201528260a08201528260c0820152606060e0820152826101008201526060610120820152826101408201520152565b60028210156103a35752565b60405190614ed1826145fa565b816101006000918281528260208201528260408201528260608201528260808201528260a08201528260c08201528260e08201520152565b90614f1382614b73565b614f206040519182614616565b8281528092614f31601f1991614b73565b019060005b828110614f4257505050565b602090614f4d614ec4565b82828501015201614f36565b60405190614f66826145a7565b816101206000918281528260208201528260408201528260608201528260808201528260a08201528260c08201528260e082015260606101008201520152565b90614fb082614b73565b614fbd6040519182614616565b8281528092614fce601f1991614b73565b019060005b828110614fdf57505050565b602090614fea614f59565b82828501015201614fd3565b15614ffd57565b60405162461bcd60e51b815260206004820152601b60248201527f537570706c79436861696e3a207061636b206e6f7420666f756e6400000000006044820152606490fd5b1561504957565b60405162461bcd60e51b815260206004820152601f60248201527f537570706c79436861696e3a20696e76616c6964207669736962696c697479006044820152606490fd5b1561509557565b60405162461bcd60e51b815260206004820152601b60248201527f537570706c79436861696e3a2075736572206e6f7420666f756e6400000000006044820152606490fd5b156150e157565b60405162461bcd60e51b815260206004820152601960248201527f537570706c79436861696e3a20696e76616c696420726f6c65000000000000006044820152606490fd5b600354811015614b9e5760036000527fc2575a0e9e593c00f959f8c92f12db2869c3395a3b0502d05e2516446f71f85b0190600090565b60035468010000000000000000811015610c6e578060016151819201600355615126565b60018060a09493941b038084549260031b9316831b921b1916179055565b156151a657565b60405162461bcd60e51b815260206004820152601860248201527f537570706c79436861696e3a20696e76616c69642071747900000000000000006044820152606490fd5b81810292918115918404141715614b5d57565b1561520557565b60405162461bcd60e51b815260206004820152601e60248201527f537570706c79436861696e3a20696e636f7272656374207061796d656e7400006044820152606490fd5b1561525157565b60405162461bcd60e51b815260206004820152601b60248201527f537570706c79436861696e3a20756e6974206e6f7420666f756e6400000000006044820152606490fd5b604051906152a3826145fa565b816101006000918281528260208201528260408201528260608201528260808201528260a08201528260c0820152606060e08201520152565b60009081526020600f81526040908183209182541561570257600683019384549260ff84166156bf5760019687860180548452600d83528484209661532388541515614ff6565b6002888101546001600160a01b039a9194908b1633036156705715908b61ffff19998a61ff00851560081b169116171790556155ed5760058101858080808454335af161536e614da5565b50156155cf575b506003810192835460038a0190815480821161557157916153998d94928f94614d98565b8091551561555d575b6153ad600854614b4e565b9788600855888152600e88528981209889558554838a015560048286019785895416848c01906001600160601b0360a01b825416179055549c60038b019d8e5501549a60048a019b8c558360058b0191825416179055600060068a01615413815461456d565b601f811161553f575b50554260078a015560ff60048601541680615500575b937fe78865c8cdcc5a0bb19ef6d81cd636fea14ba8ef2c8d07f76f7681a2039156fd938b9a989692938b7fcdf39da8f0023d4d1d194a43508204b3a50c233fa8270b04763d6410237bad849e9d956154c79c9a986154cc575b50505050505492549b8c9454169c8d9582519182524290820152a454945492549151928352602083019190915242604083015281906060820190565b0390a4565b600492858b541682528b528181209460ff19956003878254161790558a541681522001918254161790558c8e38848161548b565b50915091855416815281865260ff8882205416600681101561552b578b928d92909160031415615432565b634e487b7160e01b82526021600452602482fd5b8184528a842061555791601f0160051c810190614d3c565b3861541c565b60058b01805460ff60a81b191690556153a2565b895162461bcd60e51b815260048101899052603160248201527f537570706c79436861696e3a207061636b20646f65736e277420686176652074604482015270686174206d756368207175616e7469747960781b6064820152608490fd5b54338652601185526155e5878720918254614cd6565b905538615375565b9792985095507fe78865c8cdcc5a0bb19ef6d81cd636fea14ba8ef2c8d07f76f7681a2039156fd9450860195818754168380808060058601948554905af1615633614da5565b501561564f575b505494549554169582519182524290820152a4565b5482885416845260118952615668858520918254614cd6565b90553861563a565b875162461bcd60e51b815260048101879052602260248201527f537570706c79436861696e3a2063616c6c6572206e6f74207061636b206f776e60448201526132b960f11b6064820152608490fd5b60649083519062461bcd60e51b82526004820152601d60248201527f537570706c79436861696e3a20616c7265616479207265736f6c7665640000006044820152fd5b60649250519062461bcd60e51b82526004820152601e60248201527f537570706c79436861696e3a2072657175657374206e6f7420666f756e6400006044820152fd5b9061574f82614b73565b61575c6040519182614616565b828152809261576d601f1991614b73565b0190602036910137565b9061578182614b73565b61578e6040519182614616565b828152809261579f601f1991614b73565b019060005b8281106157b057505050565b6020906157bb614e29565b828285010152016157a4565b6002600154146157d8576002600155565b60405162461bcd60e51b815260206004820152601f60248201527f5265656e7472616e637947756172643a207265656e7472616e742063616c6c006044820152606490fd5b6000546001600160a01b0316330361583157565b606460405162461bcd60e51b815260206004820152602060248201527f4f776e61626c653a2063616c6c6572206973206e6f7420746865206f776e65726044820152fdfea2646970667358221220a238ae4be06ac3304f764fca741edea9e1f78b5d8eb3328b7bc18de005ae5dd464736f6c63430008180033",
  "linkReferences": {},
  "deployedLinkReferences": {}
}